{
  "abi": [
    {
      "anonymous": false,
      "inputs": [
        {
          "indexed": false,
          "internalType": "uint256",
          "name": "duration",
          "type": "uint256"
        },
        {
          "indexed": false,
          "internalType": "uint256",
          "name": "rewardRate",
          "type": "uint256"
        }
      ],
      "name": "DurationUpdated",
      "type": "event"
    },
    {
      "anonymous": false,
      "inputs": [
        {
          "indexed": false,
          "internalType": "address",
          "name": "_gauge",
          "type": "address"
        },
        {
          "indexed": false,
          "internalType": "address",
          "name": "rewardToken",
          "type": "address"
        },
        {
          "indexed": false,
          "internalType": "address",
          "name": "owner",
          "type": "address"
        }
      ],
      "name": "Initialized",
      "type": "event"
    },
    {
      "anonymous": false,
      "inputs": [
        {
          "indexed": true,
          "internalType": "address",
          "name": "previousOwner",
          "type": "address"
        },
        {
          "indexed": true,
          "internalType": "address",
          "name": "newOwner",
          "type": "address"
        }
      ],
      "name": "OwnershipTransferred",
      "type": "event"
    },
    {
      "anonymous": false,
      "inputs": [
        {
          "indexed": true,
          "internalType": "address",
          "name": "user",
          "type": "address"
        },
        {
          "indexed": false,
          "internalType": "uint256",
          "name": "reward",
          "type": "uint256"
        }
      ],
      "name": "RewardPaid",
      "type": "event"
    },
    {
      "anonymous": false,
      "inputs": [
        {
          "indexed": false,
          "internalType": "uint256",
          "name": "currentRewards",
          "type": "uint256"
        },
        {
          "indexed": false,
          "internalType": "uint256",
          "name": "lastUpdateTime",
          "type": "uint256"
        },
        {
          "indexed": false,
          "internalType": "uint256",
          "name": "periodFinish",
          "type": "uint256"
        },
        {
          "indexed": false,
          "internalType": "uint256",
          "name": "rewardRate",
          "type": "uint256"
        },
        {
          "indexed": false,
          "internalType": "uint256",
          "name": "historicalRewards",
          "type": "uint256"
        }
      ],
      "name": "RewardsAdded",
      "type": "event"
    },
    {
      "anonymous": false,
      "inputs": [
        {
          "indexed": false,
          "internalType": "address",
          "name": "from",
          "type": "address"
        },
        {
          "indexed": false,
          "internalType": "uint256",
          "name": "amount",
          "type": "uint256"
        }
      ],
      "name": "RewardsQueued",
      "type": "event"
    },
    {
      "anonymous": false,
      "inputs": [
        {
          "indexed": false,
          "internalType": "address",
          "name": "token",
          "type": "address"
        },
        {
          "indexed": false,
          "internalType": "uint256",
          "name": "amount",
          "type": "uint256"
        }
      ],
      "name": "Sweep",
      "type": "event"
    },
    {
      "anonymous": false,
      "inputs": [
        {
          "indexed": false,
          "internalType": "address",
          "name": "account",
          "type": "address"
        },
        {
          "indexed": false,
          "internalType": "uint256",
          "name": "rewardPerTokenStored",
          "type": "uint256"
        },
        {
          "indexed": false,
          "internalType": "uint256",
          "name": "lastUpdateTime",
          "type": "uint256"
        },
        {
          "indexed": false,
          "internalType": "uint256",
          "name": "rewards",
          "type": "uint256"
        },
        {
          "indexed": false,
          "internalType": "uint256",
          "name": "userRewardPerTokenPaid",
          "type": "uint256"
        }
      ],
      "name": "UpdatedRewards",
      "type": "event"
    },
    {
      "inputs": [],
      "name": "currentRewards",
      "outputs": [
        {
          "internalType": "uint256",
          "name": "",
          "type": "uint256"
        }
      ],
      "stateMutability": "view",
      "type": "function"
    },
    {
      "inputs": [],
      "name": "duration",
      "outputs": [
        {
          "internalType": "uint256",
          "name": "",
          "type": "uint256"
        }
      ],
      "stateMutability": "view",
      "type": "function"
    },
    {
      "inputs": [
        {
          "internalType": "address",
          "name": "account",
          "type": "address"
        }
      ],
      "name": "earned",
      "outputs": [
        {
          "internalType": "uint256",
          "name": "",
          "type": "uint256"
        }
      ],
      "stateMutability": "view",
      "type": "function"
    },
    {
      "inputs": [],
      "name": "gauge",
      "outputs": [
        {
          "internalType": "contract IGauge",
          "name": "",
          "type": "address"
        }
      ],
      "stateMutability": "view",
      "type": "function"
    },
    {
      "inputs": [],
      "name": "getReward",
      "outputs": [
        {
          "internalType": "bool",
          "name": "",
          "type": "bool"
        }
      ],
      "stateMutability": "nonpayable",
      "type": "function"
    },
    {
      "inputs": [
        {
          "internalType": "address",
          "name": "_account",
          "type": "address"
        }
      ],
      "name": "getRewardFor",
      "outputs": [
        {
          "internalType": "bool",
          "name": "",
          "type": "bool"
        }
      ],
      "stateMutability": "nonpayable",
      "type": "function"
    },
    {
      "inputs": [],
      "name": "historicalRewards",
      "outputs": [
        {
          "internalType": "uint256",
          "name": "",
          "type": "uint256"
        }
      ],
      "stateMutability": "view",
      "type": "function"
    },
    {
      "inputs": [
        {
          "internalType": "address",
          "name": "_gauge",
          "type": "address"
        },
        {
          "internalType": "address",
          "name": "_rewardToken",
          "type": "address"
        },
        {
          "internalType": "address",
          "name": "_owner",
          "type": "address"
        }
      ],
      "name": "initialize",
      "outputs": [],
      "stateMutability": "nonpayable",
      "type": "function"
    },
    {
      "inputs": [],
      "name": "lastTimeRewardApplicable",
      "outputs": [
        {
          "internalType": "uint256",
          "name": "",
          "type": "uint256"
        }
      ],
      "stateMutability": "view",
      "type": "function"
    },
    {
      "inputs": [],
      "name": "lastUpdateTime",
      "outputs": [
        {
          "internalType": "uint256",
          "name": "",
          "type": "uint256"
        }
      ],
      "stateMutability": "view",
      "type": "function"
    },
    {
      "inputs": [],
      "name": "owner",
      "outputs": [
        {
          "internalType": "address",
          "name": "",
          "type": "address"
        }
      ],
      "stateMutability": "view",
      "type": "function"
    },
    {
      "inputs": [],
      "name": "periodFinish",
      "outputs": [
        {
          "internalType": "uint256",
          "name": "",
          "type": "uint256"
        }
      ],
      "stateMutability": "view",
      "type": "function"
    },
    {
      "inputs": [
        {
          "internalType": "uint256",
          "name": "_amount",
          "type": "uint256"
        }
      ],
      "name": "queueNewRewards",
      "outputs": [
        {
          "internalType": "bool",
          "name": "",
          "type": "bool"
        }
      ],
      "stateMutability": "nonpayable",
      "type": "function"
    },
    {
      "inputs": [],
      "name": "queuedRewards",
      "outputs": [
        {
          "internalType": "uint256",
          "name": "",
          "type": "uint256"
        }
      ],
      "stateMutability": "view",
      "type": "function"
    },
    {
      "inputs": [],
      "name": "renounceOwnership",
      "outputs": [],
      "stateMutability": "nonpayable",
      "type": "function"
    },
    {
      "inputs": [
        {
          "internalType": "address",
          "name": "_account",
          "type": "address"
        }
      ],
      "name": "rewardCheckpoint",
      "outputs": [
        {
          "internalType": "bool",
          "name": "",
          "type": "bool"
        }
      ],
      "stateMutability": "nonpayable",
      "type": "function"
    },
    {
      "inputs": [],
      "name": "rewardPerToken",
      "outputs": [
        {
          "internalType": "uint256",
          "name": "",
          "type": "uint256"
        }
      ],
      "stateMutability": "view",
      "type": "function"
    },
    {
      "inputs": [],
      "name": "rewardPerTokenStored",
      "outputs": [
        {
          "internalType": "uint256",
          "name": "",
          "type": "uint256"
        }
      ],
      "stateMutability": "view",
      "type": "function"
    },
    {
      "inputs": [],
      "name": "rewardRate",
      "outputs": [
        {
          "internalType": "uint256",
          "name": "",
          "type": "uint256"
        }
      ],
      "stateMutability": "view",
      "type": "function"
    },
    {
      "inputs": [],
      "name": "rewardToken",
      "outputs": [
        {
          "internalType": "contract IERC20",
          "name": "",
          "type": "address"
        }
      ],
      "stateMutability": "view",
      "type": "function"
    },
    {
      "inputs": [
        {
          "internalType": "address",
          "name": "",
          "type": "address"
        }
      ],
      "name": "rewards",
      "outputs": [
        {
          "internalType": "uint256",
          "name": "",
          "type": "uint256"
        }
      ],
      "stateMutability": "view",
      "type": "function"
    },
    {
      "inputs": [
        {
          "internalType": "uint256",
          "name": "newDuration",
          "type": "uint256"
        }
      ],
      "name": "setDuration",
      "outputs": [],
      "stateMutability": "nonpayable",
      "type": "function"
    },
    {
      "inputs": [
        {
          "internalType": "address",
          "name": "_token",
          "type": "address"
        }
      ],
      "name": "sweep",
      "outputs": [
        {
          "internalType": "bool",
          "name": "",
          "type": "bool"
        }
      ],
      "stateMutability": "nonpayable",
      "type": "function"
    },
    {
      "inputs": [
        {
          "internalType": "address",
          "name": "newOwner",
          "type": "address"
        }
      ],
      "name": "transferOwnership",
      "outputs": [],
      "stateMutability": "nonpayable",
      "type": "function"
    },
    {
      "inputs": [
        {
          "internalType": "address",
          "name": "",
          "type": "address"
        }
      ],
      "name": "userRewardPerTokenPaid",
      "outputs": [
        {
          "internalType": "uint256",
          "name": "",
          "type": "uint256"
        }
      ],
      "stateMutability": "view",
      "type": "function"
    }
  ],
  "bytecode": "608060405234801561001057600080fd5b5061001a3361001f565b61006f565b600080546001600160a01b038381166001600160a01b0319831681178455604051919092169283917f8be0079c531659141344cd1fd0a4f28419497f9722a3daafe3b4186f6b6457e09190a35050565b6114288061007e6000396000f3fe608060405234801561001057600080fd5b50600436106101725760003560e01c80638b876347116100de578063c8f33c9111610097578063ebe2b12b11610071578063ebe2b12b146102e5578063f2fde38b146102ee578063f6be71d114610301578063f7c618c11461031457600080fd5b8063c8f33c91146102cb578063cd3daf9d146102d4578063df136d65146102dc57600080fd5b80638b876347146102445780638da5cb5b14610264578063901a7d5314610289578063a32079b814610292578063a6f19c84146102a5578063c0c53b8b146102b857600080fd5b80633d18b912116101305780633d18b91214610205578063590a41f51461020d57806363d38c3b14610220578063715018a6146102295780637b0a47ee1461023357806380faa57d1461023c57600080fd5b80628cc2621461017757806301681a621461019d578063055de275146101c05780630700037d146101d35780630fb5a6b4146101f3578063262d3d6d146101fc575b600080fd5b61018a61018536600461120a565b610327565b6040519081526020015b60405180910390f35b6101b06101ab36600461120a565b610338565b6040519015158152602001610194565b6101b06101ce36600461120a565b610492565b61018a6101e136600461120a565b600b6020526000908152604090205481565b61018a60025481565b61018a60095481565b6101b0610534565b6101b061021b366004611225565b610547565b61018a60075481565b610231610666565b005b61018a60045481565b61018a61069c565b61018a61025236600461120a565b600a6020526000908152604090205481565b6000546001600160a01b03165b6040516001600160a01b039091168152602001610194565b61018a60085481565b6101b06102a036600461120a565b6106af565b600c54610271906001600160a01b031681565b6102316102c636600461123e565b61070c565b61018a60055481565b61018a610854565b61018a60065481565b61018a60035481565b6102316102fc36600461120a565b61085e565b61023161030f366004611225565b6108f9565b600154610271906001600160a01b031681565b6000610332826109b3565b92915050565b600080546001600160a01b0316331461036c5760405162461bcd60e51b815260040161036390611281565b60405180910390fd5b6001546001600160a01b03838116911614156103bc5760405162461bcd60e51b815260206004820152600f60248201526e383937ba32b1ba32b2103a37b5b2b760891b6044820152606401610363565b6040516370a0823160e01b81523060048201526000906001600160a01b038416906370a0823190602401602060405180830381865afa158015610403573d6000803e3d6000fd5b505050506040513d601f19601f8201168201806040525081019061042791906112b6565b90506104458361043f6000546001600160a01b031690565b83610a6b565b604080516001600160a01b0385168152602081018390527fab2246061d7b0dd3631d037e3f6da75782ae489eeb9f6af878a4b25df9b07c77910160405180910390a160019150505b919050565b60008161049e81610ad3565b6001600160a01b0383166000908152600b6020526040902054801561052a576001600160a01b038085166000908152600b60205260408120556001546104e691168583610a6b565b836001600160a01b03167fe2403640ba68fed3a2f88b7557551d1993f84b99bb10ff833f0cf8db0c5e04868260405161052191815260200190565b60405180910390a25b5060019392505050565b600061053f33610492565b506001905090565b60008161057c5760405162461bcd60e51b815260206004820152600360248201526203d3d360ec1b6044820152606401610363565b600154610594906001600160a01b0316333085610be3565b60408051338152602081018490527f1c88aa9a39b1a6357a85c97a3bd4e2b0738e74c68b92928276bc85f495b2450b910160405180910390a16007546105da90836112e5565b915060035442106105fa576105ee82610c1b565b50506000600755600190565b600060025460035461060c91906112fd565b61061690426112fd565b90506000600454826106289190611314565b905083600a61063883600c611314565b6106429190611333565b101561065b5761065184610c1b565b600060075561052a565b505050600755600190565b6000546001600160a01b031633146106905760405162461bcd60e51b815260040161036390611281565b61069a6000610d11565b565b60006106aa42600354610d61565b905090565b6000816106bb81610ad3565b600c546001600160a01b031633146107035760405162461bcd60e51b815260206004820152600b60248201526a08585d5d1a1bdc9a5e995960aa1b6044820152606401610363565b50600192915050565b600054600160a81b900460ff1661073057600054600160a01b900460ff1615610734565b303b155b6107975760405162461bcd60e51b815260206004820152602e60248201527f496e697469616c697a61626c653a20636f6e747261637420697320616c72656160448201526d191e481a5b9a5d1a585b1a5e995960921b6064820152608401610363565b600054600160a81b900460ff161580156107c1576000805461ffff60a01b191661010160a01b1790555b6107cb8383610d79565b600c80546001600160a01b038681166001600160a01b03199283168117909355600180548783169316831790556040805193845260208401929092528416908201527fad307780531f6353137c35adc50ad58d71b76e76aa891e729387f2e720f2de209060600160405180910390a1801561084e576000805460ff60a81b191690555b50505050565b60006106aa610dfe565b6000546001600160a01b031633146108885760405162461bcd60e51b815260040161036390611281565b6001600160a01b0381166108ed5760405162461bcd60e51b815260206004820152602660248201527f4f776e61626c653a206e6577206f776e657220697320746865207a65726f206160448201526564647265737360d01b6064820152608401610363565b6108f681610d11565b50565b6000546001600160a01b031633146109235760405162461bcd60e51b815260040161036390611281565b600061092e81610ad3565b60035442101561096c5760004260035461094891906112fd565b905060006004548261095a9190611314565b90506109668482611333565b60045550505b60028290556004546040805184815260208101929092527ff899c6d536e6cda78c5f4dce43ca0e8c47167deb2875ea8b777f21cc85899b1f91015b60405180910390a15050565b6001600160a01b0381166000908152600a6020526040812054670de0b6b3a7640000906109de610dfe565b6109e891906112fd565b600c54604051630df55e6960e11b81526001600160a01b03868116600483015290911690631beabcd2906024015b602060405180830381865afa158015610a33573d6000803e3d6000fd5b505050506040513d601f19601f82011682018060405250810190610a5791906112b6565b610a619190611314565b6103329190611333565b6040516001600160a01b038316602482015260448101829052610ace90849063a9059cbb60e01b906064015b60408051601f198184030181529190526020810180516001600160e01b03166001600160e01b031990931692909217909152610f39565b505050565b610adb610dfe565b600655610ae661069c565b6005556001600160a01b038116156108f6576000610b03826109b3565b90506000610b108361100b565b6001600160a01b0384166000908152600b6020526040812080549293508492909190610b3d9084906112e5565b90915550610b4d905082826112fd565b60076000828254610b5e91906112e5565b90915550506006546001600160a01b0384166000818152600a60208181526040808420869055600554600b835293819020549282528051948552908401859052830191909152606082015260808101919091527ffbe590c835e1c07f8e971c36021d1be46f43f7b0b6dc5413dbd5753590569d589060a00160405180910390a1505050565b6040516001600160a01b038085166024830152831660448201526064810182905261084e9085906323b872dd60e01b90608401610a97565b6000610c2681610ad3565b81600954610c3491906112e5565b6009556003544210610c5557600254610c4d9083611333565b600455610c99565b600042600354610c6591906112fd565b9050600060045482610c779190611314565b9050610c8381856112e5565b935060025484610c939190611333565b60045550505b6008829055426005819055600254610cb0916112e5565b600381905560085460055460045460095460408051948552602085019390935291830193909352606082019290925260808101919091527f944ffd3678415a15cbfef07dd7d9f20cdc6f36d12588a4ba7e8eb440f32c61be9060a0016109a7565b600080546001600160a01b038381166001600160a01b0319831681178455604051919092169283917f8be0079c531659141344cd1fd0a4f28419497f9722a3daafe3b4186f6b6457e09190a35050565b6000818310610d705781610d72565b825b9392505050565b6001600160a01b038216610dcf5760405162461bcd60e51b815260206004820152601860248201527f5f726577617264546f6b656e20307830206164647265737300000000000000006044820152606401610363565b600180546001600160a01b0319166001600160a01b03841617905562093a80600255610dfa81610d11565b5050565b600c54604080516318160ddd60e01b815290516000926001600160a01b0316916318160ddd9160048083019260209291908290030181865afa158015610e48573d6000803e3d6000fd5b505050506040513d601f19601f82011682018060405250810190610e6c91906112b6565b610e77575060065490565b600c60009054906101000a90046001600160a01b03166001600160a01b03166318160ddd6040518163ffffffff1660e01b8152600401602060405180830381865afa158015610eca573d6000803e3d6000fd5b505050506040513d601f19601f82011682018060405250810190610eee91906112b6565b600454600554610efc61069c565b610f0691906112fd565b610f109190611314565b610f2290670de0b6b3a7640000611314565b610f2c9190611333565b6006546106aa91906112e5565b6000610f8e826040518060400160405280602081526020017f5361666545524332303a206c6f772d6c6576656c2063616c6c206661696c6564815250856001600160a01b03166110729092919063ffffffff16565b805190915015610ace5780806020019051810190610fac9190611355565b610ace5760405162461bcd60e51b815260206004820152602a60248201527f5361666545524332303a204552433230206f7065726174696f6e20646964206e6044820152691bdd081cdd58d8d9595960b21b6064820152608401610363565b6001600160a01b0381166000908152600a6020526040812054670de0b6b3a764000090611036610dfe565b61104091906112fd565b600c546040516370a0823160e01b81526001600160a01b038681166004830152909116906370a0823190602401610a16565b60606110818484600085611089565b949350505050565b6060824710156110ea5760405162461bcd60e51b815260206004820152602660248201527f416464726573733a20696e73756666696369656e742062616c616e636520666f6044820152651c8818d85b1b60d21b6064820152608401610363565b6001600160a01b0385163b6111415760405162461bcd60e51b815260206004820152601d60248201527f416464726573733a2063616c6c20746f206e6f6e2d636f6e74726163740000006044820152606401610363565b600080866001600160a01b0316858760405161115d91906113a3565b60006040518083038185875af1925050503d806000811461119a576040519150601f19603f3d011682016040523d82523d6000602084013e61119f565b606091505b50915091506111af8282866111ba565b979650505050505050565b606083156111c9575081610d72565b8251156111d95782518084602001fd5b8160405162461bcd60e51b815260040161036391906113bf565b80356001600160a01b038116811461048d57600080fd5b60006020828403121561121c57600080fd5b610d72826111f3565b60006020828403121561123757600080fd5b5035919050565b60008060006060848603121561125357600080fd5b61125c846111f3565b925061126a602085016111f3565b9150611278604085016111f3565b90509250925092565b6020808252818101527f4f776e61626c653a2063616c6c6572206973206e6f7420746865206f776e6572604082015260600190565b6000602082840312156112c857600080fd5b5051919050565b634e487b7160e01b600052601160045260246000fd5b600082198211156112f8576112f86112cf565b500190565b60008282101561130f5761130f6112cf565b500390565b600081600019048311821515161561132e5761132e6112cf565b500290565b60008261135057634e487b7160e01b600052601260045260246000fd5b500490565b60006020828403121561136757600080fd5b81518015158114610d7257600080fd5b60005b8381101561139257818101518382015260200161137a565b8381111561084e5750506000910152565b600082516113b5818460208701611377565b9190910192915050565b60208152600082518060208401526113de816040850160208701611377565b601f01601f1916919091016040019291505056fea2646970667358221220757ae7b29adfaec54467ed85f775ec19f7b7cabd80e372c37e6ea64c16d967bb64736f6c634300080c0033",
  "bytecodeSha1": "0c40126e8fb26983fb9e0bfa6c41423356e2e770",
  "compiler": {
    "evm_version": "istanbul",
    "optimizer": {
      "enabled": true,
      "runs": 200
    },
    "version": "0.8.12+commit.f00d7308"
  },
  "contractName": "ExtraReward",
  "language": "Solidity",
  "natspec": {
    "details": "this contract is used behind multiple delegate proxies.",
    "kind": "dev",
    "methods": {
      "earned(address)": {
        "details": "earning are based on lock duration and boost",
        "notice": "earning for an account",
        "returns": {
          "_0": "amount of tokens earned"
        }
      },
      "getRewardFor(address)": {
        "notice": "Get rewards",
        "params": {
          "_account": "claim extra rewards"
        },
        "returns": {
          "_0": "true"
        }
      },
      "initialize(address,address,address)": {
        "notice": "Initialize the contract after a clone.",
        "params": {
          "_gauge": "the associated Gauge address",
          "_owner": "owner",
          "_rewardToken": "the reward token to be distributed"
        }
      },
      "lastTimeRewardApplicable()": {
        "returns": {
          "_0": "timestamp until rewards are distributed"
        }
      },
      "owner()": {
        "details": "Returns the address of the current owner."
      },
      "queueNewRewards(uint256)": {
        "details": "Triger rewardRate recalculation using _amount and queuedRewards",
        "notice": "Add new rewards to be distributed over a week",
        "params": {
          "_amount": "token to add to rewards"
        },
        "returns": {
          "_0": "true"
        }
      },
      "queuedRewards()": {
        "notice": "that are queued to be distributed on a `queueNewRewards` call"
      },
      "renounceOwnership()": {
        "details": "Leaves the contract without owner. It will not be possible to call `onlyOwner` functions anymore. Can only be called by the current owner. NOTE: Renouncing ownership will leave the contract without an owner, thereby removing any functionality that is only available to the owner."
      },
      "rewardCheckpoint(address)": {
        "details": "called by the underlying gauge",
        "notice": "update reward for an account",
        "params": {
          "_account": "to update"
        },
        "returns": {
          "_0": "true"
        }
      },
      "rewardPerToken()": {
        "details": "gives the total amount of rewards distributed since inception of the pool per vault token",
        "notice": "reward per token deposited",
        "returns": {
          "_0": "rewardPerToken"
        }
      },
      "transferOwnership(address)": {
        "details": "Transfers ownership of the contract to a new account (`newOwner`). Can only be called by the current owner."
      }
    },
    "notice": "An ExtraReward is associated with a gauge and a token. Balances are managed by the associated Gauge. Gauge will",
    "title": "Extra Rewards for a Gauge",
    "version": 1
  },
  "opcodes": "PUSH1 0x80 PUSH1 0x40 MSTORE CALLVALUE DUP1 ISZERO PUSH2 0x10 JUMPI PUSH1 0x0 DUP1 REVERT JUMPDEST POP PUSH1 0x4 CALLDATASIZE LT PUSH2 0x172 JUMPI PUSH1 0x0 CALLDATALOAD PUSH1 0xE0 SHR DUP1 PUSH4 0x8B876347 GT PUSH2 0xDE JUMPI DUP1 PUSH4 0xC8F33C91 GT PUSH2 0x97 JUMPI DUP1 PUSH4 0xEBE2B12B GT PUSH2 0x71 JUMPI DUP1 PUSH4 0xEBE2B12B EQ PUSH2 0x2E5 JUMPI DUP1 PUSH4 0xF2FDE38B EQ PUSH2 0x2EE JUMPI DUP1 PUSH4 0xF6BE71D1 EQ PUSH2 0x301 JUMPI DUP1 PUSH4 0xF7C618C1 EQ PUSH2 0x314 JUMPI PUSH1 0x0 DUP1 REVERT JUMPDEST DUP1 PUSH4 0xC8F33C91 EQ PUSH2 0x2CB JUMPI DUP1 PUSH4 0xCD3DAF9D EQ PUSH2 0x2D4 JUMPI DUP1 PUSH4 0xDF136D65 EQ PUSH2 0x2DC JUMPI PUSH1 0x0 DUP1 REVERT JUMPDEST DUP1 PUSH4 0x8B876347 EQ PUSH2 0x244 JUMPI DUP1 PUSH4 0x8DA5CB5B EQ PUSH2 0x264 JUMPI DUP1 PUSH4 0x901A7D53 EQ PUSH2 0x289 JUMPI DUP1 PUSH4 0xA32079B8 EQ PUSH2 0x292 JUMPI DUP1 PUSH4 0xA6F19C84 EQ PUSH2 0x2A5 JUMPI DUP1 PUSH4 0xC0C53B8B EQ PUSH2 0x2B8 JUMPI PUSH1 0x0 DUP1 REVERT JUMPDEST DUP1 PUSH4 0x3D18B912 GT PUSH2 0x130 JUMPI DUP1 PUSH4 0x3D18B912 EQ PUSH2 0x205 JUMPI DUP1 PUSH4 0x590A41F5 EQ PUSH2 0x20D JUMPI DUP1 PUSH4 0x63D38C3B EQ PUSH2 0x220 JUMPI DUP1 PUSH4 0x715018A6 EQ PUSH2 0x229 JUMPI DUP1 PUSH4 0x7B0A47EE EQ PUSH2 0x233 JUMPI DUP1 PUSH4 0x80FAA57D EQ PUSH2 0x23C JUMPI PUSH1 0x0 DUP1 REVERT JUMPDEST DUP1 PUSH3 0x8CC262 EQ PUSH2 0x177 JUMPI DUP1 PUSH4 0x1681A62 EQ PUSH2 0x19D JUMPI DUP1 PUSH4 0x55DE275 EQ PUSH2 0x1C0 JUMPI DUP1 PUSH4 0x700037D EQ PUSH2 0x1D3 JUMPI DUP1 PUSH4 0xFB5A6B4 EQ PUSH2 0x1F3 JUMPI DUP1 PUSH4 0x262D3D6D EQ PUSH2 0x1FC JUMPI JUMPDEST PUSH1 0x0 DUP1 REVERT JUMPDEST PUSH2 0x18A PUSH2 0x185 CALLDATASIZE PUSH1 0x4 PUSH2 0x120A JUMP JUMPDEST PUSH2 0x327 JUMP JUMPDEST PUSH1 0x40 MLOAD SWAP1 DUP2 MSTORE PUSH1 0x20 ADD JUMPDEST PUSH1 0x40 MLOAD DUP1 SWAP2 SUB SWAP1 RETURN JUMPDEST PUSH2 0x1B0 PUSH2 0x1AB CALLDATASIZE PUSH1 0x4 PUSH2 0x120A JUMP JUMPDEST PUSH2 0x338 JUMP JUMPDEST PUSH1 0x40 MLOAD SWAP1 ISZERO ISZERO DUP2 MSTORE PUSH1 0x20 ADD PUSH2 0x194 JUMP JUMPDEST PUSH2 0x1B0 PUSH2 0x1CE CALLDATASIZE PUSH1 0x4 PUSH2 0x120A JUMP JUMPDEST PUSH2 0x492 JUMP JUMPDEST PUSH2 0x18A PUSH2 0x1E1 CALLDATASIZE PUSH1 0x4 PUSH2 0x120A JUMP JUMPDEST PUSH1 0xB PUSH1 0x20 MSTORE PUSH1 0x0 SWAP1 DUP2 MSTORE PUSH1 0x40 SWAP1 KECCAK256 SLOAD DUP2 JUMP JUMPDEST PUSH2 0x18A PUSH1 0x2 SLOAD DUP2 JUMP JUMPDEST PUSH2 0x18A PUSH1 0x9 SLOAD DUP2 JUMP JUMPDEST PUSH2 0x1B0 PUSH2 0x534 JUMP JUMPDEST PUSH2 0x1B0 PUSH2 0x21B CALLDATASIZE PUSH1 0x4 PUSH2 0x1225 JUMP JUMPDEST PUSH2 0x547 JUMP JUMPDEST PUSH2 0x18A PUSH1 0x7 SLOAD DUP2 JUMP JUMPDEST PUSH2 0x231 PUSH2 0x666 JUMP JUMPDEST STOP JUMPDEST PUSH2 0x18A PUSH1 0x4 SLOAD DUP2 JUMP JUMPDEST PUSH2 0x18A PUSH2 0x69C JUMP JUMPDEST PUSH2 0x18A PUSH2 0x252 CALLDATASIZE PUSH1 0x4 PUSH2 0x120A JUMP JUMPDEST PUSH1 0xA PUSH1 0x20 MSTORE PUSH1 0x0 SWAP1 DUP2 MSTORE PUSH1 0x40 SWAP1 KECCAK256 SLOAD DUP2 JUMP JUMPDEST PUSH1 0x0 SLOAD PUSH1 0x1 PUSH1 0x1 PUSH1 0xA0 SHL SUB AND JUMPDEST PUSH1 0x40 MLOAD PUSH1 0x1 PUSH1 0x1 PUSH1 0xA0 SHL SUB SWAP1 SWAP2 AND DUP2 MSTORE PUSH1 0x20 ADD PUSH2 0x194 JUMP JUMPDEST PUSH2 0x18A PUSH1 0x8 SLOAD DUP2 JUMP JUMPDEST PUSH2 0x1B0 PUSH2 0x2A0 CALLDATASIZE PUSH1 0x4 PUSH2 0x120A JUMP JUMPDEST PUSH2 0x6AF JUMP JUMPDEST PUSH1 0xC SLOAD PUSH2 0x271 SWAP1 PUSH1 0x1 PUSH1 0x1 PUSH1 0xA0 SHL SUB AND DUP2 JUMP JUMPDEST PUSH2 0x231 PUSH2 0x2C6 CALLDATASIZE PUSH1 0x4 PUSH2 0x123E JUMP JUMPDEST PUSH2 0x70C JUMP JUMPDEST PUSH2 0x18A PUSH1 0x5 SLOAD DUP2 JUMP JUMPDEST PUSH2 0x18A PUSH2 0x854 JUMP JUMPDEST PUSH2 0x18A PUSH1 0x6 SLOAD DUP2 JUMP JUMPDEST PUSH2 0x18A PUSH1 0x3 SLOAD DUP2 JUMP JUMPDEST PUSH2 0x231 PUSH2 0x2FC CALLDATASIZE PUSH1 0x4 PUSH2 0x120A JUMP JUMPDEST PUSH2 0x85E JUMP JUMPDEST PUSH2 0x231 PUSH2 0x30F CALLDATASIZE PUSH1 0x4 PUSH2 0x1225 JUMP JUMPDEST PUSH2 0x8F9 JUMP JUMPDEST PUSH1 0x1 SLOAD PUSH2 0x271 SWAP1 PUSH1 0x1 PUSH1 0x1 PUSH1 0xA0 SHL SUB AND DUP2 JUMP JUMPDEST PUSH1 0x0 PUSH2 0x332 DUP3 PUSH2 0x9B3 JUMP JUMPDEST SWAP3 SWAP2 POP POP JUMP JUMPDEST PUSH1 0x0 DUP1 SLOAD PUSH1 0x1 PUSH1 0x1 PUSH1 0xA0 SHL SUB AND CALLER EQ PUSH2 0x36C JUMPI PUSH1 0x40 MLOAD PUSH3 0x461BCD PUSH1 0xE5 SHL DUP2 MSTORE PUSH1 0x4 ADD PUSH2 0x363 SWAP1 PUSH2 0x1281 JUMP JUMPDEST PUSH1 0x40 MLOAD DUP1 SWAP2 SUB SWAP1 REVERT JUMPDEST PUSH1 0x1 SLOAD PUSH1 0x1 PUSH1 0x1 PUSH1 0xA0 SHL SUB DUP4 DUP2 AND SWAP2 AND EQ ISZERO PUSH2 0x3BC JUMPI PUSH1 0x40 MLOAD PUSH3 0x461BCD PUSH1 0xE5 SHL DUP2 MSTORE PUSH1 0x20 PUSH1 0x4 DUP3 ADD MSTORE PUSH1 0xF PUSH1 0x24 DUP3 ADD MSTORE PUSH15 0x383937BA32B1BA32B2103A37B5B2B7 PUSH1 0x89 SHL PUSH1 0x44 DUP3 ADD MSTORE PUSH1 0x64 ADD PUSH2 0x363 JUMP JUMPDEST PUSH1 0x40 MLOAD PUSH4 0x70A08231 PUSH1 0xE0 SHL DUP2 MSTORE ADDRESS PUSH1 0x4 DUP3 ADD MSTORE PUSH1 0x0 SWAP1 PUSH1 0x1 PUSH1 0x1 PUSH1 0xA0 SHL SUB DUP5 AND SWAP1 PUSH4 0x70A08231 SWAP1 PUSH1 0x24 ADD PUSH1 0x20 PUSH1 0x40 MLOAD DUP1 DUP4 SUB DUP2 DUP7 GAS STATICCALL ISZERO DUP1 ISZERO PUSH2 0x403 JUMPI RETURNDATASIZE PUSH1 0x0 DUP1 RETURNDATACOPY RETURNDATASIZE PUSH1 0x0 REVERT JUMPDEST POP POP POP POP PUSH1 0x40 MLOAD RETURNDATASIZE PUSH1 0x1F NOT PUSH1 0x1F DUP3 ADD AND DUP3 ADD DUP1 PUSH1 0x40 MSTORE POP DUP2 ADD SWAP1 PUSH2 0x427 SWAP2 SWAP1 PUSH2 0x12B6 JUMP JUMPDEST SWAP1 POP PUSH2 0x445 DUP4 PUSH2 0x43F PUSH1 0x0 SLOAD PUSH1 0x1 PUSH1 0x1 PUSH1 0xA0 SHL SUB AND SWAP1 JUMP JUMPDEST DUP4 PUSH2 0xA6B JUMP JUMPDEST PUSH1 0x40 DUP1 MLOAD PUSH1 0x1 PUSH1 0x1 PUSH1 0xA0 SHL SUB DUP6 AND DUP2 MSTORE PUSH1 0x20 DUP2 ADD DUP4 SWAP1 MSTORE PUSH32 0xAB2246061D7B0DD3631D037E3F6DA75782AE489EEB9F6AF878A4B25DF9B07C77 SWAP2 ADD PUSH1 0x40 MLOAD DUP1 SWAP2 SUB SWAP1 LOG1 PUSH1 0x1 SWAP2 POP POP JUMPDEST SWAP2 SWAP1 POP JUMP JUMPDEST PUSH1 0x0 DUP2 PUSH2 0x49E DUP2 PUSH2 0xAD3 JUMP JUMPDEST PUSH1 0x1 PUSH1 0x1 PUSH1 0xA0 SHL SUB DUP4 AND PUSH1 0x0 SWAP1 DUP2 MSTORE PUSH1 0xB PUSH1 0x20 MSTORE PUSH1 0x40 SWAP1 KECCAK256 SLOAD DUP1 ISZERO PUSH2 0x52A JUMPI PUSH1 0x1 PUSH1 0x1 PUSH1 0xA0 SHL SUB DUP1 DUP6 AND PUSH1 0x0 SWAP1 DUP2 MSTORE PUSH1 0xB PUSH1 0x20 MSTORE PUSH1 0x40 DUP2 KECCAK256 SSTORE PUSH1 0x1 SLOAD PUSH2 0x4E6 SWAP2 AND DUP6 DUP4 PUSH2 0xA6B JUMP JUMPDEST DUP4 PUSH1 0x1 PUSH1 0x1 PUSH1 0xA0 SHL SUB AND PUSH32 0xE2403640BA68FED3A2F88B7557551D1993F84B99BB10FF833F0CF8DB0C5E0486 DUP3 PUSH1 0x40 MLOAD PUSH2 0x521 SWAP2 DUP2 MSTORE PUSH1 0x20 ADD SWAP1 JUMP JUMPDEST PUSH1 0x40 MLOAD DUP1 SWAP2 SUB SWAP1 LOG2 JUMPDEST POP PUSH1 0x1 SWAP4 SWAP3 POP POP POP JUMP JUMPDEST PUSH1 0x0 PUSH2 0x53F CALLER PUSH2 0x492 JUMP JUMPDEST POP PUSH1 0x1 SWAP1 POP SWAP1 JUMP JUMPDEST PUSH1 0x0 DUP2 PUSH2 0x57C JUMPI PUSH1 0x40 MLOAD PUSH3 0x461BCD PUSH1 0xE5 SHL DUP2 MSTORE PUSH1 0x20 PUSH1 0x4 DUP3 ADD MSTORE PUSH1 0x3 PUSH1 0x24 DUP3 ADD MSTORE PUSH3 0x3D3D3 PUSH1 0xEC SHL PUSH1 0x44 DUP3 ADD MSTORE PUSH1 0x64 ADD PUSH2 0x363 JUMP JUMPDEST PUSH1 0x1 SLOAD PUSH2 0x594 SWAP1 PUSH1 0x1 PUSH1 0x1 PUSH1 0xA0 SHL SUB AND CALLER ADDRESS DUP6 PUSH2 0xBE3 JUMP JUMPDEST PUSH1 0x40 DUP1 MLOAD CALLER DUP2 MSTORE PUSH1 0x20 DUP2 ADD DUP5 SWAP1 MSTORE PUSH32 0x1C88AA9A39B1A6357A85C97A3BD4E2B0738E74C68B92928276BC85F495B2450B SWAP2 ADD PUSH1 0x40 MLOAD DUP1 SWAP2 SUB SWAP1 LOG1 PUSH1 0x7 SLOAD PUSH2 0x5DA SWAP1 DUP4 PUSH2 0x12E5 JUMP JUMPDEST SWAP2 POP PUSH1 0x3 SLOAD TIMESTAMP LT PUSH2 0x5FA JUMPI PUSH2 0x5EE DUP3 PUSH2 0xC1B JUMP JUMPDEST POP POP PUSH1 0x0 PUSH1 0x7 SSTORE PUSH1 0x1 SWAP1 JUMP JUMPDEST PUSH1 0x0 PUSH1 0x2 SLOAD PUSH1 0x3 SLOAD PUSH2 0x60C SWAP2 SWAP1 PUSH2 0x12FD JUMP JUMPDEST PUSH2 0x616 SWAP1 TIMESTAMP PUSH2 0x12FD JUMP JUMPDEST SWAP1 POP PUSH1 0x0 PUSH1 0x4 SLOAD DUP3 PUSH2 0x628 SWAP2 SWAP1 PUSH2 0x1314 JUMP JUMPDEST SWAP1 POP DUP4 PUSH1 0xA PUSH2 0x638 DUP4 PUSH1 0xC PUSH2 0x1314 JUMP JUMPDEST PUSH2 0x642 SWAP2 SWAP1 PUSH2 0x1333 JUMP JUMPDEST LT ISZERO PUSH2 0x65B JUMPI PUSH2 0x651 DUP5 PUSH2 0xC1B JUMP JUMPDEST PUSH1 0x0 PUSH1 0x7 SSTORE PUSH2 0x52A JUMP JUMPDEST POP POP POP PUSH1 0x7 SSTORE PUSH1 0x1 SWAP1 JUMP JUMPDEST PUSH1 0x0 SLOAD PUSH1 0x1 PUSH1 0x1 PUSH1 0xA0 SHL SUB AND CALLER EQ PUSH2 0x690 JUMPI PUSH1 0x40 MLOAD PUSH3 0x461BCD PUSH1 0xE5 SHL DUP2 MSTORE PUSH1 0x4 ADD PUSH2 0x363 SWAP1 PUSH2 0x1281 JUMP JUMPDEST PUSH2 0x69A PUSH1 0x0 PUSH2 0xD11 JUMP JUMPDEST JUMP JUMPDEST PUSH1 0x0 PUSH2 0x6AA TIMESTAMP PUSH1 0x3 SLOAD PUSH2 0xD61 JUMP JUMPDEST SWAP1 POP SWAP1 JUMP JUMPDEST PUSH1 0x0 DUP2 PUSH2 0x6BB DUP2 PUSH2 0xAD3 JUMP JUMPDEST PUSH1 0xC SLOAD PUSH1 0x1 PUSH1 0x1 PUSH1 0xA0 SHL SUB AND CALLER EQ PUSH2 0x703 JUMPI PUSH1 0x40 MLOAD PUSH3 0x461BCD PUSH1 0xE5 SHL DUP2 MSTORE PUSH1 0x20 PUSH1 0x4 DUP3 ADD MSTORE PUSH1 0xB PUSH1 0x24 DUP3 ADD MSTORE PUSH11 0x8585D5D1A1BDC9A5E9959 PUSH1 0xAA SHL PUSH1 0x44 DUP3 ADD MSTORE PUSH1 0x64 ADD PUSH2 0x363 JUMP JUMPDEST POP PUSH1 0x1 SWAP3 SWAP2 POP POP JUMP JUMPDEST PUSH1 0x0 SLOAD PUSH1 0x1 PUSH1 0xA8 SHL SWAP1 DIV PUSH1 0xFF AND PUSH2 0x730 JUMPI PUSH1 0x0 SLOAD PUSH1 0x1 PUSH1 0xA0 SHL SWAP1 DIV PUSH1 0xFF AND ISZERO PUSH2 0x734 JUMP JUMPDEST ADDRESS EXTCODESIZE ISZERO JUMPDEST PUSH2 0x797 JUMPI PUSH1 0x40 MLOAD PUSH3 0x461BCD PUSH1 0xE5 SHL DUP2 MSTORE PUSH1 0x20 PUSH1 0x4 DUP3 ADD MSTORE PUSH1 0x2E PUSH1 0x24 DUP3 ADD MSTORE PUSH32 0x496E697469616C697A61626C653A20636F6E747261637420697320616C726561 PUSH1 0x44 DUP3 ADD MSTORE PUSH14 0x191E481A5B9A5D1A585B1A5E9959 PUSH1 0x92 SHL PUSH1 0x64 DUP3 ADD MSTORE PUSH1 0x84 ADD PUSH2 0x363 JUMP JUMPDEST PUSH1 0x0 SLOAD PUSH1 0x1 PUSH1 0xA8 SHL SWAP1 DIV PUSH1 0xFF AND ISZERO DUP1 ISZERO PUSH2 0x7C1 JUMPI PUSH1 0x0 DUP1 SLOAD PUSH2 0xFFFF PUSH1 0xA0 SHL NOT AND PUSH2 0x101 PUSH1 0xA0 SHL OR SWAP1 SSTORE JUMPDEST PUSH2 0x7CB DUP4 DUP4 PUSH2 0xD79 JUMP JUMPDEST PUSH1 0xC DUP1 SLOAD PUSH1 0x1 PUSH1 0x1 PUSH1 0xA0 SHL SUB DUP7 DUP2 AND PUSH1 0x1 PUSH1 0x1 PUSH1 0xA0 SHL SUB NOT SWAP3 DUP4 AND DUP2 OR SWAP1 SWAP4 SSTORE PUSH1 0x1 DUP1 SLOAD DUP8 DUP4 AND SWAP4 AND DUP4 OR SWAP1 SSTORE PUSH1 0x40 DUP1 MLOAD SWAP4 DUP5 MSTORE PUSH1 0x20 DUP5 ADD SWAP3 SWAP1 SWAP3 MSTORE DUP5 AND SWAP1 DUP3 ADD MSTORE PUSH32 0xAD307780531F6353137C35ADC50AD58D71B76E76AA891E729387F2E720F2DE20 SWAP1 PUSH1 0x60 ADD PUSH1 0x40 MLOAD DUP1 SWAP2 SUB SWAP1 LOG1 DUP1 ISZERO PUSH2 0x84E JUMPI PUSH1 0x0 DUP1 SLOAD PUSH1 0xFF PUSH1 0xA8 SHL NOT AND SWAP1 SSTORE JUMPDEST POP POP POP POP JUMP JUMPDEST PUSH1 0x0 PUSH2 0x6AA PUSH2 0xDFE JUMP JUMPDEST PUSH1 0x0 SLOAD PUSH1 0x1 PUSH1 0x1 PUSH1 0xA0 SHL SUB AND CALLER EQ PUSH2 0x888 JUMPI PUSH1 0x40 MLOAD PUSH3 0x461BCD PUSH1 0xE5 SHL DUP2 MSTORE PUSH1 0x4 ADD PUSH2 0x363 SWAP1 PUSH2 0x1281 JUMP JUMPDEST PUSH1 0x1 PUSH1 0x1 PUSH1 0xA0 SHL SUB DUP2 AND PUSH2 0x8ED JUMPI PUSH1 0x40 MLOAD PUSH3 0x461BCD PUSH1 0xE5 SHL DUP2 MSTORE PUSH1 0x20 PUSH1 0x4 DUP3 ADD MSTORE PUSH1 0x26 PUSH1 0x24 DUP3 ADD MSTORE PUSH32 0x4F776E61626C653A206E6577206F776E657220697320746865207A65726F2061 PUSH1 0x44 DUP3 ADD MSTORE PUSH6 0x646472657373 PUSH1 0xD0 SHL PUSH1 0x64 DUP3 ADD MSTORE PUSH1 0x84 ADD PUSH2 0x363 JUMP JUMPDEST PUSH2 0x8F6 DUP2 PUSH2 0xD11 JUMP JUMPDEST POP JUMP JUMPDEST PUSH1 0x0 SLOAD PUSH1 0x1 PUSH1 0x1 PUSH1 0xA0 SHL SUB AND CALLER EQ PUSH2 0x923 JUMPI PUSH1 0x40 MLOAD PUSH3 0x461BCD PUSH1 0xE5 SHL DUP2 MSTORE PUSH1 0x4 ADD PUSH2 0x363 SWAP1 PUSH2 0x1281 JUMP JUMPDEST PUSH1 0x0 PUSH2 0x92E DUP2 PUSH2 0xAD3 JUMP JUMPDEST PUSH1 0x3 SLOAD TIMESTAMP LT ISZERO PUSH2 0x96C JUMPI PUSH1 0x0 TIMESTAMP PUSH1 0x3 SLOAD PUSH2 0x948 SWAP2 SWAP1 PUSH2 0x12FD JUMP JUMPDEST SWAP1 POP PUSH1 0x0 PUSH1 0x4 SLOAD DUP3 PUSH2 0x95A SWAP2 SWAP1 PUSH2 0x1314 JUMP JUMPDEST SWAP1 POP PUSH2 0x966 DUP5 DUP3 PUSH2 0x1333 JUMP JUMPDEST PUSH1 0x4 SSTORE POP POP JUMPDEST PUSH1 0x2 DUP3 SWAP1 SSTORE PUSH1 0x4 SLOAD PUSH1 0x40 DUP1 MLOAD DUP5 DUP2 MSTORE PUSH1 0x20 DUP2 ADD SWAP3 SWAP1 SWAP3 MSTORE PUSH32 0xF899C6D536E6CDA78C5F4DCE43CA0E8C47167DEB2875EA8B777F21CC85899B1F SWAP2 ADD JUMPDEST PUSH1 0x40 MLOAD DUP1 SWAP2 SUB SWAP1 LOG1 POP POP JUMP JUMPDEST PUSH1 0x1 PUSH1 0x1 PUSH1 0xA0 SHL SUB DUP2 AND PUSH1 0x0 SWAP1 DUP2 MSTORE PUSH1 0xA PUSH1 0x20 MSTORE PUSH1 0x40 DUP2 KECCAK256 SLOAD PUSH8 0xDE0B6B3A7640000 SWAP1 PUSH2 0x9DE PUSH2 0xDFE JUMP JUMPDEST PUSH2 0x9E8 SWAP2 SWAP1 PUSH2 0x12FD JUMP JUMPDEST PUSH1 0xC SLOAD PUSH1 0x40 MLOAD PUSH4 0xDF55E69 PUSH1 0xE1 SHL DUP2 MSTORE PUSH1 0x1 PUSH1 0x1 PUSH1 0xA0 SHL SUB DUP7 DUP2 AND PUSH1 0x4 DUP4 ADD MSTORE SWAP1 SWAP2 AND SWAP1 PUSH4 0x1BEABCD2 SWAP1 PUSH1 0x24 ADD JUMPDEST PUSH1 0x20 PUSH1 0x40 MLOAD DUP1 DUP4 SUB DUP2 DUP7 GAS STATICCALL ISZERO DUP1 ISZERO PUSH2 0xA33 JUMPI RETURNDATASIZE PUSH1 0x0 DUP1 RETURNDATACOPY RETURNDATASIZE PUSH1 0x0 REVERT JUMPDEST POP POP POP POP PUSH1 0x40 MLOAD RETURNDATASIZE PUSH1 0x1F NOT PUSH1 0x1F DUP3 ADD AND DUP3 ADD DUP1 PUSH1 0x40 MSTORE POP DUP2 ADD SWAP1 PUSH2 0xA57 SWAP2 SWAP1 PUSH2 0x12B6 JUMP JUMPDEST PUSH2 0xA61 SWAP2 SWAP1 PUSH2 0x1314 JUMP JUMPDEST PUSH2 0x332 SWAP2 SWAP1 PUSH2 0x1333 JUMP JUMPDEST PUSH1 0x40 MLOAD PUSH1 0x1 PUSH1 0x1 PUSH1 0xA0 SHL SUB DUP4 AND PUSH1 0x24 DUP3 ADD MSTORE PUSH1 0x44 DUP2 ADD DUP3 SWAP1 MSTORE PUSH2 0xACE SWAP1 DUP5 SWAP1 PUSH4 0xA9059CBB PUSH1 0xE0 SHL SWAP1 PUSH1 0x64 ADD JUMPDEST PUSH1 0x40 DUP1 MLOAD PUSH1 0x1F NOT DUP2 DUP5 SUB ADD DUP2 MSTORE SWAP2 SWAP1 MSTORE PUSH1 0x20 DUP2 ADD DUP1 MLOAD PUSH1 0x1 PUSH1 0x1 PUSH1 0xE0 SHL SUB AND PUSH1 0x1 PUSH1 0x1 PUSH1 0xE0 SHL SUB NOT SWAP1 SWAP4 AND SWAP3 SWAP1 SWAP3 OR SWAP1 SWAP2 MSTORE PUSH2 0xF39 JUMP JUMPDEST POP POP POP JUMP JUMPDEST PUSH2 0xADB PUSH2 0xDFE JUMP JUMPDEST PUSH1 0x6 SSTORE PUSH2 0xAE6 PUSH2 0x69C JUMP JUMPDEST PUSH1 0x5 SSTORE PUSH1 0x1 PUSH1 0x1 PUSH1 0xA0 SHL SUB DUP2 AND ISZERO PUSH2 0x8F6 JUMPI PUSH1 0x0 PUSH2 0xB03 DUP3 PUSH2 0x9B3 JUMP JUMPDEST SWAP1 POP PUSH1 0x0 PUSH2 0xB10 DUP4 PUSH2 0x100B JUMP JUMPDEST PUSH1 0x1 PUSH1 0x1 PUSH1 0xA0 SHL SUB DUP5 AND PUSH1 0x0 SWAP1 DUP2 MSTORE PUSH1 0xB PUSH1 0x20 MSTORE PUSH1 0x40 DUP2 KECCAK256 DUP1 SLOAD SWAP3 SWAP4 POP DUP5 SWAP3 SWAP1 SWAP2 SWAP1 PUSH2 0xB3D SWAP1 DUP5 SWAP1 PUSH2 0x12E5 JUMP JUMPDEST SWAP1 SWAP2 SSTORE POP PUSH2 0xB4D SWAP1 POP DUP3 DUP3 PUSH2 0x12FD JUMP JUMPDEST PUSH1 0x7 PUSH1 0x0 DUP3 DUP3 SLOAD PUSH2 0xB5E SWAP2 SWAP1 PUSH2 0x12E5 JUMP JUMPDEST SWAP1 SWAP2 SSTORE POP POP PUSH1 0x6 SLOAD PUSH1 0x1 PUSH1 0x1 PUSH1 0xA0 SHL SUB DUP5 AND PUSH1 0x0 DUP2 DUP2 MSTORE PUSH1 0xA PUSH1 0x20 DUP2 DUP2 MSTORE PUSH1 0x40 DUP1 DUP5 KECCAK256 DUP7 SWAP1 SSTORE PUSH1 0x5 SLOAD PUSH1 0xB DUP4 MSTORE SWAP4 DUP2 SWAP1 KECCAK256 SLOAD SWAP3 DUP3 MSTORE DUP1 MLOAD SWAP5 DUP6 MSTORE SWAP1 DUP5 ADD DUP6 SWAP1 MSTORE DUP4 ADD SWAP2 SWAP1 SWAP2 MSTORE PUSH1 0x60 DUP3 ADD MSTORE PUSH1 0x80 DUP2 ADD SWAP2 SWAP1 SWAP2 MSTORE PUSH32 0xFBE590C835E1C07F8E971C36021D1BE46F43F7B0B6DC5413DBD5753590569D58 SWAP1 PUSH1 0xA0 ADD PUSH1 0x40 MLOAD DUP1 SWAP2 SUB SWAP1 LOG1 POP POP POP JUMP JUMPDEST PUSH1 0x40 MLOAD PUSH1 0x1 PUSH1 0x1 PUSH1 0xA0 SHL SUB DUP1 DUP6 AND PUSH1 0x24 DUP4 ADD MSTORE DUP4 AND PUSH1 0x44 DUP3 ADD MSTORE PUSH1 0x64 DUP2 ADD DUP3 SWAP1 MSTORE PUSH2 0x84E SWAP1 DUP6 SWAP1 PUSH4 0x23B872DD PUSH1 0xE0 SHL SWAP1 PUSH1 0x84 ADD PUSH2 0xA97 JUMP JUMPDEST PUSH1 0x0 PUSH2 0xC26 DUP2 PUSH2 0xAD3 JUMP JUMPDEST DUP2 PUSH1 0x9 SLOAD PUSH2 0xC34 SWAP2 SWAP1 PUSH2 0x12E5 JUMP JUMPDEST PUSH1 0x9 SSTORE PUSH1 0x3 SLOAD TIMESTAMP LT PUSH2 0xC55 JUMPI PUSH1 0x2 SLOAD PUSH2 0xC4D SWAP1 DUP4 PUSH2 0x1333 JUMP JUMPDEST PUSH1 0x4 SSTORE PUSH2 0xC99 JUMP JUMPDEST PUSH1 0x0 TIMESTAMP PUSH1 0x3 SLOAD PUSH2 0xC65 SWAP2 SWAP1 PUSH2 0x12FD JUMP JUMPDEST SWAP1 POP PUSH1 0x0 PUSH1 0x4 SLOAD DUP3 PUSH2 0xC77 SWAP2 SWAP1 PUSH2 0x1314 JUMP JUMPDEST SWAP1 POP PUSH2 0xC83 DUP2 DUP6 PUSH2 0x12E5 JUMP JUMPDEST SWAP4 POP PUSH1 0x2 SLOAD DUP5 PUSH2 0xC93 SWAP2 SWAP1 PUSH2 0x1333 JUMP JUMPDEST PUSH1 0x4 SSTORE POP POP JUMPDEST PUSH1 0x8 DUP3 SWAP1 SSTORE TIMESTAMP PUSH1 0x5 DUP2 SWAP1 SSTORE PUSH1 0x2 SLOAD PUSH2 0xCB0 SWAP2 PUSH2 0x12E5 JUMP JUMPDEST PUSH1 0x3 DUP2 SWAP1 SSTORE PUSH1 0x8 SLOAD PUSH1 0x5 SLOAD PUSH1 0x4 SLOAD PUSH1 0x9 SLOAD PUSH1 0x40 DUP1 MLOAD SWAP5 DUP6 MSTORE PUSH1 0x20 DUP6 ADD SWAP4 SWAP1 SWAP4 MSTORE SWAP2 DUP4 ADD SWAP4 SWAP1 SWAP4 MSTORE PUSH1 0x60 DUP3 ADD SWAP3 SWAP1 SWAP3 MSTORE PUSH1 0x80 DUP2 ADD SWAP2 SWAP1 SWAP2 MSTORE PUSH32 0x944FFD3678415A15CBFEF07DD7D9F20CDC6F36D12588A4BA7E8EB440F32C61BE SWAP1 PUSH1 0xA0 ADD PUSH2 0x9A7 JUMP JUMPDEST PUSH1 0x0 DUP1 SLOAD PUSH1 0x1 PUSH1 0x1 PUSH1 0xA0 SHL SUB DUP4 DUP2 AND PUSH1 0x1 PUSH1 0x1 PUSH1 0xA0 SHL SUB NOT DUP4 AND DUP2 OR DUP5 SSTORE PUSH1 0x40 MLOAD SWAP2 SWAP1 SWAP3 AND SWAP3 DUP4 SWAP2 PUSH32 0x8BE0079C531659141344CD1FD0A4F28419497F9722A3DAAFE3B4186F6B6457E0 SWAP2 SWAP1 LOG3 POP POP JUMP JUMPDEST PUSH1 0x0 DUP2 DUP4 LT PUSH2 0xD70 JUMPI DUP2 PUSH2 0xD72 JUMP JUMPDEST DUP3 JUMPDEST SWAP4 SWAP3 POP POP POP JUMP JUMPDEST PUSH1 0x1 PUSH1 0x1 PUSH1 0xA0 SHL SUB DUP3 AND PUSH2 0xDCF JUMPI PUSH1 0x40 MLOAD PUSH3 0x461BCD PUSH1 0xE5 SHL DUP2 MSTORE PUSH1 0x20 PUSH1 0x4 DUP3 ADD MSTORE PUSH1 0x18 PUSH1 0x24 DUP3 ADD MSTORE PUSH32 0x5F726577617264546F6B656E2030783020616464726573730000000000000000 PUSH1 0x44 DUP3 ADD MSTORE PUSH1 0x64 ADD PUSH2 0x363 JUMP JUMPDEST PUSH1 0x1 DUP1 SLOAD PUSH1 0x1 PUSH1 0x1 PUSH1 0xA0 SHL SUB NOT AND PUSH1 0x1 PUSH1 0x1 PUSH1 0xA0 SHL SUB DUP5 AND OR SWAP1 SSTORE PUSH3 0x93A80 PUSH1 0x2 SSTORE PUSH2 0xDFA DUP2 PUSH2 0xD11 JUMP JUMPDEST POP POP JUMP JUMPDEST PUSH1 0xC SLOAD PUSH1 0x40 DUP1 MLOAD PUSH4 0x18160DDD PUSH1 0xE0 SHL DUP2 MSTORE SWAP1 MLOAD PUSH1 0x0 SWAP3 PUSH1 0x1 PUSH1 0x1 PUSH1 0xA0 SHL SUB AND SWAP2 PUSH4 0x18160DDD SWAP2 PUSH1 0x4 DUP1 DUP4 ADD SWAP3 PUSH1 0x20 SWAP3 SWAP2 SWAP1 DUP3 SWAP1 SUB ADD DUP2 DUP7 GAS STATICCALL ISZERO DUP1 ISZERO PUSH2 0xE48 JUMPI RETURNDATASIZE PUSH1 0x0 DUP1 RETURNDATACOPY RETURNDATASIZE PUSH1 0x0 REVERT JUMPDEST POP POP POP POP PUSH1 0x40 MLOAD RETURNDATASIZE PUSH1 0x1F NOT PUSH1 0x1F DUP3 ADD AND DUP3 ADD DUP1 PUSH1 0x40 MSTORE POP DUP2 ADD SWAP1 PUSH2 0xE6C SWAP2 SWAP1 PUSH2 0x12B6 JUMP JUMPDEST PUSH2 0xE77 JUMPI POP PUSH1 0x6 SLOAD SWAP1 JUMP JUMPDEST PUSH1 0xC PUSH1 0x0 SWAP1 SLOAD SWAP1 PUSH2 0x100 EXP SWAP1 DIV PUSH1 0x1 PUSH1 0x1 PUSH1 0xA0 SHL SUB AND PUSH1 0x1 PUSH1 0x1 PUSH1 0xA0 SHL SUB AND PUSH4 0x18160DDD PUSH1 0x40 MLOAD DUP2 PUSH4 0xFFFFFFFF AND PUSH1 0xE0 SHL DUP2 MSTORE PUSH1 0x4 ADD PUSH1 0x20 PUSH1 0x40 MLOAD DUP1 DUP4 SUB DUP2 DUP7 GAS STATICCALL ISZERO DUP1 ISZERO PUSH2 0xECA JUMPI RETURNDATASIZE PUSH1 0x0 DUP1 RETURNDATACOPY RETURNDATASIZE PUSH1 0x0 REVERT JUMPDEST POP POP POP POP PUSH1 0x40 MLOAD RETURNDATASIZE PUSH1 0x1F NOT PUSH1 0x1F DUP3 ADD AND DUP3 ADD DUP1 PUSH1 0x40 MSTORE POP DUP2 ADD SWAP1 PUSH2 0xEEE SWAP2 SWAP1 PUSH2 0x12B6 JUMP JUMPDEST PUSH1 0x4 SLOAD PUSH1 0x5 SLOAD PUSH2 0xEFC PUSH2 0x69C JUMP JUMPDEST PUSH2 0xF06 SWAP2 SWAP1 PUSH2 0x12FD JUMP JUMPDEST PUSH2 0xF10 SWAP2 SWAP1 PUSH2 0x1314 JUMP JUMPDEST PUSH2 0xF22 SWAP1 PUSH8 0xDE0B6B3A7640000 PUSH2 0x1314 JUMP JUMPDEST PUSH2 0xF2C SWAP2 SWAP1 PUSH2 0x1333 JUMP JUMPDEST PUSH1 0x6 SLOAD PUSH2 0x6AA SWAP2 SWAP1 PUSH2 0x12E5 JUMP JUMPDEST PUSH1 0x0 PUSH2 0xF8E DUP3 PUSH1 0x40 MLOAD DUP1 PUSH1 0x40 ADD PUSH1 0x40 MSTORE DUP1 PUSH1 0x20 DUP2 MSTORE PUSH1 0x20 ADD PUSH32 0x5361666545524332303A206C6F772D6C6576656C2063616C6C206661696C6564 DUP2 MSTORE POP DUP6 PUSH1 0x1 PUSH1 0x1 PUSH1 0xA0 SHL SUB AND PUSH2 0x1072 SWAP1 SWAP3 SWAP2 SWAP1 PUSH4 0xFFFFFFFF AND JUMP JUMPDEST DUP1 MLOAD SWAP1 SWAP2 POP ISZERO PUSH2 0xACE JUMPI DUP1 DUP1 PUSH1 0x20 ADD SWAP1 MLOAD DUP2 ADD SWAP1 PUSH2 0xFAC SWAP2 SWAP1 PUSH2 0x1355 JUMP JUMPDEST PUSH2 0xACE JUMPI PUSH1 0x40 MLOAD PUSH3 0x461BCD PUSH1 0xE5 SHL DUP2 MSTORE PUSH1 0x20 PUSH1 0x4 DUP3 ADD MSTORE PUSH1 0x2A PUSH1 0x24 DUP3 ADD MSTORE PUSH32 0x5361666545524332303A204552433230206F7065726174696F6E20646964206E PUSH1 0x44 DUP3 ADD MSTORE PUSH10 0x1BDD081CDD58D8D95959 PUSH1 0xB2 SHL PUSH1 0x64 DUP3 ADD MSTORE PUSH1 0x84 ADD PUSH2 0x363 JUMP JUMPDEST PUSH1 0x1 PUSH1 0x1 PUSH1 0xA0 SHL SUB DUP2 AND PUSH1 0x0 SWAP1 DUP2 MSTORE PUSH1 0xA PUSH1 0x20 MSTORE PUSH1 0x40 DUP2 KECCAK256 SLOAD PUSH8 0xDE0B6B3A7640000 SWAP1 PUSH2 0x1036 PUSH2 0xDFE JUMP JUMPDEST PUSH2 0x1040 SWAP2 SWAP1 PUSH2 0x12FD JUMP JUMPDEST PUSH1 0xC SLOAD PUSH1 0x40 MLOAD PUSH4 0x70A08231 PUSH1 0xE0 SHL DUP2 MSTORE PUSH1 0x1 PUSH1 0x1 PUSH1 0xA0 SHL SUB DUP7 DUP2 AND PUSH1 0x4 DUP4 ADD MSTORE SWAP1 SWAP2 AND SWAP1 PUSH4 0x70A08231 SWAP1 PUSH1 0x24 ADD PUSH2 0xA16 JUMP JUMPDEST PUSH1 0x60 PUSH2 0x1081 DUP5 DUP5 PUSH1 0x0 DUP6 PUSH2 0x1089 JUMP JUMPDEST SWAP5 SWAP4 POP POP POP POP JUMP JUMPDEST PUSH1 0x60 DUP3 SELFBALANCE LT ISZERO PUSH2 0x10EA JUMPI PUSH1 0x40 MLOAD PUSH3 0x461BCD PUSH1 0xE5 SHL DUP2 MSTORE PUSH1 0x20 PUSH1 0x4 DUP3 ADD MSTORE PUSH1 0x26 PUSH1 0x24 DUP3 ADD MSTORE PUSH32 0x416464726573733A20696E73756666696369656E742062616C616E636520666F PUSH1 0x44 DUP3 ADD MSTORE PUSH6 0x1C8818D85B1B PUSH1 0xD2 SHL PUSH1 0x64 DUP3 ADD MSTORE PUSH1 0x84 ADD PUSH2 0x363 JUMP JUMPDEST PUSH1 0x1 PUSH1 0x1 PUSH1 0xA0 SHL SUB DUP6 AND EXTCODESIZE PUSH2 0x1141 JUMPI PUSH1 0x40 MLOAD PUSH3 0x461BCD PUSH1 0xE5 SHL DUP2 MSTORE PUSH1 0x20 PUSH1 0x4 DUP3 ADD MSTORE PUSH1 0x1D PUSH1 0x24 DUP3 ADD MSTORE PUSH32 0x416464726573733A2063616C6C20746F206E6F6E2D636F6E7472616374000000 PUSH1 0x44 DUP3 ADD MSTORE PUSH1 0x64 ADD PUSH2 0x363 JUMP JUMPDEST PUSH1 0x0 DUP1 DUP7 PUSH1 0x1 PUSH1 0x1 PUSH1 0xA0 SHL SUB AND DUP6 DUP8 PUSH1 0x40 MLOAD PUSH2 0x115D SWAP2 SWAP1 PUSH2 0x13A3 JUMP JUMPDEST PUSH1 0x0 PUSH1 0x40 MLOAD DUP1 DUP4 SUB DUP2 DUP6 DUP8 GAS CALL SWAP3 POP POP POP RETURNDATASIZE DUP1 PUSH1 0x0 DUP2 EQ PUSH2 0x119A JUMPI PUSH1 0x40 MLOAD SWAP2 POP PUSH1 0x1F NOT PUSH1 0x3F RETURNDATASIZE ADD AND DUP3 ADD PUSH1 0x40 MSTORE RETURNDATASIZE DUP3 MSTORE RETURNDATASIZE PUSH1 0x0 PUSH1 0x20 DUP5 ADD RETURNDATACOPY PUSH2 0x119F JUMP JUMPDEST PUSH1 0x60 SWAP2 POP JUMPDEST POP SWAP2 POP SWAP2 POP PUSH2 0x11AF DUP3 DUP3 DUP7 PUSH2 0x11BA JUMP JUMPDEST SWAP8 SWAP7 POP POP POP POP POP POP POP JUMP JUMPDEST PUSH1 0x60 DUP4 ISZERO PUSH2 0x11C9 JUMPI POP DUP2 PUSH2 0xD72 JUMP JUMPDEST DUP3 MLOAD ISZERO PUSH2 0x11D9 JUMPI DUP3 MLOAD DUP1 DUP5 PUSH1 0x20 ADD REVERT JUMPDEST DUP2 PUSH1 0x40 MLOAD PUSH3 0x461BCD PUSH1 0xE5 SHL DUP2 MSTORE PUSH1 0x4 ADD PUSH2 0x363 SWAP2 SWAP1 PUSH2 0x13BF JUMP JUMPDEST DUP1 CALLDATALOAD PUSH1 0x1 PUSH1 0x1 PUSH1 0xA0 SHL SUB DUP2 AND DUP2 EQ PUSH2 0x48D JUMPI PUSH1 0x0 DUP1 REVERT JUMPDEST PUSH1 0x0 PUSH1 0x20 DUP3 DUP5 SUB SLT ISZERO PUSH2 0x121C JUMPI PUSH1 0x0 DUP1 REVERT JUMPDEST PUSH2 0xD72 DUP3 PUSH2 0x11F3 JUMP JUMPDEST PUSH1 0x0 PUSH1 0x20 DUP3 DUP5 SUB SLT ISZERO PUSH2 0x1237 JUMPI PUSH1 0x0 DUP1 REVERT JUMPDEST POP CALLDATALOAD SWAP2 SWAP1 POP JUMP JUMPDEST PUSH1 0x0 DUP1 PUSH1 0x0 PUSH1 0x60 DUP5 DUP7 SUB SLT ISZERO PUSH2 0x1253 JUMPI PUSH1 0x0 DUP1 REVERT JUMPDEST PUSH2 0x125C DUP5 PUSH2 0x11F3 JUMP JUMPDEST SWAP3 POP PUSH2 0x126A PUSH1 0x20 DUP6 ADD PUSH2 0x11F3 JUMP JUMPDEST SWAP2 POP PUSH2 0x1278 PUSH1 0x40 DUP6 ADD PUSH2 0x11F3 JUMP JUMPDEST SWAP1 POP SWAP3 POP SWAP3 POP SWAP3 JUMP JUMPDEST PUSH1 0x20 DUP1 DUP3 MSTORE DUP2 DUP2 ADD MSTORE PUSH32 0x4F776E61626C653A2063616C6C6572206973206E6F7420746865206F776E6572 PUSH1 0x40 DUP3 ADD MSTORE PUSH1 0x60 ADD SWAP1 JUMP JUMPDEST PUSH1 0x0 PUSH1 0x20 DUP3 DUP5 SUB SLT ISZERO PUSH2 0x12C8 JUMPI PUSH1 0x0 DUP1 REVERT JUMPDEST POP MLOAD SWAP2 SWAP1 POP JUMP JUMPDEST PUSH4 0x4E487B71 PUSH1 0xE0 SHL PUSH1 0x0 MSTORE PUSH1 0x11 PUSH1 0x4 MSTORE PUSH1 0x24 PUSH1 0x0 REVERT JUMPDEST PUSH1 0x0 DUP3 NOT DUP3 GT ISZERO PUSH2 0x12F8 JUMPI PUSH2 0x12F8 PUSH2 0x12CF JUMP JUMPDEST POP ADD SWAP1 JUMP JUMPDEST PUSH1 0x0 DUP3 DUP3 LT ISZERO PUSH2 0x130F JUMPI PUSH2 0x130F PUSH2 0x12CF JUMP JUMPDEST POP SUB SWAP1 JUMP JUMPDEST PUSH1 0x0 DUP2 PUSH1 0x0 NOT DIV DUP4 GT DUP3 ISZERO ISZERO AND ISZERO PUSH2 0x132E JUMPI PUSH2 0x132E PUSH2 0x12CF JUMP JUMPDEST POP MUL SWAP1 JUMP JUMPDEST PUSH1 0x0 DUP3 PUSH2 0x1350 JUMPI PUSH4 0x4E487B71 PUSH1 0xE0 SHL PUSH1 0x0 MSTORE PUSH1 0x12 PUSH1 0x4 MSTORE PUSH1 0x24 PUSH1 0x0 REVERT JUMPDEST POP DIV SWAP1 JUMP JUMPDEST PUSH1 0x0 PUSH1 0x20 DUP3 DUP5 SUB SLT ISZERO PUSH2 0x1367 JUMPI PUSH1 0x0 DUP1 REVERT JUMPDEST DUP2 MLOAD DUP1 ISZERO ISZERO DUP2 EQ PUSH2 0xD72 JUMPI PUSH1 0x0 DUP1 REVERT JUMPDEST PUSH1 0x0 JUMPDEST DUP4 DUP2 LT ISZERO PUSH2 0x1392 JUMPI DUP2 DUP2 ADD MLOAD DUP4 DUP3 ADD MSTORE PUSH1 0x20 ADD PUSH2 0x137A JUMP JUMPDEST DUP4 DUP2 GT ISZERO PUSH2 0x84E JUMPI POP POP PUSH1 0x0 SWAP2 ADD MSTORE JUMP JUMPDEST PUSH1 0x0 DUP3 MLOAD PUSH2 0x13B5 DUP2 DUP5 PUSH1 0x20 DUP8 ADD PUSH2 0x1377 JUMP JUMPDEST SWAP2 SWAP1 SWAP2 ADD SWAP3 SWAP2 POP POP JUMP JUMPDEST PUSH1 0x20 DUP2 MSTORE PUSH1 0x0 DUP3 MLOAD DUP1 PUSH1 0x20 DUP5 ADD MSTORE PUSH2 0x13DE DUP2 PUSH1 0x40 DUP6 ADD PUSH1 0x20 DUP8 ADD PUSH2 0x1377 JUMP JUMPDEST PUSH1 0x1F ADD PUSH1 0x1F NOT AND SWAP2 SWAP1 SWAP2 ADD PUSH1 0x40 ADD SWAP3 SWAP2 POP POP JUMP INVALID LOG2 PUSH5 0x6970667358 0x22 SLT KECCAK256 PUSH22 0x7AE7B29ADFAEC54467ED85F775EC19F7B7CABD80E372 0xC3 PUSH31 0x6EA64C16D967BB64736F6C634300080C003300000000000000000000000000 ",
  "sha1": "58a209e78b09c4ef8b61c375afda5bc3b9039f38",
  "source": "// SPDX-License-Identifier: MIT\npragma solidity 0.8.12;\n\nimport \"./interfaces/IGauge.sol\";\nimport \"@openzeppelin/contracts/token/ERC20/IERC20.sol\";\nimport \"@openzeppelin/contracts/token/ERC20/utils/SafeERC20.sol\";\nimport \"@openzeppelin/contracts/utils/math/Math.sol\";\nimport \"./interfaces/IExtraReward.sol\";\nimport \"./BaseGauge.sol\";\n\n/** @title Extra Rewards for a Gauge\n    @notice An ExtraReward is associated with a gauge and a token.\n    Balances are managed by the associated Gauge. Gauge will\n    @dev this contract is used behind multiple delegate proxies.\n */\ncontract ExtraReward is IExtraReward, BaseGauge {\n    using SafeERC20 for IERC20;\n    IGauge public gauge;\n\n    event Initialized(address _gauge, address rewardToken, address owner);\n\n    /**\n    @notice Initialize the contract after a clone.\n    @param _gauge the associated Gauge address\n    @param _rewardToken the reward token to be distributed\n    @param _owner owner\n    */\n    function initialize(\n        address _gauge,\n        address _rewardToken,\n        address _owner\n    ) external initializer {\n        __initialize(_rewardToken, _owner);\n        gauge = IGauge(_gauge);\n        rewardToken = IERC20(_rewardToken);\n        emit Initialized(_gauge, _rewardToken, _owner);\n    }\n\n    function _updateReward(address account) internal override {\n        rewardPerTokenStored = _rewardPerToken();\n        lastUpdateTime = lastTimeRewardApplicable();\n        if (account != address(0)) {\n            uint256 newEarning = _newEarning(account);\n            uint256 maxEarning = _maxEarning(account);\n\n            rewards[account] += newEarning;\n\n            // If rewards aren't boosted at max, loss rewards are queued to be redistributed to the gauge.\n            queuedRewards += (maxEarning - newEarning);\n\n            userRewardPerTokenPaid[account] = rewardPerTokenStored;\n            emit UpdatedRewards(\n                account,\n                rewardPerTokenStored,\n                lastUpdateTime,\n                rewards[account],\n                userRewardPerTokenPaid[account]\n            );\n        }\n    }\n\n    function _rewardPerToken() internal view override returns (uint256) {\n        if (gauge.totalSupply() == 0) {\n            return rewardPerTokenStored;\n        }\n        return\n            rewardPerTokenStored +\n            (((lastTimeRewardApplicable() - lastUpdateTime) *\n                rewardRate *\n                1e18) / gauge.totalSupply());\n    }\n\n    function _newEarning(address account)\n        internal\n        view\n        override\n        returns (uint256)\n    {\n        return\n            (gauge.boostedBalanceOf(account) *\n                (_rewardPerToken() - userRewardPerTokenPaid[account])) / 1e18;\n    }\n\n    function _maxEarning(address account) internal view returns (uint256) {\n        return\n            (gauge.balanceOf(account) *\n                (_rewardPerToken() - userRewardPerTokenPaid[account])) / 1e18;\n    }\n\n    /** @notice update reward for an account\n     *  @dev called by the underlying gauge\n     *  @param _account to update\n     *  @return true\n     */\n    function rewardCheckpoint(address _account)\n        external\n        override\n        updateReward(_account)\n        returns (bool)\n    {\n        require(msg.sender == address(gauge), \"!authorized\");\n        return true;\n    }\n\n    /**\n     * @notice\n     *  Get rewards\n     * @param _account claim extra rewards\n     * @return true\n     */\n    function getRewardFor(address _account)\n        public\n        override\n        updateReward(_account)\n        returns (bool)\n    {\n        uint256 reward = rewards[_account];\n        if (reward > 0) {\n            rewards[_account] = 0;\n            rewardToken.safeTransfer(_account, reward);\n            emit RewardPaid(_account, reward);\n        }\n        return true;\n    }\n\n    function getReward() external override returns (bool) {\n        getRewardFor(msg.sender);\n        return true;\n    }\n}\n",
  "sourcePath": "contracts/ExtraReward.sol",
  "type": "contract"
}