{
  "abi": [
    {
      "inputs": [
        {
          "internalType": "address",
          "name": "_deployedGauge",
          "type": "address"
        },
        {
          "internalType": "address",
          "name": "_deployedExtra",
          "type": "address"
        }
      ],
      "stateMutability": "nonpayable",
      "type": "constructor"
    },
    {
      "anonymous": false,
      "inputs": [
        {
          "indexed": false,
          "internalType": "address",
          "name": "extraReward",
          "type": "address"
        }
      ],
      "name": "ExtraRewardCreated",
      "type": "event"
    },
    {
      "anonymous": false,
      "inputs": [
        {
          "indexed": false,
          "internalType": "address",
          "name": "gauge",
          "type": "address"
        }
      ],
      "name": "GaugeCreated",
      "type": "event"
    },
    {
      "inputs": [
        {
          "internalType": "address",
          "name": "gauge",
          "type": "address"
        },
        {
          "internalType": "address",
          "name": "reward",
          "type": "address"
        },
        {
          "internalType": "address",
          "name": "owner",
          "type": "address"
        }
      ],
      "name": "createExtraReward",
      "outputs": [
        {
          "internalType": "address",
          "name": "",
          "type": "address"
        }
      ],
      "stateMutability": "nonpayable",
      "type": "function"
    },
    {
      "inputs": [
        {
          "internalType": "address",
          "name": "_vault",
          "type": "address"
        },
        {
          "internalType": "address",
          "name": "yfi",
          "type": "address"
        },
        {
          "internalType": "address",
          "name": "owner",
          "type": "address"
        },
        {
          "internalType": "address",
          "name": "manager",
          "type": "address"
        },
        {
          "internalType": "address",
          "name": "ve",
          "type": "address"
        },
        {
          "internalType": "address",
          "name": "veYfiRewardPool",
          "type": "address"
        }
      ],
      "name": "createGauge",
      "outputs": [
        {
          "internalType": "address",
          "name": "",
          "type": "address"
        }
      ],
      "stateMutability": "nonpayable",
      "type": "function"
    },
    {
      "inputs": [],
      "name": "deployedExtra",
      "outputs": [
        {
          "internalType": "address",
          "name": "",
          "type": "address"
        }
      ],
      "stateMutability": "view",
      "type": "function"
    },
    {
      "inputs": [],
      "name": "deployedGauge",
      "outputs": [
        {
          "internalType": "address",
          "name": "",
          "type": "address"
        }
      ],
      "stateMutability": "view",
      "type": "function"
    }
  ],
  "bytecode": "60c060405234801561001057600080fd5b506040516104da3803806104da83398101604081905261002f91610062565b6001600160a01b039182166080521660a052610095565b80516001600160a01b038116811461005d57600080fd5b919050565b6000806040838503121561007557600080fd5b61007e83610046565b915061008c60208401610046565b90509250929050565b60805160a0516104156100c56000396000818160ac015260e9015260008181605601526101c801526104156000f3fe608060405234801561001057600080fd5b506004361061004c5760003560e01c8063651571db14610051578063a4a70f5214610094578063ef679b60146100a7578063fbb5e204146100ce575b600080fd5b6100787f000000000000000000000000000000000000000000000000000000000000000081565b6040516001600160a01b03909116815260200160405180910390f35b6100786100a2366004610328565b6100e1565b6100787f000000000000000000000000000000000000000000000000000000000000000081565b6100786100dc36600461036b565b6101c0565b60008061010d7f00000000000000000000000000000000000000000000000000000000000000006102ba565b6040516001600160a01b03821681529091507f3ae7c53a8ee4d210d6b3e8506e0b6e20d7bea846f3dc1c8842d1ac4cd78e6e689060200160405180910390a160405163c0c53b8b60e01b81526001600160a01b0386811660048301528581166024830152848116604483015282169063c0c53b8b90606401600060405180830381600087803b15801561019f57600080fd5b505af11580156101b3573d6000803e3d6000fd5b5092979650505050505050565b6000806101ec7f00000000000000000000000000000000000000000000000000000000000000006102ba565b6040516001600160a01b03821681529091507faa98436d09d130af48de49867af8b723bbbebb0d737638b5fe8f1bf31bbb71c09060200160405180910390a160405163cc2a9a5b60e01b81526001600160a01b038981166004830152888116602483015287811660448301528681166064830152858116608483015284811660a483015282169063cc2a9a5b9060c401600060405180830381600087803b15801561029657600080fd5b505af11580156102aa573d6000803e3d6000fd5b50929a9950505050505050505050565b6000808260601b9050604051733d602d80600a3d3981f3363d3d373d3d3d363d7360601b81528160148201526e5af43d82803e903d91602b57fd5bf360881b60288201526037816000f0949350505050565b80356001600160a01b038116811461032357600080fd5b919050565b60008060006060848603121561033d57600080fd5b6103468461030c565b92506103546020850161030c565b91506103626040850161030c565b90509250925092565b60008060008060008060c0878903121561038457600080fd5b61038d8761030c565b955061039b6020880161030c565b94506103a96040880161030c565b93506103b76060880161030c565b92506103c56080880161030c565b91506103d360a0880161030c565b9050929550929550929556fea2646970667358221220a1596a9b05678dc797423618bb642b8de5f2c870cd26f65420923d38df1e7fc664736f6c634300080c0033",
  "bytecodeSha1": "470dce5ec30eed04edbcf50962fd813304428004",
  "compiler": {
    "evm_version": "istanbul",
    "optimizer": {
      "enabled": true,
      "runs": 200
    },
    "version": "0.8.12+commit.f00d7308"
  },
  "contractName": "GaugeFactory",
  "language": "Solidity",
  "natspec": {
    "details": "Uses clone to create new contracts",
    "kind": "dev",
    "methods": {
      "createExtraReward(address,address,address)": {
        "notice": "Create ExtraReward clone",
        "params": {
          "gauge": "the gauge associated with.",
          "owner": "owner ",
          "reward": "The token to distribute as a rewards"
        },
        "returns": {
          "_0": "ExtraReward address"
        }
      },
      "createGauge(address,address,address,address,address,address)": {
        "notice": "Create a new reward Gauge clone",
        "params": {
          "_vault": "the vault address.",
          "manager": "manager",
          "owner": "owner",
          "ve": "veYFI",
          "veYfiRewardPool": "veYfi RewardPool",
          "yfi": "the YFI token address."
        },
        "returns": {
          "_0": "gauge address"
        }
      }
    },
    "notice": "Creates Gauge and ExtraReward",
    "title": "GaugeFactory",
    "version": 1
  },
  "opcodes": "PUSH1 0x80 PUSH1 0x40 MSTORE CALLVALUE DUP1 ISZERO PUSH2 0x10 JUMPI PUSH1 0x0 DUP1 REVERT JUMPDEST POP PUSH1 0x4 CALLDATASIZE LT PUSH2 0x4C JUMPI PUSH1 0x0 CALLDATALOAD PUSH1 0xE0 SHR DUP1 PUSH4 0x651571DB EQ PUSH2 0x51 JUMPI DUP1 PUSH4 0xA4A70F52 EQ PUSH2 0x94 JUMPI DUP1 PUSH4 0xEF679B60 EQ PUSH2 0xA7 JUMPI DUP1 PUSH4 0xFBB5E204 EQ PUSH2 0xCE JUMPI JUMPDEST PUSH1 0x0 DUP1 REVERT JUMPDEST PUSH2 0x78 PUSH32 0x0 DUP2 JUMP JUMPDEST PUSH1 0x40 MLOAD PUSH1 0x1 PUSH1 0x1 PUSH1 0xA0 SHL SUB SWAP1 SWAP2 AND DUP2 MSTORE PUSH1 0x20 ADD PUSH1 0x40 MLOAD DUP1 SWAP2 SUB SWAP1 RETURN JUMPDEST PUSH2 0x78 PUSH2 0xA2 CALLDATASIZE PUSH1 0x4 PUSH2 0x328 JUMP JUMPDEST PUSH2 0xE1 JUMP JUMPDEST PUSH2 0x78 PUSH32 0x0 DUP2 JUMP JUMPDEST PUSH2 0x78 PUSH2 0xDC CALLDATASIZE PUSH1 0x4 PUSH2 0x36B JUMP JUMPDEST PUSH2 0x1C0 JUMP JUMPDEST PUSH1 0x0 DUP1 PUSH2 0x10D PUSH32 0x0 PUSH2 0x2BA JUMP JUMPDEST PUSH1 0x40 MLOAD PUSH1 0x1 PUSH1 0x1 PUSH1 0xA0 SHL SUB DUP3 AND DUP2 MSTORE SWAP1 SWAP2 POP PUSH32 0x3AE7C53A8EE4D210D6B3E8506E0B6E20D7BEA846F3DC1C8842D1AC4CD78E6E68 SWAP1 PUSH1 0x20 ADD PUSH1 0x40 MLOAD DUP1 SWAP2 SUB SWAP1 LOG1 PUSH1 0x40 MLOAD PUSH4 0xC0C53B8B PUSH1 0xE0 SHL DUP2 MSTORE PUSH1 0x1 PUSH1 0x1 PUSH1 0xA0 SHL SUB DUP7 DUP2 AND PUSH1 0x4 DUP4 ADD MSTORE DUP6 DUP2 AND PUSH1 0x24 DUP4 ADD MSTORE DUP5 DUP2 AND PUSH1 0x44 DUP4 ADD MSTORE DUP3 AND SWAP1 PUSH4 0xC0C53B8B SWAP1 PUSH1 0x64 ADD PUSH1 0x0 PUSH1 0x40 MLOAD DUP1 DUP4 SUB DUP2 PUSH1 0x0 DUP8 DUP1 EXTCODESIZE ISZERO DUP1 ISZERO PUSH2 0x19F JUMPI PUSH1 0x0 DUP1 REVERT JUMPDEST POP GAS CALL ISZERO DUP1 ISZERO PUSH2 0x1B3 JUMPI RETURNDATASIZE PUSH1 0x0 DUP1 RETURNDATACOPY RETURNDATASIZE PUSH1 0x0 REVERT JUMPDEST POP SWAP3 SWAP8 SWAP7 POP POP POP POP POP POP POP JUMP JUMPDEST PUSH1 0x0 DUP1 PUSH2 0x1EC PUSH32 0x0 PUSH2 0x2BA JUMP JUMPDEST PUSH1 0x40 MLOAD PUSH1 0x1 PUSH1 0x1 PUSH1 0xA0 SHL SUB DUP3 AND DUP2 MSTORE SWAP1 SWAP2 POP PUSH32 0xAA98436D09D130AF48DE49867AF8B723BBBEBB0D737638B5FE8F1BF31BBB71C0 SWAP1 PUSH1 0x20 ADD PUSH1 0x40 MLOAD DUP1 SWAP2 SUB SWAP1 LOG1 PUSH1 0x40 MLOAD PUSH4 0xCC2A9A5B PUSH1 0xE0 SHL DUP2 MSTORE PUSH1 0x1 PUSH1 0x1 PUSH1 0xA0 SHL SUB DUP10 DUP2 AND PUSH1 0x4 DUP4 ADD MSTORE DUP9 DUP2 AND PUSH1 0x24 DUP4 ADD MSTORE DUP8 DUP2 AND PUSH1 0x44 DUP4 ADD MSTORE DUP7 DUP2 AND PUSH1 0x64 DUP4 ADD MSTORE DUP6 DUP2 AND PUSH1 0x84 DUP4 ADD MSTORE DUP5 DUP2 AND PUSH1 0xA4 DUP4 ADD MSTORE DUP3 AND SWAP1 PUSH4 0xCC2A9A5B SWAP1 PUSH1 0xC4 ADD PUSH1 0x0 PUSH1 0x40 MLOAD DUP1 DUP4 SUB DUP2 PUSH1 0x0 DUP8 DUP1 EXTCODESIZE ISZERO DUP1 ISZERO PUSH2 0x296 JUMPI PUSH1 0x0 DUP1 REVERT JUMPDEST POP GAS CALL ISZERO DUP1 ISZERO PUSH2 0x2AA JUMPI RETURNDATASIZE PUSH1 0x0 DUP1 RETURNDATACOPY RETURNDATASIZE PUSH1 0x0 REVERT JUMPDEST POP SWAP3 SWAP11 SWAP10 POP POP POP POP POP POP POP POP POP POP JUMP JUMPDEST PUSH1 0x0 DUP1 DUP3 PUSH1 0x60 SHL SWAP1 POP PUSH1 0x40 MLOAD PUSH20 0x3D602D80600A3D3981F3363D3D373D3D3D363D73 PUSH1 0x60 SHL DUP2 MSTORE DUP2 PUSH1 0x14 DUP3 ADD MSTORE PUSH15 0x5AF43D82803E903D91602B57FD5BF3 PUSH1 0x88 SHL PUSH1 0x28 DUP3 ADD MSTORE PUSH1 0x37 DUP2 PUSH1 0x0 CREATE SWAP5 SWAP4 POP POP POP POP JUMP JUMPDEST DUP1 CALLDATALOAD PUSH1 0x1 PUSH1 0x1 PUSH1 0xA0 SHL SUB DUP2 AND DUP2 EQ PUSH2 0x323 JUMPI PUSH1 0x0 DUP1 REVERT JUMPDEST SWAP2 SWAP1 POP JUMP JUMPDEST PUSH1 0x0 DUP1 PUSH1 0x0 PUSH1 0x60 DUP5 DUP7 SUB SLT ISZERO PUSH2 0x33D JUMPI PUSH1 0x0 DUP1 REVERT JUMPDEST PUSH2 0x346 DUP5 PUSH2 0x30C JUMP JUMPDEST SWAP3 POP PUSH2 0x354 PUSH1 0x20 DUP6 ADD PUSH2 0x30C JUMP JUMPDEST SWAP2 POP PUSH2 0x362 PUSH1 0x40 DUP6 ADD PUSH2 0x30C JUMP JUMPDEST SWAP1 POP SWAP3 POP SWAP3 POP SWAP3 JUMP JUMPDEST PUSH1 0x0 DUP1 PUSH1 0x0 DUP1 PUSH1 0x0 DUP1 PUSH1 0xC0 DUP8 DUP10 SUB SLT ISZERO PUSH2 0x384 JUMPI PUSH1 0x0 DUP1 REVERT JUMPDEST PUSH2 0x38D DUP8 PUSH2 0x30C JUMP JUMPDEST SWAP6 POP PUSH2 0x39B PUSH1 0x20 DUP9 ADD PUSH2 0x30C JUMP JUMPDEST SWAP5 POP PUSH2 0x3A9 PUSH1 0x40 DUP9 ADD PUSH2 0x30C JUMP JUMPDEST SWAP4 POP PUSH2 0x3B7 PUSH1 0x60 DUP9 ADD PUSH2 0x30C JUMP JUMPDEST SWAP3 POP PUSH2 0x3C5 PUSH1 0x80 DUP9 ADD PUSH2 0x30C JUMP JUMPDEST SWAP2 POP PUSH2 0x3D3 PUSH1 0xA0 DUP9 ADD PUSH2 0x30C JUMP JUMPDEST SWAP1 POP SWAP3 SWAP6 POP SWAP3 SWAP6 POP SWAP3 SWAP6 JUMP INVALID LOG2 PUSH5 0x6970667358 0x22 SLT KECCAK256 LOG1 MSIZE PUSH11 0x9B05678DC797423618BB64 0x2B DUP14 0xE5 CALLCODE 0xC8 PUSH17 0xCD26F65420923D38DF1E7FC664736F6C63 NUMBER STOP ADDMOD 0xC STOP CALLER ",
  "sha1": "9ef8c19e54d984f6e293c75d1914bec7eba803a8",
  "source": "// SPDX-License-Identifier: MIT\npragma solidity 0.8.12;\n\nimport \"./interfaces/IGauge.sol\";\nimport \"./interfaces/IExtraReward.sol\";\nimport \"./interfaces/IGaugeFactory.sol\";\n\n/** @title  GaugeFactory\n    @notice Creates Gauge and ExtraReward\n    @dev Uses clone to create new contracts\n */\ncontract GaugeFactory is IGaugeFactory {\n    address public immutable deployedGauge;\n    address public immutable deployedExtra;\n\n    event GaugeCreated(address gauge);\n    event ExtraRewardCreated(address extraReward);\n\n    constructor(address _deployedGauge, address _deployedExtra) {\n        deployedGauge = _deployedGauge;\n        deployedExtra = _deployedExtra;\n    }\n\n    /** @notice Create a new reward Gauge clone\n        @param _vault the vault address.\n        @param yfi the YFI token address.\n        @param owner owner\n        @param manager manager\n        @param ve veYFI\n        @param veYfiRewardPool veYfi RewardPool\n        @return gauge address\n    */\n    function createGauge(\n        address _vault,\n        address yfi,\n        address owner,\n        address manager,\n        address ve,\n        address veYfiRewardPool\n    ) external override returns (address) {\n        address newGauge = _clone(deployedGauge);\n        emit GaugeCreated(newGauge);\n        IGauge(newGauge).initialize(\n            _vault,\n            yfi,\n            owner,\n            manager,\n            ve,\n            veYfiRewardPool\n        );\n\n        return newGauge;\n    }\n\n    /** @notice Create ExtraReward clone\n        @param gauge the gauge associated with.\n        @param reward The token to distribute as a rewards\n        @param owner owner \n        @return ExtraReward address\n    */\n    function createExtraReward(\n        address gauge,\n        address reward,\n        address owner\n    ) external returns (address) {\n        address newExtraReward = _clone(deployedExtra);\n        emit ExtraRewardCreated(newExtraReward);\n        IExtraReward(newExtraReward).initialize(gauge, reward, owner);\n\n        return newExtraReward;\n    }\n\n    function _clone(address c) internal returns (address result) {\n        bytes20 targetBytes = bytes20(c);\n        assembly {\n            let clone := mload(0x40)\n            mstore(\n                clone,\n                0x3d602d80600a3d3981f3363d3d373d3d3d363d73000000000000000000000000\n            )\n            mstore(add(clone, 0x14), targetBytes)\n            mstore(\n                add(clone, 0x28),\n                0x5af43d82803e903d91602b57fd5bf30000000000000000000000000000000000\n            )\n            result := create(0, clone, 0x37)\n        }\n    }\n}\n",
  "sourcePath": "contracts/GaugeFactory.sol",
  "type": "contract"
}