{
  "abi": [
    {
      "anonymous": false,
      "inputs": [
        {
          "indexed": false,
          "internalType": "address",
          "name": "reward",
          "type": "address"
        }
      ],
      "name": "AddedExtraReward",
      "type": "event"
    },
    {
      "anonymous": false,
      "inputs": [
        {
          "indexed": false,
          "internalType": "address[]",
          "name": "rewards",
          "type": "address[]"
        }
      ],
      "name": "DeletedExtraRewards",
      "type": "event"
    },
    {
      "anonymous": false,
      "inputs": [
        {
          "indexed": false,
          "internalType": "uint256",
          "name": "duration",
          "type": "uint256"
        },
        {
          "indexed": false,
          "internalType": "uint256",
          "name": "rewardRate",
          "type": "uint256"
        }
      ],
      "name": "DurationUpdated",
      "type": "event"
    },
    {
      "anonymous": false,
      "inputs": [
        {
          "indexed": false,
          "internalType": "address",
          "name": "stakingToken",
          "type": "address"
        },
        {
          "indexed": false,
          "internalType": "address",
          "name": "rewardToken",
          "type": "address"
        },
        {
          "indexed": false,
          "internalType": "address",
          "name": "owner",
          "type": "address"
        },
        {
          "indexed": false,
          "internalType": "address",
          "name": "rewardManager",
          "type": "address"
        },
        {
          "indexed": false,
          "internalType": "address",
          "name": "ve",
          "type": "address"
        },
        {
          "indexed": false,
          "internalType": "address",
          "name": "veYfiRewardPool",
          "type": "address"
        }
      ],
      "name": "Initialized",
      "type": "event"
    },
    {
      "anonymous": false,
      "inputs": [
        {
          "indexed": true,
          "internalType": "address",
          "name": "previousOwner",
          "type": "address"
        },
        {
          "indexed": true,
          "internalType": "address",
          "name": "newOwner",
          "type": "address"
        }
      ],
      "name": "OwnershipTransferred",
      "type": "event"
    },
    {
      "anonymous": false,
      "inputs": [
        {
          "indexed": false,
          "internalType": "address",
          "name": "reward",
          "type": "address"
        }
      ],
      "name": "RemovedExtraReward",
      "type": "event"
    },
    {
      "anonymous": false,
      "inputs": [
        {
          "indexed": true,
          "internalType": "address",
          "name": "user",
          "type": "address"
        },
        {
          "indexed": false,
          "internalType": "uint256",
          "name": "reward",
          "type": "uint256"
        }
      ],
      "name": "RewardPaid",
      "type": "event"
    },
    {
      "anonymous": false,
      "inputs": [
        {
          "indexed": false,
          "internalType": "uint256",
          "name": "currentRewards",
          "type": "uint256"
        },
        {
          "indexed": false,
          "internalType": "uint256",
          "name": "lastUpdateTime",
          "type": "uint256"
        },
        {
          "indexed": false,
          "internalType": "uint256",
          "name": "periodFinish",
          "type": "uint256"
        },
        {
          "indexed": false,
          "internalType": "uint256",
          "name": "rewardRate",
          "type": "uint256"
        },
        {
          "indexed": false,
          "internalType": "uint256",
          "name": "historicalRewards",
          "type": "uint256"
        }
      ],
      "name": "RewardsAdded",
      "type": "event"
    },
    {
      "anonymous": false,
      "inputs": [
        {
          "indexed": false,
          "internalType": "address",
          "name": "from",
          "type": "address"
        },
        {
          "indexed": false,
          "internalType": "uint256",
          "name": "amount",
          "type": "uint256"
        }
      ],
      "name": "RewardsQueued",
      "type": "event"
    },
    {
      "anonymous": false,
      "inputs": [
        {
          "indexed": true,
          "internalType": "address",
          "name": "user",
          "type": "address"
        },
        {
          "indexed": false,
          "internalType": "uint256",
          "name": "amount",
          "type": "uint256"
        }
      ],
      "name": "Staked",
      "type": "event"
    },
    {
      "anonymous": false,
      "inputs": [
        {
          "indexed": false,
          "internalType": "address",
          "name": "token",
          "type": "address"
        },
        {
          "indexed": false,
          "internalType": "uint256",
          "name": "amount",
          "type": "uint256"
        }
      ],
      "name": "Sweep",
      "type": "event"
    },
    {
      "anonymous": false,
      "inputs": [
        {
          "indexed": false,
          "internalType": "address",
          "name": "rewardManager",
          "type": "address"
        }
      ],
      "name": "UpdatedRewardManager",
      "type": "event"
    },
    {
      "anonymous": false,
      "inputs": [
        {
          "indexed": false,
          "internalType": "address",
          "name": "account",
          "type": "address"
        },
        {
          "indexed": false,
          "internalType": "uint256",
          "name": "rewardPerTokenStored",
          "type": "uint256"
        },
        {
          "indexed": false,
          "internalType": "uint256",
          "name": "lastUpdateTime",
          "type": "uint256"
        },
        {
          "indexed": false,
          "internalType": "uint256",
          "name": "rewards",
          "type": "uint256"
        },
        {
          "indexed": false,
          "internalType": "uint256",
          "name": "userRewardPerTokenPaid",
          "type": "uint256"
        }
      ],
      "name": "UpdatedRewards",
      "type": "event"
    },
    {
      "anonymous": false,
      "inputs": [
        {
          "indexed": false,
          "internalType": "address",
          "name": "ve",
          "type": "address"
        }
      ],
      "name": "UpdatedVeToken",
      "type": "event"
    },
    {
      "anonymous": false,
      "inputs": [
        {
          "indexed": true,
          "internalType": "address",
          "name": "user",
          "type": "address"
        },
        {
          "indexed": false,
          "internalType": "uint256",
          "name": "amount",
          "type": "uint256"
        }
      ],
      "name": "Withdrawn",
      "type": "event"
    },
    {
      "inputs": [],
      "name": "GRACE_PERIOD",
      "outputs": [
        {
          "internalType": "uint256",
          "name": "",
          "type": "uint256"
        }
      ],
      "stateMutability": "view",
      "type": "function"
    },
    {
      "inputs": [],
      "name": "MAX_LOCK",
      "outputs": [
        {
          "internalType": "uint256",
          "name": "",
          "type": "uint256"
        }
      ],
      "stateMutability": "view",
      "type": "function"
    },
    {
      "inputs": [],
      "name": "PRECISON_FACTOR",
      "outputs": [
        {
          "internalType": "uint256",
          "name": "",
          "type": "uint256"
        }
      ],
      "stateMutability": "view",
      "type": "function"
    },
    {
      "inputs": [
        {
          "internalType": "address",
          "name": "_extraReward",
          "type": "address"
        }
      ],
      "name": "addExtraReward",
      "outputs": [
        {
          "internalType": "bool",
          "name": "",
          "type": "bool"
        }
      ],
      "stateMutability": "nonpayable",
      "type": "function"
    },
    {
      "inputs": [
        {
          "internalType": "address",
          "name": "account",
          "type": "address"
        }
      ],
      "name": "balanceOf",
      "outputs": [
        {
          "internalType": "uint256",
          "name": "",
          "type": "uint256"
        }
      ],
      "stateMutability": "view",
      "type": "function"
    },
    {
      "inputs": [
        {
          "internalType": "address",
          "name": "account",
          "type": "address"
        }
      ],
      "name": "boostedBalanceOf",
      "outputs": [
        {
          "internalType": "uint256",
          "name": "",
          "type": "uint256"
        }
      ],
      "stateMutability": "view",
      "type": "function"
    },
    {
      "inputs": [],
      "name": "clearExtraRewards",
      "outputs": [],
      "stateMutability": "nonpayable",
      "type": "function"
    },
    {
      "inputs": [],
      "name": "currentRewards",
      "outputs": [
        {
          "internalType": "uint256",
          "name": "",
          "type": "uint256"
        }
      ],
      "stateMutability": "view",
      "type": "function"
    },
    {
      "inputs": [
        {
          "internalType": "uint256",
          "name": "_amount",
          "type": "uint256"
        }
      ],
      "name": "deposit",
      "outputs": [
        {
          "internalType": "bool",
          "name": "",
          "type": "bool"
        }
      ],
      "stateMutability": "nonpayable",
      "type": "function"
    },
    {
      "inputs": [],
      "name": "deposit",
      "outputs": [
        {
          "internalType": "bool",
          "name": "",
          "type": "bool"
        }
      ],
      "stateMutability": "nonpayable",
      "type": "function"
    },
    {
      "inputs": [
        {
          "internalType": "address",
          "name": "_for",
          "type": "address"
        },
        {
          "internalType": "uint256",
          "name": "_amount",
          "type": "uint256"
        }
      ],
      "name": "depositFor",
      "outputs": [
        {
          "internalType": "bool",
          "name": "",
          "type": "bool"
        }
      ],
      "stateMutability": "nonpayable",
      "type": "function"
    },
    {
      "inputs": [],
      "name": "duration",
      "outputs": [
        {
          "internalType": "uint256",
          "name": "",
          "type": "uint256"
        }
      ],
      "stateMutability": "view",
      "type": "function"
    },
    {
      "inputs": [
        {
          "internalType": "address",
          "name": "account",
          "type": "address"
        }
      ],
      "name": "earned",
      "outputs": [
        {
          "internalType": "uint256",
          "name": "",
          "type": "uint256"
        }
      ],
      "stateMutability": "view",
      "type": "function"
    },
    {
      "inputs": [
        {
          "internalType": "uint256",
          "name": "",
          "type": "uint256"
        }
      ],
      "name": "extraRewards",
      "outputs": [
        {
          "internalType": "address",
          "name": "",
          "type": "address"
        }
      ],
      "stateMutability": "view",
      "type": "function"
    },
    {
      "inputs": [],
      "name": "extraRewardsLength",
      "outputs": [
        {
          "internalType": "uint256",
          "name": "",
          "type": "uint256"
        }
      ],
      "stateMutability": "view",
      "type": "function"
    },
    {
      "inputs": [],
      "name": "getReward",
      "outputs": [
        {
          "internalType": "bool",
          "name": "",
          "type": "bool"
        }
      ],
      "stateMutability": "nonpayable",
      "type": "function"
    },
    {
      "inputs": [
        {
          "internalType": "bool",
          "name": "_lock",
          "type": "bool"
        },
        {
          "internalType": "bool",
          "name": "_claimExtras",
          "type": "bool"
        }
      ],
      "name": "getReward",
      "outputs": [
        {
          "internalType": "bool",
          "name": "",
          "type": "bool"
        }
      ],
      "stateMutability": "nonpayable",
      "type": "function"
    },
    {
      "inputs": [
        {
          "internalType": "bool",
          "name": "_lock",
          "type": "bool"
        }
      ],
      "name": "getReward",
      "outputs": [
        {
          "internalType": "bool",
          "name": "",
          "type": "bool"
        }
      ],
      "stateMutability": "nonpayable",
      "type": "function"
    },
    {
      "inputs": [
        {
          "internalType": "address",
          "name": "_account",
          "type": "address"
        },
        {
          "internalType": "bool",
          "name": "_claimExtras",
          "type": "bool"
        }
      ],
      "name": "getRewardFor",
      "outputs": [
        {
          "internalType": "bool",
          "name": "",
          "type": "bool"
        }
      ],
      "stateMutability": "nonpayable",
      "type": "function"
    },
    {
      "inputs": [],
      "name": "historicalRewards",
      "outputs": [
        {
          "internalType": "uint256",
          "name": "",
          "type": "uint256"
        }
      ],
      "stateMutability": "view",
      "type": "function"
    },
    {
      "inputs": [
        {
          "internalType": "address",
          "name": "_stakingToken",
          "type": "address"
        },
        {
          "internalType": "address",
          "name": "_rewardToken",
          "type": "address"
        },
        {
          "internalType": "address",
          "name": "_owner",
          "type": "address"
        },
        {
          "internalType": "address",
          "name": "_rewardManager",
          "type": "address"
        },
        {
          "internalType": "address",
          "name": "_ve",
          "type": "address"
        },
        {
          "internalType": "address",
          "name": "_veYfiRewardPool",
          "type": "address"
        }
      ],
      "name": "initialize",
      "outputs": [],
      "stateMutability": "nonpayable",
      "type": "function"
    },
    {
      "inputs": [],
      "name": "lastTimeRewardApplicable",
      "outputs": [
        {
          "internalType": "uint256",
          "name": "",
          "type": "uint256"
        }
      ],
      "stateMutability": "view",
      "type": "function"
    },
    {
      "inputs": [],
      "name": "lastUpdateTime",
      "outputs": [
        {
          "internalType": "uint256",
          "name": "",
          "type": "uint256"
        }
      ],
      "stateMutability": "view",
      "type": "function"
    },
    {
      "inputs": [
        {
          "internalType": "address",
          "name": "account",
          "type": "address"
        }
      ],
      "name": "lockingRatio",
      "outputs": [
        {
          "internalType": "uint256",
          "name": "",
          "type": "uint256"
        }
      ],
      "stateMutability": "view",
      "type": "function"
    },
    {
      "inputs": [],
      "name": "owner",
      "outputs": [
        {
          "internalType": "address",
          "name": "",
          "type": "address"
        }
      ],
      "stateMutability": "view",
      "type": "function"
    },
    {
      "inputs": [],
      "name": "periodFinish",
      "outputs": [
        {
          "internalType": "uint256",
          "name": "",
          "type": "uint256"
        }
      ],
      "stateMutability": "view",
      "type": "function"
    },
    {
      "inputs": [
        {
          "internalType": "uint256",
          "name": "_amount",
          "type": "uint256"
        }
      ],
      "name": "queueNewRewards",
      "outputs": [
        {
          "internalType": "bool",
          "name": "",
          "type": "bool"
        }
      ],
      "stateMutability": "nonpayable",
      "type": "function"
    },
    {
      "inputs": [],
      "name": "queuedPenalty",
      "outputs": [
        {
          "internalType": "uint256",
          "name": "",
          "type": "uint256"
        }
      ],
      "stateMutability": "view",
      "type": "function"
    },
    {
      "inputs": [],
      "name": "queuedRewards",
      "outputs": [
        {
          "internalType": "uint256",
          "name": "",
          "type": "uint256"
        }
      ],
      "stateMutability": "view",
      "type": "function"
    },
    {
      "inputs": [
        {
          "internalType": "address",
          "name": "_extraReward",
          "type": "address"
        }
      ],
      "name": "removeExtraReward",
      "outputs": [
        {
          "internalType": "bool",
          "name": "",
          "type": "bool"
        }
      ],
      "stateMutability": "nonpayable",
      "type": "function"
    },
    {
      "inputs": [],
      "name": "renounceOwnership",
      "outputs": [],
      "stateMutability": "nonpayable",
      "type": "function"
    },
    {
      "inputs": [],
      "name": "rewardManager",
      "outputs": [
        {
          "internalType": "address",
          "name": "",
          "type": "address"
        }
      ],
      "stateMutability": "view",
      "type": "function"
    },
    {
      "inputs": [],
      "name": "rewardPerToken",
      "outputs": [
        {
          "internalType": "uint256",
          "name": "",
          "type": "uint256"
        }
      ],
      "stateMutability": "view",
      "type": "function"
    },
    {
      "inputs": [],
      "name": "rewardPerTokenStored",
      "outputs": [
        {
          "internalType": "uint256",
          "name": "",
          "type": "uint256"
        }
      ],
      "stateMutability": "view",
      "type": "function"
    },
    {
      "inputs": [],
      "name": "rewardRate",
      "outputs": [
        {
          "internalType": "uint256",
          "name": "",
          "type": "uint256"
        }
      ],
      "stateMutability": "view",
      "type": "function"
    },
    {
      "inputs": [],
      "name": "rewardToken",
      "outputs": [
        {
          "internalType": "contract IERC20",
          "name": "",
          "type": "address"
        }
      ],
      "stateMutability": "view",
      "type": "function"
    },
    {
      "inputs": [
        {
          "internalType": "address",
          "name": "",
          "type": "address"
        }
      ],
      "name": "rewards",
      "outputs": [
        {
          "internalType": "uint256",
          "name": "",
          "type": "uint256"
        }
      ],
      "stateMutability": "view",
      "type": "function"
    },
    {
      "inputs": [
        {
          "internalType": "uint256",
          "name": "newDuration",
          "type": "uint256"
        }
      ],
      "name": "setDuration",
      "outputs": [],
      "stateMutability": "nonpayable",
      "type": "function"
    },
    {
      "inputs": [
        {
          "internalType": "address",
          "name": "_rewardManager",
          "type": "address"
        }
      ],
      "name": "setRewardManager",
      "outputs": [
        {
          "internalType": "bool",
          "name": "",
          "type": "bool"
        }
      ],
      "stateMutability": "nonpayable",
      "type": "function"
    },
    {
      "inputs": [
        {
          "internalType": "address",
          "name": "_ve",
          "type": "address"
        }
      ],
      "name": "setVe",
      "outputs": [],
      "stateMutability": "nonpayable",
      "type": "function"
    },
    {
      "inputs": [],
      "name": "stakingToken",
      "outputs": [
        {
          "internalType": "contract IERC20",
          "name": "",
          "type": "address"
        }
      ],
      "stateMutability": "view",
      "type": "function"
    },
    {
      "inputs": [
        {
          "internalType": "address",
          "name": "_token",
          "type": "address"
        }
      ],
      "name": "sweep",
      "outputs": [
        {
          "internalType": "bool",
          "name": "",
          "type": "bool"
        }
      ],
      "stateMutability": "nonpayable",
      "type": "function"
    },
    {
      "inputs": [],
      "name": "totalSupply",
      "outputs": [
        {
          "internalType": "uint256",
          "name": "",
          "type": "uint256"
        }
      ],
      "stateMutability": "view",
      "type": "function"
    },
    {
      "inputs": [
        {
          "internalType": "address",
          "name": "newOwner",
          "type": "address"
        }
      ],
      "name": "transferOwnership",
      "outputs": [],
      "stateMutability": "nonpayable",
      "type": "function"
    },
    {
      "inputs": [],
      "name": "transferQueuedPenalty",
      "outputs": [
        {
          "internalType": "bool",
          "name": "",
          "type": "bool"
        }
      ],
      "stateMutability": "nonpayable",
      "type": "function"
    },
    {
      "inputs": [
        {
          "internalType": "address",
          "name": "",
          "type": "address"
        }
      ],
      "name": "userRewardPerTokenPaid",
      "outputs": [
        {
          "internalType": "uint256",
          "name": "",
          "type": "uint256"
        }
      ],
      "stateMutability": "view",
      "type": "function"
    },
    {
      "inputs": [],
      "name": "veToken",
      "outputs": [
        {
          "internalType": "address",
          "name": "",
          "type": "address"
        }
      ],
      "stateMutability": "view",
      "type": "function"
    },
    {
      "inputs": [],
      "name": "veYfiRewardPool",
      "outputs": [
        {
          "internalType": "address",
          "name": "",
          "type": "address"
        }
      ],
      "stateMutability": "view",
      "type": "function"
    },
    {
      "inputs": [],
      "name": "withdraw",
      "outputs": [
        {
          "internalType": "bool",
          "name": "",
          "type": "bool"
        }
      ],
      "stateMutability": "nonpayable",
      "type": "function"
    },
    {
      "inputs": [
        {
          "internalType": "bool",
          "name": "_claim",
          "type": "bool"
        },
        {
          "internalType": "bool",
          "name": "_lock",
          "type": "bool"
        }
      ],
      "name": "withdraw",
      "outputs": [
        {
          "internalType": "bool",
          "name": "",
          "type": "bool"
        }
      ],
      "stateMutability": "nonpayable",
      "type": "function"
    },
    {
      "inputs": [
        {
          "internalType": "uint256",
          "name": "_amount",
          "type": "uint256"
        },
        {
          "internalType": "bool",
          "name": "_claim",
          "type": "bool"
        },
        {
          "internalType": "bool",
          "name": "_lock",
          "type": "bool"
        }
      ],
      "name": "withdraw",
      "outputs": [
        {
          "internalType": "bool",
          "name": "",
          "type": "bool"
        }
      ],
      "stateMutability": "nonpayable",
      "type": "function"
    },
    {
      "inputs": [
        {
          "internalType": "bool",
          "name": "_claim",
          "type": "bool"
        }
      ],
      "name": "withdraw",
      "outputs": [
        {
          "internalType": "bool",
          "name": "",
          "type": "bool"
        }
      ],
      "stateMutability": "nonpayable",
      "type": "function"
    }
  ],
  "bytecode": "608060405234801561001057600080fd5b5061001a3361001f565b61006f565b600080546001600160a01b038381166001600160a01b0319831681178455604051919092169283917f8be0079c531659141344cd1fd0a4f28419497f9722a3daafe3b4186f6b6457e09190a35050565b61291b8061007e6000396000f3fe608060405234801561001057600080fd5b506004361061030b5760003560e01c80637a2388551161019d578063c1a287e2116100e9578063deee8e54116100a2578063f2fde38b1161007c578063f2fde38b14610629578063f579513f1461063c578063f6be71d11461064f578063f7c618c11461066257600080fd5b8063deee8e5414610604578063df136d6514610617578063ebe2b12b1461062057600080fd5b8063c1a287e2146105c6578063c8f33c91146105d0578063cc2a9a5b146105d9578063cd3daf9d146105ec578063d0e30db0146105f4578063d55a23f4146105fc57600080fd5b8063920e821711610156578063a4698feb11610130578063a4698feb1461057a578063a80ff90a1461058d578063a810a54c146105a0578063b6b55f25146105b357600080fd5b8063920e82171461054a57806392930b45146105545780639e15977f1461056757600080fd5b80637a238855146104ec5780637b0a47ee146104ff57806380faa57d146105085780638b876347146105105780638da5cb5b14610530578063901a7d531461054157600080fd5b80633ccfd60b1161025c5780635e43c47b116102155780636a4ac73b116101ef5780636a4ac73b1461049557806370a08231146104a8578063715018a6146104d157806372f702f3146104d957600080fd5b80635e43c47b1461046e57806363d38c3b1461048157806365a5d5f01461048a57600080fd5b80633ccfd60b1461041c5780633d18b9121461042457806340c354461461042c578063425b6e2f1461043f57806342886b6714610452578063590a41f51461045b57600080fd5b8063153ee554116102c9578063262d3d6d116102a3578063262d3d6d146103e557806326f553e9146103ee5780632f4f21e2146103f65780633b92eb231461040957600080fd5b8063153ee554146103b757806318160ddd146103ca5780631beabcd2146103d257600080fd5b80628cc2621461031057806301681a62146103365780630569d388146103595780630700037d146103635780630f4ef8a6146103835780630fb5a6b4146103ae575b600080fd5b61032361031e366004612529565b610675565b6040519081526020015b60405180910390f35b610349610344366004612529565b6106d0565b604051901515815260200161032d565b610361610821565b005b610323610371366004612529565b600b6020526000908152604090205481565b600f54610396906001600160a01b031681565b6040516001600160a01b03909116815260200161032d565b61032360025481565b6103496103c5366004612529565b610891565b601154610323565b6103236103e0366004612529565b610982565b61032360095481565b610349610993565b610349610404366004612544565b610a8f565b600d54610396906001600160a01b031681565b610349610aa4565b610349610ac7565b61039661043a36600461256e565b610ae9565b61034961044d366004612595565b610b13565b61032360105481565b61034961046936600461256e565b610b34565b61034961047c366004612529565b610c53565b61032360075481565b610323630784ce0081565b6103496104a3366004612595565b610d5a565b6103236104b6366004612529565b6001600160a01b031660009081526012602052604090205490565b610361610d75565b600c54610396906001600160a01b031681565b6103616104fa366004612529565b610da9565b61032360045481565b610323610e28565b61032361051e366004612529565b600a6020526000908152604090205481565b6000546001600160a01b0316610396565b61032360085481565b610323620f424081565b6103496105623660046125ce565b610e3b565b600e54610396906001600160a01b031681565b610349610588366004612610565b610fe9565b61034961059b366004612529565b611001565b6103496105ae366004612610565b6111d1565b6103496105c136600461256e565b6111ec565b61032362278d0081565b61032360055481565b6103616105e736600461262d565b611200565b610323611473565b61034961147d565b601354610323565b610323610612366004612529565b611573565b61032360065481565b61032360035481565b610361610637366004612529565b61157e565b61034961064a3660046126a1565b611619565b61036161065d36600461256e565b611631565b600154610396906001600160a01b031681565b600080610681836116eb565b6001600160a01b0384166000908152600b6020526040902054909150620f4240826106ab8661173d565b6106b591906126d3565b6106bf91906126f2565b6106c99190612714565b9392505050565b600080546001600160a01b031633146107045760405162461bcd60e51b81526004016106fb9061272c565b60405180910390fd5b61070d8261189c565b61074b5760405162461bcd60e51b815260206004820152600f60248201526e383937ba32b1ba32b2103a37b5b2b760891b60448201526064016106fb565b6040516370a0823160e01b81523060048201526000906001600160a01b038416906370a0823190602401602060405180830381865afa158015610792573d6000803e3d6000fd5b505050506040513d601f19601f820116820180604052508101906107b69190612761565b90506107d4836107ce6000546001600160a01b031690565b836118ce565b604080516001600160a01b0385168152602081018390527fab2246061d7b0dd3631d037e3f6da75782ae489eeb9f6af878a4b25df9b07c77910160405180910390a160019150505b919050565b600f546001600160a01b0316331461084b5760405162461bcd60e51b81526004016106fb9061277a565b7f90503a14a60f24042ca91fabb5544c78b3845cf06963fb78adac5538b9138111601360405161087b919061279f565b60405180910390a161088f601360006124e4565b565b600f546000906001600160a01b03163314806108b757506000546001600160a01b031633145b6108d35760405162461bcd60e51b81526004016106fb9061277a565b6001600160a01b0382166109295760405162461bcd60e51b815260206004820152601a60248201527f5f7265776172644d616e6167657220307830206164647265737300000000000060448201526064016106fb565b600f80546001600160a01b0319166001600160a01b0384169081179091556040519081527f79ecf8371e520ae99bd7ba1f0e87dcc921a946d9ca58230eef986803e0ac9c459060200160405180910390a1506001919050565b600061098d82611936565b92915050565b60108054600091829055600154600e5460405163095ea7b360e01b81526001600160a01b0391821660048201526024810184905291169063095ea7b3906044016020604051808303816000875af11580156109f2573d6000803e3d6000fd5b505050506040513d601f19601f82011682018060405250810190610a1691906127ef565b50600e5460405163590a41f560e01b8152600481018390526001600160a01b039091169063590a41f5906024016020604051808303816000875af1158015610a62573d6000803e3d6000fd5b505050506040513d601f19601f82011682018060405250810190610a8691906127ef565b50600191505090565b6000610a9b8383611ac3565b50600192915050565b33600090815260126020526040812054610abf908280610e3b565b506001905090565b600033610ad381611c76565b610ae03360006001611df3565b600191505b5090565b60138181548110610af957600080fd5b6000918252602090912001546001600160a01b0316905081565b600033610b1f81611c76565b610b2a338585611df3565b5060019392505050565b600081610b695760405162461bcd60e51b815260206004820152600360248201526203d3d360ec1b60448201526064016106fb565b600154610b81906001600160a01b0316333085612029565b60408051338152602081018490527f1c88aa9a39b1a6357a85c97a3bd4e2b0738e74c68b92928276bc85f495b2450b910160405180910390a1600754610bc79083612714565b91506003544210610be757610bdb82612061565b50506000600755600190565b6000600254600354610bf9919061280c565b610c03904261280c565b9050600060045482610c1591906126d3565b905083600a610c2583600c6126d3565b610c2f91906126f2565b1015610c4857610c3e84612061565b6000600755610b2a565b505050600755600190565b600f546000906001600160a01b03163314610c805760405162461bcd60e51b81526004016106fb9061277a565b6001600160a01b038216610cc85760405162461bcd60e51b815260206004820152600f60248201526e217265776172642073657474696e6760881b60448201526064016106fb565b6040516001600160a01b03831681527f7a486d506196e4ae0e0b063acca8cb3e3128c1ba505cd447ed148222c2d0b1539060200160405180910390a15060138054600180820183556000929092527f66de8ffda797e3de9c05e8fc57b3bf0ec28a930d40b0d285d93c06501cf6a0900180546001600160a01b0319166001600160a01b03939093169290921790915590565b33600090815260126020526040812054610b2a908484610e3b565b6000546001600160a01b03163314610d9f5760405162461bcd60e51b81526004016106fb9061272c565b61088f6000612157565b6000546001600160a01b03163314610dd35760405162461bcd60e51b81526004016106fb9061272c565b600d80546001600160a01b0319166001600160a01b0383169081179091556040519081527f0f382d8404a45286f6180665c3eb5574df3e6efdd99ad2e652d8f5d904f264f0906020015b60405180910390a150565b6000610e36426003546121a7565b905090565b600033610e4781611c76565b60008511610e975760405162461bcd60e51b815260206004820152601e60248201527f526577617264506f6f6c203a2043616e6e6f742077697468647261772030000060448201526064016106fb565b60135460005b81811015610f425760138181548110610eb857610eb8612823565b6000918252602090912001546040516314640f3760e31b81523360048201526001600160a01b039091169063a32079b8906024016020604051808303816000875af1158015610f0b573d6000803e3d6000fd5b505050506040513d601f19601f82011682018060405250810190610f2f91906127ef565b5080610f3a81612839565b915050610e9d565b5085601154610f51919061280c565b60115533600090815260126020526040902054610f6f90879061280c565b336000908152601260205260409020558415610f9157610f9133856001611df3565b600c54610fa8906001600160a01b031633886118ce565b60405186815233907f7084f5476618d8e60b11ef0d7d3f06914655adb8793e28ff7f018d4c76d505d59060200160405180910390a250600195945050505050565b600033610ff581611c76565b610a9b33846001611df3565b600f546000906001600160a01b0316331461102e5760405162461bcd60e51b81526004016106fb9061277a565b6013546000199060005b8181101561109257846001600160a01b03166013828154811061105d5761105d612823565b6000918252602090912001546001600160a01b0316141561108057809250611092565b8061108a81612839565b915050611038565b506000198214156110de5760405162461bcd60e51b8152602060048201526016602482015275195e1d1c98481c995dd85c99081b9bdd08199bdd5b9960521b60448201526064016106fb565b6040516001600160a01b03851681527f8b6e4849b65ba893304022bd0f251b5584e334b1e08550e629e83d733745ed469060200160405180910390a16013805461112a9060019061280c565b8154811061113a5761113a612823565b600091825260209091200154601380546001600160a01b03909216918490811061116657611166612823565b9060005260206000200160006101000a8154816001600160a01b0302191690836001600160a01b0316021790555060138054806111a5576111a5612854565b600082815260209020810160001990810180546001600160a01b03191690550190555060019392505050565b33600090815260126020526040812054610a9b908383610e3b565b60006111f83383611ac3565b506001919050565b600054600160a81b900460ff1661122457600054600160a01b900460ff1615611228565b303b155b61128b5760405162461bcd60e51b815260206004820152602e60248201527f496e697469616c697a61626c653a20636f6e747261637420697320616c72656160448201526d191e481a5b9a5d1a585b1a5e995960921b60648201526084016106fb565b600054600160a81b900460ff161580156112b5576000805461ffff60a01b191661010160a01b1790555b6001600160a01b03871661130b5760405162461bcd60e51b815260206004820152601960248201527f5f7374616b696e67546f6b656e2030783020616464726573730000000000000060448201526064016106fb565b6001600160a01b0383166113535760405162461bcd60e51b815260206004820152600f60248201526e5f766520307830206164647265737360881b60448201526064016106fb565b6001600160a01b0382166113a95760405162461bcd60e51b815260206004820152601c60248201527f5f7665596669526577617264506f6f6c2030783020616464726573730000000060448201526064016106fb565b6113b386866121bd565b600c80546001600160a01b038981166001600160a01b03199283168117909355600d80548783169084168117909155600f80548984169085168117909155600e8054888516951685179055604080519586528b84166020870152928a16928501929092526060840191909152608083015260a08201527f58ca036ed94ee2b2004adac9f54a88961a882010564179aefa6106f7977102a99060c00160405180910390a1801561146a576000805460ff60a81b191690555b50505050505050565b6000610e36612242565b600c546040516370a0823160e01b81523360048201526000918291611567916001600160a01b0316906370a0823190602401602060405180830381865afa1580156114cc573d6000803e3d6000fd5b505050506040513d601f19601f820116820180604052508101906114f09190612761565b600c54604051636eb1769f60e11b81523360048201523060248201526001600160a01b039091169063dd62ed3e90604401602060405180830381865afa15801561153e573d6000803e3d6000fd5b505050506040513d601f19601f820116820180604052508101906115629190612761565b6121a7565b9050610ae03382611ac3565b600061098d8261173d565b6000546001600160a01b031633146115a85760405162461bcd60e51b81526004016106fb9061272c565b6001600160a01b03811661160d5760405162461bcd60e51b815260206004820152602660248201527f4f776e61626c653a206e6577206f776e657220697320746865207a65726f206160448201526564647265737360d01b60648201526084016106fb565b61161681612157565b50565b60008261162581611c76565b610b2a84600085611df3565b6000546001600160a01b0316331461165b5760405162461bcd60e51b81526004016106fb9061272c565b600061166681611c76565b6003544210156116a457600042600354611680919061280c565b905060006004548261169291906126d3565b905061169e84826126f2565b60045550505b60028290556004546040805184815260208101929092527ff899c6d536e6cda78c5f4dce43ca0e8c47167deb2875ea8b777f21cc85899b1f91015b60405180910390a15050565b6001600160a01b0381166000908152600a6020526040812054670de0b6b3a764000090611716612242565b611720919061280c565b61172984611936565b61173391906126d3565b61098d91906126f2565b600d5460408051631705a3bd60e01b815290516000926001600160a01b031691631705a3bd9160048083019260209291908290030181865afa158015611787573d6000803e3d6000fd5b505050506040513d601f19601f820116820180604052508101906117ab91906127ef565b156117ba5750620f4240919050565b600d5460405163adc6358960e01b81526001600160a01b038481166004830152600092169063adc6358990602401602060405180830381865afa158015611805573d6000803e3d6000fd5b505050506040513d601f19601f820116820180604052508101906118299190612761565b90508015806118385750428111155b156118465750600092915050565b6000611852428361280c565b905062278d0061186682630784ce0061280c565b10156118785750620f42409392505050565b630784ce0061188a82620f42406126d3565b61189491906126f2565b949350505050565b6001546000906001600160a01b0383811691161480159061098d575050600c546001600160a01b039081169116141590565b6040516001600160a01b03831660248201526044810182905261193190849063a9059cbb60e01b906064015b60408051601f198184030181529190526020810180516001600160e01b03166001600160e01b0319909316929092179091526122a6565b505050565b600080600d60009054906101000a90046001600160a01b03166001600160a01b03166318160ddd6040518163ffffffff1660e01b8152600401602060405180830381865afa15801561198c573d6000803e3d6000fd5b505050506040513d601f19601f820116820180604052508101906119b09190612761565b9050806119d45750506001600160a01b031660009081526012602052604090205490565b600d546040516370a0823160e01b81526001600160a01b0385811660048301526106c9926064928592909116906370a0823190602401602060405180830381865afa158015611a27573d6000803e3d6000fd5b505050506040513d601f19601f82011682018060405250810190611a4b9190612761565b601154611a5891906126d3565b611a6291906126f2565b611a6d90603c6126d3565b6001600160a01b038616600090815260126020526040902054611a919060286126d3565b611a9b9190612714565b611aa591906126f2565b6001600160a01b0385166000908152601260205260409020546121a7565b81611acd81611c76565b60008211611b1d5760405162461bcd60e51b815260206004820152601d60248201527f526577617264506f6f6c203a2043616e6e6f74206465706f736974203000000060448201526064016106fb565b60135460005b81811015611bca5760138181548110611b3e57611b3e612823565b6000918252602090912001546040516314640f3760e31b81526001600160a01b0387811660048301529091169063a32079b8906024016020604051808303816000875af1158015611b93573d6000803e3d6000fd5b505050506040513d601f19601f82011682018060405250810190611bb791906127ef565b5080611bc281612839565b915050611b23565b5082601154611bd99190612714565b6011556001600160a01b038416600090815260126020526040902054611c00908490612714565b6001600160a01b03808616600090815260126020526040902091909155600c54611c2d9116333086612029565b836001600160a01b03167f9e71bc8eea02a63969f509818f2dafb9254532904319f9dbda79b67bd34a5f3d84604051611c6891815260200190565b60405180910390a250505050565b611c7e612242565b600655611c89610e28565b6005556001600160a01b03811615611616576001600160a01b03811660009081526012602052604090205415611d7b576000611cc4826116eb565b90506000611cd183612378565b90506000620f424083611ce38661173d565b611cf090620f424061280c565b611cfa91906126d3565b611d0491906126f2565b9050611d10818461280c565b6001600160a01b0385166000908152600b602052604081208054909190611d38908490612714565b925050819055508060106000828254611d519190612714565b90915550611d619050838361280c565b60076000828254611d729190612714565b90915550505050505b6006546001600160a01b0382166000818152600a60208181526040808420869055600554600b835293819020549282528051948552908401859052830191909152606082015260808101919091527ffbe590c835e1c07f8e971c36021d1be46f43f7b0b6dc5413dbd5753590569d589060a001610e1d565b6001600160a01b0383166000908152600b60205260409020548015611f6f576001600160a01b0384166000908152600b60205260408120558215611f1457600154600d5460405163095ea7b360e01b81526001600160a01b0391821660048201526024810184905291169063095ea7b3906044016020604051808303816000875af1158015611e86573d6000803e3d6000fd5b505050506040513d601f19601f82011682018060405250810190611eaa91906127ef565b50600d54604051631d23139f60e11b8152336004820152602481018390526001600160a01b0390911690633a46273e90604401600060405180830381600087803b158015611ef757600080fd5b505af1158015611f0b573d6000803e3d6000fd5b50505050611f2b565b600154611f2b906001600160a01b031685836118ce565b836001600160a01b03167fe2403640ba68fed3a2f88b7557551d1993f84b99bb10ff833f0cf8db0c5e048682604051611f6691815260200190565b60405180910390a25b81156120235760135460005b818110156120205760138181548110611f9657611f96612823565b60009182526020909120015460405163055de27560e01b81523360048201526001600160a01b039091169063055de275906024016020604051808303816000875af1158015611fe9573d6000803e3d6000fd5b505050506040513d601f19601f8201168201806040525081019061200d91906127ef565b508061201881612839565b915050611f7b565b50505b50505050565b6040516001600160a01b03808516602483015283166044820152606481018290526120239085906323b872dd60e01b906084016118fa565b600061206c81611c76565b8160095461207a9190612714565b600955600354421061209b5760025461209390836126f2565b6004556120df565b6000426003546120ab919061280c565b90506000600454826120bd91906126d3565b90506120c98185612714565b9350600254846120d991906126f2565b60045550505b60088290554260058190556002546120f691612714565b600381905560085460055460045460095460408051948552602085019390935291830193909352606082019290925260808101919091527f944ffd3678415a15cbfef07dd7d9f20cdc6f36d12588a4ba7e8eb440f32c61be9060a0016116df565b600080546001600160a01b038381166001600160a01b0319831681178455604051919092169283917f8be0079c531659141344cd1fd0a4f28419497f9722a3daafe3b4186f6b6457e09190a35050565b60008183106121b657816106c9565b5090919050565b6001600160a01b0382166122135760405162461bcd60e51b815260206004820152601860248201527f5f726577617264546f6b656e203078302061646472657373000000000000000060448201526064016106fb565b600180546001600160a01b0319166001600160a01b03841617905562093a8060025561223e81612157565b5050565b600061224d60115490565b612258575060065490565b601154600454600554612269610e28565b612273919061280c565b61227d91906126d3565b61228f90670de0b6b3a76400006126d3565b61229991906126f2565b600654610e369190612714565b60006122fb826040518060400160405280602081526020017f5361666545524332303a206c6f772d6c6576656c2063616c6c206661696c6564815250856001600160a01b03166123d09092919063ffffffff16565b805190915015611931578080602001905181019061231991906127ef565b6119315760405162461bcd60e51b815260206004820152602a60248201527f5361666545524332303a204552433230206f7065726174696f6e20646964206e6044820152691bdd081cdd58d8d9595960b21b60648201526084016106fb565b6001600160a01b0381166000908152600a6020526040812054670de0b6b3a7640000906123a3612242565b6123ad919061280c565b6001600160a01b03841660009081526012602052604090205461173391906126d3565b60606118948484600085856001600160a01b0385163b6124325760405162461bcd60e51b815260206004820152601d60248201527f416464726573733a2063616c6c20746f206e6f6e2d636f6e747261637400000060448201526064016106fb565b600080866001600160a01b0316858760405161244e9190612896565b60006040518083038185875af1925050503d806000811461248b576040519150601f19603f3d011682016040523d82523d6000602084013e612490565b606091505b50915091506124a08282866124ab565b979650505050505050565b606083156124ba5750816106c9565b8251156124ca5782518084602001fd5b8160405162461bcd60e51b81526004016106fb91906128b2565b508054600082559060005260206000209081019061161691905b80821115610ae557600081556001016124fe565b80356001600160a01b038116811461081c57600080fd5b60006020828403121561253b57600080fd5b6106c982612512565b6000806040838503121561255757600080fd5b61256083612512565b946020939093013593505050565b60006020828403121561258057600080fd5b5035919050565b801515811461161657600080fd5b600080604083850312156125a857600080fd5b82356125b381612587565b915060208301356125c381612587565b809150509250929050565b6000806000606084860312156125e357600080fd5b8335925060208401356125f581612587565b9150604084013561260581612587565b809150509250925092565b60006020828403121561262257600080fd5b81356106c981612587565b60008060008060008060c0878903121561264657600080fd5b61264f87612512565b955061265d60208801612512565b945061266b60408801612512565b935061267960608801612512565b925061268760808801612512565b915061269560a08801612512565b90509295509295509295565b600080604083850312156126b457600080fd5b6125b383612512565b634e487b7160e01b600052601160045260246000fd5b60008160001904831182151516156126ed576126ed6126bd565b500290565b60008261270f57634e487b7160e01b600052601260045260246000fd5b500490565b60008219821115612727576127276126bd565b500190565b6020808252818101527f4f776e61626c653a2063616c6c6572206973206e6f7420746865206f776e6572604082015260600190565b60006020828403121561277357600080fd5b5051919050565b6020808252600b908201526a08585d5d1a1bdc9a5e995960aa1b604082015260600190565b6020808252825482820181905260008481528281209092916040850190845b818110156127e35783546001600160a01b0316835260019384019392850192016127be565b50909695505050505050565b60006020828403121561280157600080fd5b81516106c981612587565b60008282101561281e5761281e6126bd565b500390565b634e487b7160e01b600052603260045260246000fd5b600060001982141561284d5761284d6126bd565b5060010190565b634e487b7160e01b600052603160045260246000fd5b60005b8381101561288557818101518382015260200161286d565b838111156120235750506000910152565b600082516128a881846020870161286a565b9190910192915050565b60208152600082518060208401526128d181604085016020870161286a565b601f01601f1916919091016040019291505056fea264697066735822122060d44fafd2a6f74cee023d9a1e77dc96b76d8320a93eaf21e2103e6fa367e9ac64736f6c634300080c0033",
  "bytecodeSha1": "268b2ccc9915d585125c70d5764d1284a9f03d6f",
  "compiler": {
    "evm_version": "istanbul",
    "optimizer": {
      "enabled": true,
      "runs": 200
    },
    "version": "0.8.12+commit.f00d7308"
  },
  "contractName": "Gauge",
  "language": "Solidity",
  "natspec": {
    "details": "this contract is used behind multiple delegate proxies.",
    "kind": "dev",
    "methods": {
      "addExtraReward(address)": {
        "details": "can only be done by rewardManager",
        "notice": "add extra rewards to the gauge",
        "params": {
          "_extraReward": "the ExtraReward contract address"
        },
        "returns": {
          "_0": "true"
        }
      },
      "balanceOf(address)": {
        "params": {
          "account": "to look balance for"
        },
        "returns": {
          "_0": "amount of staked token for an account"
        }
      },
      "boostedBalanceOf(address)": {
        "details": "min(balance * 0.4 + totalSupply * veYFIBalance / veYFITotalSypply * 0.6, balance)",
        "notice": "boosted balance of based on veYFI balance",
        "returns": {
          "_0": "boosted balance"
        }
      },
      "clearExtraRewards()": {
        "details": "can only be done by rewardManager",
        "notice": "remove extra rewards"
      },
      "deposit()": {
        "details": "a user without a veYFI should not lock.will deposit the min betwwen user balance and user approvalThis call update claimable rewards",
        "notice": "deposit vault tokens into the gauge",
        "returns": {
          "_0": "true"
        }
      },
      "deposit(uint256)": {
        "details": "a user without a veYFI should not lock.This call update claimable rewards",
        "notice": "deposit vault tokens into the gauge",
        "params": {
          "_amount": "of vault token"
        },
        "returns": {
          "_0": "true"
        }
      },
      "depositFor(address,uint256)": {
        "details": "vault token is taken from msg.senderThis call update  `_for` claimable rewards",
        "notice": "deposit vault tokens into the gauge for a user",
        "params": {
          "_amount": "to deposit",
          "_for": "account to deposit to"
        },
        "returns": {
          "_0": "true"
        }
      },
      "earned(address)": {
        "details": "earning are based on lock duration and boost",
        "notice": "earning for an account",
        "returns": {
          "_0": "amount of tokens earned"
        }
      },
      "extraRewardsLength()": {
        "returns": {
          "_0": "the number of extra rewards pool"
        }
      },
      "getReward()": {
        "notice": "Get rewards and claim extra rewards, do not lock YFI earned",
        "returns": {
          "_0": "true"
        }
      },
      "getReward(bool)": {
        "notice": "Get rewards and claim extra rewards",
        "params": {
          "_lock": "should the yfi be locked in veYFI"
        },
        "returns": {
          "_0": "true"
        }
      },
      "getReward(bool,bool)": {
        "notice": "Get rewards",
        "params": {
          "_claimExtras": "claim extra rewards",
          "_lock": "should the yfi be locked in veYFI"
        },
        "returns": {
          "_0": "true"
        }
      },
      "getRewardFor(address,bool)": {
        "details": "rewards are transfer to _account",
        "notice": "Get rewards for an account",
        "params": {
          "_account": "to claim rewards for",
          "_claimExtras": "claim extra rewards"
        },
        "returns": {
          "_0": "true"
        }
      },
      "initialize(address,address,address,address,address,address)": {
        "details": "Initialize called after contract is cloned.",
        "notice": "initialize the contract",
        "params": {
          "_owner": "owner address",
          "_rewardManager": "reward manager address",
          "_rewardToken": "the reward token YFI",
          "_stakingToken": "The vault token to stake",
          "_ve": "veYFI address",
          "_veYfiRewardPool": "veYfiRewardPool address"
        }
      },
      "lastTimeRewardApplicable()": {
        "returns": {
          "_0": "timestamp until rewards are distributed"
        }
      },
      "lockingRatio(address)": {
        "details": "locking ratio is expressed in PRECISON_FACTOR, it's used to calculate the penalty due to the lock duration.",
        "notice": "give the lockingRatio",
        "returns": {
          "_0": "lockingRatio"
        }
      },
      "owner()": {
        "details": "Returns the address of the current owner."
      },
      "queueNewRewards(uint256)": {
        "details": "Triger rewardRate recalculation using _amount and queuedRewards",
        "notice": "Add new rewards to be distributed over a week",
        "params": {
          "_amount": "token to add to rewards"
        },
        "returns": {
          "_0": "true"
        }
      },
      "queuedPenalty()": {
        "notice": "penalty queued to be transfer later to veYfiRewardPool using `transferQueuedPenalty`"
      },
      "queuedRewards()": {
        "notice": "that are queued to be distributed on a `queueNewRewards` call"
      },
      "removeExtraReward(address)": {
        "details": "can only be done by rewardManager",
        "notice": "remove extra rewards from the gauge",
        "params": {
          "_extraReward": "the ExtraReward contract address"
        }
      },
      "renounceOwnership()": {
        "details": "Leaves the contract without owner. It will not be possible to call `onlyOwner` functions anymore. Can only be called by the current owner. NOTE: Renouncing ownership will leave the contract without an owner, thereby removing any functionality that is only available to the owner."
      },
      "rewardPerToken()": {
        "details": "gives the total amount of rewards distributed since inception of the pool per vault token",
        "notice": "reward per token deposited",
        "returns": {
          "_0": "rewardPerToken"
        }
      },
      "setRewardManager(address)": {
        "details": "Can be called by rewardManager or owner",
        "notice": "set reward manager",
        "params": {
          "_rewardManager": "new reward manager"
        },
        "returns": {
          "_0": "true"
        }
      },
      "totalSupply()": {
        "returns": {
          "_0": "total of the staked vault token"
        }
      },
      "transferOwnership(address)": {
        "details": "Transfers ownership of the contract to a new account (`newOwner`). Can only be called by the current owner."
      },
      "transferQueuedPenalty()": {
        "details": "Penalty are queued in this contract.",
        "notice": "Transfer penalty to the veYFIRewardContract",
        "returns": {
          "_0": "true"
        }
      },
      "withdraw()": {
        "details": "This call update claimable rewards",
        "notice": "withdraw all vault token from gauge",
        "returns": {
          "_0": "true"
        }
      },
      "withdraw(bool)": {
        "details": "This call update claimable rewards",
        "notice": "withdraw all vault token from gauge",
        "params": {
          "_claim": "claim veYFI and additional reward"
        },
        "returns": {
          "_0": "true"
        }
      },
      "withdraw(bool,bool)": {
        "details": "This call update claimable rewards",
        "notice": "withdraw all vault token from gauge",
        "params": {
          "_claim": "claim veYFI and additional reward",
          "_lock": "should the claimed rewards be locked in veYFI for the user"
        },
        "returns": {
          "_0": "true"
        }
      },
      "withdraw(uint256,bool,bool)": {
        "details": "This call update claimable rewards",
        "notice": "withdraw vault token from the gauge",
        "params": {
          "_amount": "amount to withdraw",
          "_claim": "claimm veYFI and aditional reward",
          "_lock": "should the claimed rewards be locked in veYFI for the user"
        },
        "returns": {
          "_0": "true"
        }
      }
    },
    "notice": "Deposit your vault token (one gauge per vault). YFI are paid based on the amount of vault tokens, the veYFI balance and the duration of the lock.",
    "stateVariables": {
      "queuedPenalty": {
        "details": "rewards are queued when an account `_updateReward`."
      }
    },
    "title": "Gauge stake vault token get YFI rewards",
    "version": 1
  },
  "opcodes": "PUSH1 0x80 PUSH1 0x40 MSTORE CALLVALUE DUP1 ISZERO PUSH2 0x10 JUMPI PUSH1 0x0 DUP1 REVERT JUMPDEST POP PUSH1 0x4 CALLDATASIZE LT PUSH2 0x30B JUMPI PUSH1 0x0 CALLDATALOAD PUSH1 0xE0 SHR DUP1 PUSH4 0x7A238855 GT PUSH2 0x19D JUMPI DUP1 PUSH4 0xC1A287E2 GT PUSH2 0xE9 JUMPI DUP1 PUSH4 0xDEEE8E54 GT PUSH2 0xA2 JUMPI DUP1 PUSH4 0xF2FDE38B GT PUSH2 0x7C JUMPI DUP1 PUSH4 0xF2FDE38B EQ PUSH2 0x629 JUMPI DUP1 PUSH4 0xF579513F EQ PUSH2 0x63C JUMPI DUP1 PUSH4 0xF6BE71D1 EQ PUSH2 0x64F JUMPI DUP1 PUSH4 0xF7C618C1 EQ PUSH2 0x662 JUMPI PUSH1 0x0 DUP1 REVERT JUMPDEST DUP1 PUSH4 0xDEEE8E54 EQ PUSH2 0x604 JUMPI DUP1 PUSH4 0xDF136D65 EQ PUSH2 0x617 JUMPI DUP1 PUSH4 0xEBE2B12B EQ PUSH2 0x620 JUMPI PUSH1 0x0 DUP1 REVERT JUMPDEST DUP1 PUSH4 0xC1A287E2 EQ PUSH2 0x5C6 JUMPI DUP1 PUSH4 0xC8F33C91 EQ PUSH2 0x5D0 JUMPI DUP1 PUSH4 0xCC2A9A5B EQ PUSH2 0x5D9 JUMPI DUP1 PUSH4 0xCD3DAF9D EQ PUSH2 0x5EC JUMPI DUP1 PUSH4 0xD0E30DB0 EQ PUSH2 0x5F4 JUMPI DUP1 PUSH4 0xD55A23F4 EQ PUSH2 0x5FC JUMPI PUSH1 0x0 DUP1 REVERT JUMPDEST DUP1 PUSH4 0x920E8217 GT PUSH2 0x156 JUMPI DUP1 PUSH4 0xA4698FEB GT PUSH2 0x130 JUMPI DUP1 PUSH4 0xA4698FEB EQ PUSH2 0x57A JUMPI DUP1 PUSH4 0xA80FF90A EQ PUSH2 0x58D JUMPI DUP1 PUSH4 0xA810A54C EQ PUSH2 0x5A0 JUMPI DUP1 PUSH4 0xB6B55F25 EQ PUSH2 0x5B3 JUMPI PUSH1 0x0 DUP1 REVERT JUMPDEST DUP1 PUSH4 0x920E8217 EQ PUSH2 0x54A JUMPI DUP1 PUSH4 0x92930B45 EQ PUSH2 0x554 JUMPI DUP1 PUSH4 0x9E15977F EQ PUSH2 0x567 JUMPI PUSH1 0x0 DUP1 REVERT JUMPDEST DUP1 PUSH4 0x7A238855 EQ PUSH2 0x4EC JUMPI DUP1 PUSH4 0x7B0A47EE EQ PUSH2 0x4FF JUMPI DUP1 PUSH4 0x80FAA57D EQ PUSH2 0x508 JUMPI DUP1 PUSH4 0x8B876347 EQ PUSH2 0x510 JUMPI DUP1 PUSH4 0x8DA5CB5B EQ PUSH2 0x530 JUMPI DUP1 PUSH4 0x901A7D53 EQ PUSH2 0x541 JUMPI PUSH1 0x0 DUP1 REVERT JUMPDEST DUP1 PUSH4 0x3CCFD60B GT PUSH2 0x25C JUMPI DUP1 PUSH4 0x5E43C47B GT PUSH2 0x215 JUMPI DUP1 PUSH4 0x6A4AC73B GT PUSH2 0x1EF JUMPI DUP1 PUSH4 0x6A4AC73B EQ PUSH2 0x495 JUMPI DUP1 PUSH4 0x70A08231 EQ PUSH2 0x4A8 JUMPI DUP1 PUSH4 0x715018A6 EQ PUSH2 0x4D1 JUMPI DUP1 PUSH4 0x72F702F3 EQ PUSH2 0x4D9 JUMPI PUSH1 0x0 DUP1 REVERT JUMPDEST DUP1 PUSH4 0x5E43C47B EQ PUSH2 0x46E JUMPI DUP1 PUSH4 0x63D38C3B EQ PUSH2 0x481 JUMPI DUP1 PUSH4 0x65A5D5F0 EQ PUSH2 0x48A JUMPI PUSH1 0x0 DUP1 REVERT JUMPDEST DUP1 PUSH4 0x3CCFD60B EQ PUSH2 0x41C JUMPI DUP1 PUSH4 0x3D18B912 EQ PUSH2 0x424 JUMPI DUP1 PUSH4 0x40C35446 EQ PUSH2 0x42C JUMPI DUP1 PUSH4 0x425B6E2F EQ PUSH2 0x43F JUMPI DUP1 PUSH4 0x42886B67 EQ PUSH2 0x452 JUMPI DUP1 PUSH4 0x590A41F5 EQ PUSH2 0x45B JUMPI PUSH1 0x0 DUP1 REVERT JUMPDEST DUP1 PUSH4 0x153EE554 GT PUSH2 0x2C9 JUMPI DUP1 PUSH4 0x262D3D6D GT PUSH2 0x2A3 JUMPI DUP1 PUSH4 0x262D3D6D EQ PUSH2 0x3E5 JUMPI DUP1 PUSH4 0x26F553E9 EQ PUSH2 0x3EE JUMPI DUP1 PUSH4 0x2F4F21E2 EQ PUSH2 0x3F6 JUMPI DUP1 PUSH4 0x3B92EB23 EQ PUSH2 0x409 JUMPI PUSH1 0x0 DUP1 REVERT JUMPDEST DUP1 PUSH4 0x153EE554 EQ PUSH2 0x3B7 JUMPI DUP1 PUSH4 0x18160DDD EQ PUSH2 0x3CA JUMPI DUP1 PUSH4 0x1BEABCD2 EQ PUSH2 0x3D2 JUMPI PUSH1 0x0 DUP1 REVERT JUMPDEST DUP1 PUSH3 0x8CC262 EQ PUSH2 0x310 JUMPI DUP1 PUSH4 0x1681A62 EQ PUSH2 0x336 JUMPI DUP1 PUSH4 0x569D388 EQ PUSH2 0x359 JUMPI DUP1 PUSH4 0x700037D EQ PUSH2 0x363 JUMPI DUP1 PUSH4 0xF4EF8A6 EQ PUSH2 0x383 JUMPI DUP1 PUSH4 0xFB5A6B4 EQ PUSH2 0x3AE JUMPI JUMPDEST PUSH1 0x0 DUP1 REVERT JUMPDEST PUSH2 0x323 PUSH2 0x31E CALLDATASIZE PUSH1 0x4 PUSH2 0x2529 JUMP JUMPDEST PUSH2 0x675 JUMP JUMPDEST PUSH1 0x40 MLOAD SWAP1 DUP2 MSTORE PUSH1 0x20 ADD JUMPDEST PUSH1 0x40 MLOAD DUP1 SWAP2 SUB SWAP1 RETURN JUMPDEST PUSH2 0x349 PUSH2 0x344 CALLDATASIZE PUSH1 0x4 PUSH2 0x2529 JUMP JUMPDEST PUSH2 0x6D0 JUMP JUMPDEST PUSH1 0x40 MLOAD SWAP1 ISZERO ISZERO DUP2 MSTORE PUSH1 0x20 ADD PUSH2 0x32D JUMP JUMPDEST PUSH2 0x361 PUSH2 0x821 JUMP JUMPDEST STOP JUMPDEST PUSH2 0x323 PUSH2 0x371 CALLDATASIZE PUSH1 0x4 PUSH2 0x2529 JUMP JUMPDEST PUSH1 0xB PUSH1 0x20 MSTORE PUSH1 0x0 SWAP1 DUP2 MSTORE PUSH1 0x40 SWAP1 KECCAK256 SLOAD DUP2 JUMP JUMPDEST PUSH1 0xF SLOAD PUSH2 0x396 SWAP1 PUSH1 0x1 PUSH1 0x1 PUSH1 0xA0 SHL SUB AND DUP2 JUMP JUMPDEST PUSH1 0x40 MLOAD PUSH1 0x1 PUSH1 0x1 PUSH1 0xA0 SHL SUB SWAP1 SWAP2 AND DUP2 MSTORE PUSH1 0x20 ADD PUSH2 0x32D JUMP JUMPDEST PUSH2 0x323 PUSH1 0x2 SLOAD DUP2 JUMP JUMPDEST PUSH2 0x349 PUSH2 0x3C5 CALLDATASIZE PUSH1 0x4 PUSH2 0x2529 JUMP JUMPDEST PUSH2 0x891 JUMP JUMPDEST PUSH1 0x11 SLOAD PUSH2 0x323 JUMP JUMPDEST PUSH2 0x323 PUSH2 0x3E0 CALLDATASIZE PUSH1 0x4 PUSH2 0x2529 JUMP JUMPDEST PUSH2 0x982 JUMP JUMPDEST PUSH2 0x323 PUSH1 0x9 SLOAD DUP2 JUMP JUMPDEST PUSH2 0x349 PUSH2 0x993 JUMP JUMPDEST PUSH2 0x349 PUSH2 0x404 CALLDATASIZE PUSH1 0x4 PUSH2 0x2544 JUMP JUMPDEST PUSH2 0xA8F JUMP JUMPDEST PUSH1 0xD SLOAD PUSH2 0x396 SWAP1 PUSH1 0x1 PUSH1 0x1 PUSH1 0xA0 SHL SUB AND DUP2 JUMP JUMPDEST PUSH2 0x349 PUSH2 0xAA4 JUMP JUMPDEST PUSH2 0x349 PUSH2 0xAC7 JUMP JUMPDEST PUSH2 0x396 PUSH2 0x43A CALLDATASIZE PUSH1 0x4 PUSH2 0x256E JUMP JUMPDEST PUSH2 0xAE9 JUMP JUMPDEST PUSH2 0x349 PUSH2 0x44D CALLDATASIZE PUSH1 0x4 PUSH2 0x2595 JUMP JUMPDEST PUSH2 0xB13 JUMP JUMPDEST PUSH2 0x323 PUSH1 0x10 SLOAD DUP2 JUMP JUMPDEST PUSH2 0x349 PUSH2 0x469 CALLDATASIZE PUSH1 0x4 PUSH2 0x256E JUMP JUMPDEST PUSH2 0xB34 JUMP JUMPDEST PUSH2 0x349 PUSH2 0x47C CALLDATASIZE PUSH1 0x4 PUSH2 0x2529 JUMP JUMPDEST PUSH2 0xC53 JUMP JUMPDEST PUSH2 0x323 PUSH1 0x7 SLOAD DUP2 JUMP JUMPDEST PUSH2 0x323 PUSH4 0x784CE00 DUP2 JUMP JUMPDEST PUSH2 0x349 PUSH2 0x4A3 CALLDATASIZE PUSH1 0x4 PUSH2 0x2595 JUMP JUMPDEST PUSH2 0xD5A JUMP JUMPDEST PUSH2 0x323 PUSH2 0x4B6 CALLDATASIZE PUSH1 0x4 PUSH2 0x2529 JUMP JUMPDEST PUSH1 0x1 PUSH1 0x1 PUSH1 0xA0 SHL SUB AND PUSH1 0x0 SWAP1 DUP2 MSTORE PUSH1 0x12 PUSH1 0x20 MSTORE PUSH1 0x40 SWAP1 KECCAK256 SLOAD SWAP1 JUMP JUMPDEST PUSH2 0x361 PUSH2 0xD75 JUMP JUMPDEST PUSH1 0xC SLOAD PUSH2 0x396 SWAP1 PUSH1 0x1 PUSH1 0x1 PUSH1 0xA0 SHL SUB AND DUP2 JUMP JUMPDEST PUSH2 0x361 PUSH2 0x4FA CALLDATASIZE PUSH1 0x4 PUSH2 0x2529 JUMP JUMPDEST PUSH2 0xDA9 JUMP JUMPDEST PUSH2 0x323 PUSH1 0x4 SLOAD DUP2 JUMP JUMPDEST PUSH2 0x323 PUSH2 0xE28 JUMP JUMPDEST PUSH2 0x323 PUSH2 0x51E CALLDATASIZE PUSH1 0x4 PUSH2 0x2529 JUMP JUMPDEST PUSH1 0xA PUSH1 0x20 MSTORE PUSH1 0x0 SWAP1 DUP2 MSTORE PUSH1 0x40 SWAP1 KECCAK256 SLOAD DUP2 JUMP JUMPDEST PUSH1 0x0 SLOAD PUSH1 0x1 PUSH1 0x1 PUSH1 0xA0 SHL SUB AND PUSH2 0x396 JUMP JUMPDEST PUSH2 0x323 PUSH1 0x8 SLOAD DUP2 JUMP JUMPDEST PUSH2 0x323 PUSH3 0xF4240 DUP2 JUMP JUMPDEST PUSH2 0x349 PUSH2 0x562 CALLDATASIZE PUSH1 0x4 PUSH2 0x25CE JUMP JUMPDEST PUSH2 0xE3B JUMP JUMPDEST PUSH1 0xE SLOAD PUSH2 0x396 SWAP1 PUSH1 0x1 PUSH1 0x1 PUSH1 0xA0 SHL SUB AND DUP2 JUMP JUMPDEST PUSH2 0x349 PUSH2 0x588 CALLDATASIZE PUSH1 0x4 PUSH2 0x2610 JUMP JUMPDEST PUSH2 0xFE9 JUMP JUMPDEST PUSH2 0x349 PUSH2 0x59B CALLDATASIZE PUSH1 0x4 PUSH2 0x2529 JUMP JUMPDEST PUSH2 0x1001 JUMP JUMPDEST PUSH2 0x349 PUSH2 0x5AE CALLDATASIZE PUSH1 0x4 PUSH2 0x2610 JUMP JUMPDEST PUSH2 0x11D1 JUMP JUMPDEST PUSH2 0x349 PUSH2 0x5C1 CALLDATASIZE PUSH1 0x4 PUSH2 0x256E JUMP JUMPDEST PUSH2 0x11EC JUMP JUMPDEST PUSH2 0x323 PUSH3 0x278D00 DUP2 JUMP JUMPDEST PUSH2 0x323 PUSH1 0x5 SLOAD DUP2 JUMP JUMPDEST PUSH2 0x361 PUSH2 0x5E7 CALLDATASIZE PUSH1 0x4 PUSH2 0x262D JUMP JUMPDEST PUSH2 0x1200 JUMP JUMPDEST PUSH2 0x323 PUSH2 0x1473 JUMP JUMPDEST PUSH2 0x349 PUSH2 0x147D JUMP JUMPDEST PUSH1 0x13 SLOAD PUSH2 0x323 JUMP JUMPDEST PUSH2 0x323 PUSH2 0x612 CALLDATASIZE PUSH1 0x4 PUSH2 0x2529 JUMP JUMPDEST PUSH2 0x1573 JUMP JUMPDEST PUSH2 0x323 PUSH1 0x6 SLOAD DUP2 JUMP JUMPDEST PUSH2 0x323 PUSH1 0x3 SLOAD DUP2 JUMP JUMPDEST PUSH2 0x361 PUSH2 0x637 CALLDATASIZE PUSH1 0x4 PUSH2 0x2529 JUMP JUMPDEST PUSH2 0x157E JUMP JUMPDEST PUSH2 0x349 PUSH2 0x64A CALLDATASIZE PUSH1 0x4 PUSH2 0x26A1 JUMP JUMPDEST PUSH2 0x1619 JUMP JUMPDEST PUSH2 0x361 PUSH2 0x65D CALLDATASIZE PUSH1 0x4 PUSH2 0x256E JUMP JUMPDEST PUSH2 0x1631 JUMP JUMPDEST PUSH1 0x1 SLOAD PUSH2 0x396 SWAP1 PUSH1 0x1 PUSH1 0x1 PUSH1 0xA0 SHL SUB AND DUP2 JUMP JUMPDEST PUSH1 0x0 DUP1 PUSH2 0x681 DUP4 PUSH2 0x16EB JUMP JUMPDEST PUSH1 0x1 PUSH1 0x1 PUSH1 0xA0 SHL SUB DUP5 AND PUSH1 0x0 SWAP1 DUP2 MSTORE PUSH1 0xB PUSH1 0x20 MSTORE PUSH1 0x40 SWAP1 KECCAK256 SLOAD SWAP1 SWAP2 POP PUSH3 0xF4240 DUP3 PUSH2 0x6AB DUP7 PUSH2 0x173D JUMP JUMPDEST PUSH2 0x6B5 SWAP2 SWAP1 PUSH2 0x26D3 JUMP JUMPDEST PUSH2 0x6BF SWAP2 SWAP1 PUSH2 0x26F2 JUMP JUMPDEST PUSH2 0x6C9 SWAP2 SWAP1 PUSH2 0x2714 JUMP JUMPDEST SWAP4 SWAP3 POP POP POP JUMP JUMPDEST PUSH1 0x0 DUP1 SLOAD PUSH1 0x1 PUSH1 0x1 PUSH1 0xA0 SHL SUB AND CALLER EQ PUSH2 0x704 JUMPI PUSH1 0x40 MLOAD PUSH3 0x461BCD PUSH1 0xE5 SHL DUP2 MSTORE PUSH1 0x4 ADD PUSH2 0x6FB SWAP1 PUSH2 0x272C JUMP JUMPDEST PUSH1 0x40 MLOAD DUP1 SWAP2 SUB SWAP1 REVERT JUMPDEST PUSH2 0x70D DUP3 PUSH2 0x189C JUMP JUMPDEST PUSH2 0x74B JUMPI PUSH1 0x40 MLOAD PUSH3 0x461BCD PUSH1 0xE5 SHL DUP2 MSTORE PUSH1 0x20 PUSH1 0x4 DUP3 ADD MSTORE PUSH1 0xF PUSH1 0x24 DUP3 ADD MSTORE PUSH15 0x383937BA32B1BA32B2103A37B5B2B7 PUSH1 0x89 SHL PUSH1 0x44 DUP3 ADD MSTORE PUSH1 0x64 ADD PUSH2 0x6FB JUMP JUMPDEST PUSH1 0x40 MLOAD PUSH4 0x70A08231 PUSH1 0xE0 SHL DUP2 MSTORE ADDRESS PUSH1 0x4 DUP3 ADD MSTORE PUSH1 0x0 SWAP1 PUSH1 0x1 PUSH1 0x1 PUSH1 0xA0 SHL SUB DUP5 AND SWAP1 PUSH4 0x70A08231 SWAP1 PUSH1 0x24 ADD PUSH1 0x20 PUSH1 0x40 MLOAD DUP1 DUP4 SUB DUP2 DUP7 GAS STATICCALL ISZERO DUP1 ISZERO PUSH2 0x792 JUMPI RETURNDATASIZE PUSH1 0x0 DUP1 RETURNDATACOPY RETURNDATASIZE PUSH1 0x0 REVERT JUMPDEST POP POP POP POP PUSH1 0x40 MLOAD RETURNDATASIZE PUSH1 0x1F NOT PUSH1 0x1F DUP3 ADD AND DUP3 ADD DUP1 PUSH1 0x40 MSTORE POP DUP2 ADD SWAP1 PUSH2 0x7B6 SWAP2 SWAP1 PUSH2 0x2761 JUMP JUMPDEST SWAP1 POP PUSH2 0x7D4 DUP4 PUSH2 0x7CE PUSH1 0x0 SLOAD PUSH1 0x1 PUSH1 0x1 PUSH1 0xA0 SHL SUB AND SWAP1 JUMP JUMPDEST DUP4 PUSH2 0x18CE JUMP JUMPDEST PUSH1 0x40 DUP1 MLOAD PUSH1 0x1 PUSH1 0x1 PUSH1 0xA0 SHL SUB DUP6 AND DUP2 MSTORE PUSH1 0x20 DUP2 ADD DUP4 SWAP1 MSTORE PUSH32 0xAB2246061D7B0DD3631D037E3F6DA75782AE489EEB9F6AF878A4B25DF9B07C77 SWAP2 ADD PUSH1 0x40 MLOAD DUP1 SWAP2 SUB SWAP1 LOG1 PUSH1 0x1 SWAP2 POP POP JUMPDEST SWAP2 SWAP1 POP JUMP JUMPDEST PUSH1 0xF SLOAD PUSH1 0x1 PUSH1 0x1 PUSH1 0xA0 SHL SUB AND CALLER EQ PUSH2 0x84B JUMPI PUSH1 0x40 MLOAD PUSH3 0x461BCD PUSH1 0xE5 SHL DUP2 MSTORE PUSH1 0x4 ADD PUSH2 0x6FB SWAP1 PUSH2 0x277A JUMP JUMPDEST PUSH32 0x90503A14A60F24042CA91FABB5544C78B3845CF06963FB78ADAC5538B9138111 PUSH1 0x13 PUSH1 0x40 MLOAD PUSH2 0x87B SWAP2 SWAP1 PUSH2 0x279F JUMP JUMPDEST PUSH1 0x40 MLOAD DUP1 SWAP2 SUB SWAP1 LOG1 PUSH2 0x88F PUSH1 0x13 PUSH1 0x0 PUSH2 0x24E4 JUMP JUMPDEST JUMP JUMPDEST PUSH1 0xF SLOAD PUSH1 0x0 SWAP1 PUSH1 0x1 PUSH1 0x1 PUSH1 0xA0 SHL SUB AND CALLER EQ DUP1 PUSH2 0x8B7 JUMPI POP PUSH1 0x0 SLOAD PUSH1 0x1 PUSH1 0x1 PUSH1 0xA0 SHL SUB AND CALLER EQ JUMPDEST PUSH2 0x8D3 JUMPI PUSH1 0x40 MLOAD PUSH3 0x461BCD PUSH1 0xE5 SHL DUP2 MSTORE PUSH1 0x4 ADD PUSH2 0x6FB SWAP1 PUSH2 0x277A JUMP JUMPDEST PUSH1 0x1 PUSH1 0x1 PUSH1 0xA0 SHL SUB DUP3 AND PUSH2 0x929 JUMPI PUSH1 0x40 MLOAD PUSH3 0x461BCD PUSH1 0xE5 SHL DUP2 MSTORE PUSH1 0x20 PUSH1 0x4 DUP3 ADD MSTORE PUSH1 0x1A PUSH1 0x24 DUP3 ADD MSTORE PUSH32 0x5F7265776172644D616E61676572203078302061646472657373000000000000 PUSH1 0x44 DUP3 ADD MSTORE PUSH1 0x64 ADD PUSH2 0x6FB JUMP JUMPDEST PUSH1 0xF DUP1 SLOAD PUSH1 0x1 PUSH1 0x1 PUSH1 0xA0 SHL SUB NOT AND PUSH1 0x1 PUSH1 0x1 PUSH1 0xA0 SHL SUB DUP5 AND SWAP1 DUP2 OR SWAP1 SWAP2 SSTORE PUSH1 0x40 MLOAD SWAP1 DUP2 MSTORE PUSH32 0x79ECF8371E520AE99BD7BA1F0E87DCC921A946D9CA58230EEF986803E0AC9C45 SWAP1 PUSH1 0x20 ADD PUSH1 0x40 MLOAD DUP1 SWAP2 SUB SWAP1 LOG1 POP PUSH1 0x1 SWAP2 SWAP1 POP JUMP JUMPDEST PUSH1 0x0 PUSH2 0x98D DUP3 PUSH2 0x1936 JUMP JUMPDEST SWAP3 SWAP2 POP POP JUMP JUMPDEST PUSH1 0x10 DUP1 SLOAD PUSH1 0x0 SWAP2 DUP3 SWAP1 SSTORE PUSH1 0x1 SLOAD PUSH1 0xE SLOAD PUSH1 0x40 MLOAD PUSH4 0x95EA7B3 PUSH1 0xE0 SHL DUP2 MSTORE PUSH1 0x1 PUSH1 0x1 PUSH1 0xA0 SHL SUB SWAP2 DUP3 AND PUSH1 0x4 DUP3 ADD MSTORE PUSH1 0x24 DUP2 ADD DUP5 SWAP1 MSTORE SWAP2 AND SWAP1 PUSH4 0x95EA7B3 SWAP1 PUSH1 0x44 ADD PUSH1 0x20 PUSH1 0x40 MLOAD DUP1 DUP4 SUB DUP2 PUSH1 0x0 DUP8 GAS CALL ISZERO DUP1 ISZERO PUSH2 0x9F2 JUMPI RETURNDATASIZE PUSH1 0x0 DUP1 RETURNDATACOPY RETURNDATASIZE PUSH1 0x0 REVERT JUMPDEST POP POP POP POP PUSH1 0x40 MLOAD RETURNDATASIZE PUSH1 0x1F NOT PUSH1 0x1F DUP3 ADD AND DUP3 ADD DUP1 PUSH1 0x40 MSTORE POP DUP2 ADD SWAP1 PUSH2 0xA16 SWAP2 SWAP1 PUSH2 0x27EF JUMP JUMPDEST POP PUSH1 0xE SLOAD PUSH1 0x40 MLOAD PUSH4 0x590A41F5 PUSH1 0xE0 SHL DUP2 MSTORE PUSH1 0x4 DUP2 ADD DUP4 SWAP1 MSTORE PUSH1 0x1 PUSH1 0x1 PUSH1 0xA0 SHL SUB SWAP1 SWAP2 AND SWAP1 PUSH4 0x590A41F5 SWAP1 PUSH1 0x24 ADD PUSH1 0x20 PUSH1 0x40 MLOAD DUP1 DUP4 SUB DUP2 PUSH1 0x0 DUP8 GAS CALL ISZERO DUP1 ISZERO PUSH2 0xA62 JUMPI RETURNDATASIZE PUSH1 0x0 DUP1 RETURNDATACOPY RETURNDATASIZE PUSH1 0x0 REVERT JUMPDEST POP POP POP POP PUSH1 0x40 MLOAD RETURNDATASIZE PUSH1 0x1F NOT PUSH1 0x1F DUP3 ADD AND DUP3 ADD DUP1 PUSH1 0x40 MSTORE POP DUP2 ADD SWAP1 PUSH2 0xA86 SWAP2 SWAP1 PUSH2 0x27EF JUMP JUMPDEST POP PUSH1 0x1 SWAP2 POP POP SWAP1 JUMP JUMPDEST PUSH1 0x0 PUSH2 0xA9B DUP4 DUP4 PUSH2 0x1AC3 JUMP JUMPDEST POP PUSH1 0x1 SWAP3 SWAP2 POP POP JUMP JUMPDEST CALLER PUSH1 0x0 SWAP1 DUP2 MSTORE PUSH1 0x12 PUSH1 0x20 MSTORE PUSH1 0x40 DUP2 KECCAK256 SLOAD PUSH2 0xABF SWAP1 DUP3 DUP1 PUSH2 0xE3B JUMP JUMPDEST POP PUSH1 0x1 SWAP1 POP SWAP1 JUMP JUMPDEST PUSH1 0x0 CALLER PUSH2 0xAD3 DUP2 PUSH2 0x1C76 JUMP JUMPDEST PUSH2 0xAE0 CALLER PUSH1 0x0 PUSH1 0x1 PUSH2 0x1DF3 JUMP JUMPDEST PUSH1 0x1 SWAP2 POP JUMPDEST POP SWAP1 JUMP JUMPDEST PUSH1 0x13 DUP2 DUP2 SLOAD DUP2 LT PUSH2 0xAF9 JUMPI PUSH1 0x0 DUP1 REVERT JUMPDEST PUSH1 0x0 SWAP2 DUP3 MSTORE PUSH1 0x20 SWAP1 SWAP2 KECCAK256 ADD SLOAD PUSH1 0x1 PUSH1 0x1 PUSH1 0xA0 SHL SUB AND SWAP1 POP DUP2 JUMP JUMPDEST PUSH1 0x0 CALLER PUSH2 0xB1F DUP2 PUSH2 0x1C76 JUMP JUMPDEST PUSH2 0xB2A CALLER DUP6 DUP6 PUSH2 0x1DF3 JUMP JUMPDEST POP PUSH1 0x1 SWAP4 SWAP3 POP POP POP JUMP JUMPDEST PUSH1 0x0 DUP2 PUSH2 0xB69 JUMPI PUSH1 0x40 MLOAD PUSH3 0x461BCD PUSH1 0xE5 SHL DUP2 MSTORE PUSH1 0x20 PUSH1 0x4 DUP3 ADD MSTORE PUSH1 0x3 PUSH1 0x24 DUP3 ADD MSTORE PUSH3 0x3D3D3 PUSH1 0xEC SHL PUSH1 0x44 DUP3 ADD MSTORE PUSH1 0x64 ADD PUSH2 0x6FB JUMP JUMPDEST PUSH1 0x1 SLOAD PUSH2 0xB81 SWAP1 PUSH1 0x1 PUSH1 0x1 PUSH1 0xA0 SHL SUB AND CALLER ADDRESS DUP6 PUSH2 0x2029 JUMP JUMPDEST PUSH1 0x40 DUP1 MLOAD CALLER DUP2 MSTORE PUSH1 0x20 DUP2 ADD DUP5 SWAP1 MSTORE PUSH32 0x1C88AA9A39B1A6357A85C97A3BD4E2B0738E74C68B92928276BC85F495B2450B SWAP2 ADD PUSH1 0x40 MLOAD DUP1 SWAP2 SUB SWAP1 LOG1 PUSH1 0x7 SLOAD PUSH2 0xBC7 SWAP1 DUP4 PUSH2 0x2714 JUMP JUMPDEST SWAP2 POP PUSH1 0x3 SLOAD TIMESTAMP LT PUSH2 0xBE7 JUMPI PUSH2 0xBDB DUP3 PUSH2 0x2061 JUMP JUMPDEST POP POP PUSH1 0x0 PUSH1 0x7 SSTORE PUSH1 0x1 SWAP1 JUMP JUMPDEST PUSH1 0x0 PUSH1 0x2 SLOAD PUSH1 0x3 SLOAD PUSH2 0xBF9 SWAP2 SWAP1 PUSH2 0x280C JUMP JUMPDEST PUSH2 0xC03 SWAP1 TIMESTAMP PUSH2 0x280C JUMP JUMPDEST SWAP1 POP PUSH1 0x0 PUSH1 0x4 SLOAD DUP3 PUSH2 0xC15 SWAP2 SWAP1 PUSH2 0x26D3 JUMP JUMPDEST SWAP1 POP DUP4 PUSH1 0xA PUSH2 0xC25 DUP4 PUSH1 0xC PUSH2 0x26D3 JUMP JUMPDEST PUSH2 0xC2F SWAP2 SWAP1 PUSH2 0x26F2 JUMP JUMPDEST LT ISZERO PUSH2 0xC48 JUMPI PUSH2 0xC3E DUP5 PUSH2 0x2061 JUMP JUMPDEST PUSH1 0x0 PUSH1 0x7 SSTORE PUSH2 0xB2A JUMP JUMPDEST POP POP POP PUSH1 0x7 SSTORE PUSH1 0x1 SWAP1 JUMP JUMPDEST PUSH1 0xF SLOAD PUSH1 0x0 SWAP1 PUSH1 0x1 PUSH1 0x1 PUSH1 0xA0 SHL SUB AND CALLER EQ PUSH2 0xC80 JUMPI PUSH1 0x40 MLOAD PUSH3 0x461BCD PUSH1 0xE5 SHL DUP2 MSTORE PUSH1 0x4 ADD PUSH2 0x6FB SWAP1 PUSH2 0x277A JUMP JUMPDEST PUSH1 0x1 PUSH1 0x1 PUSH1 0xA0 SHL SUB DUP3 AND PUSH2 0xCC8 JUMPI PUSH1 0x40 MLOAD PUSH3 0x461BCD PUSH1 0xE5 SHL DUP2 MSTORE PUSH1 0x20 PUSH1 0x4 DUP3 ADD MSTORE PUSH1 0xF PUSH1 0x24 DUP3 ADD MSTORE PUSH15 0x217265776172642073657474696E67 PUSH1 0x88 SHL PUSH1 0x44 DUP3 ADD MSTORE PUSH1 0x64 ADD PUSH2 0x6FB JUMP JUMPDEST PUSH1 0x40 MLOAD PUSH1 0x1 PUSH1 0x1 PUSH1 0xA0 SHL SUB DUP4 AND DUP2 MSTORE PUSH32 0x7A486D506196E4AE0E0B063ACCA8CB3E3128C1BA505CD447ED148222C2D0B153 SWAP1 PUSH1 0x20 ADD PUSH1 0x40 MLOAD DUP1 SWAP2 SUB SWAP1 LOG1 POP PUSH1 0x13 DUP1 SLOAD PUSH1 0x1 DUP1 DUP3 ADD DUP4 SSTORE PUSH1 0x0 SWAP3 SWAP1 SWAP3 MSTORE PUSH32 0x66DE8FFDA797E3DE9C05E8FC57B3BF0EC28A930D40B0D285D93C06501CF6A090 ADD DUP1 SLOAD PUSH1 0x1 PUSH1 0x1 PUSH1 0xA0 SHL SUB NOT AND PUSH1 0x1 PUSH1 0x1 PUSH1 0xA0 SHL SUB SWAP4 SWAP1 SWAP4 AND SWAP3 SWAP1 SWAP3 OR SWAP1 SWAP2 SSTORE SWAP1 JUMP JUMPDEST CALLER PUSH1 0x0 SWAP1 DUP2 MSTORE PUSH1 0x12 PUSH1 0x20 MSTORE PUSH1 0x40 DUP2 KECCAK256 SLOAD PUSH2 0xB2A SWAP1 DUP5 DUP5 PUSH2 0xE3B JUMP JUMPDEST PUSH1 0x0 SLOAD PUSH1 0x1 PUSH1 0x1 PUSH1 0xA0 SHL SUB AND CALLER EQ PUSH2 0xD9F JUMPI PUSH1 0x40 MLOAD PUSH3 0x461BCD PUSH1 0xE5 SHL DUP2 MSTORE PUSH1 0x4 ADD PUSH2 0x6FB SWAP1 PUSH2 0x272C JUMP JUMPDEST PUSH2 0x88F PUSH1 0x0 PUSH2 0x2157 JUMP JUMPDEST PUSH1 0x0 SLOAD PUSH1 0x1 PUSH1 0x1 PUSH1 0xA0 SHL SUB AND CALLER EQ PUSH2 0xDD3 JUMPI PUSH1 0x40 MLOAD PUSH3 0x461BCD PUSH1 0xE5 SHL DUP2 MSTORE PUSH1 0x4 ADD PUSH2 0x6FB SWAP1 PUSH2 0x272C JUMP JUMPDEST PUSH1 0xD DUP1 SLOAD PUSH1 0x1 PUSH1 0x1 PUSH1 0xA0 SHL SUB NOT AND PUSH1 0x1 PUSH1 0x1 PUSH1 0xA0 SHL SUB DUP4 AND SWAP1 DUP2 OR SWAP1 SWAP2 SSTORE PUSH1 0x40 MLOAD SWAP1 DUP2 MSTORE PUSH32 0xF382D8404A45286F6180665C3EB5574DF3E6EFDD99AD2E652D8F5D904F264F0 SWAP1 PUSH1 0x20 ADD JUMPDEST PUSH1 0x40 MLOAD DUP1 SWAP2 SUB SWAP1 LOG1 POP JUMP JUMPDEST PUSH1 0x0 PUSH2 0xE36 TIMESTAMP PUSH1 0x3 SLOAD PUSH2 0x21A7 JUMP JUMPDEST SWAP1 POP SWAP1 JUMP JUMPDEST PUSH1 0x0 CALLER PUSH2 0xE47 DUP2 PUSH2 0x1C76 JUMP JUMPDEST PUSH1 0x0 DUP6 GT PUSH2 0xE97 JUMPI PUSH1 0x40 MLOAD PUSH3 0x461BCD PUSH1 0xE5 SHL DUP2 MSTORE PUSH1 0x20 PUSH1 0x4 DUP3 ADD MSTORE PUSH1 0x1E PUSH1 0x24 DUP3 ADD MSTORE PUSH32 0x526577617264506F6F6C203A2043616E6E6F7420776974686472617720300000 PUSH1 0x44 DUP3 ADD MSTORE PUSH1 0x64 ADD PUSH2 0x6FB JUMP JUMPDEST PUSH1 0x13 SLOAD PUSH1 0x0 JUMPDEST DUP2 DUP2 LT ISZERO PUSH2 0xF42 JUMPI PUSH1 0x13 DUP2 DUP2 SLOAD DUP2 LT PUSH2 0xEB8 JUMPI PUSH2 0xEB8 PUSH2 0x2823 JUMP JUMPDEST PUSH1 0x0 SWAP2 DUP3 MSTORE PUSH1 0x20 SWAP1 SWAP2 KECCAK256 ADD SLOAD PUSH1 0x40 MLOAD PUSH4 0x14640F37 PUSH1 0xE3 SHL DUP2 MSTORE CALLER PUSH1 0x4 DUP3 ADD MSTORE PUSH1 0x1 PUSH1 0x1 PUSH1 0xA0 SHL SUB SWAP1 SWAP2 AND SWAP1 PUSH4 0xA32079B8 SWAP1 PUSH1 0x24 ADD PUSH1 0x20 PUSH1 0x40 MLOAD DUP1 DUP4 SUB DUP2 PUSH1 0x0 DUP8 GAS CALL ISZERO DUP1 ISZERO PUSH2 0xF0B JUMPI RETURNDATASIZE PUSH1 0x0 DUP1 RETURNDATACOPY RETURNDATASIZE PUSH1 0x0 REVERT JUMPDEST POP POP POP POP PUSH1 0x40 MLOAD RETURNDATASIZE PUSH1 0x1F NOT PUSH1 0x1F DUP3 ADD AND DUP3 ADD DUP1 PUSH1 0x40 MSTORE POP DUP2 ADD SWAP1 PUSH2 0xF2F SWAP2 SWAP1 PUSH2 0x27EF JUMP JUMPDEST POP DUP1 PUSH2 0xF3A DUP2 PUSH2 0x2839 JUMP JUMPDEST SWAP2 POP POP PUSH2 0xE9D JUMP JUMPDEST POP DUP6 PUSH1 0x11 SLOAD PUSH2 0xF51 SWAP2 SWAP1 PUSH2 0x280C JUMP JUMPDEST PUSH1 0x11 SSTORE CALLER PUSH1 0x0 SWAP1 DUP2 MSTORE PUSH1 0x12 PUSH1 0x20 MSTORE PUSH1 0x40 SWAP1 KECCAK256 SLOAD PUSH2 0xF6F SWAP1 DUP8 SWAP1 PUSH2 0x280C JUMP JUMPDEST CALLER PUSH1 0x0 SWAP1 DUP2 MSTORE PUSH1 0x12 PUSH1 0x20 MSTORE PUSH1 0x40 SWAP1 KECCAK256 SSTORE DUP5 ISZERO PUSH2 0xF91 JUMPI PUSH2 0xF91 CALLER DUP6 PUSH1 0x1 PUSH2 0x1DF3 JUMP JUMPDEST PUSH1 0xC SLOAD PUSH2 0xFA8 SWAP1 PUSH1 0x1 PUSH1 0x1 PUSH1 0xA0 SHL SUB AND CALLER DUP9 PUSH2 0x18CE JUMP JUMPDEST PUSH1 0x40 MLOAD DUP7 DUP2 MSTORE CALLER SWAP1 PUSH32 0x7084F5476618D8E60B11EF0D7D3F06914655ADB8793E28FF7F018D4C76D505D5 SWAP1 PUSH1 0x20 ADD PUSH1 0x40 MLOAD DUP1 SWAP2 SUB SWAP1 LOG2 POP PUSH1 0x1 SWAP6 SWAP5 POP POP POP POP POP JUMP JUMPDEST PUSH1 0x0 CALLER PUSH2 0xFF5 DUP2 PUSH2 0x1C76 JUMP JUMPDEST PUSH2 0xA9B CALLER DUP5 PUSH1 0x1 PUSH2 0x1DF3 JUMP JUMPDEST PUSH1 0xF SLOAD PUSH1 0x0 SWAP1 PUSH1 0x1 PUSH1 0x1 PUSH1 0xA0 SHL SUB AND CALLER EQ PUSH2 0x102E JUMPI PUSH1 0x40 MLOAD PUSH3 0x461BCD PUSH1 0xE5 SHL DUP2 MSTORE PUSH1 0x4 ADD PUSH2 0x6FB SWAP1 PUSH2 0x277A JUMP JUMPDEST PUSH1 0x13 SLOAD PUSH1 0x0 NOT SWAP1 PUSH1 0x0 JUMPDEST DUP2 DUP2 LT ISZERO PUSH2 0x1092 JUMPI DUP5 PUSH1 0x1 PUSH1 0x1 PUSH1 0xA0 SHL SUB AND PUSH1 0x13 DUP3 DUP2 SLOAD DUP2 LT PUSH2 0x105D JUMPI PUSH2 0x105D PUSH2 0x2823 JUMP JUMPDEST PUSH1 0x0 SWAP2 DUP3 MSTORE PUSH1 0x20 SWAP1 SWAP2 KECCAK256 ADD SLOAD PUSH1 0x1 PUSH1 0x1 PUSH1 0xA0 SHL SUB AND EQ ISZERO PUSH2 0x1080 JUMPI DUP1 SWAP3 POP PUSH2 0x1092 JUMP JUMPDEST DUP1 PUSH2 0x108A DUP2 PUSH2 0x2839 JUMP JUMPDEST SWAP2 POP POP PUSH2 0x1038 JUMP JUMPDEST POP PUSH1 0x0 NOT DUP3 EQ ISZERO PUSH2 0x10DE JUMPI PUSH1 0x40 MLOAD PUSH3 0x461BCD PUSH1 0xE5 SHL DUP2 MSTORE PUSH1 0x20 PUSH1 0x4 DUP3 ADD MSTORE PUSH1 0x16 PUSH1 0x24 DUP3 ADD MSTORE PUSH22 0x195E1D1C98481C995DD85C99081B9BDD08199BDD5B99 PUSH1 0x52 SHL PUSH1 0x44 DUP3 ADD MSTORE PUSH1 0x64 ADD PUSH2 0x6FB JUMP JUMPDEST PUSH1 0x40 MLOAD PUSH1 0x1 PUSH1 0x1 PUSH1 0xA0 SHL SUB DUP6 AND DUP2 MSTORE PUSH32 0x8B6E4849B65BA893304022BD0F251B5584E334B1E08550E629E83D733745ED46 SWAP1 PUSH1 0x20 ADD PUSH1 0x40 MLOAD DUP1 SWAP2 SUB SWAP1 LOG1 PUSH1 0x13 DUP1 SLOAD PUSH2 0x112A SWAP1 PUSH1 0x1 SWAP1 PUSH2 0x280C JUMP JUMPDEST DUP2 SLOAD DUP2 LT PUSH2 0x113A JUMPI PUSH2 0x113A PUSH2 0x2823 JUMP JUMPDEST PUSH1 0x0 SWAP2 DUP3 MSTORE PUSH1 0x20 SWAP1 SWAP2 KECCAK256 ADD SLOAD PUSH1 0x13 DUP1 SLOAD PUSH1 0x1 PUSH1 0x1 PUSH1 0xA0 SHL SUB SWAP1 SWAP3 AND SWAP2 DUP5 SWAP1 DUP2 LT PUSH2 0x1166 JUMPI PUSH2 0x1166 PUSH2 0x2823 JUMP JUMPDEST SWAP1 PUSH1 0x0 MSTORE PUSH1 0x20 PUSH1 0x0 KECCAK256 ADD PUSH1 0x0 PUSH2 0x100 EXP DUP2 SLOAD DUP2 PUSH1 0x1 PUSH1 0x1 PUSH1 0xA0 SHL SUB MUL NOT AND SWAP1 DUP4 PUSH1 0x1 PUSH1 0x1 PUSH1 0xA0 SHL SUB AND MUL OR SWAP1 SSTORE POP PUSH1 0x13 DUP1 SLOAD DUP1 PUSH2 0x11A5 JUMPI PUSH2 0x11A5 PUSH2 0x2854 JUMP JUMPDEST PUSH1 0x0 DUP3 DUP2 MSTORE PUSH1 0x20 SWAP1 KECCAK256 DUP2 ADD PUSH1 0x0 NOT SWAP1 DUP2 ADD DUP1 SLOAD PUSH1 0x1 PUSH1 0x1 PUSH1 0xA0 SHL SUB NOT AND SWAP1 SSTORE ADD SWAP1 SSTORE POP PUSH1 0x1 SWAP4 SWAP3 POP POP POP JUMP JUMPDEST CALLER PUSH1 0x0 SWAP1 DUP2 MSTORE PUSH1 0x12 PUSH1 0x20 MSTORE PUSH1 0x40 DUP2 KECCAK256 SLOAD PUSH2 0xA9B SWAP1 DUP4 DUP4 PUSH2 0xE3B JUMP JUMPDEST PUSH1 0x0 PUSH2 0x11F8 CALLER DUP4 PUSH2 0x1AC3 JUMP JUMPDEST POP PUSH1 0x1 SWAP2 SWAP1 POP JUMP JUMPDEST PUSH1 0x0 SLOAD PUSH1 0x1 PUSH1 0xA8 SHL SWAP1 DIV PUSH1 0xFF AND PUSH2 0x1224 JUMPI PUSH1 0x0 SLOAD PUSH1 0x1 PUSH1 0xA0 SHL SWAP1 DIV PUSH1 0xFF AND ISZERO PUSH2 0x1228 JUMP JUMPDEST ADDRESS EXTCODESIZE ISZERO JUMPDEST PUSH2 0x128B JUMPI PUSH1 0x40 MLOAD PUSH3 0x461BCD PUSH1 0xE5 SHL DUP2 MSTORE PUSH1 0x20 PUSH1 0x4 DUP3 ADD MSTORE PUSH1 0x2E PUSH1 0x24 DUP3 ADD MSTORE PUSH32 0x496E697469616C697A61626C653A20636F6E747261637420697320616C726561 PUSH1 0x44 DUP3 ADD MSTORE PUSH14 0x191E481A5B9A5D1A585B1A5E9959 PUSH1 0x92 SHL PUSH1 0x64 DUP3 ADD MSTORE PUSH1 0x84 ADD PUSH2 0x6FB JUMP JUMPDEST PUSH1 0x0 SLOAD PUSH1 0x1 PUSH1 0xA8 SHL SWAP1 DIV PUSH1 0xFF AND ISZERO DUP1 ISZERO PUSH2 0x12B5 JUMPI PUSH1 0x0 DUP1 SLOAD PUSH2 0xFFFF PUSH1 0xA0 SHL NOT AND PUSH2 0x101 PUSH1 0xA0 SHL OR SWAP1 SSTORE JUMPDEST PUSH1 0x1 PUSH1 0x1 PUSH1 0xA0 SHL SUB DUP8 AND PUSH2 0x130B JUMPI PUSH1 0x40 MLOAD PUSH3 0x461BCD PUSH1 0xE5 SHL DUP2 MSTORE PUSH1 0x20 PUSH1 0x4 DUP3 ADD MSTORE PUSH1 0x19 PUSH1 0x24 DUP3 ADD MSTORE PUSH32 0x5F7374616B696E67546F6B656E20307830206164647265737300000000000000 PUSH1 0x44 DUP3 ADD MSTORE PUSH1 0x64 ADD PUSH2 0x6FB JUMP JUMPDEST PUSH1 0x1 PUSH1 0x1 PUSH1 0xA0 SHL SUB DUP4 AND PUSH2 0x1353 JUMPI PUSH1 0x40 MLOAD PUSH3 0x461BCD PUSH1 0xE5 SHL DUP2 MSTORE PUSH1 0x20 PUSH1 0x4 DUP3 ADD MSTORE PUSH1 0xF PUSH1 0x24 DUP3 ADD MSTORE PUSH15 0x5F7665203078302061646472657373 PUSH1 0x88 SHL PUSH1 0x44 DUP3 ADD MSTORE PUSH1 0x64 ADD PUSH2 0x6FB JUMP JUMPDEST PUSH1 0x1 PUSH1 0x1 PUSH1 0xA0 SHL SUB DUP3 AND PUSH2 0x13A9 JUMPI PUSH1 0x40 MLOAD PUSH3 0x461BCD PUSH1 0xE5 SHL DUP2 MSTORE PUSH1 0x20 PUSH1 0x4 DUP3 ADD MSTORE PUSH1 0x1C PUSH1 0x24 DUP3 ADD MSTORE PUSH32 0x5F7665596669526577617264506F6F6C20307830206164647265737300000000 PUSH1 0x44 DUP3 ADD MSTORE PUSH1 0x64 ADD PUSH2 0x6FB JUMP JUMPDEST PUSH2 0x13B3 DUP7 DUP7 PUSH2 0x21BD JUMP JUMPDEST PUSH1 0xC DUP1 SLOAD PUSH1 0x1 PUSH1 0x1 PUSH1 0xA0 SHL SUB DUP10 DUP2 AND PUSH1 0x1 PUSH1 0x1 PUSH1 0xA0 SHL SUB NOT SWAP3 DUP4 AND DUP2 OR SWAP1 SWAP4 SSTORE PUSH1 0xD DUP1 SLOAD DUP8 DUP4 AND SWAP1 DUP5 AND DUP2 OR SWAP1 SWAP2 SSTORE PUSH1 0xF DUP1 SLOAD DUP10 DUP5 AND SWAP1 DUP6 AND DUP2 OR SWAP1 SWAP2 SSTORE PUSH1 0xE DUP1 SLOAD DUP9 DUP6 AND SWAP6 AND DUP6 OR SWAP1 SSTORE PUSH1 0x40 DUP1 MLOAD SWAP6 DUP7 MSTORE DUP12 DUP5 AND PUSH1 0x20 DUP8 ADD MSTORE SWAP3 DUP11 AND SWAP3 DUP6 ADD SWAP3 SWAP1 SWAP3 MSTORE PUSH1 0x60 DUP5 ADD SWAP2 SWAP1 SWAP2 MSTORE PUSH1 0x80 DUP4 ADD MSTORE PUSH1 0xA0 DUP3 ADD MSTORE PUSH32 0x58CA036ED94EE2B2004ADAC9F54A88961A882010564179AEFA6106F7977102A9 SWAP1 PUSH1 0xC0 ADD PUSH1 0x40 MLOAD DUP1 SWAP2 SUB SWAP1 LOG1 DUP1 ISZERO PUSH2 0x146A JUMPI PUSH1 0x0 DUP1 SLOAD PUSH1 0xFF PUSH1 0xA8 SHL NOT AND SWAP1 SSTORE JUMPDEST POP POP POP POP POP POP POP JUMP JUMPDEST PUSH1 0x0 PUSH2 0xE36 PUSH2 0x2242 JUMP JUMPDEST PUSH1 0xC SLOAD PUSH1 0x40 MLOAD PUSH4 0x70A08231 PUSH1 0xE0 SHL DUP2 MSTORE CALLER PUSH1 0x4 DUP3 ADD MSTORE PUSH1 0x0 SWAP2 DUP3 SWAP2 PUSH2 0x1567 SWAP2 PUSH1 0x1 PUSH1 0x1 PUSH1 0xA0 SHL SUB AND SWAP1 PUSH4 0x70A08231 SWAP1 PUSH1 0x24 ADD PUSH1 0x20 PUSH1 0x40 MLOAD DUP1 DUP4 SUB DUP2 DUP7 GAS STATICCALL ISZERO DUP1 ISZERO PUSH2 0x14CC JUMPI RETURNDATASIZE PUSH1 0x0 DUP1 RETURNDATACOPY RETURNDATASIZE PUSH1 0x0 REVERT JUMPDEST POP POP POP POP PUSH1 0x40 MLOAD RETURNDATASIZE PUSH1 0x1F NOT PUSH1 0x1F DUP3 ADD AND DUP3 ADD DUP1 PUSH1 0x40 MSTORE POP DUP2 ADD SWAP1 PUSH2 0x14F0 SWAP2 SWAP1 PUSH2 0x2761 JUMP JUMPDEST PUSH1 0xC SLOAD PUSH1 0x40 MLOAD PUSH4 0x6EB1769F PUSH1 0xE1 SHL DUP2 MSTORE CALLER PUSH1 0x4 DUP3 ADD MSTORE ADDRESS PUSH1 0x24 DUP3 ADD MSTORE PUSH1 0x1 PUSH1 0x1 PUSH1 0xA0 SHL SUB SWAP1 SWAP2 AND SWAP1 PUSH4 0xDD62ED3E SWAP1 PUSH1 0x44 ADD PUSH1 0x20 PUSH1 0x40 MLOAD DUP1 DUP4 SUB DUP2 DUP7 GAS STATICCALL ISZERO DUP1 ISZERO PUSH2 0x153E JUMPI RETURNDATASIZE PUSH1 0x0 DUP1 RETURNDATACOPY RETURNDATASIZE PUSH1 0x0 REVERT JUMPDEST POP POP POP POP PUSH1 0x40 MLOAD RETURNDATASIZE PUSH1 0x1F NOT PUSH1 0x1F DUP3 ADD AND DUP3 ADD DUP1 PUSH1 0x40 MSTORE POP DUP2 ADD SWAP1 PUSH2 0x1562 SWAP2 SWAP1 PUSH2 0x2761 JUMP JUMPDEST PUSH2 0x21A7 JUMP JUMPDEST SWAP1 POP PUSH2 0xAE0 CALLER DUP3 PUSH2 0x1AC3 JUMP JUMPDEST PUSH1 0x0 PUSH2 0x98D DUP3 PUSH2 0x173D JUMP JUMPDEST PUSH1 0x0 SLOAD PUSH1 0x1 PUSH1 0x1 PUSH1 0xA0 SHL SUB AND CALLER EQ PUSH2 0x15A8 JUMPI PUSH1 0x40 MLOAD PUSH3 0x461BCD PUSH1 0xE5 SHL DUP2 MSTORE PUSH1 0x4 ADD PUSH2 0x6FB SWAP1 PUSH2 0x272C JUMP JUMPDEST PUSH1 0x1 PUSH1 0x1 PUSH1 0xA0 SHL SUB DUP2 AND PUSH2 0x160D JUMPI PUSH1 0x40 MLOAD PUSH3 0x461BCD PUSH1 0xE5 SHL DUP2 MSTORE PUSH1 0x20 PUSH1 0x4 DUP3 ADD MSTORE PUSH1 0x26 PUSH1 0x24 DUP3 ADD MSTORE PUSH32 0x4F776E61626C653A206E6577206F776E657220697320746865207A65726F2061 PUSH1 0x44 DUP3 ADD MSTORE PUSH6 0x646472657373 PUSH1 0xD0 SHL PUSH1 0x64 DUP3 ADD MSTORE PUSH1 0x84 ADD PUSH2 0x6FB JUMP JUMPDEST PUSH2 0x1616 DUP2 PUSH2 0x2157 JUMP JUMPDEST POP JUMP JUMPDEST PUSH1 0x0 DUP3 PUSH2 0x1625 DUP2 PUSH2 0x1C76 JUMP JUMPDEST PUSH2 0xB2A DUP5 PUSH1 0x0 DUP6 PUSH2 0x1DF3 JUMP JUMPDEST PUSH1 0x0 SLOAD PUSH1 0x1 PUSH1 0x1 PUSH1 0xA0 SHL SUB AND CALLER EQ PUSH2 0x165B JUMPI PUSH1 0x40 MLOAD PUSH3 0x461BCD PUSH1 0xE5 SHL DUP2 MSTORE PUSH1 0x4 ADD PUSH2 0x6FB SWAP1 PUSH2 0x272C JUMP JUMPDEST PUSH1 0x0 PUSH2 0x1666 DUP2 PUSH2 0x1C76 JUMP JUMPDEST PUSH1 0x3 SLOAD TIMESTAMP LT ISZERO PUSH2 0x16A4 JUMPI PUSH1 0x0 TIMESTAMP PUSH1 0x3 SLOAD PUSH2 0x1680 SWAP2 SWAP1 PUSH2 0x280C JUMP JUMPDEST SWAP1 POP PUSH1 0x0 PUSH1 0x4 SLOAD DUP3 PUSH2 0x1692 SWAP2 SWAP1 PUSH2 0x26D3 JUMP JUMPDEST SWAP1 POP PUSH2 0x169E DUP5 DUP3 PUSH2 0x26F2 JUMP JUMPDEST PUSH1 0x4 SSTORE POP POP JUMPDEST PUSH1 0x2 DUP3 SWAP1 SSTORE PUSH1 0x4 SLOAD PUSH1 0x40 DUP1 MLOAD DUP5 DUP2 MSTORE PUSH1 0x20 DUP2 ADD SWAP3 SWAP1 SWAP3 MSTORE PUSH32 0xF899C6D536E6CDA78C5F4DCE43CA0E8C47167DEB2875EA8B777F21CC85899B1F SWAP2 ADD JUMPDEST PUSH1 0x40 MLOAD DUP1 SWAP2 SUB SWAP1 LOG1 POP POP JUMP JUMPDEST PUSH1 0x1 PUSH1 0x1 PUSH1 0xA0 SHL SUB DUP2 AND PUSH1 0x0 SWAP1 DUP2 MSTORE PUSH1 0xA PUSH1 0x20 MSTORE PUSH1 0x40 DUP2 KECCAK256 SLOAD PUSH8 0xDE0B6B3A7640000 SWAP1 PUSH2 0x1716 PUSH2 0x2242 JUMP JUMPDEST PUSH2 0x1720 SWAP2 SWAP1 PUSH2 0x280C JUMP JUMPDEST PUSH2 0x1729 DUP5 PUSH2 0x1936 JUMP JUMPDEST PUSH2 0x1733 SWAP2 SWAP1 PUSH2 0x26D3 JUMP JUMPDEST PUSH2 0x98D SWAP2 SWAP1 PUSH2 0x26F2 JUMP JUMPDEST PUSH1 0xD SLOAD PUSH1 0x40 DUP1 MLOAD PUSH4 0x1705A3BD PUSH1 0xE0 SHL DUP2 MSTORE SWAP1 MLOAD PUSH1 0x0 SWAP3 PUSH1 0x1 PUSH1 0x1 PUSH1 0xA0 SHL SUB AND SWAP2 PUSH4 0x1705A3BD SWAP2 PUSH1 0x4 DUP1 DUP4 ADD SWAP3 PUSH1 0x20 SWAP3 SWAP2 SWAP1 DUP3 SWAP1 SUB ADD DUP2 DUP7 GAS STATICCALL ISZERO DUP1 ISZERO PUSH2 0x1787 JUMPI RETURNDATASIZE PUSH1 0x0 DUP1 RETURNDATACOPY RETURNDATASIZE PUSH1 0x0 REVERT JUMPDEST POP POP POP POP PUSH1 0x40 MLOAD RETURNDATASIZE PUSH1 0x1F NOT PUSH1 0x1F DUP3 ADD AND DUP3 ADD DUP1 PUSH1 0x40 MSTORE POP DUP2 ADD SWAP1 PUSH2 0x17AB SWAP2 SWAP1 PUSH2 0x27EF JUMP JUMPDEST ISZERO PUSH2 0x17BA JUMPI POP PUSH3 0xF4240 SWAP2 SWAP1 POP JUMP JUMPDEST PUSH1 0xD SLOAD PUSH1 0x40 MLOAD PUSH4 0xADC63589 PUSH1 0xE0 SHL DUP2 MSTORE PUSH1 0x1 PUSH1 0x1 PUSH1 0xA0 SHL SUB DUP5 DUP2 AND PUSH1 0x4 DUP4 ADD MSTORE PUSH1 0x0 SWAP3 AND SWAP1 PUSH4 0xADC63589 SWAP1 PUSH1 0x24 ADD PUSH1 0x20 PUSH1 0x40 MLOAD DUP1 DUP4 SUB DUP2 DUP7 GAS STATICCALL ISZERO DUP1 ISZERO PUSH2 0x1805 JUMPI RETURNDATASIZE PUSH1 0x0 DUP1 RETURNDATACOPY RETURNDATASIZE PUSH1 0x0 REVERT JUMPDEST POP POP POP POP PUSH1 0x40 MLOAD RETURNDATASIZE PUSH1 0x1F NOT PUSH1 0x1F DUP3 ADD AND DUP3 ADD DUP1 PUSH1 0x40 MSTORE POP DUP2 ADD SWAP1 PUSH2 0x1829 SWAP2 SWAP1 PUSH2 0x2761 JUMP JUMPDEST SWAP1 POP DUP1 ISZERO DUP1 PUSH2 0x1838 JUMPI POP TIMESTAMP DUP2 GT ISZERO JUMPDEST ISZERO PUSH2 0x1846 JUMPI POP PUSH1 0x0 SWAP3 SWAP2 POP POP JUMP JUMPDEST PUSH1 0x0 PUSH2 0x1852 TIMESTAMP DUP4 PUSH2 0x280C JUMP JUMPDEST SWAP1 POP PUSH3 0x278D00 PUSH2 0x1866 DUP3 PUSH4 0x784CE00 PUSH2 0x280C JUMP JUMPDEST LT ISZERO PUSH2 0x1878 JUMPI POP PUSH3 0xF4240 SWAP4 SWAP3 POP POP POP JUMP JUMPDEST PUSH4 0x784CE00 PUSH2 0x188A DUP3 PUSH3 0xF4240 PUSH2 0x26D3 JUMP JUMPDEST PUSH2 0x1894 SWAP2 SWAP1 PUSH2 0x26F2 JUMP JUMPDEST SWAP5 SWAP4 POP POP POP POP JUMP JUMPDEST PUSH1 0x1 SLOAD PUSH1 0x0 SWAP1 PUSH1 0x1 PUSH1 0x1 PUSH1 0xA0 SHL SUB DUP4 DUP2 AND SWAP2 AND EQ DUP1 ISZERO SWAP1 PUSH2 0x98D JUMPI POP POP PUSH1 0xC SLOAD PUSH1 0x1 PUSH1 0x1 PUSH1 0xA0 SHL SUB SWAP1 DUP2 AND SWAP2 AND EQ ISZERO SWAP1 JUMP JUMPDEST PUSH1 0x40 MLOAD PUSH1 0x1 PUSH1 0x1 PUSH1 0xA0 SHL SUB DUP4 AND PUSH1 0x24 DUP3 ADD MSTORE PUSH1 0x44 DUP2 ADD DUP3 SWAP1 MSTORE PUSH2 0x1931 SWAP1 DUP5 SWAP1 PUSH4 0xA9059CBB PUSH1 0xE0 SHL SWAP1 PUSH1 0x64 ADD JUMPDEST PUSH1 0x40 DUP1 MLOAD PUSH1 0x1F NOT DUP2 DUP5 SUB ADD DUP2 MSTORE SWAP2 SWAP1 MSTORE PUSH1 0x20 DUP2 ADD DUP1 MLOAD PUSH1 0x1 PUSH1 0x1 PUSH1 0xE0 SHL SUB AND PUSH1 0x1 PUSH1 0x1 PUSH1 0xE0 SHL SUB NOT SWAP1 SWAP4 AND SWAP3 SWAP1 SWAP3 OR SWAP1 SWAP2 MSTORE PUSH2 0x22A6 JUMP JUMPDEST POP POP POP JUMP JUMPDEST PUSH1 0x0 DUP1 PUSH1 0xD PUSH1 0x0 SWAP1 SLOAD SWAP1 PUSH2 0x100 EXP SWAP1 DIV PUSH1 0x1 PUSH1 0x1 PUSH1 0xA0 SHL SUB AND PUSH1 0x1 PUSH1 0x1 PUSH1 0xA0 SHL SUB AND PUSH4 0x18160DDD PUSH1 0x40 MLOAD DUP2 PUSH4 0xFFFFFFFF AND PUSH1 0xE0 SHL DUP2 MSTORE PUSH1 0x4 ADD PUSH1 0x20 PUSH1 0x40 MLOAD DUP1 DUP4 SUB DUP2 DUP7 GAS STATICCALL ISZERO DUP1 ISZERO PUSH2 0x198C JUMPI RETURNDATASIZE PUSH1 0x0 DUP1 RETURNDATACOPY RETURNDATASIZE PUSH1 0x0 REVERT JUMPDEST POP POP POP POP PUSH1 0x40 MLOAD RETURNDATASIZE PUSH1 0x1F NOT PUSH1 0x1F DUP3 ADD AND DUP3 ADD DUP1 PUSH1 0x40 MSTORE POP DUP2 ADD SWAP1 PUSH2 0x19B0 SWAP2 SWAP1 PUSH2 0x2761 JUMP JUMPDEST SWAP1 POP DUP1 PUSH2 0x19D4 JUMPI POP POP PUSH1 0x1 PUSH1 0x1 PUSH1 0xA0 SHL SUB AND PUSH1 0x0 SWAP1 DUP2 MSTORE PUSH1 0x12 PUSH1 0x20 MSTORE PUSH1 0x40 SWAP1 KECCAK256 SLOAD SWAP1 JUMP JUMPDEST PUSH1 0xD SLOAD PUSH1 0x40 MLOAD PUSH4 0x70A08231 PUSH1 0xE0 SHL DUP2 MSTORE PUSH1 0x1 PUSH1 0x1 PUSH1 0xA0 SHL SUB DUP6 DUP2 AND PUSH1 0x4 DUP4 ADD MSTORE PUSH2 0x6C9 SWAP3 PUSH1 0x64 SWAP3 DUP6 SWAP3 SWAP1 SWAP2 AND SWAP1 PUSH4 0x70A08231 SWAP1 PUSH1 0x24 ADD PUSH1 0x20 PUSH1 0x40 MLOAD DUP1 DUP4 SUB DUP2 DUP7 GAS STATICCALL ISZERO DUP1 ISZERO PUSH2 0x1A27 JUMPI RETURNDATASIZE PUSH1 0x0 DUP1 RETURNDATACOPY RETURNDATASIZE PUSH1 0x0 REVERT JUMPDEST POP POP POP POP PUSH1 0x40 MLOAD RETURNDATASIZE PUSH1 0x1F NOT PUSH1 0x1F DUP3 ADD AND DUP3 ADD DUP1 PUSH1 0x40 MSTORE POP DUP2 ADD SWAP1 PUSH2 0x1A4B SWAP2 SWAP1 PUSH2 0x2761 JUMP JUMPDEST PUSH1 0x11 SLOAD PUSH2 0x1A58 SWAP2 SWAP1 PUSH2 0x26D3 JUMP JUMPDEST PUSH2 0x1A62 SWAP2 SWAP1 PUSH2 0x26F2 JUMP JUMPDEST PUSH2 0x1A6D SWAP1 PUSH1 0x3C PUSH2 0x26D3 JUMP JUMPDEST PUSH1 0x1 PUSH1 0x1 PUSH1 0xA0 SHL SUB DUP7 AND PUSH1 0x0 SWAP1 DUP2 MSTORE PUSH1 0x12 PUSH1 0x20 MSTORE PUSH1 0x40 SWAP1 KECCAK256 SLOAD PUSH2 0x1A91 SWAP1 PUSH1 0x28 PUSH2 0x26D3 JUMP JUMPDEST PUSH2 0x1A9B SWAP2 SWAP1 PUSH2 0x2714 JUMP JUMPDEST PUSH2 0x1AA5 SWAP2 SWAP1 PUSH2 0x26F2 JUMP JUMPDEST PUSH1 0x1 PUSH1 0x1 PUSH1 0xA0 SHL SUB DUP6 AND PUSH1 0x0 SWAP1 DUP2 MSTORE PUSH1 0x12 PUSH1 0x20 MSTORE PUSH1 0x40 SWAP1 KECCAK256 SLOAD PUSH2 0x21A7 JUMP JUMPDEST DUP2 PUSH2 0x1ACD DUP2 PUSH2 0x1C76 JUMP JUMPDEST PUSH1 0x0 DUP3 GT PUSH2 0x1B1D JUMPI PUSH1 0x40 MLOAD PUSH3 0x461BCD PUSH1 0xE5 SHL DUP2 MSTORE PUSH1 0x20 PUSH1 0x4 DUP3 ADD MSTORE PUSH1 0x1D PUSH1 0x24 DUP3 ADD MSTORE PUSH32 0x526577617264506F6F6C203A2043616E6E6F74206465706F7369742030000000 PUSH1 0x44 DUP3 ADD MSTORE PUSH1 0x64 ADD PUSH2 0x6FB JUMP JUMPDEST PUSH1 0x13 SLOAD PUSH1 0x0 JUMPDEST DUP2 DUP2 LT ISZERO PUSH2 0x1BCA JUMPI PUSH1 0x13 DUP2 DUP2 SLOAD DUP2 LT PUSH2 0x1B3E JUMPI PUSH2 0x1B3E PUSH2 0x2823 JUMP JUMPDEST PUSH1 0x0 SWAP2 DUP3 MSTORE PUSH1 0x20 SWAP1 SWAP2 KECCAK256 ADD SLOAD PUSH1 0x40 MLOAD PUSH4 0x14640F37 PUSH1 0xE3 SHL DUP2 MSTORE PUSH1 0x1 PUSH1 0x1 PUSH1 0xA0 SHL SUB DUP8 DUP2 AND PUSH1 0x4 DUP4 ADD MSTORE SWAP1 SWAP2 AND SWAP1 PUSH4 0xA32079B8 SWAP1 PUSH1 0x24 ADD PUSH1 0x20 PUSH1 0x40 MLOAD DUP1 DUP4 SUB DUP2 PUSH1 0x0 DUP8 GAS CALL ISZERO DUP1 ISZERO PUSH2 0x1B93 JUMPI RETURNDATASIZE PUSH1 0x0 DUP1 RETURNDATACOPY RETURNDATASIZE PUSH1 0x0 REVERT JUMPDEST POP POP POP POP PUSH1 0x40 MLOAD RETURNDATASIZE PUSH1 0x1F NOT PUSH1 0x1F DUP3 ADD AND DUP3 ADD DUP1 PUSH1 0x40 MSTORE POP DUP2 ADD SWAP1 PUSH2 0x1BB7 SWAP2 SWAP1 PUSH2 0x27EF JUMP JUMPDEST POP DUP1 PUSH2 0x1BC2 DUP2 PUSH2 0x2839 JUMP JUMPDEST SWAP2 POP POP PUSH2 0x1B23 JUMP JUMPDEST POP DUP3 PUSH1 0x11 SLOAD PUSH2 0x1BD9 SWAP2 SWAP1 PUSH2 0x2714 JUMP JUMPDEST PUSH1 0x11 SSTORE PUSH1 0x1 PUSH1 0x1 PUSH1 0xA0 SHL SUB DUP5 AND PUSH1 0x0 SWAP1 DUP2 MSTORE PUSH1 0x12 PUSH1 0x20 MSTORE PUSH1 0x40 SWAP1 KECCAK256 SLOAD PUSH2 0x1C00 SWAP1 DUP5 SWAP1 PUSH2 0x2714 JUMP JUMPDEST PUSH1 0x1 PUSH1 0x1 PUSH1 0xA0 SHL SUB DUP1 DUP7 AND PUSH1 0x0 SWAP1 DUP2 MSTORE PUSH1 0x12 PUSH1 0x20 MSTORE PUSH1 0x40 SWAP1 KECCAK256 SWAP2 SWAP1 SWAP2 SSTORE PUSH1 0xC SLOAD PUSH2 0x1C2D SWAP2 AND CALLER ADDRESS DUP7 PUSH2 0x2029 JUMP JUMPDEST DUP4 PUSH1 0x1 PUSH1 0x1 PUSH1 0xA0 SHL SUB AND PUSH32 0x9E71BC8EEA02A63969F509818F2DAFB9254532904319F9DBDA79B67BD34A5F3D DUP5 PUSH1 0x40 MLOAD PUSH2 0x1C68 SWAP2 DUP2 MSTORE PUSH1 0x20 ADD SWAP1 JUMP JUMPDEST PUSH1 0x40 MLOAD DUP1 SWAP2 SUB SWAP1 LOG2 POP POP POP POP JUMP JUMPDEST PUSH2 0x1C7E PUSH2 0x2242 JUMP JUMPDEST PUSH1 0x6 SSTORE PUSH2 0x1C89 PUSH2 0xE28 JUMP JUMPDEST PUSH1 0x5 SSTORE PUSH1 0x1 PUSH1 0x1 PUSH1 0xA0 SHL SUB DUP2 AND ISZERO PUSH2 0x1616 JUMPI PUSH1 0x1 PUSH1 0x1 PUSH1 0xA0 SHL SUB DUP2 AND PUSH1 0x0 SWAP1 DUP2 MSTORE PUSH1 0x12 PUSH1 0x20 MSTORE PUSH1 0x40 SWAP1 KECCAK256 SLOAD ISZERO PUSH2 0x1D7B JUMPI PUSH1 0x0 PUSH2 0x1CC4 DUP3 PUSH2 0x16EB JUMP JUMPDEST SWAP1 POP PUSH1 0x0 PUSH2 0x1CD1 DUP4 PUSH2 0x2378 JUMP JUMPDEST SWAP1 POP PUSH1 0x0 PUSH3 0xF4240 DUP4 PUSH2 0x1CE3 DUP7 PUSH2 0x173D JUMP JUMPDEST PUSH2 0x1CF0 SWAP1 PUSH3 0xF4240 PUSH2 0x280C JUMP JUMPDEST PUSH2 0x1CFA SWAP2 SWAP1 PUSH2 0x26D3 JUMP JUMPDEST PUSH2 0x1D04 SWAP2 SWAP1 PUSH2 0x26F2 JUMP JUMPDEST SWAP1 POP PUSH2 0x1D10 DUP2 DUP5 PUSH2 0x280C JUMP JUMPDEST PUSH1 0x1 PUSH1 0x1 PUSH1 0xA0 SHL SUB DUP6 AND PUSH1 0x0 SWAP1 DUP2 MSTORE PUSH1 0xB PUSH1 0x20 MSTORE PUSH1 0x40 DUP2 KECCAK256 DUP1 SLOAD SWAP1 SWAP2 SWAP1 PUSH2 0x1D38 SWAP1 DUP5 SWAP1 PUSH2 0x2714 JUMP JUMPDEST SWAP3 POP POP DUP2 SWAP1 SSTORE POP DUP1 PUSH1 0x10 PUSH1 0x0 DUP3 DUP3 SLOAD PUSH2 0x1D51 SWAP2 SWAP1 PUSH2 0x2714 JUMP JUMPDEST SWAP1 SWAP2 SSTORE POP PUSH2 0x1D61 SWAP1 POP DUP4 DUP4 PUSH2 0x280C JUMP JUMPDEST PUSH1 0x7 PUSH1 0x0 DUP3 DUP3 SLOAD PUSH2 0x1D72 SWAP2 SWAP1 PUSH2 0x2714 JUMP JUMPDEST SWAP1 SWAP2 SSTORE POP POP POP POP POP JUMPDEST PUSH1 0x6 SLOAD PUSH1 0x1 PUSH1 0x1 PUSH1 0xA0 SHL SUB DUP3 AND PUSH1 0x0 DUP2 DUP2 MSTORE PUSH1 0xA PUSH1 0x20 DUP2 DUP2 MSTORE PUSH1 0x40 DUP1 DUP5 KECCAK256 DUP7 SWAP1 SSTORE PUSH1 0x5 SLOAD PUSH1 0xB DUP4 MSTORE SWAP4 DUP2 SWAP1 KECCAK256 SLOAD SWAP3 DUP3 MSTORE DUP1 MLOAD SWAP5 DUP6 MSTORE SWAP1 DUP5 ADD DUP6 SWAP1 MSTORE DUP4 ADD SWAP2 SWAP1 SWAP2 MSTORE PUSH1 0x60 DUP3 ADD MSTORE PUSH1 0x80 DUP2 ADD SWAP2 SWAP1 SWAP2 MSTORE PUSH32 0xFBE590C835E1C07F8E971C36021D1BE46F43F7B0B6DC5413DBD5753590569D58 SWAP1 PUSH1 0xA0 ADD PUSH2 0xE1D JUMP JUMPDEST PUSH1 0x1 PUSH1 0x1 PUSH1 0xA0 SHL SUB DUP4 AND PUSH1 0x0 SWAP1 DUP2 MSTORE PUSH1 0xB PUSH1 0x20 MSTORE PUSH1 0x40 SWAP1 KECCAK256 SLOAD DUP1 ISZERO PUSH2 0x1F6F JUMPI PUSH1 0x1 PUSH1 0x1 PUSH1 0xA0 SHL SUB DUP5 AND PUSH1 0x0 SWAP1 DUP2 MSTORE PUSH1 0xB PUSH1 0x20 MSTORE PUSH1 0x40 DUP2 KECCAK256 SSTORE DUP3 ISZERO PUSH2 0x1F14 JUMPI PUSH1 0x1 SLOAD PUSH1 0xD SLOAD PUSH1 0x40 MLOAD PUSH4 0x95EA7B3 PUSH1 0xE0 SHL DUP2 MSTORE PUSH1 0x1 PUSH1 0x1 PUSH1 0xA0 SHL SUB SWAP2 DUP3 AND PUSH1 0x4 DUP3 ADD MSTORE PUSH1 0x24 DUP2 ADD DUP5 SWAP1 MSTORE SWAP2 AND SWAP1 PUSH4 0x95EA7B3 SWAP1 PUSH1 0x44 ADD PUSH1 0x20 PUSH1 0x40 MLOAD DUP1 DUP4 SUB DUP2 PUSH1 0x0 DUP8 GAS CALL ISZERO DUP1 ISZERO PUSH2 0x1E86 JUMPI RETURNDATASIZE PUSH1 0x0 DUP1 RETURNDATACOPY RETURNDATASIZE PUSH1 0x0 REVERT JUMPDEST POP POP POP POP PUSH1 0x40 MLOAD RETURNDATASIZE PUSH1 0x1F NOT PUSH1 0x1F DUP3 ADD AND DUP3 ADD DUP1 PUSH1 0x40 MSTORE POP DUP2 ADD SWAP1 PUSH2 0x1EAA SWAP2 SWAP1 PUSH2 0x27EF JUMP JUMPDEST POP PUSH1 0xD SLOAD PUSH1 0x40 MLOAD PUSH4 0x1D23139F PUSH1 0xE1 SHL DUP2 MSTORE CALLER PUSH1 0x4 DUP3 ADD MSTORE PUSH1 0x24 DUP2 ADD DUP4 SWAP1 MSTORE PUSH1 0x1 PUSH1 0x1 PUSH1 0xA0 SHL SUB SWAP1 SWAP2 AND SWAP1 PUSH4 0x3A46273E SWAP1 PUSH1 0x44 ADD PUSH1 0x0 PUSH1 0x40 MLOAD DUP1 DUP4 SUB DUP2 PUSH1 0x0 DUP8 DUP1 EXTCODESIZE ISZERO DUP1 ISZERO PUSH2 0x1EF7 JUMPI PUSH1 0x0 DUP1 REVERT JUMPDEST POP GAS CALL ISZERO DUP1 ISZERO PUSH2 0x1F0B JUMPI RETURNDATASIZE PUSH1 0x0 DUP1 RETURNDATACOPY RETURNDATASIZE PUSH1 0x0 REVERT JUMPDEST POP POP POP POP PUSH2 0x1F2B JUMP JUMPDEST PUSH1 0x1 SLOAD PUSH2 0x1F2B SWAP1 PUSH1 0x1 PUSH1 0x1 PUSH1 0xA0 SHL SUB AND DUP6 DUP4 PUSH2 0x18CE JUMP JUMPDEST DUP4 PUSH1 0x1 PUSH1 0x1 PUSH1 0xA0 SHL SUB AND PUSH32 0xE2403640BA68FED3A2F88B7557551D1993F84B99BB10FF833F0CF8DB0C5E0486 DUP3 PUSH1 0x40 MLOAD PUSH2 0x1F66 SWAP2 DUP2 MSTORE PUSH1 0x20 ADD SWAP1 JUMP JUMPDEST PUSH1 0x40 MLOAD DUP1 SWAP2 SUB SWAP1 LOG2 JUMPDEST DUP2 ISZERO PUSH2 0x2023 JUMPI PUSH1 0x13 SLOAD PUSH1 0x0 JUMPDEST DUP2 DUP2 LT ISZERO PUSH2 0x2020 JUMPI PUSH1 0x13 DUP2 DUP2 SLOAD DUP2 LT PUSH2 0x1F96 JUMPI PUSH2 0x1F96 PUSH2 0x2823 JUMP JUMPDEST PUSH1 0x0 SWAP2 DUP3 MSTORE PUSH1 0x20 SWAP1 SWAP2 KECCAK256 ADD SLOAD PUSH1 0x40 MLOAD PUSH4 0x55DE275 PUSH1 0xE0 SHL DUP2 MSTORE CALLER PUSH1 0x4 DUP3 ADD MSTORE PUSH1 0x1 PUSH1 0x1 PUSH1 0xA0 SHL SUB SWAP1 SWAP2 AND SWAP1 PUSH4 0x55DE275 SWAP1 PUSH1 0x24 ADD PUSH1 0x20 PUSH1 0x40 MLOAD DUP1 DUP4 SUB DUP2 PUSH1 0x0 DUP8 GAS CALL ISZERO DUP1 ISZERO PUSH2 0x1FE9 JUMPI RETURNDATASIZE PUSH1 0x0 DUP1 RETURNDATACOPY RETURNDATASIZE PUSH1 0x0 REVERT JUMPDEST POP POP POP POP PUSH1 0x40 MLOAD RETURNDATASIZE PUSH1 0x1F NOT PUSH1 0x1F DUP3 ADD AND DUP3 ADD DUP1 PUSH1 0x40 MSTORE POP DUP2 ADD SWAP1 PUSH2 0x200D SWAP2 SWAP1 PUSH2 0x27EF JUMP JUMPDEST POP DUP1 PUSH2 0x2018 DUP2 PUSH2 0x2839 JUMP JUMPDEST SWAP2 POP POP PUSH2 0x1F7B JUMP JUMPDEST POP POP JUMPDEST POP POP POP POP JUMP JUMPDEST PUSH1 0x40 MLOAD PUSH1 0x1 PUSH1 0x1 PUSH1 0xA0 SHL SUB DUP1 DUP6 AND PUSH1 0x24 DUP4 ADD MSTORE DUP4 AND PUSH1 0x44 DUP3 ADD MSTORE PUSH1 0x64 DUP2 ADD DUP3 SWAP1 MSTORE PUSH2 0x2023 SWAP1 DUP6 SWAP1 PUSH4 0x23B872DD PUSH1 0xE0 SHL SWAP1 PUSH1 0x84 ADD PUSH2 0x18FA JUMP JUMPDEST PUSH1 0x0 PUSH2 0x206C DUP2 PUSH2 0x1C76 JUMP JUMPDEST DUP2 PUSH1 0x9 SLOAD PUSH2 0x207A SWAP2 SWAP1 PUSH2 0x2714 JUMP JUMPDEST PUSH1 0x9 SSTORE PUSH1 0x3 SLOAD TIMESTAMP LT PUSH2 0x209B JUMPI PUSH1 0x2 SLOAD PUSH2 0x2093 SWAP1 DUP4 PUSH2 0x26F2 JUMP JUMPDEST PUSH1 0x4 SSTORE PUSH2 0x20DF JUMP JUMPDEST PUSH1 0x0 TIMESTAMP PUSH1 0x3 SLOAD PUSH2 0x20AB SWAP2 SWAP1 PUSH2 0x280C JUMP JUMPDEST SWAP1 POP PUSH1 0x0 PUSH1 0x4 SLOAD DUP3 PUSH2 0x20BD SWAP2 SWAP1 PUSH2 0x26D3 JUMP JUMPDEST SWAP1 POP PUSH2 0x20C9 DUP2 DUP6 PUSH2 0x2714 JUMP JUMPDEST SWAP4 POP PUSH1 0x2 SLOAD DUP5 PUSH2 0x20D9 SWAP2 SWAP1 PUSH2 0x26F2 JUMP JUMPDEST PUSH1 0x4 SSTORE POP POP JUMPDEST PUSH1 0x8 DUP3 SWAP1 SSTORE TIMESTAMP PUSH1 0x5 DUP2 SWAP1 SSTORE PUSH1 0x2 SLOAD PUSH2 0x20F6 SWAP2 PUSH2 0x2714 JUMP JUMPDEST PUSH1 0x3 DUP2 SWAP1 SSTORE PUSH1 0x8 SLOAD PUSH1 0x5 SLOAD PUSH1 0x4 SLOAD PUSH1 0x9 SLOAD PUSH1 0x40 DUP1 MLOAD SWAP5 DUP6 MSTORE PUSH1 0x20 DUP6 ADD SWAP4 SWAP1 SWAP4 MSTORE SWAP2 DUP4 ADD SWAP4 SWAP1 SWAP4 MSTORE PUSH1 0x60 DUP3 ADD SWAP3 SWAP1 SWAP3 MSTORE PUSH1 0x80 DUP2 ADD SWAP2 SWAP1 SWAP2 MSTORE PUSH32 0x944FFD3678415A15CBFEF07DD7D9F20CDC6F36D12588A4BA7E8EB440F32C61BE SWAP1 PUSH1 0xA0 ADD PUSH2 0x16DF JUMP JUMPDEST PUSH1 0x0 DUP1 SLOAD PUSH1 0x1 PUSH1 0x1 PUSH1 0xA0 SHL SUB DUP4 DUP2 AND PUSH1 0x1 PUSH1 0x1 PUSH1 0xA0 SHL SUB NOT DUP4 AND DUP2 OR DUP5 SSTORE PUSH1 0x40 MLOAD SWAP2 SWAP1 SWAP3 AND SWAP3 DUP4 SWAP2 PUSH32 0x8BE0079C531659141344CD1FD0A4F28419497F9722A3DAAFE3B4186F6B6457E0 SWAP2 SWAP1 LOG3 POP POP JUMP JUMPDEST PUSH1 0x0 DUP2 DUP4 LT PUSH2 0x21B6 JUMPI DUP2 PUSH2 0x6C9 JUMP JUMPDEST POP SWAP1 SWAP2 SWAP1 POP JUMP JUMPDEST PUSH1 0x1 PUSH1 0x1 PUSH1 0xA0 SHL SUB DUP3 AND PUSH2 0x2213 JUMPI PUSH1 0x40 MLOAD PUSH3 0x461BCD PUSH1 0xE5 SHL DUP2 MSTORE PUSH1 0x20 PUSH1 0x4 DUP3 ADD MSTORE PUSH1 0x18 PUSH1 0x24 DUP3 ADD MSTORE PUSH32 0x5F726577617264546F6B656E2030783020616464726573730000000000000000 PUSH1 0x44 DUP3 ADD MSTORE PUSH1 0x64 ADD PUSH2 0x6FB JUMP JUMPDEST PUSH1 0x1 DUP1 SLOAD PUSH1 0x1 PUSH1 0x1 PUSH1 0xA0 SHL SUB NOT AND PUSH1 0x1 PUSH1 0x1 PUSH1 0xA0 SHL SUB DUP5 AND OR SWAP1 SSTORE PUSH3 0x93A80 PUSH1 0x2 SSTORE PUSH2 0x223E DUP2 PUSH2 0x2157 JUMP JUMPDEST POP POP JUMP JUMPDEST PUSH1 0x0 PUSH2 0x224D PUSH1 0x11 SLOAD SWAP1 JUMP JUMPDEST PUSH2 0x2258 JUMPI POP PUSH1 0x6 SLOAD SWAP1 JUMP JUMPDEST PUSH1 0x11 SLOAD PUSH1 0x4 SLOAD PUSH1 0x5 SLOAD PUSH2 0x2269 PUSH2 0xE28 JUMP JUMPDEST PUSH2 0x2273 SWAP2 SWAP1 PUSH2 0x280C JUMP JUMPDEST PUSH2 0x227D SWAP2 SWAP1 PUSH2 0x26D3 JUMP JUMPDEST PUSH2 0x228F SWAP1 PUSH8 0xDE0B6B3A7640000 PUSH2 0x26D3 JUMP JUMPDEST PUSH2 0x2299 SWAP2 SWAP1 PUSH2 0x26F2 JUMP JUMPDEST PUSH1 0x6 SLOAD PUSH2 0xE36 SWAP2 SWAP1 PUSH2 0x2714 JUMP JUMPDEST PUSH1 0x0 PUSH2 0x22FB DUP3 PUSH1 0x40 MLOAD DUP1 PUSH1 0x40 ADD PUSH1 0x40 MSTORE DUP1 PUSH1 0x20 DUP2 MSTORE PUSH1 0x20 ADD PUSH32 0x5361666545524332303A206C6F772D6C6576656C2063616C6C206661696C6564 DUP2 MSTORE POP DUP6 PUSH1 0x1 PUSH1 0x1 PUSH1 0xA0 SHL SUB AND PUSH2 0x23D0 SWAP1 SWAP3 SWAP2 SWAP1 PUSH4 0xFFFFFFFF AND JUMP JUMPDEST DUP1 MLOAD SWAP1 SWAP2 POP ISZERO PUSH2 0x1931 JUMPI DUP1 DUP1 PUSH1 0x20 ADD SWAP1 MLOAD DUP2 ADD SWAP1 PUSH2 0x2319 SWAP2 SWAP1 PUSH2 0x27EF JUMP JUMPDEST PUSH2 0x1931 JUMPI PUSH1 0x40 MLOAD PUSH3 0x461BCD PUSH1 0xE5 SHL DUP2 MSTORE PUSH1 0x20 PUSH1 0x4 DUP3 ADD MSTORE PUSH1 0x2A PUSH1 0x24 DUP3 ADD MSTORE PUSH32 0x5361666545524332303A204552433230206F7065726174696F6E20646964206E PUSH1 0x44 DUP3 ADD MSTORE PUSH10 0x1BDD081CDD58D8D95959 PUSH1 0xB2 SHL PUSH1 0x64 DUP3 ADD MSTORE PUSH1 0x84 ADD PUSH2 0x6FB JUMP JUMPDEST PUSH1 0x1 PUSH1 0x1 PUSH1 0xA0 SHL SUB DUP2 AND PUSH1 0x0 SWAP1 DUP2 MSTORE PUSH1 0xA PUSH1 0x20 MSTORE PUSH1 0x40 DUP2 KECCAK256 SLOAD PUSH8 0xDE0B6B3A7640000 SWAP1 PUSH2 0x23A3 PUSH2 0x2242 JUMP JUMPDEST PUSH2 0x23AD SWAP2 SWAP1 PUSH2 0x280C JUMP JUMPDEST PUSH1 0x1 PUSH1 0x1 PUSH1 0xA0 SHL SUB DUP5 AND PUSH1 0x0 SWAP1 DUP2 MSTORE PUSH1 0x12 PUSH1 0x20 MSTORE PUSH1 0x40 SWAP1 KECCAK256 SLOAD PUSH2 0x1733 SWAP2 SWAP1 PUSH2 0x26D3 JUMP JUMPDEST PUSH1 0x60 PUSH2 0x1894 DUP5 DUP5 PUSH1 0x0 DUP6 DUP6 PUSH1 0x1 PUSH1 0x1 PUSH1 0xA0 SHL SUB DUP6 AND EXTCODESIZE PUSH2 0x2432 JUMPI PUSH1 0x40 MLOAD PUSH3 0x461BCD PUSH1 0xE5 SHL DUP2 MSTORE PUSH1 0x20 PUSH1 0x4 DUP3 ADD MSTORE PUSH1 0x1D PUSH1 0x24 DUP3 ADD MSTORE PUSH32 0x416464726573733A2063616C6C20746F206E6F6E2D636F6E7472616374000000 PUSH1 0x44 DUP3 ADD MSTORE PUSH1 0x64 ADD PUSH2 0x6FB JUMP JUMPDEST PUSH1 0x0 DUP1 DUP7 PUSH1 0x1 PUSH1 0x1 PUSH1 0xA0 SHL SUB AND DUP6 DUP8 PUSH1 0x40 MLOAD PUSH2 0x244E SWAP2 SWAP1 PUSH2 0x2896 JUMP JUMPDEST PUSH1 0x0 PUSH1 0x40 MLOAD DUP1 DUP4 SUB DUP2 DUP6 DUP8 GAS CALL SWAP3 POP POP POP RETURNDATASIZE DUP1 PUSH1 0x0 DUP2 EQ PUSH2 0x248B JUMPI PUSH1 0x40 MLOAD SWAP2 POP PUSH1 0x1F NOT PUSH1 0x3F RETURNDATASIZE ADD AND DUP3 ADD PUSH1 0x40 MSTORE RETURNDATASIZE DUP3 MSTORE RETURNDATASIZE PUSH1 0x0 PUSH1 0x20 DUP5 ADD RETURNDATACOPY PUSH2 0x2490 JUMP JUMPDEST PUSH1 0x60 SWAP2 POP JUMPDEST POP SWAP2 POP SWAP2 POP PUSH2 0x24A0 DUP3 DUP3 DUP7 PUSH2 0x24AB JUMP JUMPDEST SWAP8 SWAP7 POP POP POP POP POP POP POP JUMP JUMPDEST PUSH1 0x60 DUP4 ISZERO PUSH2 0x24BA JUMPI POP DUP2 PUSH2 0x6C9 JUMP JUMPDEST DUP3 MLOAD ISZERO PUSH2 0x24CA JUMPI DUP3 MLOAD DUP1 DUP5 PUSH1 0x20 ADD REVERT JUMPDEST DUP2 PUSH1 0x40 MLOAD PUSH3 0x461BCD PUSH1 0xE5 SHL DUP2 MSTORE PUSH1 0x4 ADD PUSH2 0x6FB SWAP2 SWAP1 PUSH2 0x28B2 JUMP JUMPDEST POP DUP1 SLOAD PUSH1 0x0 DUP3 SSTORE SWAP1 PUSH1 0x0 MSTORE PUSH1 0x20 PUSH1 0x0 KECCAK256 SWAP1 DUP2 ADD SWAP1 PUSH2 0x1616 SWAP2 SWAP1 JUMPDEST DUP1 DUP3 GT ISZERO PUSH2 0xAE5 JUMPI PUSH1 0x0 DUP2 SSTORE PUSH1 0x1 ADD PUSH2 0x24FE JUMP JUMPDEST DUP1 CALLDATALOAD PUSH1 0x1 PUSH1 0x1 PUSH1 0xA0 SHL SUB DUP2 AND DUP2 EQ PUSH2 0x81C JUMPI PUSH1 0x0 DUP1 REVERT JUMPDEST PUSH1 0x0 PUSH1 0x20 DUP3 DUP5 SUB SLT ISZERO PUSH2 0x253B JUMPI PUSH1 0x0 DUP1 REVERT JUMPDEST PUSH2 0x6C9 DUP3 PUSH2 0x2512 JUMP JUMPDEST PUSH1 0x0 DUP1 PUSH1 0x40 DUP4 DUP6 SUB SLT ISZERO PUSH2 0x2557 JUMPI PUSH1 0x0 DUP1 REVERT JUMPDEST PUSH2 0x2560 DUP4 PUSH2 0x2512 JUMP JUMPDEST SWAP5 PUSH1 0x20 SWAP4 SWAP1 SWAP4 ADD CALLDATALOAD SWAP4 POP POP POP JUMP JUMPDEST PUSH1 0x0 PUSH1 0x20 DUP3 DUP5 SUB SLT ISZERO PUSH2 0x2580 JUMPI PUSH1 0x0 DUP1 REVERT JUMPDEST POP CALLDATALOAD SWAP2 SWAP1 POP JUMP JUMPDEST DUP1 ISZERO ISZERO DUP2 EQ PUSH2 0x1616 JUMPI PUSH1 0x0 DUP1 REVERT JUMPDEST PUSH1 0x0 DUP1 PUSH1 0x40 DUP4 DUP6 SUB SLT ISZERO PUSH2 0x25A8 JUMPI PUSH1 0x0 DUP1 REVERT JUMPDEST DUP3 CALLDATALOAD PUSH2 0x25B3 DUP2 PUSH2 0x2587 JUMP JUMPDEST SWAP2 POP PUSH1 0x20 DUP4 ADD CALLDATALOAD PUSH2 0x25C3 DUP2 PUSH2 0x2587 JUMP JUMPDEST DUP1 SWAP2 POP POP SWAP3 POP SWAP3 SWAP1 POP JUMP JUMPDEST PUSH1 0x0 DUP1 PUSH1 0x0 PUSH1 0x60 DUP5 DUP7 SUB SLT ISZERO PUSH2 0x25E3 JUMPI PUSH1 0x0 DUP1 REVERT JUMPDEST DUP4 CALLDATALOAD SWAP3 POP PUSH1 0x20 DUP5 ADD CALLDATALOAD PUSH2 0x25F5 DUP2 PUSH2 0x2587 JUMP JUMPDEST SWAP2 POP PUSH1 0x40 DUP5 ADD CALLDATALOAD PUSH2 0x2605 DUP2 PUSH2 0x2587 JUMP JUMPDEST DUP1 SWAP2 POP POP SWAP3 POP SWAP3 POP SWAP3 JUMP JUMPDEST PUSH1 0x0 PUSH1 0x20 DUP3 DUP5 SUB SLT ISZERO PUSH2 0x2622 JUMPI PUSH1 0x0 DUP1 REVERT JUMPDEST DUP2 CALLDATALOAD PUSH2 0x6C9 DUP2 PUSH2 0x2587 JUMP JUMPDEST PUSH1 0x0 DUP1 PUSH1 0x0 DUP1 PUSH1 0x0 DUP1 PUSH1 0xC0 DUP8 DUP10 SUB SLT ISZERO PUSH2 0x2646 JUMPI PUSH1 0x0 DUP1 REVERT JUMPDEST PUSH2 0x264F DUP8 PUSH2 0x2512 JUMP JUMPDEST SWAP6 POP PUSH2 0x265D PUSH1 0x20 DUP9 ADD PUSH2 0x2512 JUMP JUMPDEST SWAP5 POP PUSH2 0x266B PUSH1 0x40 DUP9 ADD PUSH2 0x2512 JUMP JUMPDEST SWAP4 POP PUSH2 0x2679 PUSH1 0x60 DUP9 ADD PUSH2 0x2512 JUMP JUMPDEST SWAP3 POP PUSH2 0x2687 PUSH1 0x80 DUP9 ADD PUSH2 0x2512 JUMP JUMPDEST SWAP2 POP PUSH2 0x2695 PUSH1 0xA0 DUP9 ADD PUSH2 0x2512 JUMP JUMPDEST SWAP1 POP SWAP3 SWAP6 POP SWAP3 SWAP6 POP SWAP3 SWAP6 JUMP JUMPDEST PUSH1 0x0 DUP1 PUSH1 0x40 DUP4 DUP6 SUB SLT ISZERO PUSH2 0x26B4 JUMPI PUSH1 0x0 DUP1 REVERT JUMPDEST PUSH2 0x25B3 DUP4 PUSH2 0x2512 JUMP JUMPDEST PUSH4 0x4E487B71 PUSH1 0xE0 SHL PUSH1 0x0 MSTORE PUSH1 0x11 PUSH1 0x4 MSTORE PUSH1 0x24 PUSH1 0x0 REVERT JUMPDEST PUSH1 0x0 DUP2 PUSH1 0x0 NOT DIV DUP4 GT DUP3 ISZERO ISZERO AND ISZERO PUSH2 0x26ED JUMPI PUSH2 0x26ED PUSH2 0x26BD JUMP JUMPDEST POP MUL SWAP1 JUMP JUMPDEST PUSH1 0x0 DUP3 PUSH2 0x270F JUMPI PUSH4 0x4E487B71 PUSH1 0xE0 SHL PUSH1 0x0 MSTORE PUSH1 0x12 PUSH1 0x4 MSTORE PUSH1 0x24 PUSH1 0x0 REVERT JUMPDEST POP DIV SWAP1 JUMP JUMPDEST PUSH1 0x0 DUP3 NOT DUP3 GT ISZERO PUSH2 0x2727 JUMPI PUSH2 0x2727 PUSH2 0x26BD JUMP JUMPDEST POP ADD SWAP1 JUMP JUMPDEST PUSH1 0x20 DUP1 DUP3 MSTORE DUP2 DUP2 ADD MSTORE PUSH32 0x4F776E61626C653A2063616C6C6572206973206E6F7420746865206F776E6572 PUSH1 0x40 DUP3 ADD MSTORE PUSH1 0x60 ADD SWAP1 JUMP JUMPDEST PUSH1 0x0 PUSH1 0x20 DUP3 DUP5 SUB SLT ISZERO PUSH2 0x2773 JUMPI PUSH1 0x0 DUP1 REVERT JUMPDEST POP MLOAD SWAP2 SWAP1 POP JUMP JUMPDEST PUSH1 0x20 DUP1 DUP3 MSTORE PUSH1 0xB SWAP1 DUP3 ADD MSTORE PUSH11 0x8585D5D1A1BDC9A5E9959 PUSH1 0xAA SHL PUSH1 0x40 DUP3 ADD MSTORE PUSH1 0x60 ADD SWAP1 JUMP JUMPDEST PUSH1 0x20 DUP1 DUP3 MSTORE DUP3 SLOAD DUP3 DUP3 ADD DUP2 SWAP1 MSTORE PUSH1 0x0 DUP5 DUP2 MSTORE DUP3 DUP2 KECCAK256 SWAP1 SWAP3 SWAP2 PUSH1 0x40 DUP6 ADD SWAP1 DUP5 JUMPDEST DUP2 DUP2 LT ISZERO PUSH2 0x27E3 JUMPI DUP4 SLOAD PUSH1 0x1 PUSH1 0x1 PUSH1 0xA0 SHL SUB AND DUP4 MSTORE PUSH1 0x1 SWAP4 DUP5 ADD SWAP4 SWAP3 DUP6 ADD SWAP3 ADD PUSH2 0x27BE JUMP JUMPDEST POP SWAP1 SWAP7 SWAP6 POP POP POP POP POP POP JUMP JUMPDEST PUSH1 0x0 PUSH1 0x20 DUP3 DUP5 SUB SLT ISZERO PUSH2 0x2801 JUMPI PUSH1 0x0 DUP1 REVERT JUMPDEST DUP2 MLOAD PUSH2 0x6C9 DUP2 PUSH2 0x2587 JUMP JUMPDEST PUSH1 0x0 DUP3 DUP3 LT ISZERO PUSH2 0x281E JUMPI PUSH2 0x281E PUSH2 0x26BD JUMP JUMPDEST POP SUB SWAP1 JUMP JUMPDEST PUSH4 0x4E487B71 PUSH1 0xE0 SHL PUSH1 0x0 MSTORE PUSH1 0x32 PUSH1 0x4 MSTORE PUSH1 0x24 PUSH1 0x0 REVERT JUMPDEST PUSH1 0x0 PUSH1 0x0 NOT DUP3 EQ ISZERO PUSH2 0x284D JUMPI PUSH2 0x284D PUSH2 0x26BD JUMP JUMPDEST POP PUSH1 0x1 ADD SWAP1 JUMP JUMPDEST PUSH4 0x4E487B71 PUSH1 0xE0 SHL PUSH1 0x0 MSTORE PUSH1 0x31 PUSH1 0x4 MSTORE PUSH1 0x24 PUSH1 0x0 REVERT JUMPDEST PUSH1 0x0 JUMPDEST DUP4 DUP2 LT ISZERO PUSH2 0x2885 JUMPI DUP2 DUP2 ADD MLOAD DUP4 DUP3 ADD MSTORE PUSH1 0x20 ADD PUSH2 0x286D JUMP JUMPDEST DUP4 DUP2 GT ISZERO PUSH2 0x2023 JUMPI POP POP PUSH1 0x0 SWAP2 ADD MSTORE JUMP JUMPDEST PUSH1 0x0 DUP3 MLOAD PUSH2 0x28A8 DUP2 DUP5 PUSH1 0x20 DUP8 ADD PUSH2 0x286A JUMP JUMPDEST SWAP2 SWAP1 SWAP2 ADD SWAP3 SWAP2 POP POP JUMP JUMPDEST PUSH1 0x20 DUP2 MSTORE PUSH1 0x0 DUP3 MLOAD DUP1 PUSH1 0x20 DUP5 ADD MSTORE PUSH2 0x28D1 DUP2 PUSH1 0x40 DUP6 ADD PUSH1 0x20 DUP8 ADD PUSH2 0x286A JUMP JUMPDEST PUSH1 0x1F ADD PUSH1 0x1F NOT AND SWAP2 SWAP1 SWAP2 ADD PUSH1 0x40 ADD SWAP3 SWAP2 POP POP JUMP INVALID LOG2 PUSH5 0x6970667358 0x22 SLT KECCAK256 PUSH1 0xD4 0x4F 0xAF 0xD2 0xA6 0xF7 0x4C 0xEE MUL RETURNDATASIZE SWAP11 0x1E PUSH24 0xDC96B76D8320A93EAF21E2103E6FA367E9AC64736F6C6343 STOP ADDMOD 0xC STOP CALLER ",
  "sha1": "3d1ae90285d5d4c5be942781bbdfafd8e08d8f9d",
  "source": "// SPDX-License-Identifier: MIT\npragma solidity 0.8.12;\n\nimport \"./interfaces/IExtraReward.sol\";\nimport \"@openzeppelin/contracts/token/ERC20/IERC20.sol\";\nimport \"@openzeppelin/contracts/token/ERC20/utils/SafeERC20.sol\";\nimport \"@openzeppelin/contracts/utils/math/Math.sol\";\nimport \"./interfaces/IGauge.sol\";\nimport \"./interfaces/IVeYfiRewardPool.sol\";\nimport \"./BaseGauge.sol\";\n\nimport \"./interfaces/IVotingEscrow.sol\";\n\n/** @title  Gauge stake vault token get YFI rewards\n    @notice Deposit your vault token (one gauge per vault).\n    YFI are paid based on the amount of vault tokens, the veYFI balance and the duration of the lock.\n    @dev this contract is used behind multiple delegate proxies.\n */\n\ncontract Gauge is BaseGauge, IGauge {\n    using SafeERC20 for IERC20;\n\n    IERC20 public stakingToken;\n    //// @notice veYFI\n    address public veToken;\n    //// @notice the veYFI YFI reward pool, penalty are sent to this contract.\n    address public veYfiRewardPool;\n    //// @notice a copy of the veYFI max lock duration\n    uint256 public constant MAX_LOCK = 4 * 365 * 86400;\n    uint256 public constant PRECISON_FACTOR = 10**6;\n    //// @notice Penalty do not apply for locks expiring after 3y11m\n    uint256 public constant GRACE_PERIOD = 30 days;\n\n    //// @notice rewardManager is in charge of adding/removing additional rewards\n    address public rewardManager;\n\n    /**\n    @notice penalty queued to be transfer later to veYfiRewardPool using `transferQueuedPenalty`\n    @dev rewards are queued when an account `_updateReward`.\n    */\n    uint256 public queuedPenalty;\n    uint256 private _totalSupply;\n    mapping(address => uint256) private _balances;\n\n    //// @notice list of extraRewards pool.\n    address[] public extraRewards;\n\n    event Staked(address indexed user, uint256 amount);\n    event Withdrawn(address indexed user, uint256 amount);\n    event AddedExtraReward(address reward);\n    event DeletedExtraRewards(address[] rewards);\n    event RemovedExtraReward(address reward);\n    event UpdatedRewardManager(address rewardManager);\n    event UpdatedVeToken(address ve);\n    event Initialized(\n        address stakingToken,\n        address rewardToken,\n        address owner,\n        address rewardManager,\n        address ve,\n        address veYfiRewardPool\n    );\n\n    /** @notice initialize the contract\n     *  @dev Initialize called after contract is cloned.\n     *  @param _stakingToken The vault token to stake\n     *  @param _rewardToken the reward token YFI\n     *  @param _owner owner address\n     *  @param _rewardManager reward manager address\n     *  @param _ve veYFI address\n     *  @param _veYfiRewardPool veYfiRewardPool address\n     */\n    function initialize(\n        address _stakingToken,\n        address _rewardToken,\n        address _owner,\n        address _rewardManager,\n        address _ve,\n        address _veYfiRewardPool\n    ) external initializer {\n        require(\n            address(_stakingToken) != address(0x0),\n            \"_stakingToken 0x0 address\"\n        );\n        require(address(_ve) != address(0x0), \"_ve 0x0 address\");\n        require(\n            address(_veYfiRewardPool) != address(0x0),\n            \"_veYfiRewardPool 0x0 address\"\n        );\n\n        __initialize(_rewardToken, _owner);\n        stakingToken = IERC20(_stakingToken);\n        veToken = _ve;\n        rewardManager = _rewardManager;\n        veYfiRewardPool = _veYfiRewardPool;\n\n        emit Initialized(\n            _stakingToken,\n            _rewardToken,\n            _owner,\n            _rewardManager,\n            _ve,\n            _veYfiRewardPool\n        );\n    }\n\n    function setVe(address _ve) external onlyOwner {\n        veToken = _ve;\n        emit UpdatedVeToken(_ve);\n    }\n\n    /** @return total of the staked vault token\n     */\n    function totalSupply() public view returns (uint256) {\n        return _totalSupply;\n    }\n\n    /** @param account to look balance for\n     *  @return amount of staked token for an account\n     */\n    function balanceOf(address account)\n        external\n        view\n        override\n        returns (uint256)\n    {\n        return _balances[account];\n    }\n\n    /** @return the number of extra rewards pool\n     */\n    function extraRewardsLength() external view returns (uint256) {\n        return extraRewards.length;\n    }\n\n    /** @notice add extra rewards to the gauge\n     *  @dev can only be done by rewardManager\n     *  @param _extraReward the ExtraReward contract address\n     *  @return true\n     */\n    function addExtraReward(address _extraReward) external returns (bool) {\n        require(msg.sender == rewardManager, \"!authorized\");\n        require(_extraReward != address(0), \"!reward setting\");\n        emit AddedExtraReward(_extraReward);\n        extraRewards.push(_extraReward);\n        return true;\n    }\n\n    /** @notice remove extra rewards from the gauge\n     *  @dev can only be done by rewardManager\n     *  @param _extraReward the ExtraReward contract address\n     */\n    function removeExtraReward(address _extraReward) external returns (bool) {\n        require(msg.sender == rewardManager, \"!authorized\");\n        uint256 index = type(uint256).max;\n        uint256 length = extraRewards.length;\n        for (uint256 i = 0; i < length; i++) {\n            if (extraRewards[i] == _extraReward) {\n                index = i;\n                break;\n            }\n        }\n        require(index != type(uint256).max, \"extra reward not found\");\n        emit RemovedExtraReward(_extraReward);\n        extraRewards[index] = extraRewards[extraRewards.length - 1];\n        extraRewards.pop();\n        return true;\n    }\n\n    /** @notice remove extra rewards\n     *  @dev can only be done by rewardManager\n     */\n    function clearExtraRewards() external {\n        require(msg.sender == rewardManager, \"!authorized\");\n        emit DeletedExtraRewards(extraRewards);\n        delete extraRewards;\n    }\n\n    function _updateReward(address account) internal override {\n        rewardPerTokenStored = _rewardPerToken();\n        lastUpdateTime = lastTimeRewardApplicable();\n        if (account != address(0)) {\n            if (_balances[account] != 0) {\n                uint256 newEarning = _newEarning(account);\n                uint256 maxEarning = _maxEarning(account);\n\n                uint256 penalty = ((PRECISON_FACTOR - _lockingRatio(account)) *\n                    newEarning) / PRECISON_FACTOR;\n\n                rewards[account] += (newEarning - penalty);\n                queuedPenalty += penalty;\n\n                // If rewards aren't boosted at max, loss rewards are queued to be redistributed to the gauge.\n                queuedRewards += (maxEarning - newEarning);\n            }\n            userRewardPerTokenPaid[account] = rewardPerTokenStored;\n            emit UpdatedRewards(\n                account,\n                rewardPerTokenStored,\n                lastUpdateTime,\n                rewards[account],\n                userRewardPerTokenPaid[account]\n            );\n        }\n    }\n\n    /** @notice give the lockingRatio\n     * @dev locking ratio is expressed in PRECISON_FACTOR, it's used to calculate the penalty due to the lock duration.\n     * @return lockingRatio\n     */\n    function lockingRatio(address account) external view returns (uint256) {\n        return _lockingRatio(account);\n    }\n\n    function _lockingRatio(address acccount) internal view returns (uint256) {\n        if (IVotingEscrow(veToken).migration()) {\n            return PRECISON_FACTOR;\n        }\n\n        uint256 lockedUntil = IVotingEscrow(veToken).locked__end(acccount);\n        if (lockedUntil == 0 || lockedUntil <= block.timestamp) {\n            return 0;\n        }\n\n        uint256 timeLeft = lockedUntil - block.timestamp;\n        if (MAX_LOCK - timeLeft < GRACE_PERIOD) {\n            return PRECISON_FACTOR;\n        }\n\n        return (PRECISON_FACTOR * timeLeft) / MAX_LOCK;\n    }\n\n    function _rewardPerToken() internal view override returns (uint256) {\n        if (totalSupply() == 0) {\n            return rewardPerTokenStored;\n        }\n        return\n            rewardPerTokenStored +\n            (((lastTimeRewardApplicable() - lastUpdateTime) *\n                rewardRate *\n                1e18) / totalSupply());\n    }\n\n    /** @notice earning for an account\n     *  @dev earning are based on lock duration and boost\n     *  @return amount of tokens earned\n     */\n    function earned(address account)\n        external\n        view\n        override(BaseGauge, IBaseGauge)\n        returns (uint256)\n    {\n        uint256 newEarning = _newEarning(account);\n\n        return\n            (_lockingRatio(account) * newEarning) /\n            PRECISON_FACTOR +\n            rewards[account];\n    }\n\n    function _newEarning(address account)\n        internal\n        view\n        override\n        returns (uint256)\n    {\n        return\n            (_boostedBalanceOf(account) *\n                (_rewardPerToken() - userRewardPerTokenPaid[account])) / 1e18;\n    }\n\n    function _maxEarning(address account) internal view returns (uint256) {\n        return\n            (_balances[account] *\n                (_rewardPerToken() - userRewardPerTokenPaid[account])) / 1e18;\n    }\n\n    /** @notice boosted balance of based on veYFI balance\n     *  @dev min(balance * 0.4 + totalSupply * veYFIBalance / veYFITotalSypply * 0.6, balance)\n     *  @return boosted balance\n     */\n    function boostedBalanceOf(address account) public view returns (uint256) {\n        return _boostedBalanceOf(account);\n    }\n\n    function _boostedBalanceOf(address account)\n        internal\n        view\n        returns (uint256)\n    {\n        uint256 veTotalSupply = IVotingEscrow(veToken).totalSupply();\n        if (veTotalSupply == 0) {\n            return _balances[account];\n        }\n\n        return\n            Math.min(\n                ((_balances[account] * 40) +\n                    (((_totalSupply *\n                        IVotingEscrow(veToken).balanceOf(account)) /\n                        veTotalSupply) * 60)) / 100,\n                _balances[account]\n            );\n    }\n\n    /** @notice deposit vault tokens into the gauge\n     * @dev a user without a veYFI should not lock.\n     * @dev This call update claimable rewards\n     * @param _amount of vault token\n     * @return true\n     */\n    function deposit(uint256 _amount) public returns (bool) {\n        _deposit(msg.sender, _amount);\n        return true;\n    }\n\n    /** @notice deposit vault tokens into the gauge\n     *   @dev a user without a veYFI should not lock.\n     *   @dev will deposit the min betwwen user balance and user approval\n     *   @dev This call update claimable rewards\n     *   @return true\n     */\n    function deposit() external returns (bool) {\n        uint256 balance = Math.min(\n            stakingToken.balanceOf(msg.sender),\n            stakingToken.allowance(msg.sender, address(this))\n        );\n        _deposit(msg.sender, balance);\n        return true;\n    }\n\n    /** @notice deposit vault tokens into the gauge for a user\n     *   @dev vault token is taken from msg.sender\n     *   @dev This call update  `_for` claimable rewards\n     *   @param _for account to deposit to\n     *    @param _amount to deposit\n     *    @return true\n     */\n    function depositFor(address _for, uint256 _amount) external returns (bool) {\n        _deposit(_for, _amount);\n        return true;\n    }\n\n    function _deposit(address _for, uint256 _amount)\n        internal\n        updateReward(_for)\n    {\n        require(_amount > 0, \"RewardPool : Cannot deposit 0\");\n\n        //also deposit to linked rewards\n        uint256 length = extraRewards.length;\n        for (uint256 i = 0; i < length; i++) {\n            IExtraReward(extraRewards[i]).rewardCheckpoint(_for);\n        }\n\n        //give to _for\n        _totalSupply = _totalSupply + _amount;\n        _balances[_for] = _balances[_for] + _amount;\n\n        //take away from sender\n        stakingToken.safeTransferFrom(msg.sender, address(this), _amount);\n        emit Staked(_for, _amount);\n    }\n\n    /** @notice withdraw vault token from the gauge\n     * @dev This call update claimable rewards\n     *  @param _amount amount to withdraw\n     *   @param _claim claimm veYFI and aditional reward\n     *   @param _lock should the claimed rewards be locked in veYFI for the user\n     *   @return true\n     */\n    function withdraw(\n        uint256 _amount,\n        bool _claim,\n        bool _lock\n    ) public updateReward(msg.sender) returns (bool) {\n        require(_amount > 0, \"RewardPool : Cannot withdraw 0\");\n\n        //also withdraw from linked rewards\n        uint256 length = extraRewards.length;\n        for (uint256 i = 0; i < length; i++) {\n            IExtraReward(extraRewards[i]).rewardCheckpoint(msg.sender);\n        }\n\n        _totalSupply = _totalSupply - _amount;\n        _balances[msg.sender] = _balances[msg.sender] - _amount;\n\n        if (_claim) {\n            _getReward(msg.sender, _lock, true);\n        }\n\n        stakingToken.safeTransfer(msg.sender, _amount);\n        emit Withdrawn(msg.sender, _amount);\n\n        return true;\n    }\n\n    /** @notice withdraw all vault token from gauge\n     *   @dev This call update claimable rewards\n     *   @param _claim claim veYFI and additional reward\n     *   @param _lock should the claimed rewards be locked in veYFI for the user\n     *   @return true\n     */\n    function withdraw(bool _claim, bool _lock) external returns (bool) {\n        withdraw(_balances[msg.sender], _claim, _lock);\n        return true;\n    }\n\n    /** @notice withdraw all vault token from gauge\n     *  @dev This call update claimable rewards\n     *  @param _claim claim veYFI and additional reward\n     *  @return true\n     */\n    function withdraw(bool _claim) external returns (bool) {\n        withdraw(_balances[msg.sender], _claim, false);\n        return true;\n    }\n\n    /** @notice withdraw all vault token from gauge\n        @dev This call update claimable rewards\n        @return true\n    */\n    function withdraw() external returns (bool) {\n        withdraw(_balances[msg.sender], false, false);\n        return true;\n    }\n\n    /**\n     * @notice\n     *  Get rewards\n     * @param _lock should the yfi be locked in veYFI\n     * @param _claimExtras claim extra rewards\n     * @return true\n     */\n    function getReward(bool _lock, bool _claimExtras)\n        external\n        updateReward(msg.sender)\n        returns (bool)\n    {\n        _getReward(msg.sender, _lock, _claimExtras);\n        return true;\n    }\n\n    /**\n     * @notice\n     *  Get rewards and claim extra rewards\n     *  @param _lock should the yfi be locked in veYFI\n     *  @return true\n     */\n    function getReward(bool _lock)\n        external\n        updateReward(msg.sender)\n        returns (bool)\n    {\n        _getReward(msg.sender, _lock, true);\n        return true;\n    }\n\n    /**\n     * @notice\n     *  Get rewards and claim extra rewards, do not lock YFI earned\n     *  @return true\n     */\n    function getReward() external updateReward(msg.sender) returns (bool) {\n        _getReward(msg.sender, false, true);\n        return true;\n    }\n\n    /**\n     * @notice\n     *  Get rewards for an account\n     * @dev rewards are transfer to _account\n     * @param _account to claim rewards for\n     * @param _claimExtras claim extra rewards\n     * @return true\n     */\n    function getRewardFor(address _account, bool _claimExtras)\n        external\n        updateReward(_account)\n        returns (bool)\n    {\n        _getReward(_account, false, _claimExtras);\n        return true;\n    }\n\n    function _getReward(\n        address _account,\n        bool _lock,\n        bool _claimExtras\n    ) internal {\n        uint256 reward = rewards[_account];\n        if (reward > 0) {\n            rewards[_account] = 0;\n            if (_lock) {\n                rewardToken.approve(address(veToken), reward);\n                IVotingEscrow(veToken).deposit_for(msg.sender, reward);\n            } else {\n                rewardToken.safeTransfer(_account, reward);\n            }\n\n            emit RewardPaid(_account, reward);\n        }\n        //also get rewards from linked rewards\n        if (_claimExtras) {\n            uint256 length = extraRewards.length;\n            for (uint256 i = 0; i < length; i++) {\n                IExtraReward(extraRewards[i]).getRewardFor(msg.sender);\n            }\n        }\n    }\n\n    /**\n     * @notice\n     * Transfer penalty to the veYFIRewardContract\n     * @dev Penalty are queued in this contract.\n     * @return true\n     */\n    function transferQueuedPenalty() external returns (bool) {\n        uint256 toTransfer = queuedPenalty;\n        queuedPenalty = 0;\n\n        IERC20(rewardToken).approve(veYfiRewardPool, toTransfer);\n        IVeYfiRewardPool(veYfiRewardPool).queueNewRewards(toTransfer);\n        return true;\n    }\n\n    /**\n     * @notice\n     * set reward manager\n     * @dev Can be called by rewardManager or owner\n     * @param _rewardManager new reward manager\n     * @return true\n     */\n    function setRewardManager(address _rewardManager) external returns (bool) {\n        require(\n            msg.sender == rewardManager || msg.sender == owner(),\n            \"!authorized\"\n        );\n\n        require(_rewardManager != address(0), \"_rewardManager 0x0 address\");\n        rewardManager = _rewardManager;\n        emit UpdatedRewardManager(rewardManager);\n        return true;\n    }\n\n    function _notProtectedTokens(address _token)\n        internal\n        view\n        override\n        returns (bool)\n    {\n        return\n            _token != address(rewardToken) && _token != address(stakingToken);\n    }\n}\n",
  "sourcePath": "contracts/Gauge.sol",
  "type": "contract"
}