{
  "abi": [
    {
      "inputs": [
        {
          "internalType": "address",
          "name": "_ve",
          "type": "address"
        },
        {
          "internalType": "address",
          "name": "_yfi",
          "type": "address"
        },
        {
          "internalType": "address",
          "name": "_gaugefactory",
          "type": "address"
        },
        {
          "internalType": "address",
          "name": "_veYfiRewardPool",
          "type": "address"
        }
      ],
      "stateMutability": "nonpayable",
      "type": "constructor"
    },
    {
      "anonymous": false,
      "inputs": [
        {
          "indexed": true,
          "internalType": "address",
          "name": "previousOwner",
          "type": "address"
        },
        {
          "indexed": true,
          "internalType": "address",
          "name": "newOwner",
          "type": "address"
        }
      ],
      "name": "OwnershipTransferred",
      "type": "event"
    },
    {
      "anonymous": false,
      "inputs": [
        {
          "indexed": false,
          "internalType": "address",
          "name": "ve",
          "type": "address"
        }
      ],
      "name": "UpdatedVeToken",
      "type": "event"
    },
    {
      "anonymous": false,
      "inputs": [
        {
          "indexed": false,
          "internalType": "address",
          "name": "vault",
          "type": "address"
        }
      ],
      "name": "VaultAdded",
      "type": "event"
    },
    {
      "anonymous": false,
      "inputs": [
        {
          "indexed": false,
          "internalType": "address",
          "name": "vault",
          "type": "address"
        }
      ],
      "name": "VaultRemoved",
      "type": "event"
    },
    {
      "inputs": [
        {
          "internalType": "address",
          "name": "_vault",
          "type": "address"
        },
        {
          "internalType": "address",
          "name": "_owner",
          "type": "address"
        },
        {
          "internalType": "address",
          "name": "_rewardManager",
          "type": "address"
        }
      ],
      "name": "addVaultToRewards",
      "outputs": [
        {
          "internalType": "address",
          "name": "",
          "type": "address"
        }
      ],
      "stateMutability": "nonpayable",
      "type": "function"
    },
    {
      "inputs": [],
      "name": "gaugefactory",
      "outputs": [
        {
          "internalType": "address",
          "name": "",
          "type": "address"
        }
      ],
      "stateMutability": "view",
      "type": "function"
    },
    {
      "inputs": [
        {
          "internalType": "address",
          "name": "",
          "type": "address"
        }
      ],
      "name": "gauges",
      "outputs": [
        {
          "internalType": "address",
          "name": "",
          "type": "address"
        }
      ],
      "stateMutability": "view",
      "type": "function"
    },
    {
      "inputs": [],
      "name": "getVaults",
      "outputs": [
        {
          "internalType": "address[]",
          "name": "",
          "type": "address[]"
        }
      ],
      "stateMutability": "view",
      "type": "function"
    },
    {
      "inputs": [
        {
          "internalType": "address",
          "name": "",
          "type": "address"
        }
      ],
      "name": "isGauge",
      "outputs": [
        {
          "internalType": "bool",
          "name": "",
          "type": "bool"
        }
      ],
      "stateMutability": "view",
      "type": "function"
    },
    {
      "inputs": [],
      "name": "owner",
      "outputs": [
        {
          "internalType": "address",
          "name": "",
          "type": "address"
        }
      ],
      "stateMutability": "view",
      "type": "function"
    },
    {
      "inputs": [
        {
          "internalType": "address",
          "name": "_vault",
          "type": "address"
        }
      ],
      "name": "removeVaultFromRewards",
      "outputs": [],
      "stateMutability": "nonpayable",
      "type": "function"
    },
    {
      "inputs": [],
      "name": "renounceOwnership",
      "outputs": [],
      "stateMutability": "nonpayable",
      "type": "function"
    },
    {
      "inputs": [
        {
          "internalType": "address",
          "name": "_ve",
          "type": "address"
        }
      ],
      "name": "setVe",
      "outputs": [],
      "stateMutability": "nonpayable",
      "type": "function"
    },
    {
      "inputs": [
        {
          "internalType": "address",
          "name": "newOwner",
          "type": "address"
        }
      ],
      "name": "transferOwnership",
      "outputs": [],
      "stateMutability": "nonpayable",
      "type": "function"
    },
    {
      "inputs": [
        {
          "internalType": "address",
          "name": "",
          "type": "address"
        }
      ],
      "name": "vaultForGauge",
      "outputs": [
        {
          "internalType": "address",
          "name": "",
          "type": "address"
        }
      ],
      "stateMutability": "view",
      "type": "function"
    },
    {
      "inputs": [],
      "name": "veToken",
      "outputs": [
        {
          "internalType": "address",
          "name": "",
          "type": "address"
        }
      ],
      "stateMutability": "view",
      "type": "function"
    },
    {
      "inputs": [],
      "name": "veYfiRewardPool",
      "outputs": [
        {
          "internalType": "address",
          "name": "",
          "type": "address"
        }
      ],
      "stateMutability": "view",
      "type": "function"
    },
    {
      "inputs": [],
      "name": "yfi",
      "outputs": [
        {
          "internalType": "address",
          "name": "",
          "type": "address"
        }
      ],
      "stateMutability": "view",
      "type": "function"
    }
  ],
  "bytecode": "608060405234801561001057600080fd5b50604051610be5380380610be583398101604081905261002f916100f7565b6100383361008b565b600180546001600160a01b039586166001600160a01b031991821617909155600280549486169482169490941790935560048054928516928416929092179091556003805491909316911617905561014b565b600080546001600160a01b038381166001600160a01b0319831681178455604051919092169283917f8be0079c531659141344cd1fd0a4f28419497f9722a3daafe3b4186f6b6457e09190a35050565b80516001600160a01b03811681146100f257600080fd5b919050565b6000806000806080858703121561010d57600080fd5b610116856100db565b9350610124602086016100db565b9250610132604086016100db565b9150610140606086016100db565b905092959194509250565b610a8b8061015a6000396000f3fe608060405234801561001057600080fd5b50600436106100ea5760003560e01c80639e15977f1161008c578063da981b6011610066578063da981b60146101f7578063e310fa5d1461020a578063f2fde38b1461021d578063fc826cf61461023057600080fd5b80639e15977f14610188578063aa79979b1461019b578063b9a09fd5146101ce57600080fd5b806368c3acb3116100c857806368c3acb314610147578063715018a61461015a5780637a238855146101645780638da5cb5b1461017757600080fd5b80633b92eb23146100ef57806344d00f821461011f578063479efd4e14610134575b600080fd5b600154610102906001600160a01b031681565b6040516001600160a01b0390911681526020015b60405180910390f35b610127610259565b60405161011691906108e8565b61010261014236600461094a565b61026a565b600454610102906001600160a01b031681565b61016261043e565b005b610162610172366004610995565b610474565b6000546001600160a01b0316610102565b600354610102906001600160a01b031681565b6101be6101a9366004610995565b60096020526000908152604090205460ff1681565b6040519015158152602001610116565b6101026101dc366004610995565b6007602052600090815260409020546001600160a01b031681565b610162610205366004610995565b6104f2565b600254610102906001600160a01b031681565b61016261022b366004610995565b610618565b61010261023e366004610995565b6008602052600090815260409020546001600160a01b031681565b606061026560056106b3565b905090565b600080546001600160a01b0316331461029e5760405162461bcd60e51b8152600401610295906109b2565b60405180910390fd5b6001600160a01b0384811660009081526007602052604090205416156102ee5760405162461bcd60e51b8152602060048201526005602482015264195e1a5cdd60da1b6044820152606401610295565b60048054600254600154600354604051633eed788160e21b81526001600160a01b038a8116968201969096529285166024840152878516604484015286851660648401529084166084830152831660a48201526000929091169063fbb5e2049060c4016020604051808303816000875af1158015610370573d6000803e3d6000fd5b505050506040513d601f19601f8201168201806040525081019061039491906109e7565b6001600160a01b03808716600081815260076020908152604080832080549587166001600160a01b03199687168117909155835260088252808320805490951690931790935560099092529020805460ff1916600117905590506103f96005866106c7565b506040516001600160a01b03861681527f7b7ef7a864d96a85497a1ed846adb39940dd6ccef678ff6ac8d55505e09b8cc49060200160405180910390a1949350505050565b6000546001600160a01b031633146104685760405162461bcd60e51b8152600401610295906109b2565b61047260006106e5565b565b6000546001600160a01b0316331461049e5760405162461bcd60e51b8152600401610295906109b2565b600180546001600160a01b0319166001600160a01b0383169081179091556040519081527f0f382d8404a45286f6180665c3eb5574df3e6efdd99ad2e652d8f5d904f264f09060200160405180910390a150565b6000546001600160a01b0316331461051c5760405162461bcd60e51b8152600401610295906109b2565b6001600160a01b038181166000908152600760205260409020541661056c5760405162461bcd60e51b815260206004820152600660248201526508595e1a5cdd60d21b6044820152606401610295565b6001600160a01b0380821660009081526007602052604090205416610592600583610735565b506001600160a01b03828116600081815260076020908152604080832080546001600160a01b031990811690915594861683526008825280832080549095169094556009815290839020805460ff1916905591519081527fe71f3a50e5ad81964f352c411f1d45e35438ecd1acecef59ac81d9fbbf6cbc0a910160405180910390a15050565b6000546001600160a01b031633146106425760405162461bcd60e51b8152600401610295906109b2565b6001600160a01b0381166106a75760405162461bcd60e51b815260206004820152602660248201527f4f776e61626c653a206e6577206f776e657220697320746865207a65726f206160448201526564647265737360d01b6064820152608401610295565b6106b0816106e5565b50565b606060006106c08361074a565b9392505050565b60006106dc836001600160a01b0384166107a6565b90505b92915050565b600080546001600160a01b038381166001600160a01b0319831681178455604051919092169283917f8be0079c531659141344cd1fd0a4f28419497f9722a3daafe3b4186f6b6457e09190a35050565b60006106dc836001600160a01b0384166107f5565b60608160000180548060200260200160405190810160405280929190818152602001828054801561079a57602002820191906000526020600020905b815481526020019060010190808311610786575b50505050509050919050565b60008181526001830160205260408120546107ed575081546001818101845560008481526020808220909301849055845484825282860190935260409020919091556106df565b5060006106df565b600081815260018301602052604081205480156108de576000610819600183610a04565b855490915060009061082d90600190610a04565b905081811461089257600086600001828154811061084d5761084d610a29565b906000526020600020015490508087600001848154811061087057610870610a29565b6000918252602080832090910192909255918252600188019052604090208390555b85548690806108a3576108a3610a3f565b6001900381819060005260206000200160009055905585600101600086815260200190815260200160002060009055600193505050506106df565b60009150506106df565b6020808252825182820181905260009190848201906040850190845b818110156109295783516001600160a01b031683529284019291840191600101610904565b50909695505050505050565b6001600160a01b03811681146106b057600080fd5b60008060006060848603121561095f57600080fd5b833561096a81610935565b9250602084013561097a81610935565b9150604084013561098a81610935565b809150509250925092565b6000602082840312156109a757600080fd5b81356106c081610935565b6020808252818101527f4f776e61626c653a2063616c6c6572206973206e6f7420746865206f776e6572604082015260600190565b6000602082840312156109f957600080fd5b81516106c081610935565b600082821015610a2457634e487b7160e01b600052601160045260246000fd5b500390565b634e487b7160e01b600052603260045260246000fd5b634e487b7160e01b600052603160045260246000fdfea2646970667358221220ae4869e996da2711740474da01b93cf838cd6e27631ba23a5ae5d2b683c4a20c64736f6c634300080c0033",
  "bytecodeSha1": "8a6f5483f4f4b5002c567ca99a90e3b3d31580fd",
  "compiler": {
    "evm_version": "istanbul",
    "optimizer": {
      "enabled": true,
      "runs": 200
    },
    "version": "0.8.12+commit.f00d7308"
  },
  "contractName": "Registry",
  "language": "Solidity",
  "natspec": {
    "kind": "dev",
    "methods": {
      "addVaultToRewards(address,address,address)": {
        "notice": "Add a vault to the list of vaults that recieves rewards.",
        "params": {
          "_owner": "owner.",
          "_rewardManager": "address in charge of managing additional rewards",
          "_vault": "vault address"
        }
      },
      "getVaults()": {
        "returns": {
          "_0": "The list of vaults with gauge that are possible to vote for."
        }
      },
      "owner()": {
        "details": "Returns the address of the current owner."
      },
      "removeVaultFromRewards(address)": {
        "notice": "Remove a vault from the list of vaults recieving rewards.",
        "params": {
          "_vault": "vault address"
        }
      },
      "renounceOwnership()": {
        "details": "Leaves the contract without owner. It will not be possible to call `onlyOwner` functions anymore. Can only be called by the current owner. NOTE: Renouncing ownership will leave the contract without an owner, thereby removing any functionality that is only available to the owner."
      },
      "transferOwnership(address)": {
        "details": "Transfers ownership of the contract to a new account (`newOwner`). Can only be called by the current owner."
      }
    },
    "notice": "veYFI holders will vote for gauge allocation to vault tokens.",
    "title": "Voter",
    "version": 1
  },
  "opcodes": "PUSH1 0x80 PUSH1 0x40 MSTORE CALLVALUE DUP1 ISZERO PUSH2 0x10 JUMPI PUSH1 0x0 DUP1 REVERT JUMPDEST POP PUSH1 0x4 CALLDATASIZE LT PUSH2 0xEA JUMPI PUSH1 0x0 CALLDATALOAD PUSH1 0xE0 SHR DUP1 PUSH4 0x9E15977F GT PUSH2 0x8C JUMPI DUP1 PUSH4 0xDA981B60 GT PUSH2 0x66 JUMPI DUP1 PUSH4 0xDA981B60 EQ PUSH2 0x1F7 JUMPI DUP1 PUSH4 0xE310FA5D EQ PUSH2 0x20A JUMPI DUP1 PUSH4 0xF2FDE38B EQ PUSH2 0x21D JUMPI DUP1 PUSH4 0xFC826CF6 EQ PUSH2 0x230 JUMPI PUSH1 0x0 DUP1 REVERT JUMPDEST DUP1 PUSH4 0x9E15977F EQ PUSH2 0x188 JUMPI DUP1 PUSH4 0xAA79979B EQ PUSH2 0x19B JUMPI DUP1 PUSH4 0xB9A09FD5 EQ PUSH2 0x1CE JUMPI PUSH1 0x0 DUP1 REVERT JUMPDEST DUP1 PUSH4 0x68C3ACB3 GT PUSH2 0xC8 JUMPI DUP1 PUSH4 0x68C3ACB3 EQ PUSH2 0x147 JUMPI DUP1 PUSH4 0x715018A6 EQ PUSH2 0x15A JUMPI DUP1 PUSH4 0x7A238855 EQ PUSH2 0x164 JUMPI DUP1 PUSH4 0x8DA5CB5B EQ PUSH2 0x177 JUMPI PUSH1 0x0 DUP1 REVERT JUMPDEST DUP1 PUSH4 0x3B92EB23 EQ PUSH2 0xEF JUMPI DUP1 PUSH4 0x44D00F82 EQ PUSH2 0x11F JUMPI DUP1 PUSH4 0x479EFD4E EQ PUSH2 0x134 JUMPI JUMPDEST PUSH1 0x0 DUP1 REVERT JUMPDEST PUSH1 0x1 SLOAD PUSH2 0x102 SWAP1 PUSH1 0x1 PUSH1 0x1 PUSH1 0xA0 SHL SUB AND DUP2 JUMP JUMPDEST PUSH1 0x40 MLOAD PUSH1 0x1 PUSH1 0x1 PUSH1 0xA0 SHL SUB SWAP1 SWAP2 AND DUP2 MSTORE PUSH1 0x20 ADD JUMPDEST PUSH1 0x40 MLOAD DUP1 SWAP2 SUB SWAP1 RETURN JUMPDEST PUSH2 0x127 PUSH2 0x259 JUMP JUMPDEST PUSH1 0x40 MLOAD PUSH2 0x116 SWAP2 SWAP1 PUSH2 0x8E8 JUMP JUMPDEST PUSH2 0x102 PUSH2 0x142 CALLDATASIZE PUSH1 0x4 PUSH2 0x94A JUMP JUMPDEST PUSH2 0x26A JUMP JUMPDEST PUSH1 0x4 SLOAD PUSH2 0x102 SWAP1 PUSH1 0x1 PUSH1 0x1 PUSH1 0xA0 SHL SUB AND DUP2 JUMP JUMPDEST PUSH2 0x162 PUSH2 0x43E JUMP JUMPDEST STOP JUMPDEST PUSH2 0x162 PUSH2 0x172 CALLDATASIZE PUSH1 0x4 PUSH2 0x995 JUMP JUMPDEST PUSH2 0x474 JUMP JUMPDEST PUSH1 0x0 SLOAD PUSH1 0x1 PUSH1 0x1 PUSH1 0xA0 SHL SUB AND PUSH2 0x102 JUMP JUMPDEST PUSH1 0x3 SLOAD PUSH2 0x102 SWAP1 PUSH1 0x1 PUSH1 0x1 PUSH1 0xA0 SHL SUB AND DUP2 JUMP JUMPDEST PUSH2 0x1BE PUSH2 0x1A9 CALLDATASIZE PUSH1 0x4 PUSH2 0x995 JUMP JUMPDEST PUSH1 0x9 PUSH1 0x20 MSTORE PUSH1 0x0 SWAP1 DUP2 MSTORE PUSH1 0x40 SWAP1 KECCAK256 SLOAD PUSH1 0xFF AND DUP2 JUMP JUMPDEST PUSH1 0x40 MLOAD SWAP1 ISZERO ISZERO DUP2 MSTORE PUSH1 0x20 ADD PUSH2 0x116 JUMP JUMPDEST PUSH2 0x102 PUSH2 0x1DC CALLDATASIZE PUSH1 0x4 PUSH2 0x995 JUMP JUMPDEST PUSH1 0x7 PUSH1 0x20 MSTORE PUSH1 0x0 SWAP1 DUP2 MSTORE PUSH1 0x40 SWAP1 KECCAK256 SLOAD PUSH1 0x1 PUSH1 0x1 PUSH1 0xA0 SHL SUB AND DUP2 JUMP JUMPDEST PUSH2 0x162 PUSH2 0x205 CALLDATASIZE PUSH1 0x4 PUSH2 0x995 JUMP JUMPDEST PUSH2 0x4F2 JUMP JUMPDEST PUSH1 0x2 SLOAD PUSH2 0x102 SWAP1 PUSH1 0x1 PUSH1 0x1 PUSH1 0xA0 SHL SUB AND DUP2 JUMP JUMPDEST PUSH2 0x162 PUSH2 0x22B CALLDATASIZE PUSH1 0x4 PUSH2 0x995 JUMP JUMPDEST PUSH2 0x618 JUMP JUMPDEST PUSH2 0x102 PUSH2 0x23E CALLDATASIZE PUSH1 0x4 PUSH2 0x995 JUMP JUMPDEST PUSH1 0x8 PUSH1 0x20 MSTORE PUSH1 0x0 SWAP1 DUP2 MSTORE PUSH1 0x40 SWAP1 KECCAK256 SLOAD PUSH1 0x1 PUSH1 0x1 PUSH1 0xA0 SHL SUB AND DUP2 JUMP JUMPDEST PUSH1 0x60 PUSH2 0x265 PUSH1 0x5 PUSH2 0x6B3 JUMP JUMPDEST SWAP1 POP SWAP1 JUMP JUMPDEST PUSH1 0x0 DUP1 SLOAD PUSH1 0x1 PUSH1 0x1 PUSH1 0xA0 SHL SUB AND CALLER EQ PUSH2 0x29E JUMPI PUSH1 0x40 MLOAD PUSH3 0x461BCD PUSH1 0xE5 SHL DUP2 MSTORE PUSH1 0x4 ADD PUSH2 0x295 SWAP1 PUSH2 0x9B2 JUMP JUMPDEST PUSH1 0x40 MLOAD DUP1 SWAP2 SUB SWAP1 REVERT JUMPDEST PUSH1 0x1 PUSH1 0x1 PUSH1 0xA0 SHL SUB DUP5 DUP2 AND PUSH1 0x0 SWAP1 DUP2 MSTORE PUSH1 0x7 PUSH1 0x20 MSTORE PUSH1 0x40 SWAP1 KECCAK256 SLOAD AND ISZERO PUSH2 0x2EE JUMPI PUSH1 0x40 MLOAD PUSH3 0x461BCD PUSH1 0xE5 SHL DUP2 MSTORE PUSH1 0x20 PUSH1 0x4 DUP3 ADD MSTORE PUSH1 0x5 PUSH1 0x24 DUP3 ADD MSTORE PUSH5 0x195E1A5CDD PUSH1 0xDA SHL PUSH1 0x44 DUP3 ADD MSTORE PUSH1 0x64 ADD PUSH2 0x295 JUMP JUMPDEST PUSH1 0x4 DUP1 SLOAD PUSH1 0x2 SLOAD PUSH1 0x1 SLOAD PUSH1 0x3 SLOAD PUSH1 0x40 MLOAD PUSH4 0x3EED7881 PUSH1 0xE2 SHL DUP2 MSTORE PUSH1 0x1 PUSH1 0x1 PUSH1 0xA0 SHL SUB DUP11 DUP2 AND SWAP7 DUP3 ADD SWAP7 SWAP1 SWAP7 MSTORE SWAP3 DUP6 AND PUSH1 0x24 DUP5 ADD MSTORE DUP8 DUP6 AND PUSH1 0x44 DUP5 ADD MSTORE DUP7 DUP6 AND PUSH1 0x64 DUP5 ADD MSTORE SWAP1 DUP5 AND PUSH1 0x84 DUP4 ADD MSTORE DUP4 AND PUSH1 0xA4 DUP3 ADD MSTORE PUSH1 0x0 SWAP3 SWAP1 SWAP2 AND SWAP1 PUSH4 0xFBB5E204 SWAP1 PUSH1 0xC4 ADD PUSH1 0x20 PUSH1 0x40 MLOAD DUP1 DUP4 SUB DUP2 PUSH1 0x0 DUP8 GAS CALL ISZERO DUP1 ISZERO PUSH2 0x370 JUMPI RETURNDATASIZE PUSH1 0x0 DUP1 RETURNDATACOPY RETURNDATASIZE PUSH1 0x0 REVERT JUMPDEST POP POP POP POP PUSH1 0x40 MLOAD RETURNDATASIZE PUSH1 0x1F NOT PUSH1 0x1F DUP3 ADD AND DUP3 ADD DUP1 PUSH1 0x40 MSTORE POP DUP2 ADD SWAP1 PUSH2 0x394 SWAP2 SWAP1 PUSH2 0x9E7 JUMP JUMPDEST PUSH1 0x1 PUSH1 0x1 PUSH1 0xA0 SHL SUB DUP1 DUP8 AND PUSH1 0x0 DUP2 DUP2 MSTORE PUSH1 0x7 PUSH1 0x20 SWAP1 DUP2 MSTORE PUSH1 0x40 DUP1 DUP4 KECCAK256 DUP1 SLOAD SWAP6 DUP8 AND PUSH1 0x1 PUSH1 0x1 PUSH1 0xA0 SHL SUB NOT SWAP7 DUP8 AND DUP2 OR SWAP1 SWAP2 SSTORE DUP4 MSTORE PUSH1 0x8 DUP3 MSTORE DUP1 DUP4 KECCAK256 DUP1 SLOAD SWAP1 SWAP6 AND SWAP1 SWAP4 OR SWAP1 SWAP4 SSTORE PUSH1 0x9 SWAP1 SWAP3 MSTORE SWAP1 KECCAK256 DUP1 SLOAD PUSH1 0xFF NOT AND PUSH1 0x1 OR SWAP1 SSTORE SWAP1 POP PUSH2 0x3F9 PUSH1 0x5 DUP7 PUSH2 0x6C7 JUMP JUMPDEST POP PUSH1 0x40 MLOAD PUSH1 0x1 PUSH1 0x1 PUSH1 0xA0 SHL SUB DUP7 AND DUP2 MSTORE PUSH32 0x7B7EF7A864D96A85497A1ED846ADB39940DD6CCEF678FF6AC8D55505E09B8CC4 SWAP1 PUSH1 0x20 ADD PUSH1 0x40 MLOAD DUP1 SWAP2 SUB SWAP1 LOG1 SWAP5 SWAP4 POP POP POP POP JUMP JUMPDEST PUSH1 0x0 SLOAD PUSH1 0x1 PUSH1 0x1 PUSH1 0xA0 SHL SUB AND CALLER EQ PUSH2 0x468 JUMPI PUSH1 0x40 MLOAD PUSH3 0x461BCD PUSH1 0xE5 SHL DUP2 MSTORE PUSH1 0x4 ADD PUSH2 0x295 SWAP1 PUSH2 0x9B2 JUMP JUMPDEST PUSH2 0x472 PUSH1 0x0 PUSH2 0x6E5 JUMP JUMPDEST JUMP JUMPDEST PUSH1 0x0 SLOAD PUSH1 0x1 PUSH1 0x1 PUSH1 0xA0 SHL SUB AND CALLER EQ PUSH2 0x49E JUMPI PUSH1 0x40 MLOAD PUSH3 0x461BCD PUSH1 0xE5 SHL DUP2 MSTORE PUSH1 0x4 ADD PUSH2 0x295 SWAP1 PUSH2 0x9B2 JUMP JUMPDEST PUSH1 0x1 DUP1 SLOAD PUSH1 0x1 PUSH1 0x1 PUSH1 0xA0 SHL SUB NOT AND PUSH1 0x1 PUSH1 0x1 PUSH1 0xA0 SHL SUB DUP4 AND SWAP1 DUP2 OR SWAP1 SWAP2 SSTORE PUSH1 0x40 MLOAD SWAP1 DUP2 MSTORE PUSH32 0xF382D8404A45286F6180665C3EB5574DF3E6EFDD99AD2E652D8F5D904F264F0 SWAP1 PUSH1 0x20 ADD PUSH1 0x40 MLOAD DUP1 SWAP2 SUB SWAP1 LOG1 POP JUMP JUMPDEST PUSH1 0x0 SLOAD PUSH1 0x1 PUSH1 0x1 PUSH1 0xA0 SHL SUB AND CALLER EQ PUSH2 0x51C JUMPI PUSH1 0x40 MLOAD PUSH3 0x461BCD PUSH1 0xE5 SHL DUP2 MSTORE PUSH1 0x4 ADD PUSH2 0x295 SWAP1 PUSH2 0x9B2 JUMP JUMPDEST PUSH1 0x1 PUSH1 0x1 PUSH1 0xA0 SHL SUB DUP2 DUP2 AND PUSH1 0x0 SWAP1 DUP2 MSTORE PUSH1 0x7 PUSH1 0x20 MSTORE PUSH1 0x40 SWAP1 KECCAK256 SLOAD AND PUSH2 0x56C JUMPI PUSH1 0x40 MLOAD PUSH3 0x461BCD PUSH1 0xE5 SHL DUP2 MSTORE PUSH1 0x20 PUSH1 0x4 DUP3 ADD MSTORE PUSH1 0x6 PUSH1 0x24 DUP3 ADD MSTORE PUSH6 0x8595E1A5CDD PUSH1 0xD2 SHL PUSH1 0x44 DUP3 ADD MSTORE PUSH1 0x64 ADD PUSH2 0x295 JUMP JUMPDEST PUSH1 0x1 PUSH1 0x1 PUSH1 0xA0 SHL SUB DUP1 DUP3 AND PUSH1 0x0 SWAP1 DUP2 MSTORE PUSH1 0x7 PUSH1 0x20 MSTORE PUSH1 0x40 SWAP1 KECCAK256 SLOAD AND PUSH2 0x592 PUSH1 0x5 DUP4 PUSH2 0x735 JUMP JUMPDEST POP PUSH1 0x1 PUSH1 0x1 PUSH1 0xA0 SHL SUB DUP3 DUP2 AND PUSH1 0x0 DUP2 DUP2 MSTORE PUSH1 0x7 PUSH1 0x20 SWAP1 DUP2 MSTORE PUSH1 0x40 DUP1 DUP4 KECCAK256 DUP1 SLOAD PUSH1 0x1 PUSH1 0x1 PUSH1 0xA0 SHL SUB NOT SWAP1 DUP2 AND SWAP1 SWAP2 SSTORE SWAP5 DUP7 AND DUP4 MSTORE PUSH1 0x8 DUP3 MSTORE DUP1 DUP4 KECCAK256 DUP1 SLOAD SWAP1 SWAP6 AND SWAP1 SWAP5 SSTORE PUSH1 0x9 DUP2 MSTORE SWAP1 DUP4 SWAP1 KECCAK256 DUP1 SLOAD PUSH1 0xFF NOT AND SWAP1 SSTORE SWAP2 MLOAD SWAP1 DUP2 MSTORE PUSH32 0xE71F3A50E5AD81964F352C411F1D45E35438ECD1ACECEF59AC81D9FBBF6CBC0A SWAP2 ADD PUSH1 0x40 MLOAD DUP1 SWAP2 SUB SWAP1 LOG1 POP POP JUMP JUMPDEST PUSH1 0x0 SLOAD PUSH1 0x1 PUSH1 0x1 PUSH1 0xA0 SHL SUB AND CALLER EQ PUSH2 0x642 JUMPI PUSH1 0x40 MLOAD PUSH3 0x461BCD PUSH1 0xE5 SHL DUP2 MSTORE PUSH1 0x4 ADD PUSH2 0x295 SWAP1 PUSH2 0x9B2 JUMP JUMPDEST PUSH1 0x1 PUSH1 0x1 PUSH1 0xA0 SHL SUB DUP2 AND PUSH2 0x6A7 JUMPI PUSH1 0x40 MLOAD PUSH3 0x461BCD PUSH1 0xE5 SHL DUP2 MSTORE PUSH1 0x20 PUSH1 0x4 DUP3 ADD MSTORE PUSH1 0x26 PUSH1 0x24 DUP3 ADD MSTORE PUSH32 0x4F776E61626C653A206E6577206F776E657220697320746865207A65726F2061 PUSH1 0x44 DUP3 ADD MSTORE PUSH6 0x646472657373 PUSH1 0xD0 SHL PUSH1 0x64 DUP3 ADD MSTORE PUSH1 0x84 ADD PUSH2 0x295 JUMP JUMPDEST PUSH2 0x6B0 DUP2 PUSH2 0x6E5 JUMP JUMPDEST POP JUMP JUMPDEST PUSH1 0x60 PUSH1 0x0 PUSH2 0x6C0 DUP4 PUSH2 0x74A JUMP JUMPDEST SWAP4 SWAP3 POP POP POP JUMP JUMPDEST PUSH1 0x0 PUSH2 0x6DC DUP4 PUSH1 0x1 PUSH1 0x1 PUSH1 0xA0 SHL SUB DUP5 AND PUSH2 0x7A6 JUMP JUMPDEST SWAP1 POP JUMPDEST SWAP3 SWAP2 POP POP JUMP JUMPDEST PUSH1 0x0 DUP1 SLOAD PUSH1 0x1 PUSH1 0x1 PUSH1 0xA0 SHL SUB DUP4 DUP2 AND PUSH1 0x1 PUSH1 0x1 PUSH1 0xA0 SHL SUB NOT DUP4 AND DUP2 OR DUP5 SSTORE PUSH1 0x40 MLOAD SWAP2 SWAP1 SWAP3 AND SWAP3 DUP4 SWAP2 PUSH32 0x8BE0079C531659141344CD1FD0A4F28419497F9722A3DAAFE3B4186F6B6457E0 SWAP2 SWAP1 LOG3 POP POP JUMP JUMPDEST PUSH1 0x0 PUSH2 0x6DC DUP4 PUSH1 0x1 PUSH1 0x1 PUSH1 0xA0 SHL SUB DUP5 AND PUSH2 0x7F5 JUMP JUMPDEST PUSH1 0x60 DUP2 PUSH1 0x0 ADD DUP1 SLOAD DUP1 PUSH1 0x20 MUL PUSH1 0x20 ADD PUSH1 0x40 MLOAD SWAP1 DUP2 ADD PUSH1 0x40 MSTORE DUP1 SWAP3 SWAP2 SWAP1 DUP2 DUP2 MSTORE PUSH1 0x20 ADD DUP3 DUP1 SLOAD DUP1 ISZERO PUSH2 0x79A JUMPI PUSH1 0x20 MUL DUP3 ADD SWAP2 SWAP1 PUSH1 0x0 MSTORE PUSH1 0x20 PUSH1 0x0 KECCAK256 SWAP1 JUMPDEST DUP2 SLOAD DUP2 MSTORE PUSH1 0x20 ADD SWAP1 PUSH1 0x1 ADD SWAP1 DUP1 DUP4 GT PUSH2 0x786 JUMPI JUMPDEST POP POP POP POP POP SWAP1 POP SWAP2 SWAP1 POP JUMP JUMPDEST PUSH1 0x0 DUP2 DUP2 MSTORE PUSH1 0x1 DUP4 ADD PUSH1 0x20 MSTORE PUSH1 0x40 DUP2 KECCAK256 SLOAD PUSH2 0x7ED JUMPI POP DUP2 SLOAD PUSH1 0x1 DUP2 DUP2 ADD DUP5 SSTORE PUSH1 0x0 DUP5 DUP2 MSTORE PUSH1 0x20 DUP1 DUP3 KECCAK256 SWAP1 SWAP4 ADD DUP5 SWAP1 SSTORE DUP5 SLOAD DUP5 DUP3 MSTORE DUP3 DUP7 ADD SWAP1 SWAP4 MSTORE PUSH1 0x40 SWAP1 KECCAK256 SWAP2 SWAP1 SWAP2 SSTORE PUSH2 0x6DF JUMP JUMPDEST POP PUSH1 0x0 PUSH2 0x6DF JUMP JUMPDEST PUSH1 0x0 DUP2 DUP2 MSTORE PUSH1 0x1 DUP4 ADD PUSH1 0x20 MSTORE PUSH1 0x40 DUP2 KECCAK256 SLOAD DUP1 ISZERO PUSH2 0x8DE JUMPI PUSH1 0x0 PUSH2 0x819 PUSH1 0x1 DUP4 PUSH2 0xA04 JUMP JUMPDEST DUP6 SLOAD SWAP1 SWAP2 POP PUSH1 0x0 SWAP1 PUSH2 0x82D SWAP1 PUSH1 0x1 SWAP1 PUSH2 0xA04 JUMP JUMPDEST SWAP1 POP DUP2 DUP2 EQ PUSH2 0x892 JUMPI PUSH1 0x0 DUP7 PUSH1 0x0 ADD DUP3 DUP2 SLOAD DUP2 LT PUSH2 0x84D JUMPI PUSH2 0x84D PUSH2 0xA29 JUMP JUMPDEST SWAP1 PUSH1 0x0 MSTORE PUSH1 0x20 PUSH1 0x0 KECCAK256 ADD SLOAD SWAP1 POP DUP1 DUP8 PUSH1 0x0 ADD DUP5 DUP2 SLOAD DUP2 LT PUSH2 0x870 JUMPI PUSH2 0x870 PUSH2 0xA29 JUMP JUMPDEST PUSH1 0x0 SWAP2 DUP3 MSTORE PUSH1 0x20 DUP1 DUP4 KECCAK256 SWAP1 SWAP2 ADD SWAP3 SWAP1 SWAP3 SSTORE SWAP2 DUP3 MSTORE PUSH1 0x1 DUP9 ADD SWAP1 MSTORE PUSH1 0x40 SWAP1 KECCAK256 DUP4 SWAP1 SSTORE JUMPDEST DUP6 SLOAD DUP7 SWAP1 DUP1 PUSH2 0x8A3 JUMPI PUSH2 0x8A3 PUSH2 0xA3F JUMP JUMPDEST PUSH1 0x1 SWAP1 SUB DUP2 DUP2 SWAP1 PUSH1 0x0 MSTORE PUSH1 0x20 PUSH1 0x0 KECCAK256 ADD PUSH1 0x0 SWAP1 SSTORE SWAP1 SSTORE DUP6 PUSH1 0x1 ADD PUSH1 0x0 DUP7 DUP2 MSTORE PUSH1 0x20 ADD SWAP1 DUP2 MSTORE PUSH1 0x20 ADD PUSH1 0x0 KECCAK256 PUSH1 0x0 SWAP1 SSTORE PUSH1 0x1 SWAP4 POP POP POP POP PUSH2 0x6DF JUMP JUMPDEST PUSH1 0x0 SWAP2 POP POP PUSH2 0x6DF JUMP JUMPDEST PUSH1 0x20 DUP1 DUP3 MSTORE DUP3 MLOAD DUP3 DUP3 ADD DUP2 SWAP1 MSTORE PUSH1 0x0 SWAP2 SWAP1 DUP5 DUP3 ADD SWAP1 PUSH1 0x40 DUP6 ADD SWAP1 DUP5 JUMPDEST DUP2 DUP2 LT ISZERO PUSH2 0x929 JUMPI DUP4 MLOAD PUSH1 0x1 PUSH1 0x1 PUSH1 0xA0 SHL SUB AND DUP4 MSTORE SWAP3 DUP5 ADD SWAP3 SWAP2 DUP5 ADD SWAP2 PUSH1 0x1 ADD PUSH2 0x904 JUMP JUMPDEST POP SWAP1 SWAP7 SWAP6 POP POP POP POP POP POP JUMP JUMPDEST PUSH1 0x1 PUSH1 0x1 PUSH1 0xA0 SHL SUB DUP2 AND DUP2 EQ PUSH2 0x6B0 JUMPI PUSH1 0x0 DUP1 REVERT JUMPDEST PUSH1 0x0 DUP1 PUSH1 0x0 PUSH1 0x60 DUP5 DUP7 SUB SLT ISZERO PUSH2 0x95F JUMPI PUSH1 0x0 DUP1 REVERT JUMPDEST DUP4 CALLDATALOAD PUSH2 0x96A DUP2 PUSH2 0x935 JUMP JUMPDEST SWAP3 POP PUSH1 0x20 DUP5 ADD CALLDATALOAD PUSH2 0x97A DUP2 PUSH2 0x935 JUMP JUMPDEST SWAP2 POP PUSH1 0x40 DUP5 ADD CALLDATALOAD PUSH2 0x98A DUP2 PUSH2 0x935 JUMP JUMPDEST DUP1 SWAP2 POP POP SWAP3 POP SWAP3 POP SWAP3 JUMP JUMPDEST PUSH1 0x0 PUSH1 0x20 DUP3 DUP5 SUB SLT ISZERO PUSH2 0x9A7 JUMPI PUSH1 0x0 DUP1 REVERT JUMPDEST DUP2 CALLDATALOAD PUSH2 0x6C0 DUP2 PUSH2 0x935 JUMP JUMPDEST PUSH1 0x20 DUP1 DUP3 MSTORE DUP2 DUP2 ADD MSTORE PUSH32 0x4F776E61626C653A2063616C6C6572206973206E6F7420746865206F776E6572 PUSH1 0x40 DUP3 ADD MSTORE PUSH1 0x60 ADD SWAP1 JUMP JUMPDEST PUSH1 0x0 PUSH1 0x20 DUP3 DUP5 SUB SLT ISZERO PUSH2 0x9F9 JUMPI PUSH1 0x0 DUP1 REVERT JUMPDEST DUP2 MLOAD PUSH2 0x6C0 DUP2 PUSH2 0x935 JUMP JUMPDEST PUSH1 0x0 DUP3 DUP3 LT ISZERO PUSH2 0xA24 JUMPI PUSH4 0x4E487B71 PUSH1 0xE0 SHL PUSH1 0x0 MSTORE PUSH1 0x11 PUSH1 0x4 MSTORE PUSH1 0x24 PUSH1 0x0 REVERT JUMPDEST POP SUB SWAP1 JUMP JUMPDEST PUSH4 0x4E487B71 PUSH1 0xE0 SHL PUSH1 0x0 MSTORE PUSH1 0x32 PUSH1 0x4 MSTORE PUSH1 0x24 PUSH1 0x0 REVERT JUMPDEST PUSH4 0x4E487B71 PUSH1 0xE0 SHL PUSH1 0x0 MSTORE PUSH1 0x31 PUSH1 0x4 MSTORE PUSH1 0x24 PUSH1 0x0 REVERT INVALID LOG2 PUSH5 0x6970667358 0x22 SLT KECCAK256 0xAE BASEFEE PUSH10 0xE996DA2711740474DA01 0xB9 EXTCODECOPY 0xF8 CODESIZE 0xCD PUSH15 0x27631BA23A5AE5D2B683C4A20C6473 PUSH16 0x6C634300080C00330000000000000000 ",
  "sha1": "469a2ba05008a7729ad2486f9ce2062df3a9e8c4",
  "source": "// SPDX-License-Identifier: MIT\n\npragma solidity 0.8.12;\nimport \"./interfaces/IVotingEscrow.sol\";\nimport \"./interfaces/IGaugeFactory.sol\";\nimport \"@openzeppelin/contracts/access/Ownable.sol\";\nimport \"@openzeppelin/contracts/utils/structs/EnumerableSet.sol\";\n\n/** @title Voter\n    @notice veYFI holders will vote for gauge allocation to vault tokens.\n */\n\ncontract Registry is Ownable {\n    using EnumerableSet for EnumerableSet.AddressSet;\n    address public veToken; // the ve token that governs these contracts\n    address public yfi; // immutable // reward token\n    address public veYfiRewardPool; // immutable\n    address public gaugefactory; // immutable\n\n    EnumerableSet.AddressSet private vaults;\n    mapping(address => address) public gauges; // vault => gauge\n    mapping(address => address) public vaultForGauge; // gauge => vault\n    mapping(address => bool) public isGauge;\n\n    event VaultAdded(address vault);\n    event VaultRemoved(address vault);\n    event UpdatedVeToken(address ve);\n\n    constructor(\n        address _ve,\n        address _yfi,\n        address _gaugefactory,\n        address _veYfiRewardPool\n    ) {\n        veToken = _ve;\n        yfi = _yfi;\n        gaugefactory = _gaugefactory;\n        veYfiRewardPool = _veYfiRewardPool;\n    }\n\n    function setVe(address _ve) external onlyOwner {\n        veToken = _ve;\n        emit UpdatedVeToken(_ve);\n    }\n\n    /** \n    @return The list of vaults with gauge that are possible to vote for.\n    */\n    function getVaults() external view returns (address[] memory) {\n        return vaults.values();\n    }\n\n    /** \n    @notice Add a vault to the list of vaults that recieves rewards.\n    @param _vault vault address\n    @param _owner owner.\n    @param _rewardManager address in charge of managing additional rewards\n    */\n    function addVaultToRewards(\n        address _vault,\n        address _owner,\n        address _rewardManager\n    ) external onlyOwner returns (address) {\n        require(gauges[_vault] == address(0x0), \"exist\");\n\n        address _gauge = IGaugeFactory(gaugefactory).createGauge(\n            _vault,\n            yfi,\n            _owner,\n            _rewardManager,\n            veToken,\n            veYfiRewardPool\n        );\n        gauges[_vault] = _gauge;\n        vaultForGauge[_gauge] = _vault;\n        isGauge[_gauge] = true;\n        vaults.add(_vault);\n        emit VaultAdded(_vault);\n        return _gauge;\n    }\n\n    /** \n    @notice Remove a vault from the list of vaults recieving rewards.\n    @param _vault vault address\n    */\n    function removeVaultFromRewards(address _vault) external onlyOwner {\n        require(gauges[_vault] != address(0x0), \"!exist\");\n        address gauge = gauges[_vault];\n\n        vaults.remove(_vault);\n\n        gauges[_vault] = address(0x0);\n        vaultForGauge[gauge] = address(0x0);\n        isGauge[gauge] = false;\n        emit VaultRemoved(_vault);\n    }\n}\n",
  "sourcePath": "contracts/Registry.sol",
  "type": "contract"
}