{
  "abi": [
    {
      "inputs": [],
      "name": "arithmeticError",
      "outputs": [
        {
          "internalType": "bytes",
          "name": "",
          "type": "bytes"
        }
      ],
      "stateMutability": "view",
      "type": "function"
    },
    {
      "inputs": [],
      "name": "assertionError",
      "outputs": [
        {
          "internalType": "bytes",
          "name": "",
          "type": "bytes"
        }
      ],
      "stateMutability": "view",
      "type": "function"
    },
    {
      "inputs": [],
      "name": "divisionError",
      "outputs": [
        {
          "internalType": "bytes",
          "name": "",
          "type": "bytes"
        }
      ],
      "stateMutability": "view",
      "type": "function"
    },
    {
      "inputs": [],
      "name": "encodeStorageError",
      "outputs": [
        {
          "internalType": "bytes",
          "name": "",
          "type": "bytes"
        }
      ],
      "stateMutability": "view",
      "type": "function"
    },
    {
      "inputs": [],
      "name": "enumConversionError",
      "outputs": [
        {
          "internalType": "bytes",
          "name": "",
          "type": "bytes"
        }
      ],
      "stateMutability": "view",
      "type": "function"
    },
    {
      "inputs": [],
      "name": "indexOOBError",
      "outputs": [
        {
          "internalType": "bytes",
          "name": "",
          "type": "bytes"
        }
      ],
      "stateMutability": "view",
      "type": "function"
    },
    {
      "inputs": [],
      "name": "lowLevelError",
      "outputs": [
        {
          "internalType": "bytes",
          "name": "",
          "type": "bytes"
        }
      ],
      "stateMutability": "view",
      "type": "function"
    },
    {
      "inputs": [],
      "name": "memOverflowError",
      "outputs": [
        {
          "internalType": "bytes",
          "name": "",
          "type": "bytes"
        }
      ],
      "stateMutability": "view",
      "type": "function"
    },
    {
      "inputs": [],
      "name": "popError",
      "outputs": [
        {
          "internalType": "bytes",
          "name": "",
          "type": "bytes"
        }
      ],
      "stateMutability": "view",
      "type": "function"
    },
    {
      "inputs": [],
      "name": "zeroVarError",
      "outputs": [
        {
          "internalType": "bytes",
          "name": "",
          "type": "bytes"
        }
      ],
      "stateMutability": "view",
      "type": "function"
    }
  ],
  "bytecode": "61027761003a600b82828239805160001a60731461002d57634e487b7160e01b600052600060045260246000fd5b30600052607381538281f3fe73000000000000000000000000000000000000000030146080604052600436106100a85760003560e01c8063ac3d92c611610070578063ac3d92c6146100eb578063b22dc54d14610101578063b67689da14610109578063d160e4de14610111578063fa784a441461011957600080fd5b806305ee8612146100ad57806310332977146100cb5780631de45560146100d35780638995290f146100db578063986c5f68146100e3575b600080fd5b6100b5610121565b6040516100c291906101ec565b60405180910390f35b6100b561015c565b6100b561016e565b6100b5610180565b6100b5610192565b6100b56040518060200160405280600081525081565b6100b56101a4565b6100b56101b6565b6100b56101c8565b6100b56101da565b604051603260248201526044015b60408051601f198184030181529190526020810180516001600160e01b0316634e487b7160e01b17905281565b6040516001602482015260440161012f565b6040516021602482015260440161012f565b6040516011602482015260440161012f565b6040516041602482015260440161012f565b6040516031602482015260440161012f565b6040516051602482015260440161012f565b6040516022602482015260440161012f565b6040516012602482015260440161012f565b600060208083528351808285015260005b81811015610219578581018301518582016040015282016101fd565b8181111561022b576000604083870101525b50601f01601f191692909201604001939250505056fea264697066735822122059d65cfa83927974714357cdfafee9a30b92770a09604fa12c5c23597b82fbcb64736f6c634300080c0033",
  "bytecodeSha1": "b01d2c9826661065d71b2d6426e7441d85338548",
  "compiler": {
    "evm_version": "istanbul",
    "optimizer": {
      "enabled": true,
      "runs": 200
    },
    "version": "0.8.12+commit.f00d7308"
  },
  "contractName": "stdError",
  "language": "Solidity",
  "natspec": {
    "kind": "dev",
    "methods": {},
    "version": 1
  },
  "opcodes": "PUSH20 0x0 ADDRESS EQ PUSH1 0x80 PUSH1 0x40 MSTORE PUSH1 0x4 CALLDATASIZE LT PUSH2 0xA8 JUMPI PUSH1 0x0 CALLDATALOAD PUSH1 0xE0 SHR DUP1 PUSH4 0xAC3D92C6 GT PUSH2 0x70 JUMPI DUP1 PUSH4 0xAC3D92C6 EQ PUSH2 0xEB JUMPI DUP1 PUSH4 0xB22DC54D EQ PUSH2 0x101 JUMPI DUP1 PUSH4 0xB67689DA EQ PUSH2 0x109 JUMPI DUP1 PUSH4 0xD160E4DE EQ PUSH2 0x111 JUMPI DUP1 PUSH4 0xFA784A44 EQ PUSH2 0x119 JUMPI PUSH1 0x0 DUP1 REVERT JUMPDEST DUP1 PUSH4 0x5EE8612 EQ PUSH2 0xAD JUMPI DUP1 PUSH4 0x10332977 EQ PUSH2 0xCB JUMPI DUP1 PUSH4 0x1DE45560 EQ PUSH2 0xD3 JUMPI DUP1 PUSH4 0x8995290F EQ PUSH2 0xDB JUMPI DUP1 PUSH4 0x986C5F68 EQ PUSH2 0xE3 JUMPI JUMPDEST PUSH1 0x0 DUP1 REVERT JUMPDEST PUSH2 0xB5 PUSH2 0x121 JUMP JUMPDEST PUSH1 0x40 MLOAD PUSH2 0xC2 SWAP2 SWAP1 PUSH2 0x1EC JUMP JUMPDEST PUSH1 0x40 MLOAD DUP1 SWAP2 SUB SWAP1 RETURN JUMPDEST PUSH2 0xB5 PUSH2 0x15C JUMP JUMPDEST PUSH2 0xB5 PUSH2 0x16E JUMP JUMPDEST PUSH2 0xB5 PUSH2 0x180 JUMP JUMPDEST PUSH2 0xB5 PUSH2 0x192 JUMP JUMPDEST PUSH2 0xB5 PUSH1 0x40 MLOAD DUP1 PUSH1 0x20 ADD PUSH1 0x40 MSTORE DUP1 PUSH1 0x0 DUP2 MSTORE POP DUP2 JUMP JUMPDEST PUSH2 0xB5 PUSH2 0x1A4 JUMP JUMPDEST PUSH2 0xB5 PUSH2 0x1B6 JUMP JUMPDEST PUSH2 0xB5 PUSH2 0x1C8 JUMP JUMPDEST PUSH2 0xB5 PUSH2 0x1DA JUMP JUMPDEST PUSH1 0x40 MLOAD PUSH1 0x32 PUSH1 0x24 DUP3 ADD MSTORE PUSH1 0x44 ADD JUMPDEST PUSH1 0x40 DUP1 MLOAD PUSH1 0x1F NOT DUP2 DUP5 SUB ADD DUP2 MSTORE SWAP2 SWAP1 MSTORE PUSH1 0x20 DUP2 ADD DUP1 MLOAD PUSH1 0x1 PUSH1 0x1 PUSH1 0xE0 SHL SUB AND PUSH4 0x4E487B71 PUSH1 0xE0 SHL OR SWAP1 MSTORE DUP2 JUMP JUMPDEST PUSH1 0x40 MLOAD PUSH1 0x1 PUSH1 0x24 DUP3 ADD MSTORE PUSH1 0x44 ADD PUSH2 0x12F JUMP JUMPDEST PUSH1 0x40 MLOAD PUSH1 0x21 PUSH1 0x24 DUP3 ADD MSTORE PUSH1 0x44 ADD PUSH2 0x12F JUMP JUMPDEST PUSH1 0x40 MLOAD PUSH1 0x11 PUSH1 0x24 DUP3 ADD MSTORE PUSH1 0x44 ADD PUSH2 0x12F JUMP JUMPDEST PUSH1 0x40 MLOAD PUSH1 0x41 PUSH1 0x24 DUP3 ADD MSTORE PUSH1 0x44 ADD PUSH2 0x12F JUMP JUMPDEST PUSH1 0x40 MLOAD PUSH1 0x31 PUSH1 0x24 DUP3 ADD MSTORE PUSH1 0x44 ADD PUSH2 0x12F JUMP JUMPDEST PUSH1 0x40 MLOAD PUSH1 0x51 PUSH1 0x24 DUP3 ADD MSTORE PUSH1 0x44 ADD PUSH2 0x12F JUMP JUMPDEST PUSH1 0x40 MLOAD PUSH1 0x22 PUSH1 0x24 DUP3 ADD MSTORE PUSH1 0x44 ADD PUSH2 0x12F JUMP JUMPDEST PUSH1 0x40 MLOAD PUSH1 0x12 PUSH1 0x24 DUP3 ADD MSTORE PUSH1 0x44 ADD PUSH2 0x12F JUMP JUMPDEST PUSH1 0x0 PUSH1 0x20 DUP1 DUP4 MSTORE DUP4 MLOAD DUP1 DUP3 DUP6 ADD MSTORE PUSH1 0x0 JUMPDEST DUP2 DUP2 LT ISZERO PUSH2 0x219 JUMPI DUP6 DUP2 ADD DUP4 ADD MLOAD DUP6 DUP3 ADD PUSH1 0x40 ADD MSTORE DUP3 ADD PUSH2 0x1FD JUMP JUMPDEST DUP2 DUP2 GT ISZERO PUSH2 0x22B JUMPI PUSH1 0x0 PUSH1 0x40 DUP4 DUP8 ADD ADD MSTORE JUMPDEST POP PUSH1 0x1F ADD PUSH1 0x1F NOT AND SWAP3 SWAP1 SWAP3 ADD PUSH1 0x40 ADD SWAP4 SWAP3 POP POP POP JUMP INVALID LOG2 PUSH5 0x6970667358 0x22 SLT KECCAK256 MSIZE 0xD6 0x5C STATICCALL DUP4 SWAP3 PUSH26 0x74714357CDFAFEE9A30B92770A09604FA12C5C23597B82FBCB64 PUSH20 0x6F6C634300080C00330000000000000000000000 ",
  "sha1": "d94d2f7b4dc9b2728553b03897ba5924fe949620",
  "source": "// SPDX-License-Identifier: Unlicense\npragma solidity >=0.6.0 <0.9.0;\n\nimport \"./Vm.sol\";\n\n// Wrappers around Cheatcodes to avoid footguns\nabstract contract stdCheats {\n    using stdStorage for StdStorage;\n\n    // we use custom names that are unlikely to cause collisions so this contract\n    // can be inherited easily\n    Vm private constant vm_std_cheats = Vm(address(uint160(uint256(keccak256('hevm cheat code')))));\n    StdStorage private std_store_std_cheats;\n\n    // Skip forward or rewind time by the specified number of seconds\n    function skip(uint256 time) public {\n        vm_std_cheats.warp(block.timestamp + time);\n    }\n\n    function rewind(uint256 time) public {\n        vm_std_cheats.warp(block.timestamp - time);\n    }\n\n    // Setup a prank from an address that has some ether\n    function hoax(address who) public {\n        vm_std_cheats.deal(who, 1 << 128);\n        vm_std_cheats.prank(who);\n    }\n\n    function hoax(address who, uint256 give) public {\n        vm_std_cheats.deal(who, give);\n        vm_std_cheats.prank(who);\n    }\n\n    function hoax(address who, address origin) public {\n        vm_std_cheats.deal(who, 1 << 128);\n        vm_std_cheats.prank(who, origin);\n    }\n\n    function hoax(address who, address origin, uint256 give) public {\n        vm_std_cheats.deal(who, give);\n        vm_std_cheats.prank(who, origin);\n    }\n\n    // Start perpetual prank from an address that has some ether\n    function startHoax(address who) public {\n        vm_std_cheats.deal(who, 1 << 128);\n        vm_std_cheats.startPrank(who);\n    }\n\n    function startHoax(address who, uint256 give) public {\n        vm_std_cheats.deal(who, give);\n        vm_std_cheats.startPrank(who);\n    }\n\n    // Start perpetual prank from an address that has some ether\n    // tx.origin is set to the origin parameter\n    function startHoax(address who, address origin) public {\n        vm_std_cheats.deal(who, 1 << 128);\n        vm_std_cheats.startPrank(who, origin);\n    }\n\n    function startHoax(address who, address origin, uint256 give) public {\n        vm_std_cheats.deal(who, give);\n        vm_std_cheats.startPrank(who, origin);\n    }\n\n    // Allows you to set the balance of an account for a majority of tokens\n    // Be careful not to break something!\n    function tip(address token, address to, uint256 give) public {\n        std_store_std_cheats\n            .target(token)\n            .sig(0x70a08231)\n            .with_key(to)\n            .checked_write(give);\n    }\n\n    // Deploys a contract by fetching the contract bytecode from\n    // the artifacts directory\n    // e.g deployCode(code, abi.encode(arg1,arg2,arg3))\n    function deployCode(string memory what, bytes memory args)\n        public\n        returns (address addr)\n    {\n        bytes memory bytecode = abi.encodePacked(vm_std_cheats.getCode(what), args);\n        assembly {\n            addr := create(0, add(bytecode, 0x20), mload(bytecode))\n        }\n    }\n\n    function deployCode(string memory what)\n        public\n        returns (address addr)\n    {\n        bytes memory bytecode = vm_std_cheats.getCode(what);\n        assembly {\n            addr := create(0, add(bytecode, 0x20), mload(bytecode))\n        }\n    }\n}\n\n\nlibrary stdError {\n    bytes public constant assertionError = abi.encodeWithSignature(\"Panic(uint256)\", 0x01);\n    bytes public constant arithmeticError = abi.encodeWithSignature(\"Panic(uint256)\", 0x11);\n    bytes public constant divisionError = abi.encodeWithSignature(\"Panic(uint256)\", 0x12);\n    bytes public constant enumConversionError = abi.encodeWithSignature(\"Panic(uint256)\", 0x21);\n    bytes public constant encodeStorageError = abi.encodeWithSignature(\"Panic(uint256)\", 0x22);\n    bytes public constant popError = abi.encodeWithSignature(\"Panic(uint256)\", 0x31);\n    bytes public constant indexOOBError = abi.encodeWithSignature(\"Panic(uint256)\", 0x32);\n    bytes public constant memOverflowError = abi.encodeWithSignature(\"Panic(uint256)\", 0x41);\n    bytes public constant zeroVarError = abi.encodeWithSignature(\"Panic(uint256)\", 0x51);\n    bytes public constant lowLevelError = bytes(\"\"); // `0x`\n}\n\nstruct StdStorage {\n    mapping (address => mapping(bytes4 => mapping(bytes32 => uint256))) slots;\n    mapping (address => mapping(bytes4 =>  mapping(bytes32 => bool))) finds;\n    \n    bytes32[] _keys;\n    bytes4 _sig;\n    uint256 _depth;\n    address _target;\n    bytes32 _set;\n}\n\n\nlibrary stdStorage {\n    event SlotFound(address who, bytes4 fsig, bytes32 keysHash, uint slot);\n    event WARNING_UninitedSlot(address who, uint slot);\n    \n    Vm private constant vm_std_store = Vm(address(uint160(uint256(keccak256('hevm cheat code')))));\n\n    function sigs(\n        string memory sigStr\n    )\n        internal\n        pure\n        returns (bytes4)\n    {\n        return bytes4(keccak256(bytes(sigStr)));\n    }\n\n    /// @notice find an arbitrary storage slot given a function sig, input data, address of the contract and a value to check against\n    // slot complexity:\n    //  if flat, will be bytes32(uint256(uint));\n    //  if map, will be keccak256(abi.encode(key, uint(slot)));\n    //  if deep map, will be keccak256(abi.encode(key1, keccak256(abi.encode(key0, uint(slot)))));\n    //  if map struct, will be bytes32(uint256(keccak256(abi.encode(key1, keccak256(abi.encode(key0, uint(slot)))))) + structFieldDepth);\n    function find(\n        StdStorage storage self\n    ) \n        internal \n        returns (uint256)\n    {\n        address who = self._target;\n        bytes4 fsig = self._sig;\n        uint256 field_depth = self._depth;\n        bytes32[] memory ins = self._keys;\n\n        // calldata to test against\n        if (self.finds[who][fsig][keccak256(abi.encodePacked(ins, field_depth))]) {\n            return self.slots[who][fsig][keccak256(abi.encodePacked(ins, field_depth))];\n        }\n        bytes memory cald = abi.encodePacked(fsig, flatten(ins));\n        vm_std_store.record();\n        bytes32 fdat;\n        {\n            (, bytes memory rdat) = who.staticcall(cald);\n            fdat = bytesToBytes32(rdat, 32*field_depth);\n        }\n        \n        (bytes32[] memory reads, ) = vm_std_store.accesses(address(who));\n        if (reads.length == 1) {\n            bytes32 curr = vm_std_store.load(who, reads[0]);\n            if (curr == bytes32(0)) {\n                emit WARNING_UninitedSlot(who, uint256(reads[0]));\n            }\n            if (fdat != curr) {\n                require(false, \"Packed slot. This would cause dangerous overwriting and currently isnt supported\");\n            }\n            emit SlotFound(who, fsig, keccak256(abi.encodePacked(ins, field_depth)), uint256(reads[0]));\n            self.slots[who][fsig][keccak256(abi.encodePacked(ins, field_depth))] = uint256(reads[0]);\n            self.finds[who][fsig][keccak256(abi.encodePacked(ins, field_depth))] = true;\n        } else if (reads.length > 1) {\n            for (uint256 i = 0; i < reads.length; i++) {\n                bytes32 prev = vm_std_store.load(who, reads[i]);\n                if (prev == bytes32(0)) {\n                    emit WARNING_UninitedSlot(who, uint256(reads[i]));\n                }\n                // store\n                vm_std_store.store(who, reads[i], bytes32(hex\"1337\"));\n                bool success;\n                bytes memory rdat;\n                {\n                    (success, rdat) = who.staticcall(cald);\n                    fdat = bytesToBytes32(rdat, 32*field_depth);\n                }\n                \n                if (success && fdat == bytes32(hex\"1337\")) {\n                    // we found which of the slots is the actual one\n                    emit SlotFound(who, fsig, keccak256(abi.encodePacked(ins, field_depth)), uint256(reads[i]));\n                    self.slots[who][fsig][keccak256(abi.encodePacked(ins, field_depth))] = uint256(reads[i]);\n                    self.finds[who][fsig][keccak256(abi.encodePacked(ins, field_depth))] = true;\n                    vm_std_store.store(who, reads[i], prev);\n                    break;\n                }\n                vm_std_store.store(who, reads[i], prev);\n            }\n        } else {\n            require(false, \"No storage use detected for target\");\n        }\n\n        require(self.finds[who][fsig][keccak256(abi.encodePacked(ins, field_depth))], \"NotFound\");\n\n        delete self._target;\n        delete self._sig;\n        delete self._keys;\n        delete self._depth; \n\n        return self.slots[who][fsig][keccak256(abi.encodePacked(ins, field_depth))];\n    }\n\n    function target(StdStorage storage self, address _target) internal returns (StdStorage storage) {\n        self._target = _target;\n        return self;\n    }\n\n    function sig(StdStorage storage self, bytes4 _sig) internal returns (StdStorage storage) {\n        self._sig = _sig;\n        return self;\n    }\n\n    function sig(StdStorage storage self, string memory _sig) internal returns (StdStorage storage) {\n        self._sig = sigs(_sig);\n        return self;\n    }\n\n    function with_key(StdStorage storage self, address who) internal returns (StdStorage storage) {\n        self._keys.push(bytes32(uint256(uint160(who))));\n        return self;\n    }\n\n    function with_key(StdStorage storage self, uint256 amt) internal returns (StdStorage storage) {\n        self._keys.push(bytes32(amt));\n        return self;\n    }\n    function with_key(StdStorage storage self, bytes32 key) internal returns (StdStorage storage) {\n        self._keys.push(key);\n        return self;\n    }\n\n    function depth(StdStorage storage self, uint256 _depth) internal returns (StdStorage storage) {\n        self._depth = _depth;\n        return self;\n    }\n\n    function checked_write(StdStorage storage self, address who) internal {\n        checked_write(self, bytes32(uint256(uint160(who))));\n    }\n\n    function checked_write(StdStorage storage self, uint256 amt) internal {\n        checked_write(self, bytes32(amt));\n    }\n\n    function checked_write(StdStorage storage self, bool write) internal {\n        bytes32 t;\n        assembly {\n            t := write\n        }\n        checked_write(self, t);\n    }\n\n    function checked_write(\n        StdStorage storage self,\n        bytes32 set\n    ) internal {\n        address who = self._target;\n        bytes4 fsig = self._sig;\n        uint256 field_depth = self._depth;\n        bytes32[] memory ins = self._keys;\n\n        bytes memory cald = abi.encodePacked(fsig, flatten(ins));\n        if (!self.finds[who][fsig][keccak256(abi.encodePacked(ins, field_depth))]) {\n            find(self);\n        }\n        bytes32 slot = bytes32(self.slots[who][fsig][keccak256(abi.encodePacked(ins, field_depth))]);\n\n        bytes32 fdat;\n        {\n            (, bytes memory rdat) = who.staticcall(cald);\n            fdat = bytesToBytes32(rdat, 32*field_depth);\n        }\n        bytes32 curr = vm_std_store.load(who, slot);\n\n        if (fdat != curr) {\n            require(false, \"Packed slot. This would cause dangerous overwriting and currently isnt supported\");\n        }\n        vm_std_store.store(who, slot, set);\n        delete self._target;\n        delete self._sig;\n        delete self._keys;\n        delete self._depth; \n    }\n\n    function bytesToBytes32(bytes memory b, uint offset) public pure returns (bytes32) {\n        bytes32 out;\n\n        uint256 max = b.length > 32 ? 32 : b.length;\n        for (uint i = 0; i < max; i++) {\n            out |= bytes32(b[offset + i] & 0xFF) >> (i * 8);\n        }\n        return out;\n    }\n\n    function flatten(bytes32[] memory b) private pure returns (bytes memory)\n    {\n        bytes memory result = new bytes(b.length * 32);\n        for (uint256 i = 0; i < b.length; i++) {\n            bytes32 k = b[i];\n            assembly {\n                mstore(add(result, add(32, mul(32, i))), k)\n            }\n        }\n\n        return result;\n    }\n}\n",
  "sourcePath": "lib/forge-std/src/stdlib.sol",
  "type": "library"
}