{
  "abi": [
    {
      "inputs": [
        {
          "internalType": "address",
          "name": "_veToken",
          "type": "address"
        },
        {
          "internalType": "address",
          "name": "_rewardToken",
          "type": "address"
        },
        {
          "internalType": "address",
          "name": "_owner",
          "type": "address"
        }
      ],
      "stateMutability": "nonpayable",
      "type": "constructor"
    },
    {
      "anonymous": false,
      "inputs": [
        {
          "indexed": false,
          "internalType": "uint256",
          "name": "duration",
          "type": "uint256"
        },
        {
          "indexed": false,
          "internalType": "uint256",
          "name": "rewardRate",
          "type": "uint256"
        }
      ],
      "name": "DurationUpdated",
      "type": "event"
    },
    {
      "anonymous": false,
      "inputs": [
        {
          "indexed": true,
          "internalType": "address",
          "name": "previousOwner",
          "type": "address"
        },
        {
          "indexed": true,
          "internalType": "address",
          "name": "newOwner",
          "type": "address"
        }
      ],
      "name": "OwnershipTransferred",
      "type": "event"
    },
    {
      "anonymous": false,
      "inputs": [
        {
          "indexed": true,
          "internalType": "address",
          "name": "user",
          "type": "address"
        },
        {
          "indexed": false,
          "internalType": "uint256",
          "name": "reward",
          "type": "uint256"
        }
      ],
      "name": "RewardPaid",
      "type": "event"
    },
    {
      "anonymous": false,
      "inputs": [
        {
          "indexed": false,
          "internalType": "uint256",
          "name": "currentRewards",
          "type": "uint256"
        },
        {
          "indexed": false,
          "internalType": "uint256",
          "name": "lastUpdateTime",
          "type": "uint256"
        },
        {
          "indexed": false,
          "internalType": "uint256",
          "name": "periodFinish",
          "type": "uint256"
        },
        {
          "indexed": false,
          "internalType": "uint256",
          "name": "rewardRate",
          "type": "uint256"
        },
        {
          "indexed": false,
          "internalType": "uint256",
          "name": "historicalRewards",
          "type": "uint256"
        }
      ],
      "name": "RewardsAdded",
      "type": "event"
    },
    {
      "anonymous": false,
      "inputs": [
        {
          "indexed": false,
          "internalType": "address",
          "name": "from",
          "type": "address"
        },
        {
          "indexed": false,
          "internalType": "uint256",
          "name": "amount",
          "type": "uint256"
        }
      ],
      "name": "RewardsQueued",
      "type": "event"
    },
    {
      "anonymous": false,
      "inputs": [
        {
          "indexed": false,
          "internalType": "address",
          "name": "token",
          "type": "address"
        },
        {
          "indexed": false,
          "internalType": "uint256",
          "name": "amount",
          "type": "uint256"
        }
      ],
      "name": "Sweep",
      "type": "event"
    },
    {
      "anonymous": false,
      "inputs": [
        {
          "indexed": false,
          "internalType": "address",
          "name": "account",
          "type": "address"
        },
        {
          "indexed": false,
          "internalType": "uint256",
          "name": "rewardPerTokenStored",
          "type": "uint256"
        },
        {
          "indexed": false,
          "internalType": "uint256",
          "name": "lastUpdateTime",
          "type": "uint256"
        },
        {
          "indexed": false,
          "internalType": "uint256",
          "name": "rewards",
          "type": "uint256"
        },
        {
          "indexed": false,
          "internalType": "uint256",
          "name": "userRewardPerTokenPaid",
          "type": "uint256"
        }
      ],
      "name": "UpdatedRewards",
      "type": "event"
    },
    {
      "anonymous": false,
      "inputs": [
        {
          "indexed": false,
          "internalType": "address",
          "name": "ve",
          "type": "address"
        }
      ],
      "name": "UpdatedVeToken",
      "type": "event"
    },
    {
      "inputs": [],
      "name": "currentRewards",
      "outputs": [
        {
          "internalType": "uint256",
          "name": "",
          "type": "uint256"
        }
      ],
      "stateMutability": "view",
      "type": "function"
    },
    {
      "inputs": [],
      "name": "duration",
      "outputs": [
        {
          "internalType": "uint256",
          "name": "",
          "type": "uint256"
        }
      ],
      "stateMutability": "view",
      "type": "function"
    },
    {
      "inputs": [
        {
          "internalType": "address",
          "name": "account",
          "type": "address"
        }
      ],
      "name": "earned",
      "outputs": [
        {
          "internalType": "uint256",
          "name": "",
          "type": "uint256"
        }
      ],
      "stateMutability": "view",
      "type": "function"
    },
    {
      "inputs": [],
      "name": "getReward",
      "outputs": [
        {
          "internalType": "bool",
          "name": "",
          "type": "bool"
        }
      ],
      "stateMutability": "nonpayable",
      "type": "function"
    },
    {
      "inputs": [
        {
          "internalType": "bool",
          "name": "_lock",
          "type": "bool"
        }
      ],
      "name": "getReward",
      "outputs": [
        {
          "internalType": "bool",
          "name": "",
          "type": "bool"
        }
      ],
      "stateMutability": "nonpayable",
      "type": "function"
    },
    {
      "inputs": [
        {
          "internalType": "address",
          "name": "account",
          "type": "address"
        }
      ],
      "name": "getRewardFor",
      "outputs": [
        {
          "internalType": "bool",
          "name": "",
          "type": "bool"
        }
      ],
      "stateMutability": "nonpayable",
      "type": "function"
    },
    {
      "inputs": [],
      "name": "historicalRewards",
      "outputs": [
        {
          "internalType": "uint256",
          "name": "",
          "type": "uint256"
        }
      ],
      "stateMutability": "view",
      "type": "function"
    },
    {
      "inputs": [],
      "name": "lastTimeRewardApplicable",
      "outputs": [
        {
          "internalType": "uint256",
          "name": "",
          "type": "uint256"
        }
      ],
      "stateMutability": "view",
      "type": "function"
    },
    {
      "inputs": [],
      "name": "lastUpdateTime",
      "outputs": [
        {
          "internalType": "uint256",
          "name": "",
          "type": "uint256"
        }
      ],
      "stateMutability": "view",
      "type": "function"
    },
    {
      "inputs": [],
      "name": "owner",
      "outputs": [
        {
          "internalType": "address",
          "name": "",
          "type": "address"
        }
      ],
      "stateMutability": "view",
      "type": "function"
    },
    {
      "inputs": [],
      "name": "periodFinish",
      "outputs": [
        {
          "internalType": "uint256",
          "name": "",
          "type": "uint256"
        }
      ],
      "stateMutability": "view",
      "type": "function"
    },
    {
      "inputs": [
        {
          "internalType": "uint256",
          "name": "_amount",
          "type": "uint256"
        }
      ],
      "name": "queueNewRewards",
      "outputs": [
        {
          "internalType": "bool",
          "name": "",
          "type": "bool"
        }
      ],
      "stateMutability": "nonpayable",
      "type": "function"
    },
    {
      "inputs": [],
      "name": "queuedRewards",
      "outputs": [
        {
          "internalType": "uint256",
          "name": "",
          "type": "uint256"
        }
      ],
      "stateMutability": "view",
      "type": "function"
    },
    {
      "inputs": [],
      "name": "renounceOwnership",
      "outputs": [],
      "stateMutability": "nonpayable",
      "type": "function"
    },
    {
      "inputs": [
        {
          "internalType": "address",
          "name": "_account",
          "type": "address"
        }
      ],
      "name": "rewardCheckpoint",
      "outputs": [
        {
          "internalType": "bool",
          "name": "",
          "type": "bool"
        }
      ],
      "stateMutability": "nonpayable",
      "type": "function"
    },
    {
      "inputs": [],
      "name": "rewardPerToken",
      "outputs": [
        {
          "internalType": "uint256",
          "name": "",
          "type": "uint256"
        }
      ],
      "stateMutability": "view",
      "type": "function"
    },
    {
      "inputs": [],
      "name": "rewardPerTokenStored",
      "outputs": [
        {
          "internalType": "uint256",
          "name": "",
          "type": "uint256"
        }
      ],
      "stateMutability": "view",
      "type": "function"
    },
    {
      "inputs": [],
      "name": "rewardRate",
      "outputs": [
        {
          "internalType": "uint256",
          "name": "",
          "type": "uint256"
        }
      ],
      "stateMutability": "view",
      "type": "function"
    },
    {
      "inputs": [],
      "name": "rewardToken",
      "outputs": [
        {
          "internalType": "contract IERC20",
          "name": "",
          "type": "address"
        }
      ],
      "stateMutability": "view",
      "type": "function"
    },
    {
      "inputs": [
        {
          "internalType": "address",
          "name": "",
          "type": "address"
        }
      ],
      "name": "rewards",
      "outputs": [
        {
          "internalType": "uint256",
          "name": "",
          "type": "uint256"
        }
      ],
      "stateMutability": "view",
      "type": "function"
    },
    {
      "inputs": [
        {
          "internalType": "uint256",
          "name": "newDuration",
          "type": "uint256"
        }
      ],
      "name": "setDuration",
      "outputs": [],
      "stateMutability": "nonpayable",
      "type": "function"
    },
    {
      "inputs": [
        {
          "internalType": "address",
          "name": "_ve",
          "type": "address"
        }
      ],
      "name": "setVe",
      "outputs": [],
      "stateMutability": "nonpayable",
      "type": "function"
    },
    {
      "inputs": [
        {
          "internalType": "address",
          "name": "_token",
          "type": "address"
        }
      ],
      "name": "sweep",
      "outputs": [
        {
          "internalType": "bool",
          "name": "",
          "type": "bool"
        }
      ],
      "stateMutability": "nonpayable",
      "type": "function"
    },
    {
      "inputs": [
        {
          "internalType": "address",
          "name": "newOwner",
          "type": "address"
        }
      ],
      "name": "transferOwnership",
      "outputs": [],
      "stateMutability": "nonpayable",
      "type": "function"
    },
    {
      "inputs": [
        {
          "internalType": "address",
          "name": "",
          "type": "address"
        }
      ],
      "name": "userRewardPerTokenPaid",
      "outputs": [
        {
          "internalType": "uint256",
          "name": "",
          "type": "uint256"
        }
      ],
      "stateMutability": "view",
      "type": "function"
    },
    {
      "inputs": [],
      "name": "veToken",
      "outputs": [
        {
          "internalType": "address",
          "name": "",
          "type": "address"
        }
      ],
      "stateMutability": "view",
      "type": "function"
    }
  ],
  "bytecode": "60806040523480156200001157600080fd5b506040516200152a3803806200152a83398101604081905262000034916200016c565b6200003f3362000073565b6200004b8282620000c3565b5050600c80546001600160a01b0319166001600160a01b0392909216919091179055620001b6565b600080546001600160a01b038381166001600160a01b0319831681178455604051919092169283917f8be0079c531659141344cd1fd0a4f28419497f9722a3daafe3b4186f6b6457e09190a35050565b6001600160a01b0382166200011e5760405162461bcd60e51b815260206004820152601860248201527f5f726577617264546f6b656e2030783020616464726573730000000000000000604482015260640160405180910390fd5b600180546001600160a01b0319166001600160a01b03841617905562093a806002556200014b8162000073565b5050565b80516001600160a01b03811681146200016757600080fd5b919050565b6000806000606084860312156200018257600080fd5b6200018d846200014f565b92506200019d602085016200014f565b9150620001ad604085016200014f565b90509250925092565b61136480620001c66000396000f3fe608060405234801561001057600080fd5b506004361061018d5760003560e01c806380faa57d116100de578063c8f33c9111610097578063ebe2b12b11610071578063ebe2b12b14610317578063f2fde38b14610320578063f6be71d114610333578063f7c618c11461034657600080fd5b8063c8f33c91146102fd578063cd3daf9d14610306578063df136d651461030e57600080fd5b806380faa57d146102955780638b8763471461029d5780638da5cb5b146102bd578063901a7d53146102ce578063a32079b8146102d7578063a4698feb146102ea57600080fd5b80633b92eb231161014b57806363d38c3b1161012557806363d38c3b14610266578063715018a61461026f5780637a238855146102795780637b0a47ee1461028c57600080fd5b80633b92eb23146102205780633d18b9121461024b578063590a41f51461025357600080fd5b80628cc2621461019257806301681a62146101b8578063055de275146101db5780630700037d146101ee5780630fb5a6b41461020e578063262d3d6d14610217575b600080fd5b6101a56101a0366004611155565b610359565b6040519081526020015b60405180910390f35b6101cb6101c6366004611155565b61036a565b60405190151581526020016101af565b6101cb6101e9366004611155565b6104b9565b6101a56101fc366004611155565b600b6020526000908152604090205481565b6101a560025481565b6101a560095481565b600c54610233906001600160a01b031681565b6040516001600160a01b0390911681526020016101af565b6101cb6104ce565b6101cb61026136600461117e565b6104e1565b6101a560075481565b610277610605565b005b610277610287366004611155565b61063b565b6101a560045481565b6101a56106ba565b6101a56102ab366004611155565b600a6020526000908152604090205481565b6000546001600160a01b0316610233565b6101a560085481565b6101cb6102e5366004611155565b6106cd565b6101cb6102f83660046111a5565b61072a565b6101a560055481565b6101a5610736565b6101a560065481565b6101a560035481565b61027761032e366004611155565b610740565b61027761034136600461117e565b6107db565b600154610233906001600160a01b031681565b600061036482610895565b92915050565b600080546001600160a01b0316331461039e5760405162461bcd60e51b8152600401610395906111c2565b60405180910390fd5b6103a7826108a0565b6103e55760405162461bcd60e51b815260206004820152600f60248201526e383937ba32b1ba32b2103a37b5b2b760891b6044820152606401610395565b6040516370a0823160e01b81523060048201526000906001600160a01b038416906370a0823190602401602060405180830381865afa15801561042c573d6000803e3d6000fd5b505050506040513d601f19601f8201168201806040525081019061045091906111f7565b905061046e836104686000546001600160a01b031690565b83610932565b604080516001600160a01b0385168152602081018390527fab2246061d7b0dd3631d037e3f6da75782ae489eeb9f6af878a4b25df9b07c77910160405180910390a150600192915050565b60006104c682600061099a565b506001919050565b60006104db33600061099a565b50600190565b6000816105165760405162461bcd60e51b815260206004820152600360248201526203d3d360ec1b6044820152606401610395565b60015461052e906001600160a01b0316333085610b15565b60408051338152602081018490527f1c88aa9a39b1a6357a85c97a3bd4e2b0738e74c68b92928276bc85f495b2450b910160405180910390a16007546105749083611226565b915060035442106105945761058882610b53565b50506000600755600190565b60006002546003546105a6919061123e565b6105b0904261123e565b90506000600454826105c29190611255565b905083600a6105d283600c611255565b6105dc9190611274565b10156105f5576105eb84610b53565b60006007556105fb565b60078490555b5060019392505050565b6000546001600160a01b0316331461062f5760405162461bcd60e51b8152600401610395906111c2565b6106396000610c49565b565b6000546001600160a01b031633146106655760405162461bcd60e51b8152600401610395906111c2565b600c80546001600160a01b0319166001600160a01b0383169081179091556040519081527f0f382d8404a45286f6180665c3eb5574df3e6efdd99ad2e652d8f5d904f264f0906020015b60405180910390a150565b60006106c842600354610c99565b905090565b6000816106d981610cb1565b600c546001600160a01b031633146107215760405162461bcd60e51b815260206004820152600b60248201526a08585d5d1a1bdc9a5e995960aa1b6044820152606401610395565b50600192915050565b60006104c6338361099a565b60006106c8610d5b565b6000546001600160a01b0316331461076a5760405162461bcd60e51b8152600401610395906111c2565b6001600160a01b0381166107cf5760405162461bcd60e51b815260206004820152602660248201527f4f776e61626c653a206e6577206f776e657220697320746865207a65726f206160448201526564647265737360d01b6064820152608401610395565b6107d881610c49565b50565b6000546001600160a01b031633146108055760405162461bcd60e51b8152600401610395906111c2565b600061081081610cb1565b60035442101561084e5760004260035461082a919061123e565b905060006004548261083c9190611255565b90506108488482611274565b60045550505b60028290556004546040805184815260208101929092527ff899c6d536e6cda78c5f4dce43ca0e8c47167deb2875ea8b777f21cc85899b1f91015b60405180910390a15050565b600061036482610e36565b6001546000906001600160a01b0383811691161415806103645750600c60009054906101000a90046001600160a01b03166001600160a01b0316631705a3bd6040518163ffffffff1660e01b8152600401602060405180830381865afa15801561090e573d6000803e3d6000fd5b505050506040513d601f19601f820116820180604052508101906103649190611296565b6040516001600160a01b03831660248201526044810182905261099590849063a9059cbb60e01b906064015b60408051601f198184030181529190526020810180516001600160e01b03166001600160e01b031990931692909217909152610f02565b505050565b816109a481610cb1565b6001600160a01b0383166000908152600b602052604081208054919055806109cc5750505050565b8215610ab557600154600c5460405163095ea7b360e01b81526001600160a01b0391821660048201526024810184905291169063095ea7b3906044016020604051808303816000875af1158015610a27573d6000803e3d6000fd5b505050506040513d601f19601f82011682018060405250810190610a4b9190611296565b50600c54604051631d23139f60e11b8152336004820152602481018390526001600160a01b0390911690633a46273e90604401600060405180830381600087803b158015610a9857600080fd5b505af1158015610aac573d6000803e3d6000fd5b50505050610acc565b600154610acc906001600160a01b03168583610932565b836001600160a01b03167fe2403640ba68fed3a2f88b7557551d1993f84b99bb10ff833f0cf8db0c5e048682604051610b0791815260200190565b60405180910390a250505050565b6040516001600160a01b0380851660248301528316604482015260648101829052610b4d9085906323b872dd60e01b9060840161095e565b50505050565b6000610b5e81610cb1565b81600954610b6c9190611226565b6009556003544210610b8d57600254610b859083611274565b600455610bd1565b600042600354610b9d919061123e565b9050600060045482610baf9190611255565b9050610bbb8185611226565b935060025484610bcb9190611274565b60045550505b6008829055426005819055600254610be891611226565b600381905560085460055460045460095460408051948552602085019390935291830193909352606082019290925260808101919091527f944ffd3678415a15cbfef07dd7d9f20cdc6f36d12588a4ba7e8eb440f32c61be9060a001610889565b600080546001600160a01b038381166001600160a01b0319831681178455604051919092169283917f8be0079c531659141344cd1fd0a4f28419497f9722a3daafe3b4186f6b6457e09190a35050565b6000818310610ca85781610caa565b825b9392505050565b610cb9610d5b565b600655610cc46106ba565b6005556001600160a01b038116156107d857610cdf81610e36565b6001600160a01b0382166000818152600b60209081526040808320948555600654600a83529281902083905560055494548151948552918401839052830193909352606082019290925260808101919091527ffbe590c835e1c07f8e971c36021d1be46f43f7b0b6dc5413dbd5753590569d589060a0016106af565b600080600c60009054906101000a90046001600160a01b03166001600160a01b03166318160ddd6040518163ffffffff1660e01b8152600401602060405180830381865afa158015610db1573d6000803e3d6000fd5b505050506040513d601f19601f82011682018060405250810190610dd591906111f7565b905080610de457505060065490565b80600454600554610df36106ba565b610dfd919061123e565b610e079190611255565b610e1990670de0b6b3a7640000611255565b610e239190611274565b600654610e309190611226565b91505090565b6001600160a01b0381166000908152600b6020908152604080832054600a909252822054670de0b6b3a764000090610e6c610d5b565b610e76919061123e565b600c546040516370a0823160e01b81526001600160a01b038781166004830152909116906370a0823190602401602060405180830381865afa158015610ec0573d6000803e3d6000fd5b505050506040513d601f19601f82011682018060405250810190610ee491906111f7565b610eee9190611255565b610ef89190611274565b6103649190611226565b6000610f57826040518060400160405280602081526020017f5361666545524332303a206c6f772d6c6576656c2063616c6c206661696c6564815250856001600160a01b0316610fd49092919063ffffffff16565b8051909150156109955780806020019051810190610f759190611296565b6109955760405162461bcd60e51b815260206004820152602a60248201527f5361666545524332303a204552433230206f7065726174696f6e20646964206e6044820152691bdd081cdd58d8d9595960b21b6064820152608401610395565b6060610fe38484600085610feb565b949350505050565b60608247101561104c5760405162461bcd60e51b815260206004820152602660248201527f416464726573733a20696e73756666696369656e742062616c616e636520666f6044820152651c8818d85b1b60d21b6064820152608401610395565b6001600160a01b0385163b6110a35760405162461bcd60e51b815260206004820152601d60248201527f416464726573733a2063616c6c20746f206e6f6e2d636f6e74726163740000006044820152606401610395565b600080866001600160a01b031685876040516110bf91906112df565b60006040518083038185875af1925050503d80600081146110fc576040519150601f19603f3d011682016040523d82523d6000602084013e611101565b606091505b509150915061111182828661111c565b979650505050505050565b6060831561112b575081610caa565b82511561113b5782518084602001fd5b8160405162461bcd60e51b815260040161039591906112fb565b60006020828403121561116757600080fd5b81356001600160a01b0381168114610caa57600080fd5b60006020828403121561119057600080fd5b5035919050565b80151581146107d857600080fd5b6000602082840312156111b757600080fd5b8135610caa81611197565b6020808252818101527f4f776e61626c653a2063616c6c6572206973206e6f7420746865206f776e6572604082015260600190565b60006020828403121561120957600080fd5b5051919050565b634e487b7160e01b600052601160045260246000fd5b6000821982111561123957611239611210565b500190565b60008282101561125057611250611210565b500390565b600081600019048311821515161561126f5761126f611210565b500290565b60008261129157634e487b7160e01b600052601260045260246000fd5b500490565b6000602082840312156112a857600080fd5b8151610caa81611197565b60005b838110156112ce5781810151838201526020016112b6565b83811115610b4d5750506000910152565b600082516112f18184602087016112b3565b9190910192915050565b602081526000825180602084015261131a8160408501602087016112b3565b601f01601f1916919091016040019291505056fea264697066735822122086f9657762582801020098000f3e67f62f1ffdf43e693f1bd0c61d4f90ea879464736f6c634300080c0033",
  "bytecodeSha1": "c060ccfa38ba2822832b03968a002fa49b175d36",
  "compiler": {
    "evm_version": "istanbul",
    "optimizer": {
      "enabled": true,
      "runs": 200
    },
    "version": "0.8.12+commit.f00d7308"
  },
  "contractName": "VeYfiRewards",
  "language": "Solidity",
  "natspec": {
    "kind": "dev",
    "methods": {
      "earned(address)": {
        "details": "earning are based on lock duration and boost",
        "notice": "earning for an account",
        "returns": {
          "_0": "amount of tokens earned"
        }
      },
      "getReward()": {
        "notice": "Get rewards",
        "returns": {
          "_0": "true"
        }
      },
      "getReward(bool)": {
        "notice": "Get rewards",
        "params": {
          "_lock": "should it lock rewards into veYFI"
        },
        "returns": {
          "_0": "true"
        }
      },
      "getRewardFor(address)": {
        "details": "rewards are transfer to _account",
        "notice": "Get rewards for an account",
        "params": {
          "account": "to claim rewards for"
        },
        "returns": {
          "_0": "true"
        }
      },
      "lastTimeRewardApplicable()": {
        "returns": {
          "_0": "timestamp until rewards are distributed"
        }
      },
      "owner()": {
        "details": "Returns the address of the current owner."
      },
      "queueNewRewards(uint256)": {
        "details": "Triger rewardRate recalculation using _amount and queuedRewards",
        "notice": "Add new rewards to be distributed over a week",
        "params": {
          "_amount": "token to add to rewards"
        },
        "returns": {
          "_0": "true"
        }
      },
      "queuedRewards()": {
        "notice": "that are queued to be distributed on a `queueNewRewards` call"
      },
      "renounceOwnership()": {
        "details": "Leaves the contract without owner. It will not be possible to call `onlyOwner` functions anymore. Can only be called by the current owner. NOTE: Renouncing ownership will leave the contract without an owner, thereby removing any functionality that is only available to the owner."
      },
      "rewardCheckpoint(address)": {
        "details": "called by veYFI",
        "notice": "use to update rewards on veYFI balance changes.",
        "returns": {
          "_0": "true"
        }
      },
      "rewardPerToken()": {
        "details": "gives the total amount of rewards distributed since inception of the pool per vault token",
        "notice": "reward per token deposited",
        "returns": {
          "_0": "rewardPerToken"
        }
      },
      "transferOwnership(address)": {
        "details": "Transfers ownership of the contract to a new account (`newOwner`). Can only be called by the current owner."
      }
    },
    "notice": "Gauge like contract that simulate veYFI stake.",
    "title": "VeYfiRewards",
    "version": 1
  },
  "opcodes": "PUSH1 0x80 PUSH1 0x40 MSTORE CALLVALUE DUP1 ISZERO PUSH2 0x10 JUMPI PUSH1 0x0 DUP1 REVERT JUMPDEST POP PUSH1 0x4 CALLDATASIZE LT PUSH2 0x18D JUMPI PUSH1 0x0 CALLDATALOAD PUSH1 0xE0 SHR DUP1 PUSH4 0x80FAA57D GT PUSH2 0xDE JUMPI DUP1 PUSH4 0xC8F33C91 GT PUSH2 0x97 JUMPI DUP1 PUSH4 0xEBE2B12B GT PUSH2 0x71 JUMPI DUP1 PUSH4 0xEBE2B12B EQ PUSH2 0x317 JUMPI DUP1 PUSH4 0xF2FDE38B EQ PUSH2 0x320 JUMPI DUP1 PUSH4 0xF6BE71D1 EQ PUSH2 0x333 JUMPI DUP1 PUSH4 0xF7C618C1 EQ PUSH2 0x346 JUMPI PUSH1 0x0 DUP1 REVERT JUMPDEST DUP1 PUSH4 0xC8F33C91 EQ PUSH2 0x2FD JUMPI DUP1 PUSH4 0xCD3DAF9D EQ PUSH2 0x306 JUMPI DUP1 PUSH4 0xDF136D65 EQ PUSH2 0x30E JUMPI PUSH1 0x0 DUP1 REVERT JUMPDEST DUP1 PUSH4 0x80FAA57D EQ PUSH2 0x295 JUMPI DUP1 PUSH4 0x8B876347 EQ PUSH2 0x29D JUMPI DUP1 PUSH4 0x8DA5CB5B EQ PUSH2 0x2BD JUMPI DUP1 PUSH4 0x901A7D53 EQ PUSH2 0x2CE JUMPI DUP1 PUSH4 0xA32079B8 EQ PUSH2 0x2D7 JUMPI DUP1 PUSH4 0xA4698FEB EQ PUSH2 0x2EA JUMPI PUSH1 0x0 DUP1 REVERT JUMPDEST DUP1 PUSH4 0x3B92EB23 GT PUSH2 0x14B JUMPI DUP1 PUSH4 0x63D38C3B GT PUSH2 0x125 JUMPI DUP1 PUSH4 0x63D38C3B EQ PUSH2 0x266 JUMPI DUP1 PUSH4 0x715018A6 EQ PUSH2 0x26F JUMPI DUP1 PUSH4 0x7A238855 EQ PUSH2 0x279 JUMPI DUP1 PUSH4 0x7B0A47EE EQ PUSH2 0x28C JUMPI PUSH1 0x0 DUP1 REVERT JUMPDEST DUP1 PUSH4 0x3B92EB23 EQ PUSH2 0x220 JUMPI DUP1 PUSH4 0x3D18B912 EQ PUSH2 0x24B JUMPI DUP1 PUSH4 0x590A41F5 EQ PUSH2 0x253 JUMPI PUSH1 0x0 DUP1 REVERT JUMPDEST DUP1 PUSH3 0x8CC262 EQ PUSH2 0x192 JUMPI DUP1 PUSH4 0x1681A62 EQ PUSH2 0x1B8 JUMPI DUP1 PUSH4 0x55DE275 EQ PUSH2 0x1DB JUMPI DUP1 PUSH4 0x700037D EQ PUSH2 0x1EE JUMPI DUP1 PUSH4 0xFB5A6B4 EQ PUSH2 0x20E JUMPI DUP1 PUSH4 0x262D3D6D EQ PUSH2 0x217 JUMPI JUMPDEST PUSH1 0x0 DUP1 REVERT JUMPDEST PUSH2 0x1A5 PUSH2 0x1A0 CALLDATASIZE PUSH1 0x4 PUSH2 0x1155 JUMP JUMPDEST PUSH2 0x359 JUMP JUMPDEST PUSH1 0x40 MLOAD SWAP1 DUP2 MSTORE PUSH1 0x20 ADD JUMPDEST PUSH1 0x40 MLOAD DUP1 SWAP2 SUB SWAP1 RETURN JUMPDEST PUSH2 0x1CB PUSH2 0x1C6 CALLDATASIZE PUSH1 0x4 PUSH2 0x1155 JUMP JUMPDEST PUSH2 0x36A JUMP JUMPDEST PUSH1 0x40 MLOAD SWAP1 ISZERO ISZERO DUP2 MSTORE PUSH1 0x20 ADD PUSH2 0x1AF JUMP JUMPDEST PUSH2 0x1CB PUSH2 0x1E9 CALLDATASIZE PUSH1 0x4 PUSH2 0x1155 JUMP JUMPDEST PUSH2 0x4B9 JUMP JUMPDEST PUSH2 0x1A5 PUSH2 0x1FC CALLDATASIZE PUSH1 0x4 PUSH2 0x1155 JUMP JUMPDEST PUSH1 0xB PUSH1 0x20 MSTORE PUSH1 0x0 SWAP1 DUP2 MSTORE PUSH1 0x40 SWAP1 KECCAK256 SLOAD DUP2 JUMP JUMPDEST PUSH2 0x1A5 PUSH1 0x2 SLOAD DUP2 JUMP JUMPDEST PUSH2 0x1A5 PUSH1 0x9 SLOAD DUP2 JUMP JUMPDEST PUSH1 0xC SLOAD PUSH2 0x233 SWAP1 PUSH1 0x1 PUSH1 0x1 PUSH1 0xA0 SHL SUB AND DUP2 JUMP JUMPDEST PUSH1 0x40 MLOAD PUSH1 0x1 PUSH1 0x1 PUSH1 0xA0 SHL SUB SWAP1 SWAP2 AND DUP2 MSTORE PUSH1 0x20 ADD PUSH2 0x1AF JUMP JUMPDEST PUSH2 0x1CB PUSH2 0x4CE JUMP JUMPDEST PUSH2 0x1CB PUSH2 0x261 CALLDATASIZE PUSH1 0x4 PUSH2 0x117E JUMP JUMPDEST PUSH2 0x4E1 JUMP JUMPDEST PUSH2 0x1A5 PUSH1 0x7 SLOAD DUP2 JUMP JUMPDEST PUSH2 0x277 PUSH2 0x605 JUMP JUMPDEST STOP JUMPDEST PUSH2 0x277 PUSH2 0x287 CALLDATASIZE PUSH1 0x4 PUSH2 0x1155 JUMP JUMPDEST PUSH2 0x63B JUMP JUMPDEST PUSH2 0x1A5 PUSH1 0x4 SLOAD DUP2 JUMP JUMPDEST PUSH2 0x1A5 PUSH2 0x6BA JUMP JUMPDEST PUSH2 0x1A5 PUSH2 0x2AB CALLDATASIZE PUSH1 0x4 PUSH2 0x1155 JUMP JUMPDEST PUSH1 0xA PUSH1 0x20 MSTORE PUSH1 0x0 SWAP1 DUP2 MSTORE PUSH1 0x40 SWAP1 KECCAK256 SLOAD DUP2 JUMP JUMPDEST PUSH1 0x0 SLOAD PUSH1 0x1 PUSH1 0x1 PUSH1 0xA0 SHL SUB AND PUSH2 0x233 JUMP JUMPDEST PUSH2 0x1A5 PUSH1 0x8 SLOAD DUP2 JUMP JUMPDEST PUSH2 0x1CB PUSH2 0x2E5 CALLDATASIZE PUSH1 0x4 PUSH2 0x1155 JUMP JUMPDEST PUSH2 0x6CD JUMP JUMPDEST PUSH2 0x1CB PUSH2 0x2F8 CALLDATASIZE PUSH1 0x4 PUSH2 0x11A5 JUMP JUMPDEST PUSH2 0x72A JUMP JUMPDEST PUSH2 0x1A5 PUSH1 0x5 SLOAD DUP2 JUMP JUMPDEST PUSH2 0x1A5 PUSH2 0x736 JUMP JUMPDEST PUSH2 0x1A5 PUSH1 0x6 SLOAD DUP2 JUMP JUMPDEST PUSH2 0x1A5 PUSH1 0x3 SLOAD DUP2 JUMP JUMPDEST PUSH2 0x277 PUSH2 0x32E CALLDATASIZE PUSH1 0x4 PUSH2 0x1155 JUMP JUMPDEST PUSH2 0x740 JUMP JUMPDEST PUSH2 0x277 PUSH2 0x341 CALLDATASIZE PUSH1 0x4 PUSH2 0x117E JUMP JUMPDEST PUSH2 0x7DB JUMP JUMPDEST PUSH1 0x1 SLOAD PUSH2 0x233 SWAP1 PUSH1 0x1 PUSH1 0x1 PUSH1 0xA0 SHL SUB AND DUP2 JUMP JUMPDEST PUSH1 0x0 PUSH2 0x364 DUP3 PUSH2 0x895 JUMP JUMPDEST SWAP3 SWAP2 POP POP JUMP JUMPDEST PUSH1 0x0 DUP1 SLOAD PUSH1 0x1 PUSH1 0x1 PUSH1 0xA0 SHL SUB AND CALLER EQ PUSH2 0x39E JUMPI PUSH1 0x40 MLOAD PUSH3 0x461BCD PUSH1 0xE5 SHL DUP2 MSTORE PUSH1 0x4 ADD PUSH2 0x395 SWAP1 PUSH2 0x11C2 JUMP JUMPDEST PUSH1 0x40 MLOAD DUP1 SWAP2 SUB SWAP1 REVERT JUMPDEST PUSH2 0x3A7 DUP3 PUSH2 0x8A0 JUMP JUMPDEST PUSH2 0x3E5 JUMPI PUSH1 0x40 MLOAD PUSH3 0x461BCD PUSH1 0xE5 SHL DUP2 MSTORE PUSH1 0x20 PUSH1 0x4 DUP3 ADD MSTORE PUSH1 0xF PUSH1 0x24 DUP3 ADD MSTORE PUSH15 0x383937BA32B1BA32B2103A37B5B2B7 PUSH1 0x89 SHL PUSH1 0x44 DUP3 ADD MSTORE PUSH1 0x64 ADD PUSH2 0x395 JUMP JUMPDEST PUSH1 0x40 MLOAD PUSH4 0x70A08231 PUSH1 0xE0 SHL DUP2 MSTORE ADDRESS PUSH1 0x4 DUP3 ADD MSTORE PUSH1 0x0 SWAP1 PUSH1 0x1 PUSH1 0x1 PUSH1 0xA0 SHL SUB DUP5 AND SWAP1 PUSH4 0x70A08231 SWAP1 PUSH1 0x24 ADD PUSH1 0x20 PUSH1 0x40 MLOAD DUP1 DUP4 SUB DUP2 DUP7 GAS STATICCALL ISZERO DUP1 ISZERO PUSH2 0x42C JUMPI RETURNDATASIZE PUSH1 0x0 DUP1 RETURNDATACOPY RETURNDATASIZE PUSH1 0x0 REVERT JUMPDEST POP POP POP POP PUSH1 0x40 MLOAD RETURNDATASIZE PUSH1 0x1F NOT PUSH1 0x1F DUP3 ADD AND DUP3 ADD DUP1 PUSH1 0x40 MSTORE POP DUP2 ADD SWAP1 PUSH2 0x450 SWAP2 SWAP1 PUSH2 0x11F7 JUMP JUMPDEST SWAP1 POP PUSH2 0x46E DUP4 PUSH2 0x468 PUSH1 0x0 SLOAD PUSH1 0x1 PUSH1 0x1 PUSH1 0xA0 SHL SUB AND SWAP1 JUMP JUMPDEST DUP4 PUSH2 0x932 JUMP JUMPDEST PUSH1 0x40 DUP1 MLOAD PUSH1 0x1 PUSH1 0x1 PUSH1 0xA0 SHL SUB DUP6 AND DUP2 MSTORE PUSH1 0x20 DUP2 ADD DUP4 SWAP1 MSTORE PUSH32 0xAB2246061D7B0DD3631D037E3F6DA75782AE489EEB9F6AF878A4B25DF9B07C77 SWAP2 ADD PUSH1 0x40 MLOAD DUP1 SWAP2 SUB SWAP1 LOG1 POP PUSH1 0x1 SWAP3 SWAP2 POP POP JUMP JUMPDEST PUSH1 0x0 PUSH2 0x4C6 DUP3 PUSH1 0x0 PUSH2 0x99A JUMP JUMPDEST POP PUSH1 0x1 SWAP2 SWAP1 POP JUMP JUMPDEST PUSH1 0x0 PUSH2 0x4DB CALLER PUSH1 0x0 PUSH2 0x99A JUMP JUMPDEST POP PUSH1 0x1 SWAP1 JUMP JUMPDEST PUSH1 0x0 DUP2 PUSH2 0x516 JUMPI PUSH1 0x40 MLOAD PUSH3 0x461BCD PUSH1 0xE5 SHL DUP2 MSTORE PUSH1 0x20 PUSH1 0x4 DUP3 ADD MSTORE PUSH1 0x3 PUSH1 0x24 DUP3 ADD MSTORE PUSH3 0x3D3D3 PUSH1 0xEC SHL PUSH1 0x44 DUP3 ADD MSTORE PUSH1 0x64 ADD PUSH2 0x395 JUMP JUMPDEST PUSH1 0x1 SLOAD PUSH2 0x52E SWAP1 PUSH1 0x1 PUSH1 0x1 PUSH1 0xA0 SHL SUB AND CALLER ADDRESS DUP6 PUSH2 0xB15 JUMP JUMPDEST PUSH1 0x40 DUP1 MLOAD CALLER DUP2 MSTORE PUSH1 0x20 DUP2 ADD DUP5 SWAP1 MSTORE PUSH32 0x1C88AA9A39B1A6357A85C97A3BD4E2B0738E74C68B92928276BC85F495B2450B SWAP2 ADD PUSH1 0x40 MLOAD DUP1 SWAP2 SUB SWAP1 LOG1 PUSH1 0x7 SLOAD PUSH2 0x574 SWAP1 DUP4 PUSH2 0x1226 JUMP JUMPDEST SWAP2 POP PUSH1 0x3 SLOAD TIMESTAMP LT PUSH2 0x594 JUMPI PUSH2 0x588 DUP3 PUSH2 0xB53 JUMP JUMPDEST POP POP PUSH1 0x0 PUSH1 0x7 SSTORE PUSH1 0x1 SWAP1 JUMP JUMPDEST PUSH1 0x0 PUSH1 0x2 SLOAD PUSH1 0x3 SLOAD PUSH2 0x5A6 SWAP2 SWAP1 PUSH2 0x123E JUMP JUMPDEST PUSH2 0x5B0 SWAP1 TIMESTAMP PUSH2 0x123E JUMP JUMPDEST SWAP1 POP PUSH1 0x0 PUSH1 0x4 SLOAD DUP3 PUSH2 0x5C2 SWAP2 SWAP1 PUSH2 0x1255 JUMP JUMPDEST SWAP1 POP DUP4 PUSH1 0xA PUSH2 0x5D2 DUP4 PUSH1 0xC PUSH2 0x1255 JUMP JUMPDEST PUSH2 0x5DC SWAP2 SWAP1 PUSH2 0x1274 JUMP JUMPDEST LT ISZERO PUSH2 0x5F5 JUMPI PUSH2 0x5EB DUP5 PUSH2 0xB53 JUMP JUMPDEST PUSH1 0x0 PUSH1 0x7 SSTORE PUSH2 0x5FB JUMP JUMPDEST PUSH1 0x7 DUP5 SWAP1 SSTORE JUMPDEST POP PUSH1 0x1 SWAP4 SWAP3 POP POP POP JUMP JUMPDEST PUSH1 0x0 SLOAD PUSH1 0x1 PUSH1 0x1 PUSH1 0xA0 SHL SUB AND CALLER EQ PUSH2 0x62F JUMPI PUSH1 0x40 MLOAD PUSH3 0x461BCD PUSH1 0xE5 SHL DUP2 MSTORE PUSH1 0x4 ADD PUSH2 0x395 SWAP1 PUSH2 0x11C2 JUMP JUMPDEST PUSH2 0x639 PUSH1 0x0 PUSH2 0xC49 JUMP JUMPDEST JUMP JUMPDEST PUSH1 0x0 SLOAD PUSH1 0x1 PUSH1 0x1 PUSH1 0xA0 SHL SUB AND CALLER EQ PUSH2 0x665 JUMPI PUSH1 0x40 MLOAD PUSH3 0x461BCD PUSH1 0xE5 SHL DUP2 MSTORE PUSH1 0x4 ADD PUSH2 0x395 SWAP1 PUSH2 0x11C2 JUMP JUMPDEST PUSH1 0xC DUP1 SLOAD PUSH1 0x1 PUSH1 0x1 PUSH1 0xA0 SHL SUB NOT AND PUSH1 0x1 PUSH1 0x1 PUSH1 0xA0 SHL SUB DUP4 AND SWAP1 DUP2 OR SWAP1 SWAP2 SSTORE PUSH1 0x40 MLOAD SWAP1 DUP2 MSTORE PUSH32 0xF382D8404A45286F6180665C3EB5574DF3E6EFDD99AD2E652D8F5D904F264F0 SWAP1 PUSH1 0x20 ADD JUMPDEST PUSH1 0x40 MLOAD DUP1 SWAP2 SUB SWAP1 LOG1 POP JUMP JUMPDEST PUSH1 0x0 PUSH2 0x6C8 TIMESTAMP PUSH1 0x3 SLOAD PUSH2 0xC99 JUMP JUMPDEST SWAP1 POP SWAP1 JUMP JUMPDEST PUSH1 0x0 DUP2 PUSH2 0x6D9 DUP2 PUSH2 0xCB1 JUMP JUMPDEST PUSH1 0xC SLOAD PUSH1 0x1 PUSH1 0x1 PUSH1 0xA0 SHL SUB AND CALLER EQ PUSH2 0x721 JUMPI PUSH1 0x40 MLOAD PUSH3 0x461BCD PUSH1 0xE5 SHL DUP2 MSTORE PUSH1 0x20 PUSH1 0x4 DUP3 ADD MSTORE PUSH1 0xB PUSH1 0x24 DUP3 ADD MSTORE PUSH11 0x8585D5D1A1BDC9A5E9959 PUSH1 0xAA SHL PUSH1 0x44 DUP3 ADD MSTORE PUSH1 0x64 ADD PUSH2 0x395 JUMP JUMPDEST POP PUSH1 0x1 SWAP3 SWAP2 POP POP JUMP JUMPDEST PUSH1 0x0 PUSH2 0x4C6 CALLER DUP4 PUSH2 0x99A JUMP JUMPDEST PUSH1 0x0 PUSH2 0x6C8 PUSH2 0xD5B JUMP JUMPDEST PUSH1 0x0 SLOAD PUSH1 0x1 PUSH1 0x1 PUSH1 0xA0 SHL SUB AND CALLER EQ PUSH2 0x76A JUMPI PUSH1 0x40 MLOAD PUSH3 0x461BCD PUSH1 0xE5 SHL DUP2 MSTORE PUSH1 0x4 ADD PUSH2 0x395 SWAP1 PUSH2 0x11C2 JUMP JUMPDEST PUSH1 0x1 PUSH1 0x1 PUSH1 0xA0 SHL SUB DUP2 AND PUSH2 0x7CF JUMPI PUSH1 0x40 MLOAD PUSH3 0x461BCD PUSH1 0xE5 SHL DUP2 MSTORE PUSH1 0x20 PUSH1 0x4 DUP3 ADD MSTORE PUSH1 0x26 PUSH1 0x24 DUP3 ADD MSTORE PUSH32 0x4F776E61626C653A206E6577206F776E657220697320746865207A65726F2061 PUSH1 0x44 DUP3 ADD MSTORE PUSH6 0x646472657373 PUSH1 0xD0 SHL PUSH1 0x64 DUP3 ADD MSTORE PUSH1 0x84 ADD PUSH2 0x395 JUMP JUMPDEST PUSH2 0x7D8 DUP2 PUSH2 0xC49 JUMP JUMPDEST POP JUMP JUMPDEST PUSH1 0x0 SLOAD PUSH1 0x1 PUSH1 0x1 PUSH1 0xA0 SHL SUB AND CALLER EQ PUSH2 0x805 JUMPI PUSH1 0x40 MLOAD PUSH3 0x461BCD PUSH1 0xE5 SHL DUP2 MSTORE PUSH1 0x4 ADD PUSH2 0x395 SWAP1 PUSH2 0x11C2 JUMP JUMPDEST PUSH1 0x0 PUSH2 0x810 DUP2 PUSH2 0xCB1 JUMP JUMPDEST PUSH1 0x3 SLOAD TIMESTAMP LT ISZERO PUSH2 0x84E JUMPI PUSH1 0x0 TIMESTAMP PUSH1 0x3 SLOAD PUSH2 0x82A SWAP2 SWAP1 PUSH2 0x123E JUMP JUMPDEST SWAP1 POP PUSH1 0x0 PUSH1 0x4 SLOAD DUP3 PUSH2 0x83C SWAP2 SWAP1 PUSH2 0x1255 JUMP JUMPDEST SWAP1 POP PUSH2 0x848 DUP5 DUP3 PUSH2 0x1274 JUMP JUMPDEST PUSH1 0x4 SSTORE POP POP JUMPDEST PUSH1 0x2 DUP3 SWAP1 SSTORE PUSH1 0x4 SLOAD PUSH1 0x40 DUP1 MLOAD DUP5 DUP2 MSTORE PUSH1 0x20 DUP2 ADD SWAP3 SWAP1 SWAP3 MSTORE PUSH32 0xF899C6D536E6CDA78C5F4DCE43CA0E8C47167DEB2875EA8B777F21CC85899B1F SWAP2 ADD JUMPDEST PUSH1 0x40 MLOAD DUP1 SWAP2 SUB SWAP1 LOG1 POP POP JUMP JUMPDEST PUSH1 0x0 PUSH2 0x364 DUP3 PUSH2 0xE36 JUMP JUMPDEST PUSH1 0x1 SLOAD PUSH1 0x0 SWAP1 PUSH1 0x1 PUSH1 0x1 PUSH1 0xA0 SHL SUB DUP4 DUP2 AND SWAP2 AND EQ ISZERO DUP1 PUSH2 0x364 JUMPI POP PUSH1 0xC PUSH1 0x0 SWAP1 SLOAD SWAP1 PUSH2 0x100 EXP SWAP1 DIV PUSH1 0x1 PUSH1 0x1 PUSH1 0xA0 SHL SUB AND PUSH1 0x1 PUSH1 0x1 PUSH1 0xA0 SHL SUB AND PUSH4 0x1705A3BD PUSH1 0x40 MLOAD DUP2 PUSH4 0xFFFFFFFF AND PUSH1 0xE0 SHL DUP2 MSTORE PUSH1 0x4 ADD PUSH1 0x20 PUSH1 0x40 MLOAD DUP1 DUP4 SUB DUP2 DUP7 GAS STATICCALL ISZERO DUP1 ISZERO PUSH2 0x90E JUMPI RETURNDATASIZE PUSH1 0x0 DUP1 RETURNDATACOPY RETURNDATASIZE PUSH1 0x0 REVERT JUMPDEST POP POP POP POP PUSH1 0x40 MLOAD RETURNDATASIZE PUSH1 0x1F NOT PUSH1 0x1F DUP3 ADD AND DUP3 ADD DUP1 PUSH1 0x40 MSTORE POP DUP2 ADD SWAP1 PUSH2 0x364 SWAP2 SWAP1 PUSH2 0x1296 JUMP JUMPDEST PUSH1 0x40 MLOAD PUSH1 0x1 PUSH1 0x1 PUSH1 0xA0 SHL SUB DUP4 AND PUSH1 0x24 DUP3 ADD MSTORE PUSH1 0x44 DUP2 ADD DUP3 SWAP1 MSTORE PUSH2 0x995 SWAP1 DUP5 SWAP1 PUSH4 0xA9059CBB PUSH1 0xE0 SHL SWAP1 PUSH1 0x64 ADD JUMPDEST PUSH1 0x40 DUP1 MLOAD PUSH1 0x1F NOT DUP2 DUP5 SUB ADD DUP2 MSTORE SWAP2 SWAP1 MSTORE PUSH1 0x20 DUP2 ADD DUP1 MLOAD PUSH1 0x1 PUSH1 0x1 PUSH1 0xE0 SHL SUB AND PUSH1 0x1 PUSH1 0x1 PUSH1 0xE0 SHL SUB NOT SWAP1 SWAP4 AND SWAP3 SWAP1 SWAP3 OR SWAP1 SWAP2 MSTORE PUSH2 0xF02 JUMP JUMPDEST POP POP POP JUMP JUMPDEST DUP2 PUSH2 0x9A4 DUP2 PUSH2 0xCB1 JUMP JUMPDEST PUSH1 0x1 PUSH1 0x1 PUSH1 0xA0 SHL SUB DUP4 AND PUSH1 0x0 SWAP1 DUP2 MSTORE PUSH1 0xB PUSH1 0x20 MSTORE PUSH1 0x40 DUP2 KECCAK256 DUP1 SLOAD SWAP2 SWAP1 SSTORE DUP1 PUSH2 0x9CC JUMPI POP POP POP POP JUMP JUMPDEST DUP3 ISZERO PUSH2 0xAB5 JUMPI PUSH1 0x1 SLOAD PUSH1 0xC SLOAD PUSH1 0x40 MLOAD PUSH4 0x95EA7B3 PUSH1 0xE0 SHL DUP2 MSTORE PUSH1 0x1 PUSH1 0x1 PUSH1 0xA0 SHL SUB SWAP2 DUP3 AND PUSH1 0x4 DUP3 ADD MSTORE PUSH1 0x24 DUP2 ADD DUP5 SWAP1 MSTORE SWAP2 AND SWAP1 PUSH4 0x95EA7B3 SWAP1 PUSH1 0x44 ADD PUSH1 0x20 PUSH1 0x40 MLOAD DUP1 DUP4 SUB DUP2 PUSH1 0x0 DUP8 GAS CALL ISZERO DUP1 ISZERO PUSH2 0xA27 JUMPI RETURNDATASIZE PUSH1 0x0 DUP1 RETURNDATACOPY RETURNDATASIZE PUSH1 0x0 REVERT JUMPDEST POP POP POP POP PUSH1 0x40 MLOAD RETURNDATASIZE PUSH1 0x1F NOT PUSH1 0x1F DUP3 ADD AND DUP3 ADD DUP1 PUSH1 0x40 MSTORE POP DUP2 ADD SWAP1 PUSH2 0xA4B SWAP2 SWAP1 PUSH2 0x1296 JUMP JUMPDEST POP PUSH1 0xC SLOAD PUSH1 0x40 MLOAD PUSH4 0x1D23139F PUSH1 0xE1 SHL DUP2 MSTORE CALLER PUSH1 0x4 DUP3 ADD MSTORE PUSH1 0x24 DUP2 ADD DUP4 SWAP1 MSTORE PUSH1 0x1 PUSH1 0x1 PUSH1 0xA0 SHL SUB SWAP1 SWAP2 AND SWAP1 PUSH4 0x3A46273E SWAP1 PUSH1 0x44 ADD PUSH1 0x0 PUSH1 0x40 MLOAD DUP1 DUP4 SUB DUP2 PUSH1 0x0 DUP8 DUP1 EXTCODESIZE ISZERO DUP1 ISZERO PUSH2 0xA98 JUMPI PUSH1 0x0 DUP1 REVERT JUMPDEST POP GAS CALL ISZERO DUP1 ISZERO PUSH2 0xAAC JUMPI RETURNDATASIZE PUSH1 0x0 DUP1 RETURNDATACOPY RETURNDATASIZE PUSH1 0x0 REVERT JUMPDEST POP POP POP POP PUSH2 0xACC JUMP JUMPDEST PUSH1 0x1 SLOAD PUSH2 0xACC SWAP1 PUSH1 0x1 PUSH1 0x1 PUSH1 0xA0 SHL SUB AND DUP6 DUP4 PUSH2 0x932 JUMP JUMPDEST DUP4 PUSH1 0x1 PUSH1 0x1 PUSH1 0xA0 SHL SUB AND PUSH32 0xE2403640BA68FED3A2F88B7557551D1993F84B99BB10FF833F0CF8DB0C5E0486 DUP3 PUSH1 0x40 MLOAD PUSH2 0xB07 SWAP2 DUP2 MSTORE PUSH1 0x20 ADD SWAP1 JUMP JUMPDEST PUSH1 0x40 MLOAD DUP1 SWAP2 SUB SWAP1 LOG2 POP POP POP POP JUMP JUMPDEST PUSH1 0x40 MLOAD PUSH1 0x1 PUSH1 0x1 PUSH1 0xA0 SHL SUB DUP1 DUP6 AND PUSH1 0x24 DUP4 ADD MSTORE DUP4 AND PUSH1 0x44 DUP3 ADD MSTORE PUSH1 0x64 DUP2 ADD DUP3 SWAP1 MSTORE PUSH2 0xB4D SWAP1 DUP6 SWAP1 PUSH4 0x23B872DD PUSH1 0xE0 SHL SWAP1 PUSH1 0x84 ADD PUSH2 0x95E JUMP JUMPDEST POP POP POP POP JUMP JUMPDEST PUSH1 0x0 PUSH2 0xB5E DUP2 PUSH2 0xCB1 JUMP JUMPDEST DUP2 PUSH1 0x9 SLOAD PUSH2 0xB6C SWAP2 SWAP1 PUSH2 0x1226 JUMP JUMPDEST PUSH1 0x9 SSTORE PUSH1 0x3 SLOAD TIMESTAMP LT PUSH2 0xB8D JUMPI PUSH1 0x2 SLOAD PUSH2 0xB85 SWAP1 DUP4 PUSH2 0x1274 JUMP JUMPDEST PUSH1 0x4 SSTORE PUSH2 0xBD1 JUMP JUMPDEST PUSH1 0x0 TIMESTAMP PUSH1 0x3 SLOAD PUSH2 0xB9D SWAP2 SWAP1 PUSH2 0x123E JUMP JUMPDEST SWAP1 POP PUSH1 0x0 PUSH1 0x4 SLOAD DUP3 PUSH2 0xBAF SWAP2 SWAP1 PUSH2 0x1255 JUMP JUMPDEST SWAP1 POP PUSH2 0xBBB DUP2 DUP6 PUSH2 0x1226 JUMP JUMPDEST SWAP4 POP PUSH1 0x2 SLOAD DUP5 PUSH2 0xBCB SWAP2 SWAP1 PUSH2 0x1274 JUMP JUMPDEST PUSH1 0x4 SSTORE POP POP JUMPDEST PUSH1 0x8 DUP3 SWAP1 SSTORE TIMESTAMP PUSH1 0x5 DUP2 SWAP1 SSTORE PUSH1 0x2 SLOAD PUSH2 0xBE8 SWAP2 PUSH2 0x1226 JUMP JUMPDEST PUSH1 0x3 DUP2 SWAP1 SSTORE PUSH1 0x8 SLOAD PUSH1 0x5 SLOAD PUSH1 0x4 SLOAD PUSH1 0x9 SLOAD PUSH1 0x40 DUP1 MLOAD SWAP5 DUP6 MSTORE PUSH1 0x20 DUP6 ADD SWAP4 SWAP1 SWAP4 MSTORE SWAP2 DUP4 ADD SWAP4 SWAP1 SWAP4 MSTORE PUSH1 0x60 DUP3 ADD SWAP3 SWAP1 SWAP3 MSTORE PUSH1 0x80 DUP2 ADD SWAP2 SWAP1 SWAP2 MSTORE PUSH32 0x944FFD3678415A15CBFEF07DD7D9F20CDC6F36D12588A4BA7E8EB440F32C61BE SWAP1 PUSH1 0xA0 ADD PUSH2 0x889 JUMP JUMPDEST PUSH1 0x0 DUP1 SLOAD PUSH1 0x1 PUSH1 0x1 PUSH1 0xA0 SHL SUB DUP4 DUP2 AND PUSH1 0x1 PUSH1 0x1 PUSH1 0xA0 SHL SUB NOT DUP4 AND DUP2 OR DUP5 SSTORE PUSH1 0x40 MLOAD SWAP2 SWAP1 SWAP3 AND SWAP3 DUP4 SWAP2 PUSH32 0x8BE0079C531659141344CD1FD0A4F28419497F9722A3DAAFE3B4186F6B6457E0 SWAP2 SWAP1 LOG3 POP POP JUMP JUMPDEST PUSH1 0x0 DUP2 DUP4 LT PUSH2 0xCA8 JUMPI DUP2 PUSH2 0xCAA JUMP JUMPDEST DUP3 JUMPDEST SWAP4 SWAP3 POP POP POP JUMP JUMPDEST PUSH2 0xCB9 PUSH2 0xD5B JUMP JUMPDEST PUSH1 0x6 SSTORE PUSH2 0xCC4 PUSH2 0x6BA JUMP JUMPDEST PUSH1 0x5 SSTORE PUSH1 0x1 PUSH1 0x1 PUSH1 0xA0 SHL SUB DUP2 AND ISZERO PUSH2 0x7D8 JUMPI PUSH2 0xCDF DUP2 PUSH2 0xE36 JUMP JUMPDEST PUSH1 0x1 PUSH1 0x1 PUSH1 0xA0 SHL SUB DUP3 AND PUSH1 0x0 DUP2 DUP2 MSTORE PUSH1 0xB PUSH1 0x20 SWAP1 DUP2 MSTORE PUSH1 0x40 DUP1 DUP4 KECCAK256 SWAP5 DUP6 SSTORE PUSH1 0x6 SLOAD PUSH1 0xA DUP4 MSTORE SWAP3 DUP2 SWAP1 KECCAK256 DUP4 SWAP1 SSTORE PUSH1 0x5 SLOAD SWAP5 SLOAD DUP2 MLOAD SWAP5 DUP6 MSTORE SWAP2 DUP5 ADD DUP4 SWAP1 MSTORE DUP4 ADD SWAP4 SWAP1 SWAP4 MSTORE PUSH1 0x60 DUP3 ADD SWAP3 SWAP1 SWAP3 MSTORE PUSH1 0x80 DUP2 ADD SWAP2 SWAP1 SWAP2 MSTORE PUSH32 0xFBE590C835E1C07F8E971C36021D1BE46F43F7B0B6DC5413DBD5753590569D58 SWAP1 PUSH1 0xA0 ADD PUSH2 0x6AF JUMP JUMPDEST PUSH1 0x0 DUP1 PUSH1 0xC PUSH1 0x0 SWAP1 SLOAD SWAP1 PUSH2 0x100 EXP SWAP1 DIV PUSH1 0x1 PUSH1 0x1 PUSH1 0xA0 SHL SUB AND PUSH1 0x1 PUSH1 0x1 PUSH1 0xA0 SHL SUB AND PUSH4 0x18160DDD PUSH1 0x40 MLOAD DUP2 PUSH4 0xFFFFFFFF AND PUSH1 0xE0 SHL DUP2 MSTORE PUSH1 0x4 ADD PUSH1 0x20 PUSH1 0x40 MLOAD DUP1 DUP4 SUB DUP2 DUP7 GAS STATICCALL ISZERO DUP1 ISZERO PUSH2 0xDB1 JUMPI RETURNDATASIZE PUSH1 0x0 DUP1 RETURNDATACOPY RETURNDATASIZE PUSH1 0x0 REVERT JUMPDEST POP POP POP POP PUSH1 0x40 MLOAD RETURNDATASIZE PUSH1 0x1F NOT PUSH1 0x1F DUP3 ADD AND DUP3 ADD DUP1 PUSH1 0x40 MSTORE POP DUP2 ADD SWAP1 PUSH2 0xDD5 SWAP2 SWAP1 PUSH2 0x11F7 JUMP JUMPDEST SWAP1 POP DUP1 PUSH2 0xDE4 JUMPI POP POP PUSH1 0x6 SLOAD SWAP1 JUMP JUMPDEST DUP1 PUSH1 0x4 SLOAD PUSH1 0x5 SLOAD PUSH2 0xDF3 PUSH2 0x6BA JUMP JUMPDEST PUSH2 0xDFD SWAP2 SWAP1 PUSH2 0x123E JUMP JUMPDEST PUSH2 0xE07 SWAP2 SWAP1 PUSH2 0x1255 JUMP JUMPDEST PUSH2 0xE19 SWAP1 PUSH8 0xDE0B6B3A7640000 PUSH2 0x1255 JUMP JUMPDEST PUSH2 0xE23 SWAP2 SWAP1 PUSH2 0x1274 JUMP JUMPDEST PUSH1 0x6 SLOAD PUSH2 0xE30 SWAP2 SWAP1 PUSH2 0x1226 JUMP JUMPDEST SWAP2 POP POP SWAP1 JUMP JUMPDEST PUSH1 0x1 PUSH1 0x1 PUSH1 0xA0 SHL SUB DUP2 AND PUSH1 0x0 SWAP1 DUP2 MSTORE PUSH1 0xB PUSH1 0x20 SWAP1 DUP2 MSTORE PUSH1 0x40 DUP1 DUP4 KECCAK256 SLOAD PUSH1 0xA SWAP1 SWAP3 MSTORE DUP3 KECCAK256 SLOAD PUSH8 0xDE0B6B3A7640000 SWAP1 PUSH2 0xE6C PUSH2 0xD5B JUMP JUMPDEST PUSH2 0xE76 SWAP2 SWAP1 PUSH2 0x123E JUMP JUMPDEST PUSH1 0xC SLOAD PUSH1 0x40 MLOAD PUSH4 0x70A08231 PUSH1 0xE0 SHL DUP2 MSTORE PUSH1 0x1 PUSH1 0x1 PUSH1 0xA0 SHL SUB DUP8 DUP2 AND PUSH1 0x4 DUP4 ADD MSTORE SWAP1 SWAP2 AND SWAP1 PUSH4 0x70A08231 SWAP1 PUSH1 0x24 ADD PUSH1 0x20 PUSH1 0x40 MLOAD DUP1 DUP4 SUB DUP2 DUP7 GAS STATICCALL ISZERO DUP1 ISZERO PUSH2 0xEC0 JUMPI RETURNDATASIZE PUSH1 0x0 DUP1 RETURNDATACOPY RETURNDATASIZE PUSH1 0x0 REVERT JUMPDEST POP POP POP POP PUSH1 0x40 MLOAD RETURNDATASIZE PUSH1 0x1F NOT PUSH1 0x1F DUP3 ADD AND DUP3 ADD DUP1 PUSH1 0x40 MSTORE POP DUP2 ADD SWAP1 PUSH2 0xEE4 SWAP2 SWAP1 PUSH2 0x11F7 JUMP JUMPDEST PUSH2 0xEEE SWAP2 SWAP1 PUSH2 0x1255 JUMP JUMPDEST PUSH2 0xEF8 SWAP2 SWAP1 PUSH2 0x1274 JUMP JUMPDEST PUSH2 0x364 SWAP2 SWAP1 PUSH2 0x1226 JUMP JUMPDEST PUSH1 0x0 PUSH2 0xF57 DUP3 PUSH1 0x40 MLOAD DUP1 PUSH1 0x40 ADD PUSH1 0x40 MSTORE DUP1 PUSH1 0x20 DUP2 MSTORE PUSH1 0x20 ADD PUSH32 0x5361666545524332303A206C6F772D6C6576656C2063616C6C206661696C6564 DUP2 MSTORE POP DUP6 PUSH1 0x1 PUSH1 0x1 PUSH1 0xA0 SHL SUB AND PUSH2 0xFD4 SWAP1 SWAP3 SWAP2 SWAP1 PUSH4 0xFFFFFFFF AND JUMP JUMPDEST DUP1 MLOAD SWAP1 SWAP2 POP ISZERO PUSH2 0x995 JUMPI DUP1 DUP1 PUSH1 0x20 ADD SWAP1 MLOAD DUP2 ADD SWAP1 PUSH2 0xF75 SWAP2 SWAP1 PUSH2 0x1296 JUMP JUMPDEST PUSH2 0x995 JUMPI PUSH1 0x40 MLOAD PUSH3 0x461BCD PUSH1 0xE5 SHL DUP2 MSTORE PUSH1 0x20 PUSH1 0x4 DUP3 ADD MSTORE PUSH1 0x2A PUSH1 0x24 DUP3 ADD MSTORE PUSH32 0x5361666545524332303A204552433230206F7065726174696F6E20646964206E PUSH1 0x44 DUP3 ADD MSTORE PUSH10 0x1BDD081CDD58D8D95959 PUSH1 0xB2 SHL PUSH1 0x64 DUP3 ADD MSTORE PUSH1 0x84 ADD PUSH2 0x395 JUMP JUMPDEST PUSH1 0x60 PUSH2 0xFE3 DUP5 DUP5 PUSH1 0x0 DUP6 PUSH2 0xFEB JUMP JUMPDEST SWAP5 SWAP4 POP POP POP POP JUMP JUMPDEST PUSH1 0x60 DUP3 SELFBALANCE LT ISZERO PUSH2 0x104C JUMPI PUSH1 0x40 MLOAD PUSH3 0x461BCD PUSH1 0xE5 SHL DUP2 MSTORE PUSH1 0x20 PUSH1 0x4 DUP3 ADD MSTORE PUSH1 0x26 PUSH1 0x24 DUP3 ADD MSTORE PUSH32 0x416464726573733A20696E73756666696369656E742062616C616E636520666F PUSH1 0x44 DUP3 ADD MSTORE PUSH6 0x1C8818D85B1B PUSH1 0xD2 SHL PUSH1 0x64 DUP3 ADD MSTORE PUSH1 0x84 ADD PUSH2 0x395 JUMP JUMPDEST PUSH1 0x1 PUSH1 0x1 PUSH1 0xA0 SHL SUB DUP6 AND EXTCODESIZE PUSH2 0x10A3 JUMPI PUSH1 0x40 MLOAD PUSH3 0x461BCD PUSH1 0xE5 SHL DUP2 MSTORE PUSH1 0x20 PUSH1 0x4 DUP3 ADD MSTORE PUSH1 0x1D PUSH1 0x24 DUP3 ADD MSTORE PUSH32 0x416464726573733A2063616C6C20746F206E6F6E2D636F6E7472616374000000 PUSH1 0x44 DUP3 ADD MSTORE PUSH1 0x64 ADD PUSH2 0x395 JUMP JUMPDEST PUSH1 0x0 DUP1 DUP7 PUSH1 0x1 PUSH1 0x1 PUSH1 0xA0 SHL SUB AND DUP6 DUP8 PUSH1 0x40 MLOAD PUSH2 0x10BF SWAP2 SWAP1 PUSH2 0x12DF JUMP JUMPDEST PUSH1 0x0 PUSH1 0x40 MLOAD DUP1 DUP4 SUB DUP2 DUP6 DUP8 GAS CALL SWAP3 POP POP POP RETURNDATASIZE DUP1 PUSH1 0x0 DUP2 EQ PUSH2 0x10FC JUMPI PUSH1 0x40 MLOAD SWAP2 POP PUSH1 0x1F NOT PUSH1 0x3F RETURNDATASIZE ADD AND DUP3 ADD PUSH1 0x40 MSTORE RETURNDATASIZE DUP3 MSTORE RETURNDATASIZE PUSH1 0x0 PUSH1 0x20 DUP5 ADD RETURNDATACOPY PUSH2 0x1101 JUMP JUMPDEST PUSH1 0x60 SWAP2 POP JUMPDEST POP SWAP2 POP SWAP2 POP PUSH2 0x1111 DUP3 DUP3 DUP7 PUSH2 0x111C JUMP JUMPDEST SWAP8 SWAP7 POP POP POP POP POP POP POP JUMP JUMPDEST PUSH1 0x60 DUP4 ISZERO PUSH2 0x112B JUMPI POP DUP2 PUSH2 0xCAA JUMP JUMPDEST DUP3 MLOAD ISZERO PUSH2 0x113B JUMPI DUP3 MLOAD DUP1 DUP5 PUSH1 0x20 ADD REVERT JUMPDEST DUP2 PUSH1 0x40 MLOAD PUSH3 0x461BCD PUSH1 0xE5 SHL DUP2 MSTORE PUSH1 0x4 ADD PUSH2 0x395 SWAP2 SWAP1 PUSH2 0x12FB JUMP JUMPDEST PUSH1 0x0 PUSH1 0x20 DUP3 DUP5 SUB SLT ISZERO PUSH2 0x1167 JUMPI PUSH1 0x0 DUP1 REVERT JUMPDEST DUP2 CALLDATALOAD PUSH1 0x1 PUSH1 0x1 PUSH1 0xA0 SHL SUB DUP2 AND DUP2 EQ PUSH2 0xCAA JUMPI PUSH1 0x0 DUP1 REVERT JUMPDEST PUSH1 0x0 PUSH1 0x20 DUP3 DUP5 SUB SLT ISZERO PUSH2 0x1190 JUMPI PUSH1 0x0 DUP1 REVERT JUMPDEST POP CALLDATALOAD SWAP2 SWAP1 POP JUMP JUMPDEST DUP1 ISZERO ISZERO DUP2 EQ PUSH2 0x7D8 JUMPI PUSH1 0x0 DUP1 REVERT JUMPDEST PUSH1 0x0 PUSH1 0x20 DUP3 DUP5 SUB SLT ISZERO PUSH2 0x11B7 JUMPI PUSH1 0x0 DUP1 REVERT JUMPDEST DUP2 CALLDATALOAD PUSH2 0xCAA DUP2 PUSH2 0x1197 JUMP JUMPDEST PUSH1 0x20 DUP1 DUP3 MSTORE DUP2 DUP2 ADD MSTORE PUSH32 0x4F776E61626C653A2063616C6C6572206973206E6F7420746865206F776E6572 PUSH1 0x40 DUP3 ADD MSTORE PUSH1 0x60 ADD SWAP1 JUMP JUMPDEST PUSH1 0x0 PUSH1 0x20 DUP3 DUP5 SUB SLT ISZERO PUSH2 0x1209 JUMPI PUSH1 0x0 DUP1 REVERT JUMPDEST POP MLOAD SWAP2 SWAP1 POP JUMP JUMPDEST PUSH4 0x4E487B71 PUSH1 0xE0 SHL PUSH1 0x0 MSTORE PUSH1 0x11 PUSH1 0x4 MSTORE PUSH1 0x24 PUSH1 0x0 REVERT JUMPDEST PUSH1 0x0 DUP3 NOT DUP3 GT ISZERO PUSH2 0x1239 JUMPI PUSH2 0x1239 PUSH2 0x1210 JUMP JUMPDEST POP ADD SWAP1 JUMP JUMPDEST PUSH1 0x0 DUP3 DUP3 LT ISZERO PUSH2 0x1250 JUMPI PUSH2 0x1250 PUSH2 0x1210 JUMP JUMPDEST POP SUB SWAP1 JUMP JUMPDEST PUSH1 0x0 DUP2 PUSH1 0x0 NOT DIV DUP4 GT DUP3 ISZERO ISZERO AND ISZERO PUSH2 0x126F JUMPI PUSH2 0x126F PUSH2 0x1210 JUMP JUMPDEST POP MUL SWAP1 JUMP JUMPDEST PUSH1 0x0 DUP3 PUSH2 0x1291 JUMPI PUSH4 0x4E487B71 PUSH1 0xE0 SHL PUSH1 0x0 MSTORE PUSH1 0x12 PUSH1 0x4 MSTORE PUSH1 0x24 PUSH1 0x0 REVERT JUMPDEST POP DIV SWAP1 JUMP JUMPDEST PUSH1 0x0 PUSH1 0x20 DUP3 DUP5 SUB SLT ISZERO PUSH2 0x12A8 JUMPI PUSH1 0x0 DUP1 REVERT JUMPDEST DUP2 MLOAD PUSH2 0xCAA DUP2 PUSH2 0x1197 JUMP JUMPDEST PUSH1 0x0 JUMPDEST DUP4 DUP2 LT ISZERO PUSH2 0x12CE JUMPI DUP2 DUP2 ADD MLOAD DUP4 DUP3 ADD MSTORE PUSH1 0x20 ADD PUSH2 0x12B6 JUMP JUMPDEST DUP4 DUP2 GT ISZERO PUSH2 0xB4D JUMPI POP POP PUSH1 0x0 SWAP2 ADD MSTORE JUMP JUMPDEST PUSH1 0x0 DUP3 MLOAD PUSH2 0x12F1 DUP2 DUP5 PUSH1 0x20 DUP8 ADD PUSH2 0x12B3 JUMP JUMPDEST SWAP2 SWAP1 SWAP2 ADD SWAP3 SWAP2 POP POP JUMP JUMPDEST PUSH1 0x20 DUP2 MSTORE PUSH1 0x0 DUP3 MLOAD DUP1 PUSH1 0x20 DUP5 ADD MSTORE PUSH2 0x131A DUP2 PUSH1 0x40 DUP6 ADD PUSH1 0x20 DUP8 ADD PUSH2 0x12B3 JUMP JUMPDEST PUSH1 0x1F ADD PUSH1 0x1F NOT AND SWAP2 SWAP1 SWAP2 ADD PUSH1 0x40 ADD SWAP3 SWAP2 POP POP JUMP INVALID LOG2 PUSH5 0x6970667358 0x22 SLT KECCAK256 DUP7 0xF9 PUSH6 0x776258280102 STOP SWAP9 STOP 0xF RETURNDATACOPY PUSH8 0xF62F1FFDF43E693F SHL 0xD0 0xC6 SAR 0x4F SWAP1 0xEA DUP8 SWAP5 PUSH5 0x736F6C6343 STOP ADDMOD 0xC STOP CALLER ",
  "sha1": "2376d2944980375cf441c3aeea7062320f965963",
  "source": "// SPDX-License-Identifier: MIT\npragma solidity 0.8.12;\n\nimport \"@openzeppelin/contracts/token/ERC20/IERC20.sol\";\nimport \"@openzeppelin/contracts/token/ERC20/utils/SafeERC20.sol\";\nimport \"@openzeppelin/contracts/utils/math/Math.sol\";\nimport \"./interfaces/IVotingEscrow.sol\";\nimport \"./BaseGauge.sol\";\n\n/** @title VeYfiRewards\n    @notice Gauge like contract that simulate veYFI stake.\n */\n\ncontract VeYfiRewards is BaseGauge {\n    using SafeERC20 for IERC20;\n\n    address public veToken; // immutable\n    event UpdatedVeToken(address ve);\n\n    constructor(\n        address _veToken,\n        address _rewardToken,\n        address _owner\n    ) {\n        __initialize(_rewardToken, _owner);\n        veToken = _veToken;\n    }\n\n    function setVe(address _ve) external onlyOwner {\n        veToken = _ve;\n        emit UpdatedVeToken(_ve);\n    }\n\n    function _updateReward(address account) internal override {\n        rewardPerTokenStored = _rewardPerToken();\n        lastUpdateTime = lastTimeRewardApplicable();\n\n        if (account != address(0)) {\n            rewards[account] = _earnedReward(account);\n            userRewardPerTokenPaid[account] = rewardPerTokenStored;\n            emit UpdatedRewards(\n                account,\n                rewardPerTokenStored,\n                lastUpdateTime,\n                rewards[account],\n                userRewardPerTokenPaid[account]\n            );\n        }\n    }\n\n    function _rewardPerToken() internal view override returns (uint256) {\n        uint256 supply = IVotingEscrow(veToken).totalSupply();\n        if (supply == 0) {\n            return rewardPerTokenStored;\n        }\n        return\n            rewardPerTokenStored +\n            (((lastTimeRewardApplicable() - lastUpdateTime) *\n                rewardRate *\n                1e18) / supply);\n    }\n\n    function _earnedReward(address account) internal view returns (uint256) {\n        return\n            (IVotingEscrow(veToken).balanceOf(account) *\n                (_rewardPerToken() - userRewardPerTokenPaid[account])) /\n            1e18 +\n            rewards[account];\n    }\n\n    function _newEarning(address account)\n        internal\n        view\n        override\n        returns (uint256)\n    {\n        return _earnedReward(account);\n    }\n\n    /** @notice use to update rewards on veYFI balance changes.\n        @dev called by veYFI\n     *  @return true\n     */\n    function rewardCheckpoint(address _account)\n        external\n        updateReward(_account)\n        returns (bool)\n    {\n        require(msg.sender == address(veToken), \"!authorized\");\n\n        return true;\n    }\n\n    /**\n     * @notice\n     *  Get rewards for an account\n     * @dev rewards are transfer to _account\n     * @param account to claim rewards for\n     * @return true\n     */\n    function getRewardFor(address account) external returns (bool) {\n        _getReward(account, false);\n        return true;\n    }\n\n    /**\n     * @notice\n     *  Get rewards\n     * @param _lock should it lock rewards into veYFI\n     * @return true\n     */\n    function getReward(bool _lock) external returns (bool) {\n        _getReward(msg.sender, _lock);\n        return true;\n    }\n\n    /**\n     * @notice\n     *  Get rewards\n     * @return true\n     */\n    function getReward() external returns (bool) {\n        _getReward(msg.sender, false);\n        return true;\n    }\n\n    function _getReward(address _account, bool _lock)\n        internal\n        updateReward(_account)\n    {\n        uint256 reward = rewards[_account];\n        rewards[_account] = 0;\n        if (reward == 0) {\n            return;\n        }\n\n        if (_lock) {\n            rewardToken.approve(address(veToken), reward);\n            IVotingEscrow(veToken).deposit_for(msg.sender, reward);\n        } else {\n            SafeERC20.safeTransfer(rewardToken, _account, reward);\n        }\n\n        emit RewardPaid(_account, reward);\n    }\n\n    function _notProtectedTokens(address _token)\n        internal\n        view\n        override\n        returns (bool)\n    {\n        return\n            _token != address(rewardToken) ||\n            IVotingEscrow(veToken).migration();\n    }\n}\n",
  "sourcePath": "contracts/VeYfiRewards.sol",
  "type": "contract"
}